{
	"data": {
		"bytecode": {
			"linkReferences": {},
			"object": "6080604052348015600e575f80fd5b506102ff8061001c5f395ff3fe608060405234801561000f575f80fd5b5060043610610029575f3560e01c806338836d151461002d575b5f80fd5b61004760048036038101906100429190610148565b61005d565b6040516100549190610208565b60405180910390f35b60605f8285600461006e9190610255565b6100789190610255565b84856100849190610255565b61008e9190610296565b10156100d1576040518060400160405280600f81526020017f496d6167696e61727920726f6f74730000000000000000000000000000000000815250905061010a565b6040518060400160405280600a81526020017f5265616c20726f6f74730000000000000000000000000000000000000000000081525090505b9392505050565b5f80fd5b5f819050919050565b61012781610115565b8114610131575f80fd5b50565b5f813590506101428161011e565b92915050565b5f805f6060848603121561015f5761015e610111565b5b5f61016c86828701610134565b935050602061017d86828701610134565b925050604061018e86828701610134565b9150509250925092565b5f81519050919050565b5f82825260208201905092915050565b8281835e5f83830152505050565b5f601f19601f8301169050919050565b5f6101da82610198565b6101e481856101a2565b93506101f48185602086016101b2565b6101fd816101c0565b840191505092915050565b5f6020820190508181035f83015261022081846101d0565b905092915050565b7f4e487b71000000000000000000000000000000000000000000000000000000005f52601160045260245ffd5b5f61025f82610115565b915061026a83610115565b925082820261027881610115565b9150828204841483151761028f5761028e610228565b5b5092915050565b5f6102a082610115565b91506102ab83610115565b92508282039050818111156102c3576102c2610228565b5b9291505056fea26469706673582212207538243484104e7383376063a5f52f5d03fe8e9c8d18d4a6bea9a765124e098064736f6c634300081a0033",
			"opcodes": "PUSH1 0x80 PUSH1 0x40 MSTORE CALLVALUE DUP1 ISZERO PUSH1 0xE JUMPI PUSH0 DUP1 REVERT JUMPDEST POP PUSH2 0x2FF DUP1 PUSH2 0x1C PUSH0 CODECOPY PUSH0 RETURN INVALID PUSH1 0x80 PUSH1 0x40 MSTORE CALLVALUE DUP1 ISZERO PUSH2 0xF JUMPI PUSH0 DUP1 REVERT JUMPDEST POP PUSH1 0x4 CALLDATASIZE LT PUSH2 0x29 JUMPI PUSH0 CALLDATALOAD PUSH1 0xE0 SHR DUP1 PUSH4 0x38836D15 EQ PUSH2 0x2D JUMPI JUMPDEST PUSH0 DUP1 REVERT JUMPDEST PUSH2 0x47 PUSH1 0x4 DUP1 CALLDATASIZE SUB DUP2 ADD SWAP1 PUSH2 0x42 SWAP2 SWAP1 PUSH2 0x148 JUMP JUMPDEST PUSH2 0x5D JUMP JUMPDEST PUSH1 0x40 MLOAD PUSH2 0x54 SWAP2 SWAP1 PUSH2 0x208 JUMP JUMPDEST PUSH1 0x40 MLOAD DUP1 SWAP2 SUB SWAP1 RETURN JUMPDEST PUSH1 0x60 PUSH0 DUP3 DUP6 PUSH1 0x4 PUSH2 0x6E SWAP2 SWAP1 PUSH2 0x255 JUMP JUMPDEST PUSH2 0x78 SWAP2 SWAP1 PUSH2 0x255 JUMP JUMPDEST DUP5 DUP6 PUSH2 0x84 SWAP2 SWAP1 PUSH2 0x255 JUMP JUMPDEST PUSH2 0x8E SWAP2 SWAP1 PUSH2 0x296 JUMP JUMPDEST LT ISZERO PUSH2 0xD1 JUMPI PUSH1 0x40 MLOAD DUP1 PUSH1 0x40 ADD PUSH1 0x40 MSTORE DUP1 PUSH1 0xF DUP2 MSTORE PUSH1 0x20 ADD PUSH32 0x496D6167696E61727920726F6F74730000000000000000000000000000000000 DUP2 MSTORE POP SWAP1 POP PUSH2 0x10A JUMP JUMPDEST PUSH1 0x40 MLOAD DUP1 PUSH1 0x40 ADD PUSH1 0x40 MSTORE DUP1 PUSH1 0xA DUP2 MSTORE PUSH1 0x20 ADD PUSH32 0x5265616C20726F6F747300000000000000000000000000000000000000000000 DUP2 MSTORE POP SWAP1 POP JUMPDEST SWAP4 SWAP3 POP POP POP JUMP JUMPDEST PUSH0 DUP1 REVERT JUMPDEST PUSH0 DUP2 SWAP1 POP SWAP2 SWAP1 POP JUMP JUMPDEST PUSH2 0x127 DUP2 PUSH2 0x115 JUMP JUMPDEST DUP2 EQ PUSH2 0x131 JUMPI PUSH0 DUP1 REVERT JUMPDEST POP JUMP JUMPDEST PUSH0 DUP2 CALLDATALOAD SWAP1 POP PUSH2 0x142 DUP2 PUSH2 0x11E JUMP JUMPDEST SWAP3 SWAP2 POP POP JUMP JUMPDEST PUSH0 DUP1 PUSH0 PUSH1 0x60 DUP5 DUP7 SUB SLT ISZERO PUSH2 0x15F JUMPI PUSH2 0x15E PUSH2 0x111 JUMP JUMPDEST JUMPDEST PUSH0 PUSH2 0x16C DUP7 DUP3 DUP8 ADD PUSH2 0x134 JUMP JUMPDEST SWAP4 POP POP PUSH1 0x20 PUSH2 0x17D DUP7 DUP3 DUP8 ADD PUSH2 0x134 JUMP JUMPDEST SWAP3 POP POP PUSH1 0x40 PUSH2 0x18E DUP7 DUP3 DUP8 ADD PUSH2 0x134 JUMP JUMPDEST SWAP2 POP POP SWAP3 POP SWAP3 POP SWAP3 JUMP JUMPDEST PUSH0 DUP2 MLOAD SWAP1 POP SWAP2 SWAP1 POP JUMP JUMPDEST PUSH0 DUP3 DUP3 MSTORE PUSH1 0x20 DUP3 ADD SWAP1 POP SWAP3 SWAP2 POP POP JUMP JUMPDEST DUP3 DUP2 DUP4 MCOPY PUSH0 DUP4 DUP4 ADD MSTORE POP POP POP JUMP JUMPDEST PUSH0 PUSH1 0x1F NOT PUSH1 0x1F DUP4 ADD AND SWAP1 POP SWAP2 SWAP1 POP JUMP JUMPDEST PUSH0 PUSH2 0x1DA DUP3 PUSH2 0x198 JUMP JUMPDEST PUSH2 0x1E4 DUP2 DUP6 PUSH2 0x1A2 JUMP JUMPDEST SWAP4 POP PUSH2 0x1F4 DUP2 DUP6 PUSH1 0x20 DUP7 ADD PUSH2 0x1B2 JUMP JUMPDEST PUSH2 0x1FD DUP2 PUSH2 0x1C0 JUMP JUMPDEST DUP5 ADD SWAP2 POP POP SWAP3 SWAP2 POP POP JUMP JUMPDEST PUSH0 PUSH1 0x20 DUP3 ADD SWAP1 POP DUP2 DUP2 SUB PUSH0 DUP4 ADD MSTORE PUSH2 0x220 DUP2 DUP5 PUSH2 0x1D0 JUMP JUMPDEST SWAP1 POP SWAP3 SWAP2 POP POP JUMP JUMPDEST PUSH32 0x4E487B7100000000000000000000000000000000000000000000000000000000 PUSH0 MSTORE PUSH1 0x11 PUSH1 0x4 MSTORE PUSH1 0x24 PUSH0 REVERT JUMPDEST PUSH0 PUSH2 0x25F DUP3 PUSH2 0x115 JUMP JUMPDEST SWAP2 POP PUSH2 0x26A DUP4 PUSH2 0x115 JUMP JUMPDEST SWAP3 POP DUP3 DUP3 MUL PUSH2 0x278 DUP2 PUSH2 0x115 JUMP JUMPDEST SWAP2 POP DUP3 DUP3 DIV DUP5 EQ DUP4 ISZERO OR PUSH2 0x28F JUMPI PUSH2 0x28E PUSH2 0x228 JUMP JUMPDEST JUMPDEST POP SWAP3 SWAP2 POP POP JUMP JUMPDEST PUSH0 PUSH2 0x2A0 DUP3 PUSH2 0x115 JUMP JUMPDEST SWAP2 POP PUSH2 0x2AB DUP4 PUSH2 0x115 JUMP JUMPDEST SWAP3 POP DUP3 DUP3 SUB SWAP1 POP DUP2 DUP2 GT ISZERO PUSH2 0x2C3 JUMPI PUSH2 0x2C2 PUSH2 0x228 JUMP JUMPDEST JUMPDEST SWAP3 SWAP2 POP POP JUMP INVALID LOG2 PUSH5 0x6970667358 0x22 SLT KECCAK256 PUSH22 0x38243484104E7383376063A5F52F5D03FE8E9C8D18D4 0xA6 0xBE 0xA9 0xA7 PUSH6 0x124E09806473 PUSH16 0x6C634300081A00330000000000000000 "
		},
		"gasEstimates": {
			"creation": {
				"codeDepositCost": "153400",
				"executionCost": "194",
				"totalCost": "153594"
			},
			"external": {
				"checkRoot(uint256,uint256,uint256)": "infinite"
			}
		},
		"methodIdentifiers": {
			"checkRoot(uint256,uint256,uint256)": "38836d15"
		}
	},
	"abi": [
		{
			"inputs": [
				{
					"internalType": "uint256",
					"name": "a",
					"type": "uint256"
				},
				{
					"internalType": "uint256",
					"name": "b",
					"type": "uint256"
				},
				{
					"internalType": "uint256",
					"name": "c",
					"type": "uint256"
				}
			],
			"name": "checkRoot",
			"outputs": [
				{
					"internalType": "string",
					"name": "",
					"type": "string"
				}
			],
			"stateMutability": "pure",
			"type": "function"
		}
	]
}