{
	"Day06/d6p3.sol": {
		"Triangle": {
			"abi": [
				{
					"inputs": [],
					"name": "getArea",
					"outputs": [
						{
							"internalType": "uint256",
							"name": "",
							"type": "uint256"
						}
					],
					"stateMutability": "view",
					"type": "function"
				},
				{
					"inputs": [],
					"name": "getPerimeter",
					"outputs": [
						{
							"internalType": "uint256",
							"name": "",
							"type": "uint256"
						}
					],
					"stateMutability": "view",
					"type": "function"
				},
				{
					"inputs": [
						{
							"internalType": "uint256",
							"name": "_s1",
							"type": "uint256"
						},
						{
							"internalType": "uint256",
							"name": "_s2",
							"type": "uint256"
						},
						{
							"internalType": "uint256",
							"name": "_s3",
							"type": "uint256"
						}
					],
					"name": "setInput",
					"outputs": [],
					"stateMutability": "nonpayable",
					"type": "function"
				}
			],
			"devdoc": {
				"kind": "dev",
				"methods": {},
				"version": 1
			},
			"evm": {
				"assembly": "    /* \"Day06/d6p3.sol\":1337:1830  contract Triangle is Shape {... */\n  mstore(0x40, 0x80)\n    /* \"Day06/d6p3.sol\":237:243  10**18 */\n  0x0de0b6b3a7640000\n    /* \"Day06/d6p3.sol\":221:243  uint256 scale = 10**18 */\n  0x00\n  sstore\n    /* \"Day06/d6p3.sol\":1337:1830  contract Triangle is Shape {... */\n  callvalue\n  dup1\n  iszero\n  tag_1\n  jumpi\n  0x00\n  dup1\n  revert\ntag_1:\n  pop\n  dataSize(sub_0)\n  dup1\n  dataOffset(sub_0)\n  0x00\n  codecopy\n  0x00\n  return\nstop\n\nsub_0: assembly {\n        /* \"Day06/d6p3.sol\":1337:1830  contract Triangle is Shape {... */\n      mstore(0x40, 0x80)\n      callvalue\n      dup1\n      iszero\n      tag_1\n      jumpi\n      0x00\n      dup1\n      revert\n    tag_1:\n      pop\n      jumpi(tag_2, lt(calldatasize, 0x04))\n      shr(0xe0, calldataload(0x00))\n      dup1\n      0x7ebeb19c\n      eq\n      tag_3\n      jumpi\n      dup1\n      0x85be3e62\n      eq\n      tag_4\n      jumpi\n      dup1\n      0xbae7e9e5\n      eq\n      tag_5\n      jumpi\n    tag_2:\n      0x00\n      dup1\n      revert\n        /* \"Day06/d6p3.sol\":1561:1663  function getPerimeter() public view override returns (uint256){... */\n    tag_3:\n      tag_6\n      tag_7\n      jump\t// in\n    tag_6:\n      mload(0x40)\n      tag_8\n      swap2\n      swap1\n      tag_9\n      jump\t// in\n    tag_8:\n      mload(0x40)\n      dup1\n      swap2\n      sub\n      swap1\n      return\n        /* \"Day06/d6p3.sol\":1671:1827  function getArea() public view override returns (uint256){... */\n    tag_4:\n      tag_10\n      tag_11\n      jump\t// in\n    tag_10:\n      mload(0x40)\n      tag_12\n      swap2\n      swap1\n      tag_9\n      jump\t// in\n    tag_12:\n      mload(0x40)\n      dup1\n      swap2\n      sub\n      swap1\n      return\n        /* \"Day06/d6p3.sol\":1424:1553  function setInput(uint256 _s1, uint256 _s2, uint256 _s3) public {... */\n    tag_5:\n      tag_13\n      0x04\n      dup1\n      calldatasize\n      sub\n      dup2\n      add\n      swap1\n      tag_14\n      swap2\n      swap1\n      tag_15\n      jump\t// in\n    tag_14:\n      tag_16\n      jump\t// in\n    tag_13:\n      stop\n        /* \"Day06/d6p3.sol\":1561:1663  function getPerimeter() public view override returns (uint256){... */\n    tag_7:\n        /* \"Day06/d6p3.sol\":1615:1622  uint256 */\n      0x00\n        /* \"Day06/d6p3.sol\":1652:1654  s3 */\n      sload(0x03)\n        /* \"Day06/d6p3.sol\":1647:1649  s2 */\n      sload(0x02)\n        /* \"Day06/d6p3.sol\":1642:1644  s1 */\n      sload(0x01)\n        /* \"Day06/d6p3.sol\":1642:1649  s1 + s2 */\n      tag_18\n      swap2\n      swap1\n      tag_19\n      jump\t// in\n    tag_18:\n        /* \"Day06/d6p3.sol\":1642:1654  s1 + s2 + s3 */\n      tag_20\n      swap2\n      swap1\n      tag_19\n      jump\t// in\n    tag_20:\n        /* \"Day06/d6p3.sol\":1634:1655  return (s1 + s2 + s3) */\n      swap1\n      pop\n        /* \"Day06/d6p3.sol\":1561:1663  function getPerimeter() public view override returns (uint256){... */\n      swap1\n      jump\t// out\n        /* \"Day06/d6p3.sol\":1671:1827  function getArea() public view override returns (uint256){... */\n    tag_11:\n        /* \"Day06/d6p3.sol\":1720:1727  uint256 */\n      0x00\n        /* \"Day06/d6p3.sol\":1739:1748  uint256 s */\n      dup1\n        /* \"Day06/d6p3.sol\":1762:1763  2 */\n      0x02\n        /* \"Day06/d6p3.sol\":1758:1760  s3 */\n      sload(0x03)\n        /* \"Day06/d6p3.sol\":1755:1757  s2 */\n      sload(0x02)\n        /* \"Day06/d6p3.sol\":1752:1754  s1 */\n      sload(0x01)\n        /* \"Day06/d6p3.sol\":1752:1757  s1+s2 */\n      tag_22\n      swap2\n      swap1\n      tag_19\n      jump\t// in\n    tag_22:\n        /* \"Day06/d6p3.sol\":1752:1760  s1+s2+s3 */\n      tag_23\n      swap2\n      swap1\n      tag_19\n      jump\t// in\n    tag_23:\n        /* \"Day06/d6p3.sol\":1751:1763  (s1+s2+s3)/2 */\n      tag_24\n      swap2\n      swap1\n      tag_25\n      jump\t// in\n    tag_24:\n        /* \"Day06/d6p3.sol\":1739:1763  uint256 s = (s1+s2+s3)/2 */\n      swap1\n      pop\n        /* \"Day06/d6p3.sol\":1781:1819  Math.sqrt((s *(s-s1)*(s - s2)*(s-s3))) */\n      tag_26\n        /* \"Day06/d6p3.sol\":1814:1816  s3 */\n      sload(0x03)\n        /* \"Day06/d6p3.sol\":1812:1813  s */\n      dup3\n        /* \"Day06/d6p3.sol\":1812:1816  s-s3 */\n      tag_27\n      swap2\n      swap1\n      tag_28\n      jump\t// in\n    tag_27:\n        /* \"Day06/d6p3.sol\":1807:1809  s2 */\n      sload(0x02)\n        /* \"Day06/d6p3.sol\":1803:1804  s */\n      dup4\n        /* \"Day06/d6p3.sol\":1803:1809  s - s2 */\n      tag_29\n      swap2\n      swap1\n      tag_28\n      jump\t// in\n    tag_29:\n        /* \"Day06/d6p3.sol\":1798:1800  s1 */\n      sload(0x01)\n        /* \"Day06/d6p3.sol\":1796:1797  s */\n      dup5\n        /* \"Day06/d6p3.sol\":1796:1800  s-s1 */\n      tag_30\n      swap2\n      swap1\n      tag_28\n      jump\t// in\n    tag_30:\n        /* \"Day06/d6p3.sol\":1792:1793  s */\n      dup5\n        /* \"Day06/d6p3.sol\":1792:1801  s *(s-s1) */\n      tag_31\n      swap2\n      swap1\n      tag_32\n      jump\t// in\n    tag_31:\n        /* \"Day06/d6p3.sol\":1792:1810  s *(s-s1)*(s - s2) */\n      tag_33\n      swap2\n      swap1\n      tag_32\n      jump\t// in\n    tag_33:\n        /* \"Day06/d6p3.sol\":1792:1817  s *(s-s1)*(s - s2)*(s-s3) */\n      tag_34\n      swap2\n      swap1\n      tag_32\n      jump\t// in\n    tag_34:\n        /* \"Day06/d6p3.sol\":1781:1790  Math.sqrt */\n      tag_35\n        /* \"Day06/d6p3.sol\":1781:1819  Math.sqrt((s *(s-s1)*(s - s2)*(s-s3))) */\n      jump\t// in\n    tag_26:\n        /* \"Day06/d6p3.sol\":1774:1819  return Math.sqrt((s *(s-s1)*(s - s2)*(s-s3))) */\n      swap2\n      pop\n      pop\n        /* \"Day06/d6p3.sol\":1671:1827  function getArea() public view override returns (uint256){... */\n      swap1\n      jump\t// out\n        /* \"Day06/d6p3.sol\":1424:1553  function setInput(uint256 _s1, uint256 _s2, uint256 _s3) public {... */\n    tag_16:\n        /* \"Day06/d6p3.sol\":1504:1507  _s1 */\n      dup3\n        /* \"Day06/d6p3.sol\":1499:1501  s1 */\n      0x01\n        /* \"Day06/d6p3.sol\":1499:1507  s1 = _s1 */\n      dup2\n      swap1\n      sstore\n      pop\n        /* \"Day06/d6p3.sol\":1523:1526  _s2 */\n      dup2\n        /* \"Day06/d6p3.sol\":1518:1520  s2 */\n      0x02\n        /* \"Day06/d6p3.sol\":1518:1526  s2 = _s2 */\n      dup2\n      swap1\n      sstore\n      pop\n        /* \"Day06/d6p3.sol\":1542:1545  _s3 */\n      dup1\n        /* \"Day06/d6p3.sol\":1537:1539  s3 */\n      0x03\n        /* \"Day06/d6p3.sol\":1537:1545  s3 = _s3 */\n      dup2\n      swap1\n      sstore\n      pop\n        /* \"Day06/d6p3.sol\":1424:1553  function setInput(uint256 _s1, uint256 _s2, uint256 _s3) public {... */\n      pop\n      pop\n      pop\n      jump\t// out\n        /* \"https://raw.githubusercontent.com/OpenZeppelin/openzeppelin-contracts/refs/heads/master/contracts/utils/math/Math.sol\":20570:25751  function sqrt(uint256 a) internal pure returns (uint256) {... */\n    tag_35:\n        /* \"https://raw.githubusercontent.com/OpenZeppelin/openzeppelin-contracts/refs/heads/master/contracts/utils/math/Math.sol\":20618:20625  uint256 */\n      0x00\n        /* \"https://raw.githubusercontent.com/OpenZeppelin/openzeppelin-contracts/refs/heads/master/contracts/utils/math/Math.sol\":20736:20737  1 */\n      0x01\n        /* \"https://raw.githubusercontent.com/OpenZeppelin/openzeppelin-contracts/refs/heads/master/contracts/utils/math/Math.sol\":20731:20732  a */\n      dup3\n        /* \"https://raw.githubusercontent.com/OpenZeppelin/openzeppelin-contracts/refs/heads/master/contracts/utils/math/Math.sol\":20731:20737  a <= 1 */\n      gt\n        /* \"https://raw.githubusercontent.com/OpenZeppelin/openzeppelin-contracts/refs/heads/master/contracts/utils/math/Math.sol\":20727:20780  if (a <= 1) {... */\n      tag_38\n      jumpi\n        /* \"https://raw.githubusercontent.com/OpenZeppelin/openzeppelin-contracts/refs/heads/master/contracts/utils/math/Math.sol\":20764:20765  a */\n      dup2\n        /* \"https://raw.githubusercontent.com/OpenZeppelin/openzeppelin-contracts/refs/heads/master/contracts/utils/math/Math.sol\":20757:20765  return a */\n      swap1\n      pop\n      jump(tag_37)\n        /* \"https://raw.githubusercontent.com/OpenZeppelin/openzeppelin-contracts/refs/heads/master/contracts/utils/math/Math.sol\":20727:20780  if (a <= 1) {... */\n    tag_38:\n        /* \"https://raw.githubusercontent.com/OpenZeppelin/openzeppelin-contracts/refs/heads/master/contracts/utils/math/Math.sol\":21707:21717  uint256 aa */\n      0x00\n        /* \"https://raw.githubusercontent.com/OpenZeppelin/openzeppelin-contracts/refs/heads/master/contracts/utils/math/Math.sol\":21720:21721  a */\n      dup3\n        /* \"https://raw.githubusercontent.com/OpenZeppelin/openzeppelin-contracts/refs/heads/master/contracts/utils/math/Math.sol\":21707:21721  uint256 aa = a */\n      swap1\n      pop\n        /* \"https://raw.githubusercontent.com/OpenZeppelin/openzeppelin-contracts/refs/heads/master/contracts/utils/math/Math.sol\":21735:21745  uint256 xn */\n      0x00\n        /* \"https://raw.githubusercontent.com/OpenZeppelin/openzeppelin-contracts/refs/heads/master/contracts/utils/math/Math.sol\":21748:21749  1 */\n      0x01\n        /* \"https://raw.githubusercontent.com/OpenZeppelin/openzeppelin-contracts/refs/heads/master/contracts/utils/math/Math.sol\":21735:21749  uint256 xn = 1 */\n      swap1\n      pop\n        /* \"https://raw.githubusercontent.com/OpenZeppelin/openzeppelin-contracts/refs/heads/master/contracts/utils/math/Math.sol\":21775:21783  1 << 128 */\n      0x0100000000000000000000000000000000\n        /* \"https://raw.githubusercontent.com/OpenZeppelin/openzeppelin-contracts/refs/heads/master/contracts/utils/math/Math.sol\":21768:21770  aa */\n      dup3\n        /* \"https://raw.githubusercontent.com/OpenZeppelin/openzeppelin-contracts/refs/heads/master/contracts/utils/math/Math.sol\":21768:21784  aa >= (1 << 128) */\n      lt\n        /* \"https://raw.githubusercontent.com/OpenZeppelin/openzeppelin-contracts/refs/heads/master/contracts/utils/math/Math.sol\":21764:21856  if (aa >= (1 << 128)) {... */\n      tag_39\n      jumpi\n        /* \"https://raw.githubusercontent.com/OpenZeppelin/openzeppelin-contracts/refs/heads/master/contracts/utils/math/Math.sol\":21811:21814  128 */\n      0x80\n        /* \"https://raw.githubusercontent.com/OpenZeppelin/openzeppelin-contracts/refs/heads/master/contracts/utils/math/Math.sol\":21804:21814  aa >>= 128 */\n      dup3\n      swap1\n      shr\n      swap2\n      pop\n        /* \"https://raw.githubusercontent.com/OpenZeppelin/openzeppelin-contracts/refs/heads/master/contracts/utils/math/Math.sol\":21839:21841  64 */\n      0x40\n        /* \"https://raw.githubusercontent.com/OpenZeppelin/openzeppelin-contracts/refs/heads/master/contracts/utils/math/Math.sol\":21832:21841  xn <<= 64 */\n      dup2\n      swap1\n      shl\n      swap1\n      pop\n        /* \"https://raw.githubusercontent.com/OpenZeppelin/openzeppelin-contracts/refs/heads/master/contracts/utils/math/Math.sol\":21764:21856  if (aa >= (1 << 128)) {... */\n    tag_39:\n        /* \"https://raw.githubusercontent.com/OpenZeppelin/openzeppelin-contracts/refs/heads/master/contracts/utils/math/Math.sol\":21880:21887  1 << 64 */\n      0x010000000000000000\n        /* \"https://raw.githubusercontent.com/OpenZeppelin/openzeppelin-contracts/refs/heads/master/contracts/utils/math/Math.sol\":21873:21875  aa */\n      dup3\n        /* \"https://raw.githubusercontent.com/OpenZeppelin/openzeppelin-contracts/refs/heads/master/contracts/utils/math/Math.sol\":21873:21888  aa >= (1 << 64) */\n      lt\n        /* \"https://raw.githubusercontent.com/OpenZeppelin/openzeppelin-contracts/refs/heads/master/contracts/utils/math/Math.sol\":21869:21959  if (aa >= (1 << 64)) {... */\n      tag_40\n      jumpi\n        /* \"https://raw.githubusercontent.com/OpenZeppelin/openzeppelin-contracts/refs/heads/master/contracts/utils/math/Math.sol\":21915:21917  64 */\n      0x40\n        /* \"https://raw.githubusercontent.com/OpenZeppelin/openzeppelin-contracts/refs/heads/master/contracts/utils/math/Math.sol\":21908:21917  aa >>= 64 */\n      dup3\n      swap1\n      shr\n      swap2\n      pop\n        /* \"https://raw.githubusercontent.com/OpenZeppelin/openzeppelin-contracts/refs/heads/master/contracts/utils/math/Math.sol\":21942:21944  32 */\n      0x20\n        /* \"https://raw.githubusercontent.com/OpenZeppelin/openzeppelin-contracts/refs/heads/master/contracts/utils/math/Math.sol\":21935:21944  xn <<= 32 */\n      dup2\n      swap1\n      shl\n      swap1\n      pop\n        /* \"https://raw.githubusercontent.com/OpenZeppelin/openzeppelin-contracts/refs/heads/master/contracts/utils/math/Math.sol\":21869:21959  if (aa >= (1 << 64)) {... */\n    tag_40:\n        /* \"https://raw.githubusercontent.com/OpenZeppelin/openzeppelin-contracts/refs/heads/master/contracts/utils/math/Math.sol\":21983:21990  1 << 32 */\n      0x0100000000\n        /* \"https://raw.githubusercontent.com/OpenZeppelin/openzeppelin-contracts/refs/heads/master/contracts/utils/math/Math.sol\":21976:21978  aa */\n      dup3\n        /* \"https://raw.githubusercontent.com/OpenZeppelin/openzeppelin-contracts/refs/heads/master/contracts/utils/math/Math.sol\":21976:21991  aa >= (1 << 32) */\n      lt\n        /* \"https://raw.githubusercontent.com/OpenZeppelin/openzeppelin-contracts/refs/heads/master/contracts/utils/math/Math.sol\":21972:22062  if (aa >= (1 << 32)) {... */\n      tag_41\n      jumpi\n        /* \"https://raw.githubusercontent.com/OpenZeppelin/openzeppelin-contracts/refs/heads/master/contracts/utils/math/Math.sol\":22018:22020  32 */\n      0x20\n        /* \"https://raw.githubusercontent.com/OpenZeppelin/openzeppelin-contracts/refs/heads/master/contracts/utils/math/Math.sol\":22011:22020  aa >>= 32 */\n      dup3\n      swap1\n      shr\n      swap2\n      pop\n        /* \"https://raw.githubusercontent.com/OpenZeppelin/openzeppelin-contracts/refs/heads/master/contracts/utils/math/Math.sol\":22045:22047  16 */\n      0x10\n        /* \"https://raw.githubusercontent.com/OpenZeppelin/openzeppelin-contracts/refs/heads/master/contracts/utils/math/Math.sol\":22038:22047  xn <<= 16 */\n      dup2\n      swap1\n      shl\n      swap1\n      pop\n        /* \"https://raw.githubusercontent.com/OpenZeppelin/openzeppelin-contracts/refs/heads/master/contracts/utils/math/Math.sol\":21972:22062  if (aa >= (1 << 32)) {... */\n    tag_41:\n        /* \"https://raw.githubusercontent.com/OpenZeppelin/openzeppelin-contracts/refs/heads/master/contracts/utils/math/Math.sol\":22086:22093  1 << 16 */\n      0x010000\n        /* \"https://raw.githubusercontent.com/OpenZeppelin/openzeppelin-contracts/refs/heads/master/contracts/utils/math/Math.sol\":22079:22081  aa */\n      dup3\n        /* \"https://raw.githubusercontent.com/OpenZeppelin/openzeppelin-contracts/refs/heads/master/contracts/utils/math/Math.sol\":22079:22094  aa >= (1 << 16) */\n      lt\n        /* \"https://raw.githubusercontent.com/OpenZeppelin/openzeppelin-contracts/refs/heads/master/contracts/utils/math/Math.sol\":22075:22164  if (aa >= (1 << 16)) {... */\n      tag_42\n      jumpi\n        /* \"https://raw.githubusercontent.com/OpenZeppelin/openzeppelin-contracts/refs/heads/master/contracts/utils/math/Math.sol\":22121:22123  16 */\n      0x10\n        /* \"https://raw.githubusercontent.com/OpenZeppelin/openzeppelin-contracts/refs/heads/master/contracts/utils/math/Math.sol\":22114:22123  aa >>= 16 */\n      dup3\n      swap1\n      shr\n      swap2\n      pop\n        /* \"https://raw.githubusercontent.com/OpenZeppelin/openzeppelin-contracts/refs/heads/master/contracts/utils/math/Math.sol\":22148:22149  8 */\n      0x08\n        /* \"https://raw.githubusercontent.com/OpenZeppelin/openzeppelin-contracts/refs/heads/master/contracts/utils/math/Math.sol\":22141:22149  xn <<= 8 */\n      dup2\n      swap1\n      shl\n      swap1\n      pop\n        /* \"https://raw.githubusercontent.com/OpenZeppelin/openzeppelin-contracts/refs/heads/master/contracts/utils/math/Math.sol\":22075:22164  if (aa >= (1 << 16)) {... */\n    tag_42:\n        /* \"https://raw.githubusercontent.com/OpenZeppelin/openzeppelin-contracts/refs/heads/master/contracts/utils/math/Math.sol\":22188:22194  1 << 8 */\n      0x0100\n        /* \"https://raw.githubusercontent.com/OpenZeppelin/openzeppelin-contracts/refs/heads/master/contracts/utils/math/Math.sol\":22181:22183  aa */\n      dup3\n        /* \"https://raw.githubusercontent.com/OpenZeppelin/openzeppelin-contracts/refs/heads/master/contracts/utils/math/Math.sol\":22181:22195  aa >= (1 << 8) */\n      lt\n        /* \"https://raw.githubusercontent.com/OpenZeppelin/openzeppelin-contracts/refs/heads/master/contracts/utils/math/Math.sol\":22177:22264  if (aa >= (1 << 8)) {... */\n      tag_43\n      jumpi\n        /* \"https://raw.githubusercontent.com/OpenZeppelin/openzeppelin-contracts/refs/heads/master/contracts/utils/math/Math.sol\":22222:22223  8 */\n      0x08\n        /* \"https://raw.githubusercontent.com/OpenZeppelin/openzeppelin-contracts/refs/heads/master/contracts/utils/math/Math.sol\":22215:22223  aa >>= 8 */\n      dup3\n      swap1\n      shr\n      swap2\n      pop\n        /* \"https://raw.githubusercontent.com/OpenZeppelin/openzeppelin-contracts/refs/heads/master/contracts/utils/math/Math.sol\":22248:22249  4 */\n      0x04\n        /* \"https://raw.githubusercontent.com/OpenZeppelin/openzeppelin-contracts/refs/heads/master/contracts/utils/math/Math.sol\":22241:22249  xn <<= 4 */\n      dup2\n      swap1\n      shl\n      swap1\n      pop\n        /* \"https://raw.githubusercontent.com/OpenZeppelin/openzeppelin-contracts/refs/heads/master/contracts/utils/math/Math.sol\":22177:22264  if (aa >= (1 << 8)) {... */\n    tag_43:\n        /* \"https://raw.githubusercontent.com/OpenZeppelin/openzeppelin-contracts/refs/heads/master/contracts/utils/math/Math.sol\":22288:22294  1 << 4 */\n      0x10\n        /* \"https://raw.githubusercontent.com/OpenZeppelin/openzeppelin-contracts/refs/heads/master/contracts/utils/math/Math.sol\":22281:22283  aa */\n      dup3\n        /* \"https://raw.githubusercontent.com/OpenZeppelin/openzeppelin-contracts/refs/heads/master/contracts/utils/math/Math.sol\":22281:22295  aa >= (1 << 4) */\n      lt\n        /* \"https://raw.githubusercontent.com/OpenZeppelin/openzeppelin-contracts/refs/heads/master/contracts/utils/math/Math.sol\":22277:22364  if (aa >= (1 << 4)) {... */\n      tag_44\n      jumpi\n        /* \"https://raw.githubusercontent.com/OpenZeppelin/openzeppelin-contracts/refs/heads/master/contracts/utils/math/Math.sol\":22322:22323  4 */\n      0x04\n        /* \"https://raw.githubusercontent.com/OpenZeppelin/openzeppelin-contracts/refs/heads/master/contracts/utils/math/Math.sol\":22315:22323  aa >>= 4 */\n      dup3\n      swap1\n      shr\n      swap2\n      pop\n        /* \"https://raw.githubusercontent.com/OpenZeppelin/openzeppelin-contracts/refs/heads/master/contracts/utils/math/Math.sol\":22348:22349  2 */\n      0x02\n        /* \"https://raw.githubusercontent.com/OpenZeppelin/openzeppelin-contracts/refs/heads/master/contracts/utils/math/Math.sol\":22341:22349  xn <<= 2 */\n      dup2\n      swap1\n      shl\n      swap1\n      pop\n        /* \"https://raw.githubusercontent.com/OpenZeppelin/openzeppelin-contracts/refs/heads/master/contracts/utils/math/Math.sol\":22277:22364  if (aa >= (1 << 4)) {... */\n    tag_44:\n        /* \"https://raw.githubusercontent.com/OpenZeppelin/openzeppelin-contracts/refs/heads/master/contracts/utils/math/Math.sol\":22388:22394  1 << 2 */\n      0x04\n        /* \"https://raw.githubusercontent.com/OpenZeppelin/openzeppelin-contracts/refs/heads/master/contracts/utils/math/Math.sol\":22381:22383  aa */\n      dup3\n        /* \"https://raw.githubusercontent.com/OpenZeppelin/openzeppelin-contracts/refs/heads/master/contracts/utils/math/Math.sol\":22381:22395  aa >= (1 << 2) */\n      lt\n        /* \"https://raw.githubusercontent.com/OpenZeppelin/openzeppelin-contracts/refs/heads/master/contracts/utils/math/Math.sol\":22377:22438  if (aa >= (1 << 2)) {... */\n      tag_45\n      jumpi\n        /* \"https://raw.githubusercontent.com/OpenZeppelin/openzeppelin-contracts/refs/heads/master/contracts/utils/math/Math.sol\":22422:22423  1 */\n      0x01\n        /* \"https://raw.githubusercontent.com/OpenZeppelin/openzeppelin-contracts/refs/heads/master/contracts/utils/math/Math.sol\":22415:22423  xn <<= 1 */\n      dup2\n      swap1\n      shl\n      swap1\n      pop\n        /* \"https://raw.githubusercontent.com/OpenZeppelin/openzeppelin-contracts/refs/heads/master/contracts/utils/math/Math.sol\":22377:22438  if (aa >= (1 << 2)) {... */\n    tag_45:\n        /* \"https://raw.githubusercontent.com/OpenZeppelin/openzeppelin-contracts/refs/heads/master/contracts/utils/math/Math.sol\":22875:22876  1 */\n      0x01\n        /* \"https://raw.githubusercontent.com/OpenZeppelin/openzeppelin-contracts/refs/heads/master/contracts/utils/math/Math.sol\":22868:22870  xn */\n      dup2\n        /* \"https://raw.githubusercontent.com/OpenZeppelin/openzeppelin-contracts/refs/heads/master/contracts/utils/math/Math.sol\":22864:22865  3 */\n      0x03\n        /* \"https://raw.githubusercontent.com/OpenZeppelin/openzeppelin-contracts/refs/heads/master/contracts/utils/math/Math.sol\":22864:22870  3 * xn */\n      mul\n        /* \"https://raw.githubusercontent.com/OpenZeppelin/openzeppelin-contracts/refs/heads/master/contracts/utils/math/Math.sol\":22863:22876  (3 * xn) >> 1 */\n      swap1\n      shr\n        /* \"https://raw.githubusercontent.com/OpenZeppelin/openzeppelin-contracts/refs/heads/master/contracts/utils/math/Math.sol\":22858:22876  xn = (3 * xn) >> 1 */\n      swap1\n      pop\n        /* \"https://raw.githubusercontent.com/OpenZeppelin/openzeppelin-contracts/refs/heads/master/contracts/utils/math/Math.sol\":24785:24786  1 */\n      0x01\n        /* \"https://raw.githubusercontent.com/OpenZeppelin/openzeppelin-contracts/refs/heads/master/contracts/utils/math/Math.sol\":24778:24780  xn */\n      dup2\n        /* \"https://raw.githubusercontent.com/OpenZeppelin/openzeppelin-contracts/refs/heads/master/contracts/utils/math/Math.sol\":24774:24775  a */\n      dup6\n        /* \"https://raw.githubusercontent.com/OpenZeppelin/openzeppelin-contracts/refs/heads/master/contracts/utils/math/Math.sol\":24774:24780  a / xn */\n      dup2\n      tag_46\n      jumpi\n      tag_47\n      tag_48\n      jump\t// in\n    tag_47:\n    tag_46:\n      div\n        /* \"https://raw.githubusercontent.com/OpenZeppelin/openzeppelin-contracts/refs/heads/master/contracts/utils/math/Math.sol\":24769:24771  xn */\n      dup3\n        /* \"https://raw.githubusercontent.com/OpenZeppelin/openzeppelin-contracts/refs/heads/master/contracts/utils/math/Math.sol\":24769:24780  xn + a / xn */\n      add\n        /* \"https://raw.githubusercontent.com/OpenZeppelin/openzeppelin-contracts/refs/heads/master/contracts/utils/math/Math.sol\":24768:24786  (xn + a / xn) >> 1 */\n      swap1\n      shr\n        /* \"https://raw.githubusercontent.com/OpenZeppelin/openzeppelin-contracts/refs/heads/master/contracts/utils/math/Math.sol\":24763:24786  xn = (xn + a / xn) >> 1 */\n      swap1\n      pop\n        /* \"https://raw.githubusercontent.com/OpenZeppelin/openzeppelin-contracts/refs/heads/master/contracts/utils/math/Math.sol\":24894:24895  1 */\n      0x01\n        /* \"https://raw.githubusercontent.com/OpenZeppelin/openzeppelin-contracts/refs/heads/master/contracts/utils/math/Math.sol\":24887:24889  xn */\n      dup2\n        /* \"https://raw.githubusercontent.com/OpenZeppelin/openzeppelin-contracts/refs/heads/master/contracts/utils/math/Math.sol\":24883:24884  a */\n      dup6\n        /* \"https://raw.githubusercontent.com/OpenZeppelin/openzeppelin-contracts/refs/heads/master/contracts/utils/math/Math.sol\":24883:24889  a / xn */\n      dup2\n      tag_49\n      jumpi\n      tag_50\n      tag_48\n      jump\t// in\n    tag_50:\n    tag_49:\n      div\n        /* \"https://raw.githubusercontent.com/OpenZeppelin/openzeppelin-contracts/refs/heads/master/contracts/utils/math/Math.sol\":24878:24880  xn */\n      dup3\n        /* \"https://raw.githubusercontent.com/OpenZeppelin/openzeppelin-contracts/refs/heads/master/contracts/utils/math/Math.sol\":24878:24889  xn + a / xn */\n      add\n        /* \"https://raw.githubusercontent.com/OpenZeppelin/openzeppelin-contracts/refs/heads/master/contracts/utils/math/Math.sol\":24877:24895  (xn + a / xn) >> 1 */\n      swap1\n      shr\n        /* \"https://raw.githubusercontent.com/OpenZeppelin/openzeppelin-contracts/refs/heads/master/contracts/utils/math/Math.sol\":24872:24895  xn = (xn + a / xn) >> 1 */\n      swap1\n      pop\n        /* \"https://raw.githubusercontent.com/OpenZeppelin/openzeppelin-contracts/refs/heads/master/contracts/utils/math/Math.sol\":25005:25006  1 */\n      0x01\n        /* \"https://raw.githubusercontent.com/OpenZeppelin/openzeppelin-contracts/refs/heads/master/contracts/utils/math/Math.sol\":24998:25000  xn */\n      dup2\n        /* \"https://raw.githubusercontent.com/OpenZeppelin/openzeppelin-contracts/refs/heads/master/contracts/utils/math/Math.sol\":24994:24995  a */\n      dup6\n        /* \"https://raw.githubusercontent.com/OpenZeppelin/openzeppelin-contracts/refs/heads/master/contracts/utils/math/Math.sol\":24994:25000  a / xn */\n      dup2\n      tag_51\n      jumpi\n      tag_52\n      tag_48\n      jump\t// in\n    tag_52:\n    tag_51:\n      div\n        /* \"https://raw.githubusercontent.com/OpenZeppelin/openzeppelin-contracts/refs/heads/master/contracts/utils/math/Math.sol\":24989:24991  xn */\n      dup3\n        /* \"https://raw.githubusercontent.com/OpenZeppelin/openzeppelin-contracts/refs/heads/master/contracts/utils/math/Math.sol\":24989:25000  xn + a / xn */\n      add\n        /* \"https://raw.githubusercontent.com/OpenZeppelin/openzeppelin-contracts/refs/heads/master/contracts/utils/math/Math.sol\":24988:25006  (xn + a / xn) >> 1 */\n      swap1\n      shr\n        /* \"https://raw.githubusercontent.com/OpenZeppelin/openzeppelin-contracts/refs/heads/master/contracts/utils/math/Math.sol\":24983:25006  xn = (xn + a / xn) >> 1 */\n      swap1\n      pop\n        /* \"https://raw.githubusercontent.com/OpenZeppelin/openzeppelin-contracts/refs/heads/master/contracts/utils/math/Math.sol\":25114:25115  1 */\n      0x01\n        /* \"https://raw.githubusercontent.com/OpenZeppelin/openzeppelin-contracts/refs/heads/master/contracts/utils/math/Math.sol\":25107:25109  xn */\n      dup2\n        /* \"https://raw.githubusercontent.com/OpenZeppelin/openzeppelin-contracts/refs/heads/master/contracts/utils/math/Math.sol\":25103:25104  a */\n      dup6\n        /* \"https://raw.githubusercontent.com/OpenZeppelin/openzeppelin-contracts/refs/heads/master/contracts/utils/math/Math.sol\":25103:25109  a / xn */\n      dup2\n      tag_53\n      jumpi\n      tag_54\n      tag_48\n      jump\t// in\n    tag_54:\n    tag_53:\n      div\n        /* \"https://raw.githubusercontent.com/OpenZeppelin/openzeppelin-contracts/refs/heads/master/contracts/utils/math/Math.sol\":25098:25100  xn */\n      dup3\n        /* \"https://raw.githubusercontent.com/OpenZeppelin/openzeppelin-contracts/refs/heads/master/contracts/utils/math/Math.sol\":25098:25109  xn + a / xn */\n      add\n        /* \"https://raw.githubusercontent.com/OpenZeppelin/openzeppelin-contracts/refs/heads/master/contracts/utils/math/Math.sol\":25097:25115  (xn + a / xn) >> 1 */\n      swap1\n      shr\n        /* \"https://raw.githubusercontent.com/OpenZeppelin/openzeppelin-contracts/refs/heads/master/contracts/utils/math/Math.sol\":25092:25115  xn = (xn + a / xn) >> 1 */\n      swap1\n      pop\n        /* \"https://raw.githubusercontent.com/OpenZeppelin/openzeppelin-contracts/refs/heads/master/contracts/utils/math/Math.sol\":25224:25225  1 */\n      0x01\n        /* \"https://raw.githubusercontent.com/OpenZeppelin/openzeppelin-contracts/refs/heads/master/contracts/utils/math/Math.sol\":25217:25219  xn */\n      dup2\n        /* \"https://raw.githubusercontent.com/OpenZeppelin/openzeppelin-contracts/refs/heads/master/contracts/utils/math/Math.sol\":25213:25214  a */\n      dup6\n        /* \"https://raw.githubusercontent.com/OpenZeppelin/openzeppelin-contracts/refs/heads/master/contracts/utils/math/Math.sol\":25213:25219  a / xn */\n      dup2\n      tag_55\n      jumpi\n      tag_56\n      tag_48\n      jump\t// in\n    tag_56:\n    tag_55:\n      div\n        /* \"https://raw.githubusercontent.com/OpenZeppelin/openzeppelin-contracts/refs/heads/master/contracts/utils/math/Math.sol\":25208:25210  xn */\n      dup3\n        /* \"https://raw.githubusercontent.com/OpenZeppelin/openzeppelin-contracts/refs/heads/master/contracts/utils/math/Math.sol\":25208:25219  xn + a / xn */\n      add\n        /* \"https://raw.githubusercontent.com/OpenZeppelin/openzeppelin-contracts/refs/heads/master/contracts/utils/math/Math.sol\":25207:25225  (xn + a / xn) >> 1 */\n      swap1\n      shr\n        /* \"https://raw.githubusercontent.com/OpenZeppelin/openzeppelin-contracts/refs/heads/master/contracts/utils/math/Math.sol\":25202:25225  xn = (xn + a / xn) >> 1 */\n      swap1\n      pop\n        /* \"https://raw.githubusercontent.com/OpenZeppelin/openzeppelin-contracts/refs/heads/master/contracts/utils/math/Math.sol\":25334:25335  1 */\n      0x01\n        /* \"https://raw.githubusercontent.com/OpenZeppelin/openzeppelin-contracts/refs/heads/master/contracts/utils/math/Math.sol\":25327:25329  xn */\n      dup2\n        /* \"https://raw.githubusercontent.com/OpenZeppelin/openzeppelin-contracts/refs/heads/master/contracts/utils/math/Math.sol\":25323:25324  a */\n      dup6\n        /* \"https://raw.githubusercontent.com/OpenZeppelin/openzeppelin-contracts/refs/heads/master/contracts/utils/math/Math.sol\":25323:25329  a / xn */\n      dup2\n      tag_57\n      jumpi\n      tag_58\n      tag_48\n      jump\t// in\n    tag_58:\n    tag_57:\n      div\n        /* \"https://raw.githubusercontent.com/OpenZeppelin/openzeppelin-contracts/refs/heads/master/contracts/utils/math/Math.sol\":25318:25320  xn */\n      dup3\n        /* \"https://raw.githubusercontent.com/OpenZeppelin/openzeppelin-contracts/refs/heads/master/contracts/utils/math/Math.sol\":25318:25329  xn + a / xn */\n      add\n        /* \"https://raw.githubusercontent.com/OpenZeppelin/openzeppelin-contracts/refs/heads/master/contracts/utils/math/Math.sol\":25317:25335  (xn + a / xn) >> 1 */\n      swap1\n      shr\n        /* \"https://raw.githubusercontent.com/OpenZeppelin/openzeppelin-contracts/refs/heads/master/contracts/utils/math/Math.sol\":25312:25335  xn = (xn + a / xn) >> 1 */\n      swap1\n      pop\n        /* \"https://raw.githubusercontent.com/OpenZeppelin/openzeppelin-contracts/refs/heads/master/contracts/utils/math/Math.sol\":25706:25734  SafeCast.toUint(xn > a / xn) */\n      tag_59\n        /* \"https://raw.githubusercontent.com/OpenZeppelin/openzeppelin-contracts/refs/heads/master/contracts/utils/math/Math.sol\":25731:25733  xn */\n      dup2\n        /* \"https://raw.githubusercontent.com/OpenZeppelin/openzeppelin-contracts/refs/heads/master/contracts/utils/math/Math.sol\":25727:25728  a */\n      dup6\n        /* \"https://raw.githubusercontent.com/OpenZeppelin/openzeppelin-contracts/refs/heads/master/contracts/utils/math/Math.sol\":25727:25733  a / xn */\n      dup2\n      tag_60\n      jumpi\n      tag_61\n      tag_48\n      jump\t// in\n    tag_61:\n    tag_60:\n      div\n        /* \"https://raw.githubusercontent.com/OpenZeppelin/openzeppelin-contracts/refs/heads/master/contracts/utils/math/Math.sol\":25722:25724  xn */\n      dup3\n        /* \"https://raw.githubusercontent.com/OpenZeppelin/openzeppelin-contracts/refs/heads/master/contracts/utils/math/Math.sol\":25722:25733  xn > a / xn */\n      gt\n        /* \"https://raw.githubusercontent.com/OpenZeppelin/openzeppelin-contracts/refs/heads/master/contracts/utils/math/Math.sol\":25706:25721  SafeCast.toUint */\n      tag_62\n        /* \"https://raw.githubusercontent.com/OpenZeppelin/openzeppelin-contracts/refs/heads/master/contracts/utils/math/Math.sol\":25706:25734  SafeCast.toUint(xn > a / xn) */\n      jump\t// in\n    tag_59:\n        /* \"https://raw.githubusercontent.com/OpenZeppelin/openzeppelin-contracts/refs/heads/master/contracts/utils/math/Math.sol\":25701:25703  xn */\n      dup2\n        /* \"https://raw.githubusercontent.com/OpenZeppelin/openzeppelin-contracts/refs/heads/master/contracts/utils/math/Math.sol\":25701:25734  xn - SafeCast.toUint(xn > a / xn) */\n      sub\n        /* \"https://raw.githubusercontent.com/OpenZeppelin/openzeppelin-contracts/refs/heads/master/contracts/utils/math/Math.sol\":25694:25734  return xn - SafeCast.toUint(xn > a / xn) */\n      swap3\n      pop\n      pop\n      pop\n        /* \"https://raw.githubusercontent.com/OpenZeppelin/openzeppelin-contracts/refs/heads/master/contracts/utils/math/Math.sol\":20570:25751  function sqrt(uint256 a) internal pure returns (uint256) {... */\n    tag_37:\n      swap2\n      swap1\n      pop\n      jump\t// out\n        /* \"https://raw.githubusercontent.com/OpenZeppelin/openzeppelin-contracts/refs/heads/master/contracts/utils/math/SafeCast.sol\":34795:34940  function toUint(bool b) internal pure returns (uint256 u) {... */\n    tag_62:\n        /* \"https://raw.githubusercontent.com/OpenZeppelin/openzeppelin-contracts/refs/heads/master/contracts/utils/math/SafeCast.sol\":34842:34851  uint256 u */\n      0x00\n        /* \"https://raw.githubusercontent.com/OpenZeppelin/openzeppelin-contracts/refs/heads/master/contracts/utils/math/SafeCast.sol\":34921:34922  b */\n      dup2\n        /* \"https://raw.githubusercontent.com/OpenZeppelin/openzeppelin-contracts/refs/heads/master/contracts/utils/math/SafeCast.sol\":34914:34923  iszero(b) */\n      iszero\n        /* \"https://raw.githubusercontent.com/OpenZeppelin/openzeppelin-contracts/refs/heads/master/contracts/utils/math/SafeCast.sol\":34907:34924  iszero(iszero(b)) */\n      iszero\n        /* \"https://raw.githubusercontent.com/OpenZeppelin/openzeppelin-contracts/refs/heads/master/contracts/utils/math/SafeCast.sol\":34902:34924  u := iszero(iszero(b)) */\n      swap1\n      pop\n        /* \"https://raw.githubusercontent.com/OpenZeppelin/openzeppelin-contracts/refs/heads/master/contracts/utils/math/SafeCast.sol\":34795:34940  function toUint(bool b) internal pure returns (uint256 u) {... */\n      swap2\n      swap1\n      pop\n      jump\t// out\n        /* \"#utility.yul\":7:84   */\n    tag_64:\n        /* \"#utility.yul\":44:51   */\n      0x00\n        /* \"#utility.yul\":73:78   */\n      dup2\n        /* \"#utility.yul\":62:78   */\n      swap1\n      pop\n        /* \"#utility.yul\":7:84   */\n      swap2\n      swap1\n      pop\n      jump\t// out\n        /* \"#utility.yul\":90:208   */\n    tag_65:\n        /* \"#utility.yul\":177:201   */\n      tag_75\n        /* \"#utility.yul\":195:200   */\n      dup2\n        /* \"#utility.yul\":177:201   */\n      tag_64\n      jump\t// in\n    tag_75:\n        /* \"#utility.yul\":172:175   */\n      dup3\n        /* \"#utility.yul\":165:202   */\n      mstore\n        /* \"#utility.yul\":90:208   */\n      pop\n      pop\n      jump\t// out\n        /* \"#utility.yul\":214:436   */\n    tag_9:\n        /* \"#utility.yul\":307:311   */\n      0x00\n        /* \"#utility.yul\":345:347   */\n      0x20\n        /* \"#utility.yul\":334:343   */\n      dup3\n        /* \"#utility.yul\":330:348   */\n      add\n        /* \"#utility.yul\":322:348   */\n      swap1\n      pop\n        /* \"#utility.yul\":358:429   */\n      tag_77\n        /* \"#utility.yul\":426:427   */\n      0x00\n        /* \"#utility.yul\":415:424   */\n      dup4\n        /* \"#utility.yul\":411:428   */\n      add\n        /* \"#utility.yul\":402:408   */\n      dup5\n        /* \"#utility.yul\":358:429   */\n      tag_65\n      jump\t// in\n    tag_77:\n        /* \"#utility.yul\":214:436   */\n      swap3\n      swap2\n      pop\n      pop\n      jump\t// out\n        /* \"#utility.yul\":523:640   */\n    tag_67:\n        /* \"#utility.yul\":632:633   */\n      0x00\n        /* \"#utility.yul\":629:630   */\n      dup1\n        /* \"#utility.yul\":622:634   */\n      revert\n        /* \"#utility.yul\":769:891   */\n    tag_69:\n        /* \"#utility.yul\":842:866   */\n      tag_82\n        /* \"#utility.yul\":860:865   */\n      dup2\n        /* \"#utility.yul\":842:866   */\n      tag_64\n      jump\t// in\n    tag_82:\n        /* \"#utility.yul\":835:840   */\n      dup2\n        /* \"#utility.yul\":832:867   */\n      eq\n        /* \"#utility.yul\":822:885   */\n      tag_83\n      jumpi\n        /* \"#utility.yul\":881:882   */\n      0x00\n        /* \"#utility.yul\":878:879   */\n      dup1\n        /* \"#utility.yul\":871:883   */\n      revert\n        /* \"#utility.yul\":822:885   */\n    tag_83:\n        /* \"#utility.yul\":769:891   */\n      pop\n      jump\t// out\n        /* \"#utility.yul\":897:1036   */\n    tag_70:\n        /* \"#utility.yul\":943:948   */\n      0x00\n        /* \"#utility.yul\":981:987   */\n      dup2\n        /* \"#utility.yul\":968:988   */\n      calldataload\n        /* \"#utility.yul\":959:988   */\n      swap1\n      pop\n        /* \"#utility.yul\":997:1030   */\n      tag_85\n        /* \"#utility.yul\":1024:1029   */\n      dup2\n        /* \"#utility.yul\":997:1030   */\n      tag_69\n      jump\t// in\n    tag_85:\n        /* \"#utility.yul\":897:1036   */\n      swap3\n      swap2\n      pop\n      pop\n      jump\t// out\n        /* \"#utility.yul\":1042:1661   */\n    tag_15:\n        /* \"#utility.yul\":1119:1125   */\n      0x00\n        /* \"#utility.yul\":1127:1133   */\n      dup1\n        /* \"#utility.yul\":1135:1141   */\n      0x00\n        /* \"#utility.yul\":1184:1186   */\n      0x60\n        /* \"#utility.yul\":1172:1181   */\n      dup5\n        /* \"#utility.yul\":1163:1170   */\n      dup7\n        /* \"#utility.yul\":1159:1182   */\n      sub\n        /* \"#utility.yul\":1155:1187   */\n      slt\n        /* \"#utility.yul\":1152:1271   */\n      iszero\n      tag_87\n      jumpi\n        /* \"#utility.yul\":1190:1269   */\n      tag_88\n      tag_67\n      jump\t// in\n    tag_88:\n        /* \"#utility.yul\":1152:1271   */\n    tag_87:\n        /* \"#utility.yul\":1310:1311   */\n      0x00\n        /* \"#utility.yul\":1335:1388   */\n      tag_89\n        /* \"#utility.yul\":1380:1387   */\n      dup7\n        /* \"#utility.yul\":1371:1377   */\n      dup3\n        /* \"#utility.yul\":1360:1369   */\n      dup8\n        /* \"#utility.yul\":1356:1378   */\n      add\n        /* \"#utility.yul\":1335:1388   */\n      tag_70\n      jump\t// in\n    tag_89:\n        /* \"#utility.yul\":1325:1388   */\n      swap4\n      pop\n        /* \"#utility.yul\":1281:1398   */\n      pop\n        /* \"#utility.yul\":1437:1439   */\n      0x20\n        /* \"#utility.yul\":1463:1516   */\n      tag_90\n        /* \"#utility.yul\":1508:1515   */\n      dup7\n        /* \"#utility.yul\":1499:1505   */\n      dup3\n        /* \"#utility.yul\":1488:1497   */\n      dup8\n        /* \"#utility.yul\":1484:1506   */\n      add\n        /* \"#utility.yul\":1463:1516   */\n      tag_70\n      jump\t// in\n    tag_90:\n        /* \"#utility.yul\":1453:1516   */\n      swap3\n      pop\n        /* \"#utility.yul\":1408:1526   */\n      pop\n        /* \"#utility.yul\":1565:1567   */\n      0x40\n        /* \"#utility.yul\":1591:1644   */\n      tag_91\n        /* \"#utility.yul\":1636:1643   */\n      dup7\n        /* \"#utility.yul\":1627:1633   */\n      dup3\n        /* \"#utility.yul\":1616:1625   */\n      dup8\n        /* \"#utility.yul\":1612:1634   */\n      add\n        /* \"#utility.yul\":1591:1644   */\n      tag_70\n      jump\t// in\n    tag_91:\n        /* \"#utility.yul\":1581:1644   */\n      swap2\n      pop\n        /* \"#utility.yul\":1536:1654   */\n      pop\n        /* \"#utility.yul\":1042:1661   */\n      swap3\n      pop\n      swap3\n      pop\n      swap3\n      jump\t// out\n        /* \"#utility.yul\":1667:1847   */\n    tag_71:\n        /* \"#utility.yul\":1715:1792   */\n      0x4e487b7100000000000000000000000000000000000000000000000000000000\n        /* \"#utility.yul\":1712:1713   */\n      0x00\n        /* \"#utility.yul\":1705:1793   */\n      mstore\n        /* \"#utility.yul\":1812:1816   */\n      0x11\n        /* \"#utility.yul\":1809:1810   */\n      0x04\n        /* \"#utility.yul\":1802:1817   */\n      mstore\n        /* \"#utility.yul\":1836:1840   */\n      0x24\n        /* \"#utility.yul\":1833:1834   */\n      0x00\n        /* \"#utility.yul\":1826:1841   */\n      revert\n        /* \"#utility.yul\":1853:2044   */\n    tag_19:\n        /* \"#utility.yul\":1893:1896   */\n      0x00\n        /* \"#utility.yul\":1912:1932   */\n      tag_94\n        /* \"#utility.yul\":1930:1931   */\n      dup3\n        /* \"#utility.yul\":1912:1932   */\n      tag_64\n      jump\t// in\n    tag_94:\n        /* \"#utility.yul\":1907:1932   */\n      swap2\n      pop\n        /* \"#utility.yul\":1946:1966   */\n      tag_95\n        /* \"#utility.yul\":1964:1965   */\n      dup4\n        /* \"#utility.yul\":1946:1966   */\n      tag_64\n      jump\t// in\n    tag_95:\n        /* \"#utility.yul\":1941:1966   */\n      swap3\n      pop\n        /* \"#utility.yul\":1989:1990   */\n      dup3\n        /* \"#utility.yul\":1986:1987   */\n      dup3\n        /* \"#utility.yul\":1982:1991   */\n      add\n        /* \"#utility.yul\":1975:1991   */\n      swap1\n      pop\n        /* \"#utility.yul\":2010:2013   */\n      dup1\n        /* \"#utility.yul\":2007:2008   */\n      dup3\n        /* \"#utility.yul\":2004:2014   */\n      gt\n        /* \"#utility.yul\":2001:2037   */\n      iszero\n      tag_96\n      jumpi\n        /* \"#utility.yul\":2017:2035   */\n      tag_97\n      tag_71\n      jump\t// in\n    tag_97:\n        /* \"#utility.yul\":2001:2037   */\n    tag_96:\n        /* \"#utility.yul\":1853:2044   */\n      swap3\n      swap2\n      pop\n      pop\n      jump\t// out\n        /* \"#utility.yul\":2050:2230   */\n    tag_48:\n        /* \"#utility.yul\":2098:2175   */\n      0x4e487b7100000000000000000000000000000000000000000000000000000000\n        /* \"#utility.yul\":2095:2096   */\n      0x00\n        /* \"#utility.yul\":2088:2176   */\n      mstore\n        /* \"#utility.yul\":2195:2199   */\n      0x12\n        /* \"#utility.yul\":2192:2193   */\n      0x04\n        /* \"#utility.yul\":2185:2200   */\n      mstore\n        /* \"#utility.yul\":2219:2223   */\n      0x24\n        /* \"#utility.yul\":2216:2217   */\n      0x00\n        /* \"#utility.yul\":2209:2224   */\n      revert\n        /* \"#utility.yul\":2236:2421   */\n    tag_25:\n        /* \"#utility.yul\":2276:2277   */\n      0x00\n        /* \"#utility.yul\":2293:2313   */\n      tag_100\n        /* \"#utility.yul\":2311:2312   */\n      dup3\n        /* \"#utility.yul\":2293:2313   */\n      tag_64\n      jump\t// in\n    tag_100:\n        /* \"#utility.yul\":2288:2313   */\n      swap2\n      pop\n        /* \"#utility.yul\":2327:2347   */\n      tag_101\n        /* \"#utility.yul\":2345:2346   */\n      dup4\n        /* \"#utility.yul\":2327:2347   */\n      tag_64\n      jump\t// in\n    tag_101:\n        /* \"#utility.yul\":2322:2347   */\n      swap3\n      pop\n        /* \"#utility.yul\":2366:2367   */\n      dup3\n        /* \"#utility.yul\":2356:2391   */\n      tag_102\n      jumpi\n        /* \"#utility.yul\":2371:2389   */\n      tag_103\n      tag_48\n      jump\t// in\n    tag_103:\n        /* \"#utility.yul\":2356:2391   */\n    tag_102:\n        /* \"#utility.yul\":2413:2414   */\n      dup3\n        /* \"#utility.yul\":2410:2411   */\n      dup3\n        /* \"#utility.yul\":2406:2415   */\n      div\n        /* \"#utility.yul\":2401:2415   */\n      swap1\n      pop\n        /* \"#utility.yul\":2236:2421   */\n      swap3\n      swap2\n      pop\n      pop\n      jump\t// out\n        /* \"#utility.yul\":2427:2621   */\n    tag_28:\n        /* \"#utility.yul\":2467:2471   */\n      0x00\n        /* \"#utility.yul\":2487:2507   */\n      tag_105\n        /* \"#utility.yul\":2505:2506   */\n      dup3\n        /* \"#utility.yul\":2487:2507   */\n      tag_64\n      jump\t// in\n    tag_105:\n        /* \"#utility.yul\":2482:2507   */\n      swap2\n      pop\n        /* \"#utility.yul\":2521:2541   */\n      tag_106\n        /* \"#utility.yul\":2539:2540   */\n      dup4\n        /* \"#utility.yul\":2521:2541   */\n      tag_64\n      jump\t// in\n    tag_106:\n        /* \"#utility.yul\":2516:2541   */\n      swap3\n      pop\n        /* \"#utility.yul\":2565:2566   */\n      dup3\n        /* \"#utility.yul\":2562:2563   */\n      dup3\n        /* \"#utility.yul\":2558:2567   */\n      sub\n        /* \"#utility.yul\":2550:2567   */\n      swap1\n      pop\n        /* \"#utility.yul\":2589:2590   */\n      dup2\n        /* \"#utility.yul\":2583:2587   */\n      dup2\n        /* \"#utility.yul\":2580:2591   */\n      gt\n        /* \"#utility.yul\":2577:2614   */\n      iszero\n      tag_107\n      jumpi\n        /* \"#utility.yul\":2594:2612   */\n      tag_108\n      tag_71\n      jump\t// in\n    tag_108:\n        /* \"#utility.yul\":2577:2614   */\n    tag_107:\n        /* \"#utility.yul\":2427:2621   */\n      swap3\n      swap2\n      pop\n      pop\n      jump\t// out\n        /* \"#utility.yul\":2627:3037   */\n    tag_32:\n        /* \"#utility.yul\":2667:2674   */\n      0x00\n        /* \"#utility.yul\":2690:2710   */\n      tag_110\n        /* \"#utility.yul\":2708:2709   */\n      dup3\n        /* \"#utility.yul\":2690:2710   */\n      tag_64\n      jump\t// in\n    tag_110:\n        /* \"#utility.yul\":2685:2710   */\n      swap2\n      pop\n        /* \"#utility.yul\":2724:2744   */\n      tag_111\n        /* \"#utility.yul\":2742:2743   */\n      dup4\n        /* \"#utility.yul\":2724:2744   */\n      tag_64\n      jump\t// in\n    tag_111:\n        /* \"#utility.yul\":2719:2744   */\n      swap3\n      pop\n        /* \"#utility.yul\":2779:2780   */\n      dup3\n        /* \"#utility.yul\":2776:2777   */\n      dup3\n        /* \"#utility.yul\":2772:2781   */\n      mul\n        /* \"#utility.yul\":2801:2831   */\n      tag_112\n        /* \"#utility.yul\":2819:2830   */\n      dup2\n        /* \"#utility.yul\":2801:2831   */\n      tag_64\n      jump\t// in\n    tag_112:\n        /* \"#utility.yul\":2790:2831   */\n      swap2\n      pop\n        /* \"#utility.yul\":2980:2981   */\n      dup3\n        /* \"#utility.yul\":2971:2978   */\n      dup3\n        /* \"#utility.yul\":2967:2982   */\n      div\n        /* \"#utility.yul\":2964:2965   */\n      dup5\n        /* \"#utility.yul\":2961:2983   */\n      eq\n        /* \"#utility.yul\":2941:2942   */\n      dup4\n        /* \"#utility.yul\":2934:2943   */\n      iszero\n        /* \"#utility.yul\":2914:2997   */\n      or\n        /* \"#utility.yul\":2891:3030   */\n      tag_113\n      jumpi\n        /* \"#utility.yul\":3010:3028   */\n      tag_114\n      tag_71\n      jump\t// in\n    tag_114:\n        /* \"#utility.yul\":2891:3030   */\n    tag_113:\n        /* \"#utility.yul\":2675:3037   */\n      pop\n        /* \"#utility.yul\":2627:3037   */\n      swap3\n      swap2\n      pop\n      pop\n      jump\t// out\n\n    auxdata: 0xa2646970667358221220595497ec4a8242114a1bf0e70e551ac8789342eebefa338b3fd8749518eed9cf64736f6c634300081a0033\n}\n",
				"bytecode": {
					"linkReferences": {},
					"object": "6080604052670de0b6b3a76400005f553480156019575f80fd5b50610517806100275f395ff3fe608060405234801561000f575f80fd5b506004361061003f575f3560e01c80637ebeb19c1461004357806385be3e6214610061578063bae7e9e51461007f575b5f80fd5b61004b61009b565b6040516100589190610319565b60405180910390f35b6100696100be565b6040516100769190610319565b60405180910390f35b61009960048036038101906100949190610360565b610142565b005b5f6003546002546001546100af91906103dd565b6100b991906103dd565b905090565b5f8060026003546002546001546100d591906103dd565b6100df91906103dd565b6100e9919061043d565b905061013c600354826100fc919061046d565b6002548361010a919061046d565b60015484610118919061046d565b8461012391906104a0565b61012d91906104a0565b61013791906104a0565b61015c565b91505090565b826001819055508160028190555080600381905550505050565b5f6001821161016d578190506102f1565b5f8290505f60019050700100000000000000000000000000000000821061019d57608082901c9150604081901b90505b6801000000000000000082106101bc57604082901c9150602081901b90505b64010000000082106101d757602082901c9150601081901b90505b6201000082106101f057601082901c9150600881901b90505b610100821061020857600882901c9150600481901b90505b6010821061021f57600482901c9150600281901b90505b6004821061022f57600181901b90505b600181600302901c9050600181858161024b5761024a610410565b5b048201901c9050600181858161026457610263610410565b5b048201901c9050600181858161027d5761027c610410565b5b048201901c9050600181858161029657610295610410565b5b048201901c905060018185816102af576102ae610410565b5b048201901c905060018185816102c8576102c7610410565b5b048201901c90506102ea8185816102e2576102e1610410565b5b0482116102f6565b8103925050505b919050565b5f8115159050919050565b5f819050919050565b61031381610301565b82525050565b5f60208201905061032c5f83018461030a565b92915050565b5f80fd5b61033f81610301565b8114610349575f80fd5b50565b5f8135905061035a81610336565b92915050565b5f805f6060848603121561037757610376610332565b5b5f6103848682870161034c565b93505060206103958682870161034c565b92505060406103a68682870161034c565b9150509250925092565b7f4e487b71000000000000000000000000000000000000000000000000000000005f52601160045260245ffd5b5f6103e782610301565b91506103f283610301565b925082820190508082111561040a576104096103b0565b5b92915050565b7f4e487b71000000000000000000000000000000000000000000000000000000005f52601260045260245ffd5b5f61044782610301565b915061045283610301565b92508261046257610461610410565b5b828204905092915050565b5f61047782610301565b915061048283610301565b925082820390508181111561049a576104996103b0565b5b92915050565b5f6104aa82610301565b91506104b583610301565b92508282026104c381610301565b915082820484148315176104da576104d96103b0565b5b509291505056fea2646970667358221220595497ec4a8242114a1bf0e70e551ac8789342eebefa338b3fd8749518eed9cf64736f6c634300081a0033",
					"opcodes": "PUSH1 0x80 PUSH1 0x40 MSTORE PUSH8 0xDE0B6B3A7640000 PUSH0 SSTORE CALLVALUE DUP1 ISZERO PUSH1 0x19 JUMPI PUSH0 DUP1 REVERT JUMPDEST POP PUSH2 0x517 DUP1 PUSH2 0x27 PUSH0 CODECOPY PUSH0 RETURN INVALID PUSH1 0x80 PUSH1 0x40 MSTORE CALLVALUE DUP1 ISZERO PUSH2 0xF JUMPI PUSH0 DUP1 REVERT JUMPDEST POP PUSH1 0x4 CALLDATASIZE LT PUSH2 0x3F JUMPI PUSH0 CALLDATALOAD PUSH1 0xE0 SHR DUP1 PUSH4 0x7EBEB19C EQ PUSH2 0x43 JUMPI DUP1 PUSH4 0x85BE3E62 EQ PUSH2 0x61 JUMPI DUP1 PUSH4 0xBAE7E9E5 EQ PUSH2 0x7F JUMPI JUMPDEST PUSH0 DUP1 REVERT JUMPDEST PUSH2 0x4B PUSH2 0x9B JUMP JUMPDEST PUSH1 0x40 MLOAD PUSH2 0x58 SWAP2 SWAP1 PUSH2 0x319 JUMP JUMPDEST PUSH1 0x40 MLOAD DUP1 SWAP2 SUB SWAP1 RETURN JUMPDEST PUSH2 0x69 PUSH2 0xBE JUMP JUMPDEST PUSH1 0x40 MLOAD PUSH2 0x76 SWAP2 SWAP1 PUSH2 0x319 JUMP JUMPDEST PUSH1 0x40 MLOAD DUP1 SWAP2 SUB SWAP1 RETURN JUMPDEST PUSH2 0x99 PUSH1 0x4 DUP1 CALLDATASIZE SUB DUP2 ADD SWAP1 PUSH2 0x94 SWAP2 SWAP1 PUSH2 0x360 JUMP JUMPDEST PUSH2 0x142 JUMP JUMPDEST STOP JUMPDEST PUSH0 PUSH1 0x3 SLOAD PUSH1 0x2 SLOAD PUSH1 0x1 SLOAD PUSH2 0xAF SWAP2 SWAP1 PUSH2 0x3DD JUMP JUMPDEST PUSH2 0xB9 SWAP2 SWAP1 PUSH2 0x3DD JUMP JUMPDEST SWAP1 POP SWAP1 JUMP JUMPDEST PUSH0 DUP1 PUSH1 0x2 PUSH1 0x3 SLOAD PUSH1 0x2 SLOAD PUSH1 0x1 SLOAD PUSH2 0xD5 SWAP2 SWAP1 PUSH2 0x3DD JUMP JUMPDEST PUSH2 0xDF SWAP2 SWAP1 PUSH2 0x3DD JUMP JUMPDEST PUSH2 0xE9 SWAP2 SWAP1 PUSH2 0x43D JUMP JUMPDEST SWAP1 POP PUSH2 0x13C PUSH1 0x3 SLOAD DUP3 PUSH2 0xFC SWAP2 SWAP1 PUSH2 0x46D JUMP JUMPDEST PUSH1 0x2 SLOAD DUP4 PUSH2 0x10A SWAP2 SWAP1 PUSH2 0x46D JUMP JUMPDEST PUSH1 0x1 SLOAD DUP5 PUSH2 0x118 SWAP2 SWAP1 PUSH2 0x46D JUMP JUMPDEST DUP5 PUSH2 0x123 SWAP2 SWAP1 PUSH2 0x4A0 JUMP JUMPDEST PUSH2 0x12D SWAP2 SWAP1 PUSH2 0x4A0 JUMP JUMPDEST PUSH2 0x137 SWAP2 SWAP1 PUSH2 0x4A0 JUMP JUMPDEST PUSH2 0x15C JUMP JUMPDEST SWAP2 POP POP SWAP1 JUMP JUMPDEST DUP3 PUSH1 0x1 DUP2 SWAP1 SSTORE POP DUP2 PUSH1 0x2 DUP2 SWAP1 SSTORE POP DUP1 PUSH1 0x3 DUP2 SWAP1 SSTORE POP POP POP POP JUMP JUMPDEST PUSH0 PUSH1 0x1 DUP3 GT PUSH2 0x16D JUMPI DUP2 SWAP1 POP PUSH2 0x2F1 JUMP JUMPDEST PUSH0 DUP3 SWAP1 POP PUSH0 PUSH1 0x1 SWAP1 POP PUSH17 0x100000000000000000000000000000000 DUP3 LT PUSH2 0x19D JUMPI PUSH1 0x80 DUP3 SWAP1 SHR SWAP2 POP PUSH1 0x40 DUP2 SWAP1 SHL SWAP1 POP JUMPDEST PUSH9 0x10000000000000000 DUP3 LT PUSH2 0x1BC JUMPI PUSH1 0x40 DUP3 SWAP1 SHR SWAP2 POP PUSH1 0x20 DUP2 SWAP1 SHL SWAP1 POP JUMPDEST PUSH5 0x100000000 DUP3 LT PUSH2 0x1D7 JUMPI PUSH1 0x20 DUP3 SWAP1 SHR SWAP2 POP PUSH1 0x10 DUP2 SWAP1 SHL SWAP1 POP JUMPDEST PUSH3 0x10000 DUP3 LT PUSH2 0x1F0 JUMPI PUSH1 0x10 DUP3 SWAP1 SHR SWAP2 POP PUSH1 0x8 DUP2 SWAP1 SHL SWAP1 POP JUMPDEST PUSH2 0x100 DUP3 LT PUSH2 0x208 JUMPI PUSH1 0x8 DUP3 SWAP1 SHR SWAP2 POP PUSH1 0x4 DUP2 SWAP1 SHL SWAP1 POP JUMPDEST PUSH1 0x10 DUP3 LT PUSH2 0x21F JUMPI PUSH1 0x4 DUP3 SWAP1 SHR SWAP2 POP PUSH1 0x2 DUP2 SWAP1 SHL SWAP1 POP JUMPDEST PUSH1 0x4 DUP3 LT PUSH2 0x22F JUMPI PUSH1 0x1 DUP2 SWAP1 SHL SWAP1 POP JUMPDEST PUSH1 0x1 DUP2 PUSH1 0x3 MUL SWAP1 SHR SWAP1 POP PUSH1 0x1 DUP2 DUP6 DUP2 PUSH2 0x24B JUMPI PUSH2 0x24A PUSH2 0x410 JUMP JUMPDEST JUMPDEST DIV DUP3 ADD SWAP1 SHR SWAP1 POP PUSH1 0x1 DUP2 DUP6 DUP2 PUSH2 0x264 JUMPI PUSH2 0x263 PUSH2 0x410 JUMP JUMPDEST JUMPDEST DIV DUP3 ADD SWAP1 SHR SWAP1 POP PUSH1 0x1 DUP2 DUP6 DUP2 PUSH2 0x27D JUMPI PUSH2 0x27C PUSH2 0x410 JUMP JUMPDEST JUMPDEST DIV DUP3 ADD SWAP1 SHR SWAP1 POP PUSH1 0x1 DUP2 DUP6 DUP2 PUSH2 0x296 JUMPI PUSH2 0x295 PUSH2 0x410 JUMP JUMPDEST JUMPDEST DIV DUP3 ADD SWAP1 SHR SWAP1 POP PUSH1 0x1 DUP2 DUP6 DUP2 PUSH2 0x2AF JUMPI PUSH2 0x2AE PUSH2 0x410 JUMP JUMPDEST JUMPDEST DIV DUP3 ADD SWAP1 SHR SWAP1 POP PUSH1 0x1 DUP2 DUP6 DUP2 PUSH2 0x2C8 JUMPI PUSH2 0x2C7 PUSH2 0x410 JUMP JUMPDEST JUMPDEST DIV DUP3 ADD SWAP1 SHR SWAP1 POP PUSH2 0x2EA DUP2 DUP6 DUP2 PUSH2 0x2E2 JUMPI PUSH2 0x2E1 PUSH2 0x410 JUMP JUMPDEST JUMPDEST DIV DUP3 GT PUSH2 0x2F6 JUMP JUMPDEST DUP2 SUB SWAP3 POP POP POP JUMPDEST SWAP2 SWAP1 POP JUMP JUMPDEST PUSH0 DUP2 ISZERO ISZERO SWAP1 POP SWAP2 SWAP1 POP JUMP JUMPDEST PUSH0 DUP2 SWAP1 POP SWAP2 SWAP1 POP JUMP JUMPDEST PUSH2 0x313 DUP2 PUSH2 0x301 JUMP JUMPDEST DUP3 MSTORE POP POP JUMP JUMPDEST PUSH0 PUSH1 0x20 DUP3 ADD SWAP1 POP PUSH2 0x32C PUSH0 DUP4 ADD DUP5 PUSH2 0x30A JUMP JUMPDEST SWAP3 SWAP2 POP POP JUMP JUMPDEST PUSH0 DUP1 REVERT JUMPDEST PUSH2 0x33F DUP2 PUSH2 0x301 JUMP JUMPDEST DUP2 EQ PUSH2 0x349 JUMPI PUSH0 DUP1 REVERT JUMPDEST POP JUMP JUMPDEST PUSH0 DUP2 CALLDATALOAD SWAP1 POP PUSH2 0x35A DUP2 PUSH2 0x336 JUMP JUMPDEST SWAP3 SWAP2 POP POP JUMP JUMPDEST PUSH0 DUP1 PUSH0 PUSH1 0x60 DUP5 DUP7 SUB SLT ISZERO PUSH2 0x377 JUMPI PUSH2 0x376 PUSH2 0x332 JUMP JUMPDEST JUMPDEST PUSH0 PUSH2 0x384 DUP7 DUP3 DUP8 ADD PUSH2 0x34C JUMP JUMPDEST SWAP4 POP POP PUSH1 0x20 PUSH2 0x395 DUP7 DUP3 DUP8 ADD PUSH2 0x34C JUMP JUMPDEST SWAP3 POP POP PUSH1 0x40 PUSH2 0x3A6 DUP7 DUP3 DUP8 ADD PUSH2 0x34C JUMP JUMPDEST SWAP2 POP POP SWAP3 POP SWAP3 POP SWAP3 JUMP JUMPDEST PUSH32 0x4E487B7100000000000000000000000000000000000000000000000000000000 PUSH0 MSTORE PUSH1 0x11 PUSH1 0x4 MSTORE PUSH1 0x24 PUSH0 REVERT JUMPDEST PUSH0 PUSH2 0x3E7 DUP3 PUSH2 0x301 JUMP JUMPDEST SWAP2 POP PUSH2 0x3F2 DUP4 PUSH2 0x301 JUMP JUMPDEST SWAP3 POP DUP3 DUP3 ADD SWAP1 POP DUP1 DUP3 GT ISZERO PUSH2 0x40A JUMPI PUSH2 0x409 PUSH2 0x3B0 JUMP JUMPDEST JUMPDEST SWAP3 SWAP2 POP POP JUMP JUMPDEST PUSH32 0x4E487B7100000000000000000000000000000000000000000000000000000000 PUSH0 MSTORE PUSH1 0x12 PUSH1 0x4 MSTORE PUSH1 0x24 PUSH0 REVERT JUMPDEST PUSH0 PUSH2 0x447 DUP3 PUSH2 0x301 JUMP JUMPDEST SWAP2 POP PUSH2 0x452 DUP4 PUSH2 0x301 JUMP JUMPDEST SWAP3 POP DUP3 PUSH2 0x462 JUMPI PUSH2 0x461 PUSH2 0x410 JUMP JUMPDEST JUMPDEST DUP3 DUP3 DIV SWAP1 POP SWAP3 SWAP2 POP POP JUMP JUMPDEST PUSH0 PUSH2 0x477 DUP3 PUSH2 0x301 JUMP JUMPDEST SWAP2 POP PUSH2 0x482 DUP4 PUSH2 0x301 JUMP JUMPDEST SWAP3 POP DUP3 DUP3 SUB SWAP1 POP DUP2 DUP2 GT ISZERO PUSH2 0x49A JUMPI PUSH2 0x499 PUSH2 0x3B0 JUMP JUMPDEST JUMPDEST SWAP3 SWAP2 POP POP JUMP JUMPDEST PUSH0 PUSH2 0x4AA DUP3 PUSH2 0x301 JUMP JUMPDEST SWAP2 POP PUSH2 0x4B5 DUP4 PUSH2 0x301 JUMP JUMPDEST SWAP3 POP DUP3 DUP3 MUL PUSH2 0x4C3 DUP2 PUSH2 0x301 JUMP JUMPDEST SWAP2 POP DUP3 DUP3 DIV DUP5 EQ DUP4 ISZERO OR PUSH2 0x4DA JUMPI PUSH2 0x4D9 PUSH2 0x3B0 JUMP JUMPDEST JUMPDEST POP SWAP3 SWAP2 POP POP JUMP INVALID LOG2 PUSH5 0x6970667358 0x22 SLT KECCAK256 MSIZE SLOAD SWAP8 0xEC BLOBBASEFEE DUP3 TIMESTAMP GT BLOBBASEFEE SHL CREATE 0xE7 0xE SSTORE BYTE 0xC8 PUSH25 0x9342EEBEFA338B3FD8749518EED9CF64736F6C634300081A00 CALLER "
				},
				"gasEstimates": {
					"creation": {
						"codeDepositCost": "260600",
						"executionCost": "22403",
						"totalCost": "283003"
					},
					"external": {
						"getArea()": "infinite",
						"getPerimeter()": "infinite",
						"setInput(uint256,uint256,uint256)": "infinite"
					}
				},
				"methodIdentifiers": {
					"getArea()": "85be3e62",
					"getPerimeter()": "7ebeb19c",
					"setInput(uint256,uint256,uint256)": "bae7e9e5"
				}
			},
			"storageLayout": {
				"storage": [
					{
						"astId": 7,
						"contract": "Day06/d6p3.sol:Triangle",
						"label": "scale",
						"offset": 0,
						"slot": "0",
						"type": "t_uint256"
					},
					{
						"astId": 141,
						"contract": "Day06/d6p3.sol:Triangle",
						"label": "s1",
						"offset": 0,
						"slot": "1",
						"type": "t_uint256"
					},
					{
						"astId": 143,
						"contract": "Day06/d6p3.sol:Triangle",
						"label": "s2",
						"offset": 0,
						"slot": "2",
						"type": "t_uint256"
					},
					{
						"astId": 145,
						"contract": "Day06/d6p3.sol:Triangle",
						"label": "s3",
						"offset": 0,
						"slot": "3",
						"type": "t_uint256"
					}
				],
				"types": {
					"t_uint256": {
						"encoding": "inplace",
						"label": "uint256",
						"numberOfBytes": "32"
					}
				}
			},
			"userdoc": {
				"kind": "user",
				"methods": {},
				"version": 1
			}
		}
	}
}