{
	"Day06/sample.sol": {
		"Programmer": {
			"abi": [
				{
					"inputs": [],
					"stateMutability": "nonpayable",
					"type": "constructor"
				},
				{
					"inputs": [],
					"name": "addr",
					"outputs": [
						{
							"internalType": "string",
							"name": "",
							"type": "string"
						}
					],
					"stateMutability": "view",
					"type": "function"
				},
				{
					"inputs": [],
					"name": "calculateBonus",
					"outputs": [
						{
							"internalType": "uint256",
							"name": "",
							"type": "uint256"
						}
					],
					"stateMutability": "view",
					"type": "function"
				},
				{
					"inputs": [
						{
							"internalType": "string",
							"name": "projectAddress",
							"type": "string"
						},
						{
							"internalType": "string",
							"name": "taskName",
							"type": "string"
						}
					],
					"name": "genPerformance",
					"outputs": [],
					"stateMutability": "nonpayable",
					"type": "function"
				},
				{
					"inputs": [],
					"name": "genPerformance",
					"outputs": [
						{
							"internalType": "uint256",
							"name": "",
							"type": "uint256"
						}
					],
					"stateMutability": "view",
					"type": "function"
				},
				{
					"inputs": [],
					"name": "jobTitle",
					"outputs": [
						{
							"internalType": "string",
							"name": "",
							"type": "string"
						}
					],
					"stateMutability": "view",
					"type": "function"
				},
				{
					"inputs": [],
					"name": "manageProjects",
					"outputs": [],
					"stateMutability": "pure",
					"type": "function"
				},
				{
					"inputs": [],
					"name": "name",
					"outputs": [
						{
							"internalType": "string",
							"name": "",
							"type": "string"
						}
					],
					"stateMutability": "view",
					"type": "function"
				},
				{
					"inputs": [],
					"name": "salary",
					"outputs": [
						{
							"internalType": "uint256",
							"name": "",
							"type": "uint256"
						}
					],
					"stateMutability": "view",
					"type": "function"
				}
			],
			"devdoc": {
				"kind": "dev",
				"methods": {},
				"version": 1
			},
			"evm": {
				"assembly": "    /* \"Day06/sample.sol\":1913:2430  contract Programmer is Employee {... */\n  mstore(0x40, 0x80)\n    /* \"Day06/sample.sol\":1952:2033  constructor() {... */\n  callvalue\n  dup1\n  iszero\n  tag_1\n  jumpi\n  0x00\n  dup1\n  revert\ntag_1:\n  pop\n    /* \"Day06/sample.sol\":1977:2000  jobTitle = \"Programmer\" */\n  mload(0x40)\n  dup1\n  0x40\n  add\n  0x40\n  mstore\n  dup1\n  0x0a\n  dup2\n  mstore\n  0x20\n  add\n  0x50726f6772616d6d657200000000000000000000000000000000000000000000\n  dup2\n  mstore\n  pop\n    /* \"Day06/sample.sol\":1977:1985  jobTitle */\n  0x02\n    /* \"Day06/sample.sol\":1977:2000  jobTitle = \"Programmer\" */\n  swap1\n  dup2\n  tag_4\n  swap2\n  swap1\n  tag_5\n  jump\t// in\ntag_4:\n  pop\n    /* \"Day06/sample.sol\":2011:2025  addr =\"dumdum\" */\n  mload(0x40)\n  dup1\n  0x40\n  add\n  0x40\n  mstore\n  dup1\n  0x06\n  dup2\n  mstore\n  0x20\n  add\n  0x64756d64756d0000000000000000000000000000000000000000000000000000\n  dup2\n  mstore\n  pop\n    /* \"Day06/sample.sol\":2011:2015  addr */\n  0x01\n    /* \"Day06/sample.sol\":2011:2025  addr =\"dumdum\" */\n  swap1\n  dup2\n  tag_6\n  swap2\n  swap1\n  tag_5\n  jump\t// in\ntag_6:\n  pop\n    /* \"Day06/sample.sol\":1913:2430  contract Programmer is Employee {... */\n  jump(tag_7)\n    /* \"#utility.yul\":7:106   */\ntag_8:\n    /* \"#utility.yul\":59:65   */\n  0x00\n    /* \"#utility.yul\":93:98   */\n  dup2\n    /* \"#utility.yul\":87:99   */\n  mload\n    /* \"#utility.yul\":77:99   */\n  swap1\n  pop\n    /* \"#utility.yul\":7:106   */\n  swap2\n  swap1\n  pop\n  jump\t// out\n    /* \"#utility.yul\":112:292   */\ntag_9:\n    /* \"#utility.yul\":160:237   */\n  0x4e487b7100000000000000000000000000000000000000000000000000000000\n    /* \"#utility.yul\":157:158   */\n  0x00\n    /* \"#utility.yul\":150:238   */\n  mstore\n    /* \"#utility.yul\":257:261   */\n  0x41\n    /* \"#utility.yul\":254:255   */\n  0x04\n    /* \"#utility.yul\":247:262   */\n  mstore\n    /* \"#utility.yul\":281:285   */\n  0x24\n    /* \"#utility.yul\":278:279   */\n  0x00\n    /* \"#utility.yul\":271:286   */\n  revert\n    /* \"#utility.yul\":298:478   */\ntag_10:\n    /* \"#utility.yul\":346:423   */\n  0x4e487b7100000000000000000000000000000000000000000000000000000000\n    /* \"#utility.yul\":343:344   */\n  0x00\n    /* \"#utility.yul\":336:424   */\n  mstore\n    /* \"#utility.yul\":443:447   */\n  0x22\n    /* \"#utility.yul\":440:441   */\n  0x04\n    /* \"#utility.yul\":433:448   */\n  mstore\n    /* \"#utility.yul\":467:471   */\n  0x24\n    /* \"#utility.yul\":464:465   */\n  0x00\n    /* \"#utility.yul\":457:472   */\n  revert\n    /* \"#utility.yul\":484:804   */\ntag_11:\n    /* \"#utility.yul\":528:534   */\n  0x00\n    /* \"#utility.yul\":565:566   */\n  0x02\n    /* \"#utility.yul\":559:563   */\n  dup3\n    /* \"#utility.yul\":555:567   */\n  div\n    /* \"#utility.yul\":545:567   */\n  swap1\n  pop\n    /* \"#utility.yul\":612:613   */\n  0x01\n    /* \"#utility.yul\":606:610   */\n  dup3\n    /* \"#utility.yul\":602:614   */\n  and\n    /* \"#utility.yul\":633:651   */\n  dup1\n    /* \"#utility.yul\":623:704   */\n  tag_33\n  jumpi\n    /* \"#utility.yul\":689:693   */\n  0x7f\n    /* \"#utility.yul\":681:687   */\n  dup3\n    /* \"#utility.yul\":677:694   */\n  and\n    /* \"#utility.yul\":667:694   */\n  swap2\n  pop\n    /* \"#utility.yul\":623:704   */\ntag_33:\n    /* \"#utility.yul\":751:753   */\n  0x20\n    /* \"#utility.yul\":743:749   */\n  dup3\n    /* \"#utility.yul\":740:754   */\n  lt\n    /* \"#utility.yul\":720:738   */\n  dup2\n    /* \"#utility.yul\":717:755   */\n  sub\n    /* \"#utility.yul\":714:798   */\n  tag_34\n  jumpi\n    /* \"#utility.yul\":770:788   */\n  tag_35\n  tag_10\n  jump\t// in\ntag_35:\n    /* \"#utility.yul\":714:798   */\ntag_34:\n    /* \"#utility.yul\":535:804   */\n  pop\n    /* \"#utility.yul\":484:804   */\n  swap2\n  swap1\n  pop\n  jump\t// out\n    /* \"#utility.yul\":810:951   */\ntag_12:\n    /* \"#utility.yul\":859:863   */\n  0x00\n    /* \"#utility.yul\":882:885   */\n  dup2\n    /* \"#utility.yul\":874:885   */\n  swap1\n  pop\n    /* \"#utility.yul\":905:908   */\n  dup2\n    /* \"#utility.yul\":902:903   */\n  0x00\n    /* \"#utility.yul\":895:909   */\n  mstore\n    /* \"#utility.yul\":939:943   */\n  0x20\n    /* \"#utility.yul\":936:937   */\n  0x00\n    /* \"#utility.yul\":926:944   */\n  keccak256\n    /* \"#utility.yul\":918:944   */\n  swap1\n  pop\n    /* \"#utility.yul\":810:951   */\n  swap2\n  swap1\n  pop\n  jump\t// out\n    /* \"#utility.yul\":957:1050   */\ntag_13:\n    /* \"#utility.yul\":994:1000   */\n  0x00\n    /* \"#utility.yul\":1041:1043   */\n  0x20\n    /* \"#utility.yul\":1036:1038   */\n  0x1f\n    /* \"#utility.yul\":1029:1034   */\n  dup4\n    /* \"#utility.yul\":1025:1039   */\n  add\n    /* \"#utility.yul\":1021:1044   */\n  div\n    /* \"#utility.yul\":1011:1044   */\n  swap1\n  pop\n    /* \"#utility.yul\":957:1050   */\n  swap2\n  swap1\n  pop\n  jump\t// out\n    /* \"#utility.yul\":1056:1163   */\ntag_14:\n    /* \"#utility.yul\":1100:1108   */\n  0x00\n    /* \"#utility.yul\":1150:1155   */\n  dup3\n    /* \"#utility.yul\":1144:1148   */\n  dup3\n    /* \"#utility.yul\":1140:1156   */\n  shl\n    /* \"#utility.yul\":1119:1156   */\n  swap1\n  pop\n    /* \"#utility.yul\":1056:1163   */\n  swap3\n  swap2\n  pop\n  pop\n  jump\t// out\n    /* \"#utility.yul\":1169:1562   */\ntag_15:\n    /* \"#utility.yul\":1238:1244   */\n  0x00\n    /* \"#utility.yul\":1288:1289   */\n  0x08\n    /* \"#utility.yul\":1276:1286   */\n  dup4\n    /* \"#utility.yul\":1272:1290   */\n  mul\n    /* \"#utility.yul\":1311:1408   */\n  tag_40\n    /* \"#utility.yul\":1341:1407   */\n  0xffffffffffffffffffffffffffffffffffffffffffffffffffffffffffffffff\n    /* \"#utility.yul\":1330:1339   */\n  dup3\n    /* \"#utility.yul\":1311:1408   */\n  tag_14\n  jump\t// in\ntag_40:\n    /* \"#utility.yul\":1429:1468   */\n  tag_41\n    /* \"#utility.yul\":1459:1467   */\n  dup7\n    /* \"#utility.yul\":1448:1457   */\n  dup4\n    /* \"#utility.yul\":1429:1468   */\n  tag_14\n  jump\t// in\ntag_41:\n    /* \"#utility.yul\":1417:1468   */\n  swap6\n  pop\n    /* \"#utility.yul\":1501:1505   */\n  dup1\n    /* \"#utility.yul\":1497:1506   */\n  not\n    /* \"#utility.yul\":1490:1495   */\n  dup5\n    /* \"#utility.yul\":1486:1507   */\n  and\n    /* \"#utility.yul\":1477:1507   */\n  swap4\n  pop\n    /* \"#utility.yul\":1550:1554   */\n  dup1\n    /* \"#utility.yul\":1540:1548   */\n  dup7\n    /* \"#utility.yul\":1536:1555   */\n  and\n    /* \"#utility.yul\":1529:1534   */\n  dup5\n    /* \"#utility.yul\":1526:1556   */\n  or\n    /* \"#utility.yul\":1516:1556   */\n  swap3\n  pop\n    /* \"#utility.yul\":1245:1562   */\n  pop\n  pop\n    /* \"#utility.yul\":1169:1562   */\n  swap4\n  swap3\n  pop\n  pop\n  pop\n  jump\t// out\n    /* \"#utility.yul\":1568:1645   */\ntag_16:\n    /* \"#utility.yul\":1605:1612   */\n  0x00\n    /* \"#utility.yul\":1634:1639   */\n  dup2\n    /* \"#utility.yul\":1623:1639   */\n  swap1\n  pop\n    /* \"#utility.yul\":1568:1645   */\n  swap2\n  swap1\n  pop\n  jump\t// out\n    /* \"#utility.yul\":1651:1711   */\ntag_17:\n    /* \"#utility.yul\":1679:1682   */\n  0x00\n    /* \"#utility.yul\":1700:1705   */\n  dup2\n    /* \"#utility.yul\":1693:1705   */\n  swap1\n  pop\n    /* \"#utility.yul\":1651:1711   */\n  swap2\n  swap1\n  pop\n  jump\t// out\n    /* \"#utility.yul\":1717:1859   */\ntag_18:\n    /* \"#utility.yul\":1767:1776   */\n  0x00\n    /* \"#utility.yul\":1800:1853   */\n  tag_45\n    /* \"#utility.yul\":1818:1852   */\n  tag_46\n    /* \"#utility.yul\":1827:1851   */\n  tag_47\n    /* \"#utility.yul\":1845:1850   */\n  dup5\n    /* \"#utility.yul\":1827:1851   */\n  tag_16\n  jump\t// in\ntag_47:\n    /* \"#utility.yul\":1818:1852   */\n  tag_17\n  jump\t// in\ntag_46:\n    /* \"#utility.yul\":1800:1853   */\n  tag_16\n  jump\t// in\ntag_45:\n    /* \"#utility.yul\":1787:1853   */\n  swap1\n  pop\n    /* \"#utility.yul\":1717:1859   */\n  swap2\n  swap1\n  pop\n  jump\t// out\n    /* \"#utility.yul\":1865:1940   */\ntag_19:\n    /* \"#utility.yul\":1908:1911   */\n  0x00\n    /* \"#utility.yul\":1929:1934   */\n  dup2\n    /* \"#utility.yul\":1922:1934   */\n  swap1\n  pop\n    /* \"#utility.yul\":1865:1940   */\n  swap2\n  swap1\n  pop\n  jump\t// out\n    /* \"#utility.yul\":1946:2215   */\ntag_20:\n    /* \"#utility.yul\":2056:2095   */\n  tag_50\n    /* \"#utility.yul\":2087:2094   */\n  dup4\n    /* \"#utility.yul\":2056:2095   */\n  tag_18\n  jump\t// in\ntag_50:\n    /* \"#utility.yul\":2117:2208   */\n  tag_51\n    /* \"#utility.yul\":2166:2207   */\n  tag_52\n    /* \"#utility.yul\":2190:2206   */\n  dup3\n    /* \"#utility.yul\":2166:2207   */\n  tag_19\n  jump\t// in\ntag_52:\n    /* \"#utility.yul\":2158:2164   */\n  dup5\n    /* \"#utility.yul\":2151:2155   */\n  dup5\n    /* \"#utility.yul\":2145:2156   */\n  sload\n    /* \"#utility.yul\":2117:2208   */\n  tag_15\n  jump\t// in\ntag_51:\n    /* \"#utility.yul\":2111:2115   */\n  dup3\n    /* \"#utility.yul\":2104:2209   */\n  sstore\n    /* \"#utility.yul\":2022:2215   */\n  pop\n    /* \"#utility.yul\":1946:2215   */\n  pop\n  pop\n  pop\n  jump\t// out\n    /* \"#utility.yul\":2221:2294   */\ntag_21:\n    /* \"#utility.yul\":2266:2269   */\n  0x00\n    /* \"#utility.yul\":2221:2294   */\n  swap1\n  jump\t// out\n    /* \"#utility.yul\":2300:2489   */\ntag_22:\n    /* \"#utility.yul\":2377:2409   */\n  tag_55\n  tag_21\n  jump\t// in\ntag_55:\n    /* \"#utility.yul\":2418:2483   */\n  tag_56\n    /* \"#utility.yul\":2476:2482   */\n  dup2\n    /* \"#utility.yul\":2468:2474   */\n  dup5\n    /* \"#utility.yul\":2462:2466   */\n  dup5\n    /* \"#utility.yul\":2418:2483   */\n  tag_20\n  jump\t// in\ntag_56:\n    /* \"#utility.yul\":2353:2489   */\n  pop\n    /* \"#utility.yul\":2300:2489   */\n  pop\n  pop\n  jump\t// out\n    /* \"#utility.yul\":2495:2681   */\ntag_23:\n    /* \"#utility.yul\":2555:2675   */\ntag_58:\n    /* \"#utility.yul\":2572:2575   */\n  dup2\n    /* \"#utility.yul\":2565:2570   */\n  dup2\n    /* \"#utility.yul\":2562:2576   */\n  lt\n    /* \"#utility.yul\":2555:2675   */\n  iszero\n  tag_60\n  jumpi\n    /* \"#utility.yul\":2626:2665   */\n  tag_61\n    /* \"#utility.yul\":2663:2664   */\n  0x00\n    /* \"#utility.yul\":2656:2661   */\n  dup3\n    /* \"#utility.yul\":2626:2665   */\n  tag_22\n  jump\t// in\ntag_61:\n    /* \"#utility.yul\":2599:2600   */\n  0x01\n    /* \"#utility.yul\":2592:2597   */\n  dup2\n    /* \"#utility.yul\":2588:2601   */\n  add\n    /* \"#utility.yul\":2579:2601   */\n  swap1\n  pop\n    /* \"#utility.yul\":2555:2675   */\n  jump(tag_58)\ntag_60:\n    /* \"#utility.yul\":2495:2681   */\n  pop\n  pop\n  jump\t// out\n    /* \"#utility.yul\":2687:3230   */\ntag_24:\n    /* \"#utility.yul\":2788:2790   */\n  0x1f\n    /* \"#utility.yul\":2783:2786   */\n  dup3\n    /* \"#utility.yul\":2780:2791   */\n  gt\n    /* \"#utility.yul\":2777:3223   */\n  iszero\n  tag_63\n  jumpi\n    /* \"#utility.yul\":2822:2860   */\n  tag_64\n    /* \"#utility.yul\":2854:2859   */\n  dup2\n    /* \"#utility.yul\":2822:2860   */\n  tag_12\n  jump\t// in\ntag_64:\n    /* \"#utility.yul\":2906:2935   */\n  tag_65\n    /* \"#utility.yul\":2924:2934   */\n  dup5\n    /* \"#utility.yul\":2906:2935   */\n  tag_13\n  jump\t// in\ntag_65:\n    /* \"#utility.yul\":2896:2904   */\n  dup2\n    /* \"#utility.yul\":2892:2936   */\n  add\n    /* \"#utility.yul\":3089:3091   */\n  0x20\n    /* \"#utility.yul\":3077:3087   */\n  dup6\n    /* \"#utility.yul\":3074:3092   */\n  lt\n    /* \"#utility.yul\":3071:3120   */\n  iszero\n  tag_66\n  jumpi\n    /* \"#utility.yul\":3110:3118   */\n  dup2\n    /* \"#utility.yul\":3095:3118   */\n  swap1\n  pop\n    /* \"#utility.yul\":3071:3120   */\ntag_66:\n    /* \"#utility.yul\":3133:3213   */\n  tag_67\n    /* \"#utility.yul\":3189:3211   */\n  tag_68\n    /* \"#utility.yul\":3207:3210   */\n  dup6\n    /* \"#utility.yul\":3189:3211   */\n  tag_13\n  jump\t// in\ntag_68:\n    /* \"#utility.yul\":3179:3187   */\n  dup4\n    /* \"#utility.yul\":3175:3212   */\n  add\n    /* \"#utility.yul\":3162:3173   */\n  dup3\n    /* \"#utility.yul\":3133:3213   */\n  tag_23\n  jump\t// in\ntag_67:\n    /* \"#utility.yul\":2792:3223   */\n  pop\n  pop\n    /* \"#utility.yul\":2777:3223   */\ntag_63:\n    /* \"#utility.yul\":2687:3230   */\n  pop\n  pop\n  pop\n  jump\t// out\n    /* \"#utility.yul\":3236:3353   */\ntag_25:\n    /* \"#utility.yul\":3290:3298   */\n  0x00\n    /* \"#utility.yul\":3340:3345   */\n  dup3\n    /* \"#utility.yul\":3334:3338   */\n  dup3\n    /* \"#utility.yul\":3330:3346   */\n  shr\n    /* \"#utility.yul\":3309:3346   */\n  swap1\n  pop\n    /* \"#utility.yul\":3236:3353   */\n  swap3\n  swap2\n  pop\n  pop\n  jump\t// out\n    /* \"#utility.yul\":3359:3528   */\ntag_26:\n    /* \"#utility.yul\":3403:3409   */\n  0x00\n    /* \"#utility.yul\":3436:3487   */\n  tag_71\n    /* \"#utility.yul\":3484:3485   */\n  0x00\n    /* \"#utility.yul\":3480:3486   */\n  not\n    /* \"#utility.yul\":3472:3477   */\n  dup5\n    /* \"#utility.yul\":3469:3470   */\n  0x08\n    /* \"#utility.yul\":3465:3478   */\n  mul\n    /* \"#utility.yul\":3436:3487   */\n  tag_25\n  jump\t// in\ntag_71:\n    /* \"#utility.yul\":3432:3488   */\n  not\n    /* \"#utility.yul\":3517:3521   */\n  dup1\n    /* \"#utility.yul\":3511:3515   */\n  dup4\n    /* \"#utility.yul\":3507:3522   */\n  and\n    /* \"#utility.yul\":3497:3522   */\n  swap2\n  pop\n    /* \"#utility.yul\":3410:3528   */\n  pop\n    /* \"#utility.yul\":3359:3528   */\n  swap3\n  swap2\n  pop\n  pop\n  jump\t// out\n    /* \"#utility.yul\":3533:3828   */\ntag_27:\n    /* \"#utility.yul\":3609:3613   */\n  0x00\n    /* \"#utility.yul\":3755:3784   */\n  tag_73\n    /* \"#utility.yul\":3780:3783   */\n  dup4\n    /* \"#utility.yul\":3774:3778   */\n  dup4\n    /* \"#utility.yul\":3755:3784   */\n  tag_26\n  jump\t// in\ntag_73:\n    /* \"#utility.yul\":3747:3784   */\n  swap2\n  pop\n    /* \"#utility.yul\":3817:3820   */\n  dup3\n    /* \"#utility.yul\":3814:3815   */\n  0x02\n    /* \"#utility.yul\":3810:3821   */\n  mul\n    /* \"#utility.yul\":3804:3808   */\n  dup3\n    /* \"#utility.yul\":3801:3822   */\n  or\n    /* \"#utility.yul\":3793:3822   */\n  swap1\n  pop\n    /* \"#utility.yul\":3533:3828   */\n  swap3\n  swap2\n  pop\n  pop\n  jump\t// out\n    /* \"#utility.yul\":3833:5228   */\ntag_5:\n    /* \"#utility.yul\":3950:3987   */\n  tag_75\n    /* \"#utility.yul\":3983:3986   */\n  dup3\n    /* \"#utility.yul\":3950:3987   */\n  tag_8\n  jump\t// in\ntag_75:\n    /* \"#utility.yul\":4052:4070   */\n  0xffffffffffffffff\n    /* \"#utility.yul\":4044:4050   */\n  dup2\n    /* \"#utility.yul\":4041:4071   */\n  gt\n    /* \"#utility.yul\":4038:4094   */\n  iszero\n  tag_76\n  jumpi\n    /* \"#utility.yul\":4074:4092   */\n  tag_77\n  tag_9\n  jump\t// in\ntag_77:\n    /* \"#utility.yul\":4038:4094   */\ntag_76:\n    /* \"#utility.yul\":4118:4156   */\n  tag_78\n    /* \"#utility.yul\":4150:4154   */\n  dup3\n    /* \"#utility.yul\":4144:4155   */\n  sload\n    /* \"#utility.yul\":4118:4156   */\n  tag_11\n  jump\t// in\ntag_78:\n    /* \"#utility.yul\":4203:4270   */\n  tag_79\n    /* \"#utility.yul\":4263:4269   */\n  dup3\n    /* \"#utility.yul\":4255:4261   */\n  dup3\n    /* \"#utility.yul\":4249:4253   */\n  dup6\n    /* \"#utility.yul\":4203:4270   */\n  tag_24\n  jump\t// in\ntag_79:\n    /* \"#utility.yul\":4297:4298   */\n  0x00\n    /* \"#utility.yul\":4321:4325   */\n  0x20\n    /* \"#utility.yul\":4308:4325   */\n  swap1\n  pop\n    /* \"#utility.yul\":4353:4355   */\n  0x1f\n    /* \"#utility.yul\":4345:4351   */\n  dup4\n    /* \"#utility.yul\":4342:4356   */\n  gt\n    /* \"#utility.yul\":4370:4371   */\n  0x01\n    /* \"#utility.yul\":4365:4983   */\n  dup2\n  eq\n  tag_81\n  jumpi\n    /* \"#utility.yul\":5027:5028   */\n  0x00\n    /* \"#utility.yul\":5044:5050   */\n  dup5\n    /* \"#utility.yul\":5041:5118   */\n  iszero\n  tag_82\n  jumpi\n    /* \"#utility.yul\":5093:5102   */\n  dup3\n    /* \"#utility.yul\":5088:5091   */\n  dup8\n    /* \"#utility.yul\":5084:5103   */\n  add\n    /* \"#utility.yul\":5078:5104   */\n  mload\n    /* \"#utility.yul\":5069:5104   */\n  swap1\n  pop\n    /* \"#utility.yul\":5041:5118   */\ntag_82:\n    /* \"#utility.yul\":5144:5211   */\n  tag_83\n    /* \"#utility.yul\":5204:5210   */\n  dup6\n    /* \"#utility.yul\":5197:5202   */\n  dup3\n    /* \"#utility.yul\":5144:5211   */\n  tag_27\n  jump\t// in\ntag_83:\n    /* \"#utility.yul\":5138:5142   */\n  dup7\n    /* \"#utility.yul\":5131:5212   */\n  sstore\n    /* \"#utility.yul\":5000:5222   */\n  pop\n    /* \"#utility.yul\":4335:5222   */\n  jump(tag_80)\n    /* \"#utility.yul\":4365:4983   */\ntag_81:\n    /* \"#utility.yul\":4417:4421   */\n  0x1f\n    /* \"#utility.yul\":4413:4422   */\n  not\n    /* \"#utility.yul\":4405:4411   */\n  dup5\n    /* \"#utility.yul\":4401:4423   */\n  and\n    /* \"#utility.yul\":4451:4488   */\n  tag_84\n    /* \"#utility.yul\":4483:4487   */\n  dup7\n    /* \"#utility.yul\":4451:4488   */\n  tag_12\n  jump\t// in\ntag_84:\n    /* \"#utility.yul\":4510:4511   */\n  0x00\n    /* \"#utility.yul\":4524:4732   */\ntag_85:\n    /* \"#utility.yul\":4538:4545   */\n  dup3\n    /* \"#utility.yul\":4535:4536   */\n  dup2\n    /* \"#utility.yul\":4532:4546   */\n  lt\n    /* \"#utility.yul\":4524:4732   */\n  iszero\n  tag_87\n  jumpi\n    /* \"#utility.yul\":4617:4626   */\n  dup5\n    /* \"#utility.yul\":4612:4615   */\n  dup10\n    /* \"#utility.yul\":4608:4627   */\n  add\n    /* \"#utility.yul\":4602:4628   */\n  mload\n    /* \"#utility.yul\":4594:4600   */\n  dup3\n    /* \"#utility.yul\":4587:4629   */\n  sstore\n    /* \"#utility.yul\":4668:4669   */\n  0x01\n    /* \"#utility.yul\":4660:4666   */\n  dup3\n    /* \"#utility.yul\":4656:4670   */\n  add\n    /* \"#utility.yul\":4646:4670   */\n  swap2\n  pop\n    /* \"#utility.yul\":4715:4717   */\n  0x20\n    /* \"#utility.yul\":4704:4713   */\n  dup6\n    /* \"#utility.yul\":4700:4718   */\n  add\n    /* \"#utility.yul\":4687:4718   */\n  swap5\n  pop\n    /* \"#utility.yul\":4561:4565   */\n  0x20\n    /* \"#utility.yul\":4558:4559   */\n  dup2\n    /* \"#utility.yul\":4554:4566   */\n  add\n    /* \"#utility.yul\":4549:4566   */\n  swap1\n  pop\n    /* \"#utility.yul\":4524:4732   */\n  jump(tag_85)\ntag_87:\n    /* \"#utility.yul\":4760:4766   */\n  dup7\n    /* \"#utility.yul\":4751:4758   */\n  dup4\n    /* \"#utility.yul\":4748:4767   */\n  lt\n    /* \"#utility.yul\":4745:4924   */\n  iszero\n  tag_88\n  jumpi\n    /* \"#utility.yul\":4818:4827   */\n  dup5\n    /* \"#utility.yul\":4813:4816   */\n  dup10\n    /* \"#utility.yul\":4809:4828   */\n  add\n    /* \"#utility.yul\":4803:4829   */\n  mload\n    /* \"#utility.yul\":4861:4909   */\n  tag_89\n    /* \"#utility.yul\":4903:4907   */\n  0x1f\n    /* \"#utility.yul\":4895:4901   */\n  dup10\n    /* \"#utility.yul\":4891:4908   */\n  and\n    /* \"#utility.yul\":4880:4889   */\n  dup3\n    /* \"#utility.yul\":4861:4909   */\n  tag_26\n  jump\t// in\ntag_89:\n    /* \"#utility.yul\":4853:4859   */\n  dup4\n    /* \"#utility.yul\":4846:4910   */\n  sstore\n    /* \"#utility.yul\":4768:4924   */\n  pop\n    /* \"#utility.yul\":4745:4924   */\ntag_88:\n    /* \"#utility.yul\":4970:4971   */\n  0x01\n    /* \"#utility.yul\":4966:4967   */\n  0x02\n    /* \"#utility.yul\":4958:4964   */\n  dup9\n    /* \"#utility.yul\":4954:4968   */\n  mul\n    /* \"#utility.yul\":4950:4972   */\n  add\n    /* \"#utility.yul\":4944:4948   */\n  dup9\n    /* \"#utility.yul\":4937:4973   */\n  sstore\n    /* \"#utility.yul\":4372:4983   */\n  pop\n  pop\n  pop\n    /* \"#utility.yul\":4335:5222   */\ntag_80:\n  pop\n    /* \"#utility.yul\":3925:5228   */\n  pop\n  pop\n  pop\n    /* \"#utility.yul\":3833:5228   */\n  pop\n  pop\n  jump\t// out\n    /* \"Day06/sample.sol\":1913:2430  contract Programmer is Employee {... */\ntag_7:\n  dataSize(sub_0)\n  dup1\n  dataOffset(sub_0)\n  0x00\n  codecopy\n  0x00\n  return\nstop\n\nsub_0: assembly {\n        /* \"Day06/sample.sol\":1913:2430  contract Programmer is Employee {... */\n      mstore(0x40, 0x80)\n      callvalue\n      dup1\n      iszero\n      tag_1\n      jumpi\n      0x00\n      dup1\n      revert\n    tag_1:\n      pop\n      jumpi(tag_2, lt(calldatasize, 0x04))\n      shr(0xe0, calldataload(0x00))\n      dup1\n      0x97c16e78\n      gt\n      tag_11\n      jumpi\n      dup1\n      0x97c16e78\n      eq\n      tag_7\n      jumpi\n      dup1\n      0xa4e7d437\n      eq\n      tag_8\n      jumpi\n      dup1\n      0xbba75f9f\n      eq\n      tag_9\n      jumpi\n      dup1\n      0xbbad9c7a\n      eq\n      tag_10\n      jumpi\n      jump(tag_2)\n    tag_11:\n      dup1\n      0x0397b652\n      eq\n      tag_3\n      jumpi\n      dup1\n      0x06fdde03\n      eq\n      tag_4\n      jumpi\n      dup1\n      0x3ff4b938\n      eq\n      tag_5\n      jumpi\n      dup1\n      0x767800de\n      eq\n      tag_6\n      jumpi\n    tag_2:\n      0x00\n      dup1\n      revert\n        /* \"Day06/sample.sol\":164:182  uint public salary */\n    tag_3:\n      tag_12\n      tag_13\n      jump\t// in\n    tag_12:\n      mload(0x40)\n      tag_14\n      swap2\n      swap1\n      tag_15\n      jump\t// in\n    tag_14:\n      mload(0x40)\n      dup1\n      swap2\n      sub\n      swap1\n      return\n        /* \"Day06/sample.sol\":85:103  string public name */\n    tag_4:\n      tag_16\n      tag_17\n      jump\t// in\n    tag_16:\n      mload(0x40)\n      tag_18\n      swap2\n      swap1\n      tag_19\n      jump\t// in\n    tag_18:\n      mload(0x40)\n      dup1\n      swap2\n      sub\n      swap1\n      return\n        /* \"Day06/sample.sol\":135:157  string public jobTitle */\n    tag_5:\n      tag_20\n      tag_21\n      jump\t// in\n    tag_20:\n      mload(0x40)\n      tag_22\n      swap2\n      swap1\n      tag_19\n      jump\t// in\n    tag_22:\n      mload(0x40)\n      dup1\n      swap2\n      sub\n      swap1\n      return\n        /* \"Day06/sample.sol\":110:128  string public addr */\n    tag_6:\n      tag_23\n      tag_24\n      jump\t// in\n    tag_23:\n      mload(0x40)\n      tag_25\n      swap2\n      swap1\n      tag_19\n      jump\t// in\n    tag_25:\n      mload(0x40)\n      dup1\n      swap2\n      sub\n      swap1\n      return\n        /* \"Day06/sample.sol\":2378:2427  function manageProjects() public pure override {} */\n    tag_7:\n      tag_26\n      tag_27\n      jump\t// in\n    tag_26:\n      stop\n        /* \"Day06/sample.sol\":2041:2148  function calculateBonus() public view override returns (uint) {... */\n    tag_8:\n      tag_28\n      tag_29\n      jump\t// in\n    tag_28:\n      mload(0x40)\n      tag_30\n      swap2\n      swap1\n      tag_15\n      jump\t// in\n    tag_30:\n      mload(0x40)\n      dup1\n      swap2\n      sub\n      swap1\n      return\n        /* \"Day06/sample.sol\":2156:2366  function genPerformance(string memory projectAddress, string memory taskName) ... */\n    tag_9:\n      tag_31\n      0x04\n      dup1\n      calldatasize\n      sub\n      dup2\n      add\n      swap1\n      tag_32\n      swap2\n      swap1\n      tag_33\n      jump\t// in\n    tag_32:\n      tag_34\n      jump\t// in\n    tag_31:\n      stop\n        /* \"Day06/sample.sol\":313:702  function genPerformance() public view virtual returns(uint) {... */\n    tag_10:\n      tag_35\n      tag_36\n      jump\t// in\n    tag_35:\n      mload(0x40)\n      tag_37\n      swap2\n      swap1\n      tag_15\n      jump\t// in\n    tag_37:\n      mload(0x40)\n      dup1\n      swap2\n      sub\n      swap1\n      return\n        /* \"Day06/sample.sol\":164:182  uint public salary */\n    tag_13:\n      sload(0x03)\n      dup2\n      jump\t// out\n        /* \"Day06/sample.sol\":85:103  string public name */\n    tag_17:\n      0x00\n      dup1\n      sload\n      tag_38\n      swap1\n      tag_39\n      jump\t// in\n    tag_38:\n      dup1\n      0x1f\n      add\n      0x20\n      dup1\n      swap2\n      div\n      mul\n      0x20\n      add\n      mload(0x40)\n      swap1\n      dup2\n      add\n      0x40\n      mstore\n      dup1\n      swap3\n      swap2\n      swap1\n      dup2\n      dup2\n      mstore\n      0x20\n      add\n      dup3\n      dup1\n      sload\n      tag_40\n      swap1\n      tag_39\n      jump\t// in\n    tag_40:\n      dup1\n      iszero\n      tag_41\n      jumpi\n      dup1\n      0x1f\n      lt\n      tag_42\n      jumpi\n      0x0100\n      dup1\n      dup4\n      sload\n      div\n      mul\n      dup4\n      mstore\n      swap2\n      0x20\n      add\n      swap2\n      jump(tag_41)\n    tag_42:\n      dup3\n      add\n      swap2\n      swap1\n      0x00\n      mstore\n      keccak256(0x00, 0x20)\n      swap1\n    tag_43:\n      dup2\n      sload\n      dup2\n      mstore\n      swap1\n      0x01\n      add\n      swap1\n      0x20\n      add\n      dup1\n      dup4\n      gt\n      tag_43\n      jumpi\n      dup3\n      swap1\n      sub\n      0x1f\n      and\n      dup3\n      add\n      swap2\n    tag_41:\n      pop\n      pop\n      pop\n      pop\n      pop\n      dup2\n      jump\t// out\n        /* \"Day06/sample.sol\":135:157  string public jobTitle */\n    tag_21:\n      0x02\n      dup1\n      sload\n      tag_44\n      swap1\n      tag_39\n      jump\t// in\n    tag_44:\n      dup1\n      0x1f\n      add\n      0x20\n      dup1\n      swap2\n      div\n      mul\n      0x20\n      add\n      mload(0x40)\n      swap1\n      dup2\n      add\n      0x40\n      mstore\n      dup1\n      swap3\n      swap2\n      swap1\n      dup2\n      dup2\n      mstore\n      0x20\n      add\n      dup3\n      dup1\n      sload\n      tag_45\n      swap1\n      tag_39\n      jump\t// in\n    tag_45:\n      dup1\n      iszero\n      tag_46\n      jumpi\n      dup1\n      0x1f\n      lt\n      tag_47\n      jumpi\n      0x0100\n      dup1\n      dup4\n      sload\n      div\n      mul\n      dup4\n      mstore\n      swap2\n      0x20\n      add\n      swap2\n      jump(tag_46)\n    tag_47:\n      dup3\n      add\n      swap2\n      swap1\n      0x00\n      mstore\n      keccak256(0x00, 0x20)\n      swap1\n    tag_48:\n      dup2\n      sload\n      dup2\n      mstore\n      swap1\n      0x01\n      add\n      swap1\n      0x20\n      add\n      dup1\n      dup4\n      gt\n      tag_48\n      jumpi\n      dup3\n      swap1\n      sub\n      0x1f\n      and\n      dup3\n      add\n      swap2\n    tag_46:\n      pop\n      pop\n      pop\n      pop\n      pop\n      dup2\n      jump\t// out\n        /* \"Day06/sample.sol\":110:128  string public addr */\n    tag_24:\n      0x01\n      dup1\n      sload\n      tag_49\n      swap1\n      tag_39\n      jump\t// in\n    tag_49:\n      dup1\n      0x1f\n      add\n      0x20\n      dup1\n      swap2\n      div\n      mul\n      0x20\n      add\n      mload(0x40)\n      swap1\n      dup2\n      add\n      0x40\n      mstore\n      dup1\n      swap3\n      swap2\n      swap1\n      dup2\n      dup2\n      mstore\n      0x20\n      add\n      dup3\n      dup1\n      sload\n      tag_50\n      swap1\n      tag_39\n      jump\t// in\n    tag_50:\n      dup1\n      iszero\n      tag_51\n      jumpi\n      dup1\n      0x1f\n      lt\n      tag_52\n      jumpi\n      0x0100\n      dup1\n      dup4\n      sload\n      div\n      mul\n      dup4\n      mstore\n      swap2\n      0x20\n      add\n      swap2\n      jump(tag_51)\n    tag_52:\n      dup3\n      add\n      swap2\n      swap1\n      0x00\n      mstore\n      keccak256(0x00, 0x20)\n      swap1\n    tag_53:\n      dup2\n      sload\n      dup2\n      mstore\n      swap1\n      0x01\n      add\n      swap1\n      0x20\n      add\n      dup1\n      dup4\n      gt\n      tag_53\n      jumpi\n      dup3\n      swap1\n      sub\n      0x1f\n      and\n      dup3\n      add\n      swap2\n    tag_51:\n      pop\n      pop\n      pop\n      pop\n      pop\n      dup2\n      jump\t// out\n        /* \"Day06/sample.sol\":2378:2427  function manageProjects() public pure override {} */\n    tag_27:\n      jump\t// out\n        /* \"Day06/sample.sol\":2041:2148  function calculateBonus() public view override returns (uint) {... */\n    tag_29:\n        /* \"Day06/sample.sol\":2097:2101  uint */\n      0x00\n        /* \"Day06/sample.sol\":2129:2139  msg.sender */\n      caller\n        /* \"Day06/sample.sol\":2114:2140  return uint160(msg.sender) */\n      0xffffffffffffffffffffffffffffffffffffffff\n      and\n      swap1\n      pop\n        /* \"Day06/sample.sol\":2041:2148  function calculateBonus() public view override returns (uint) {... */\n      swap1\n      jump\t// out\n        /* \"Day06/sample.sol\":2156:2366  function genPerformance(string memory projectAddress, string memory taskName) ... */\n    tag_34:\n        /* \"Day06/sample.sol\":2295:2296  0 */\n      0x00\n        /* \"Day06/sample.sol\":2276:2284  taskName */\n      dup2\n        /* \"Day06/sample.sol\":2270:2292  bytes(taskName).length */\n      mload\n        /* \"Day06/sample.sol\":2270:2296  bytes(taskName).length > 0 */\n      gt\n        /* \"Day06/sample.sol\":2262:2326  require(bytes(taskName).length > 0, \"Task name cannot be empty\") */\n      tag_57\n      jumpi\n      mload(0x40)\n      0x08c379a000000000000000000000000000000000000000000000000000000000\n      dup2\n      mstore\n      0x04\n      add\n      tag_58\n      swap1\n      tag_59\n      jump\t// in\n    tag_58:\n      mload(0x40)\n      dup1\n      swap2\n      sub\n      swap1\n      revert\n    tag_57:\n        /* \"Day06/sample.sol\":2344:2358  projectAddress */\n      dup2\n        /* \"Day06/sample.sol\":2337:2341  addr */\n      0x01\n        /* \"Day06/sample.sol\":2337:2358  addr = projectAddress */\n      swap1\n      dup2\n      tag_60\n      swap2\n      swap1\n      tag_61\n      jump\t// in\n    tag_60:\n      pop\n        /* \"Day06/sample.sol\":2156:2366  function genPerformance(string memory projectAddress, string memory taskName) ... */\n      pop\n      pop\n      jump\t// out\n        /* \"Day06/sample.sol\":313:702  function genPerformance() public view virtual returns(uint) {... */\n    tag_36:\n        /* \"Day06/sample.sol\":367:371  uint */\n      0x00\n        /* \"Day06/sample.sol\":384:403  uint256 performance */\n      dup1\n        /* \"Day06/sample.sol\":405:406  0 */\n      0x00\n        /* \"Day06/sample.sol\":384:406  uint256 performance =0 */\n      swap1\n      pop\n        /* \"Day06/sample.sol\":427:428  2 */\n      0x02\n        /* \"Day06/sample.sol\":420:426  rating */\n      sload(0x04)\n        /* \"Day06/sample.sol\":420:428  rating>2 */\n      gt\n        /* \"Day06/sample.sol\":417:664  if(rating>2){... */\n      iszero\n      tag_63\n      jumpi\n        /* \"Day06/sample.sol\":456:458  10 */\n      0x0a\n        /* \"Day06/sample.sol\":444:458  performance=10 */\n      swap1\n      pop\n        /* \"Day06/sample.sol\":417:664  if(rating>2){... */\n      jump(tag_64)\n    tag_63:\n        /* \"Day06/sample.sol\":495:496  4 */\n      0x04\n        /* \"Day06/sample.sol\":488:494  rating */\n      dup1\n      sload\n        /* \"Day06/sample.sol\":488:496  rating>4 */\n      gt\n        /* \"Day06/sample.sol\":485:664  if(rating>4){... */\n      iszero\n      tag_65\n      jumpi\n        /* \"Day06/sample.sol\":524:526  20 */\n      0x14\n        /* \"Day06/sample.sol\":512:526  performance=20 */\n      swap1\n      pop\n        /* \"Day06/sample.sol\":485:664  if(rating>4){... */\n      jump(tag_66)\n    tag_65:\n        /* \"Day06/sample.sol\":563:564  6 */\n      0x06\n        /* \"Day06/sample.sol\":556:562  rating */\n      sload(0x04)\n        /* \"Day06/sample.sol\":556:564  rating>6 */\n      gt\n        /* \"Day06/sample.sol\":553:664  if(rating>6){... */\n      iszero\n      tag_67\n      jumpi\n        /* \"Day06/sample.sol\":592:594  80 */\n      0x50\n        /* \"Day06/sample.sol\":580:594  performance=80 */\n      swap1\n      pop\n        /* \"Day06/sample.sol\":553:664  if(rating>6){... */\n      jump(tag_68)\n    tag_67:\n        /* \"Day06/sample.sol\":649:652  100 */\n      0x64\n        /* \"Day06/sample.sol\":636:652  performance =100 */\n      swap1\n      pop\n        /* \"Day06/sample.sol\":553:664  if(rating>6){... */\n    tag_68:\n        /* \"Day06/sample.sol\":485:664  if(rating>4){... */\n    tag_66:\n        /* \"Day06/sample.sol\":417:664  if(rating>2){... */\n    tag_64:\n        /* \"Day06/sample.sol\":683:694  performance */\n      dup1\n        /* \"Day06/sample.sol\":676:694  return performance */\n      swap2\n      pop\n      pop\n        /* \"Day06/sample.sol\":313:702  function genPerformance() public view virtual returns(uint) {... */\n      swap1\n      jump\t// out\n        /* \"#utility.yul\":7:84   */\n    tag_69:\n        /* \"#utility.yul\":44:51   */\n      0x00\n        /* \"#utility.yul\":73:78   */\n      dup2\n        /* \"#utility.yul\":62:78   */\n      swap1\n      pop\n        /* \"#utility.yul\":7:84   */\n      swap2\n      swap1\n      pop\n      jump\t// out\n        /* \"#utility.yul\":90:208   */\n    tag_70:\n        /* \"#utility.yul\":177:201   */\n      tag_109\n        /* \"#utility.yul\":195:200   */\n      dup2\n        /* \"#utility.yul\":177:201   */\n      tag_69\n      jump\t// in\n    tag_109:\n        /* \"#utility.yul\":172:175   */\n      dup3\n        /* \"#utility.yul\":165:202   */\n      mstore\n        /* \"#utility.yul\":90:208   */\n      pop\n      pop\n      jump\t// out\n        /* \"#utility.yul\":214:436   */\n    tag_15:\n        /* \"#utility.yul\":307:311   */\n      0x00\n        /* \"#utility.yul\":345:347   */\n      0x20\n        /* \"#utility.yul\":334:343   */\n      dup3\n        /* \"#utility.yul\":330:348   */\n      add\n        /* \"#utility.yul\":322:348   */\n      swap1\n      pop\n        /* \"#utility.yul\":358:429   */\n      tag_111\n        /* \"#utility.yul\":426:427   */\n      0x00\n        /* \"#utility.yul\":415:424   */\n      dup4\n        /* \"#utility.yul\":411:428   */\n      add\n        /* \"#utility.yul\":402:408   */\n      dup5\n        /* \"#utility.yul\":358:429   */\n      tag_70\n      jump\t// in\n    tag_111:\n        /* \"#utility.yul\":214:436   */\n      swap3\n      swap2\n      pop\n      pop\n      jump\t// out\n        /* \"#utility.yul\":442:541   */\n    tag_71:\n        /* \"#utility.yul\":494:500   */\n      0x00\n        /* \"#utility.yul\":528:533   */\n      dup2\n        /* \"#utility.yul\":522:534   */\n      mload\n        /* \"#utility.yul\":512:534   */\n      swap1\n      pop\n        /* \"#utility.yul\":442:541   */\n      swap2\n      swap1\n      pop\n      jump\t// out\n        /* \"#utility.yul\":547:716   */\n    tag_72:\n        /* \"#utility.yul\":631:642   */\n      0x00\n        /* \"#utility.yul\":665:671   */\n      dup3\n        /* \"#utility.yul\":660:663   */\n      dup3\n        /* \"#utility.yul\":653:672   */\n      mstore\n        /* \"#utility.yul\":705:709   */\n      0x20\n        /* \"#utility.yul\":700:703   */\n      dup3\n        /* \"#utility.yul\":696:710   */\n      add\n        /* \"#utility.yul\":681:710   */\n      swap1\n      pop\n        /* \"#utility.yul\":547:716   */\n      swap3\n      swap2\n      pop\n      pop\n      jump\t// out\n        /* \"#utility.yul\":722:861   */\n    tag_73:\n        /* \"#utility.yul\":811:817   */\n      dup3\n        /* \"#utility.yul\":806:809   */\n      dup2\n        /* \"#utility.yul\":801:804   */\n      dup4\n        /* \"#utility.yul\":795:818   */\n      mcopy\n        /* \"#utility.yul\":852:853   */\n      0x00\n        /* \"#utility.yul\":843:849   */\n      dup4\n        /* \"#utility.yul\":838:841   */\n      dup4\n        /* \"#utility.yul\":834:850   */\n      add\n        /* \"#utility.yul\":827:854   */\n      mstore\n        /* \"#utility.yul\":722:861   */\n      pop\n      pop\n      pop\n      jump\t// out\n        /* \"#utility.yul\":867:969   */\n    tag_74:\n        /* \"#utility.yul\":908:914   */\n      0x00\n        /* \"#utility.yul\":959:961   */\n      0x1f\n        /* \"#utility.yul\":955:962   */\n      not\n        /* \"#utility.yul\":950:952   */\n      0x1f\n        /* \"#utility.yul\":943:948   */\n      dup4\n        /* \"#utility.yul\":939:953   */\n      add\n        /* \"#utility.yul\":935:963   */\n      and\n        /* \"#utility.yul\":925:963   */\n      swap1\n      pop\n        /* \"#utility.yul\":867:969   */\n      swap2\n      swap1\n      pop\n      jump\t// out\n        /* \"#utility.yul\":975:1352   */\n    tag_75:\n        /* \"#utility.yul\":1063:1066   */\n      0x00\n        /* \"#utility.yul\":1091:1130   */\n      tag_117\n        /* \"#utility.yul\":1124:1129   */\n      dup3\n        /* \"#utility.yul\":1091:1130   */\n      tag_71\n      jump\t// in\n    tag_117:\n        /* \"#utility.yul\":1146:1217   */\n      tag_118\n        /* \"#utility.yul\":1210:1216   */\n      dup2\n        /* \"#utility.yul\":1205:1208   */\n      dup6\n        /* \"#utility.yul\":1146:1217   */\n      tag_72\n      jump\t// in\n    tag_118:\n        /* \"#utility.yul\":1139:1217   */\n      swap4\n      pop\n        /* \"#utility.yul\":1226:1291   */\n      tag_119\n        /* \"#utility.yul\":1284:1290   */\n      dup2\n        /* \"#utility.yul\":1279:1282   */\n      dup6\n        /* \"#utility.yul\":1272:1276   */\n      0x20\n        /* \"#utility.yul\":1265:1270   */\n      dup7\n        /* \"#utility.yul\":1261:1277   */\n      add\n        /* \"#utility.yul\":1226:1291   */\n      tag_73\n      jump\t// in\n    tag_119:\n        /* \"#utility.yul\":1316:1345   */\n      tag_120\n        /* \"#utility.yul\":1338:1344   */\n      dup2\n        /* \"#utility.yul\":1316:1345   */\n      tag_74\n      jump\t// in\n    tag_120:\n        /* \"#utility.yul\":1311:1314   */\n      dup5\n        /* \"#utility.yul\":1307:1346   */\n      add\n        /* \"#utility.yul\":1300:1346   */\n      swap2\n      pop\n        /* \"#utility.yul\":1067:1352   */\n      pop\n        /* \"#utility.yul\":975:1352   */\n      swap3\n      swap2\n      pop\n      pop\n      jump\t// out\n        /* \"#utility.yul\":1358:1671   */\n    tag_19:\n        /* \"#utility.yul\":1471:1475   */\n      0x00\n        /* \"#utility.yul\":1509:1511   */\n      0x20\n        /* \"#utility.yul\":1498:1507   */\n      dup3\n        /* \"#utility.yul\":1494:1512   */\n      add\n        /* \"#utility.yul\":1486:1512   */\n      swap1\n      pop\n        /* \"#utility.yul\":1558:1567   */\n      dup2\n        /* \"#utility.yul\":1552:1556   */\n      dup2\n        /* \"#utility.yul\":1548:1568   */\n      sub\n        /* \"#utility.yul\":1544:1545   */\n      0x00\n        /* \"#utility.yul\":1533:1542   */\n      dup4\n        /* \"#utility.yul\":1529:1546   */\n      add\n        /* \"#utility.yul\":1522:1569   */\n      mstore\n        /* \"#utility.yul\":1586:1664   */\n      tag_122\n        /* \"#utility.yul\":1659:1663   */\n      dup2\n        /* \"#utility.yul\":1650:1656   */\n      dup5\n        /* \"#utility.yul\":1586:1664   */\n      tag_75\n      jump\t// in\n    tag_122:\n        /* \"#utility.yul\":1578:1664   */\n      swap1\n      pop\n        /* \"#utility.yul\":1358:1671   */\n      swap3\n      swap2\n      pop\n      pop\n      jump\t// out\n        /* \"#utility.yul\":1677:1752   */\n    tag_76:\n        /* \"#utility.yul\":1710:1716   */\n      0x00\n        /* \"#utility.yul\":1743:1745   */\n      0x40\n        /* \"#utility.yul\":1737:1746   */\n      mload\n        /* \"#utility.yul\":1727:1746   */\n      swap1\n      pop\n        /* \"#utility.yul\":1677:1752   */\n      swap1\n      jump\t// out\n        /* \"#utility.yul\":1758:1875   */\n    tag_77:\n        /* \"#utility.yul\":1867:1868   */\n      0x00\n        /* \"#utility.yul\":1864:1865   */\n      dup1\n        /* \"#utility.yul\":1857:1869   */\n      revert\n        /* \"#utility.yul\":1881:1998   */\n    tag_78:\n        /* \"#utility.yul\":1990:1991   */\n      0x00\n        /* \"#utility.yul\":1987:1988   */\n      dup1\n        /* \"#utility.yul\":1980:1992   */\n      revert\n        /* \"#utility.yul\":2004:2121   */\n    tag_79:\n        /* \"#utility.yul\":2113:2114   */\n      0x00\n        /* \"#utility.yul\":2110:2111   */\n      dup1\n        /* \"#utility.yul\":2103:2115   */\n      revert\n        /* \"#utility.yul\":2127:2244   */\n    tag_80:\n        /* \"#utility.yul\":2236:2237   */\n      0x00\n        /* \"#utility.yul\":2233:2234   */\n      dup1\n        /* \"#utility.yul\":2226:2238   */\n      revert\n        /* \"#utility.yul\":2250:2430   */\n    tag_81:\n        /* \"#utility.yul\":2298:2375   */\n      0x4e487b7100000000000000000000000000000000000000000000000000000000\n        /* \"#utility.yul\":2295:2296   */\n      0x00\n        /* \"#utility.yul\":2288:2376   */\n      mstore\n        /* \"#utility.yul\":2395:2399   */\n      0x41\n        /* \"#utility.yul\":2392:2393   */\n      0x04\n        /* \"#utility.yul\":2385:2400   */\n      mstore\n        /* \"#utility.yul\":2419:2423   */\n      0x24\n        /* \"#utility.yul\":2416:2417   */\n      0x00\n        /* \"#utility.yul\":2409:2424   */\n      revert\n        /* \"#utility.yul\":2436:2717   */\n    tag_82:\n        /* \"#utility.yul\":2519:2546   */\n      tag_130\n        /* \"#utility.yul\":2541:2545   */\n      dup3\n        /* \"#utility.yul\":2519:2546   */\n      tag_74\n      jump\t// in\n    tag_130:\n        /* \"#utility.yul\":2511:2517   */\n      dup2\n        /* \"#utility.yul\":2507:2547   */\n      add\n        /* \"#utility.yul\":2649:2655   */\n      dup2\n        /* \"#utility.yul\":2637:2647   */\n      dup2\n        /* \"#utility.yul\":2634:2656   */\n      lt\n        /* \"#utility.yul\":2613:2631   */\n      0xffffffffffffffff\n        /* \"#utility.yul\":2601:2611   */\n      dup3\n        /* \"#utility.yul\":2598:2632   */\n      gt\n        /* \"#utility.yul\":2595:2657   */\n      or\n        /* \"#utility.yul\":2592:2680   */\n      iszero\n      tag_131\n      jumpi\n        /* \"#utility.yul\":2660:2678   */\n      tag_132\n      tag_81\n      jump\t// in\n    tag_132:\n        /* \"#utility.yul\":2592:2680   */\n    tag_131:\n        /* \"#utility.yul\":2700:2710   */\n      dup1\n        /* \"#utility.yul\":2696:2698   */\n      0x40\n        /* \"#utility.yul\":2689:2711   */\n      mstore\n        /* \"#utility.yul\":2479:2717   */\n      pop\n        /* \"#utility.yul\":2436:2717   */\n      pop\n      pop\n      jump\t// out\n        /* \"#utility.yul\":2723:2852   */\n    tag_83:\n        /* \"#utility.yul\":2757:2763   */\n      0x00\n        /* \"#utility.yul\":2784:2804   */\n      tag_134\n      tag_76\n      jump\t// in\n    tag_134:\n        /* \"#utility.yul\":2774:2804   */\n      swap1\n      pop\n        /* \"#utility.yul\":2813:2846   */\n      tag_135\n        /* \"#utility.yul\":2841:2845   */\n      dup3\n        /* \"#utility.yul\":2833:2839   */\n      dup3\n        /* \"#utility.yul\":2813:2846   */\n      tag_82\n      jump\t// in\n    tag_135:\n        /* \"#utility.yul\":2723:2852   */\n      swap2\n      swap1\n      pop\n      jump\t// out\n        /* \"#utility.yul\":2858:3166   */\n    tag_84:\n        /* \"#utility.yul\":2920:2924   */\n      0x00\n        /* \"#utility.yul\":3010:3028   */\n      0xffffffffffffffff\n        /* \"#utility.yul\":3002:3008   */\n      dup3\n        /* \"#utility.yul\":2999:3029   */\n      gt\n        /* \"#utility.yul\":2996:3052   */\n      iszero\n      tag_137\n      jumpi\n        /* \"#utility.yul\":3032:3050   */\n      tag_138\n      tag_81\n      jump\t// in\n    tag_138:\n        /* \"#utility.yul\":2996:3052   */\n    tag_137:\n        /* \"#utility.yul\":3070:3099   */\n      tag_139\n        /* \"#utility.yul\":3092:3098   */\n      dup3\n        /* \"#utility.yul\":3070:3099   */\n      tag_74\n      jump\t// in\n    tag_139:\n        /* \"#utility.yul\":3062:3099   */\n      swap1\n      pop\n        /* \"#utility.yul\":3154:3158   */\n      0x20\n        /* \"#utility.yul\":3148:3152   */\n      dup2\n        /* \"#utility.yul\":3144:3159   */\n      add\n        /* \"#utility.yul\":3136:3159   */\n      swap1\n      pop\n        /* \"#utility.yul\":2858:3166   */\n      swap2\n      swap1\n      pop\n      jump\t// out\n        /* \"#utility.yul\":3172:3320   */\n    tag_85:\n        /* \"#utility.yul\":3270:3276   */\n      dup3\n        /* \"#utility.yul\":3265:3268   */\n      dup2\n        /* \"#utility.yul\":3260:3263   */\n      dup4\n        /* \"#utility.yul\":3247:3277   */\n      calldatacopy\n        /* \"#utility.yul\":3311:3312   */\n      0x00\n        /* \"#utility.yul\":3302:3308   */\n      dup4\n        /* \"#utility.yul\":3297:3300   */\n      dup4\n        /* \"#utility.yul\":3293:3309   */\n      add\n        /* \"#utility.yul\":3286:3313   */\n      mstore\n        /* \"#utility.yul\":3172:3320   */\n      pop\n      pop\n      pop\n      jump\t// out\n        /* \"#utility.yul\":3326:3751   */\n    tag_86:\n        /* \"#utility.yul\":3404:3409   */\n      0x00\n        /* \"#utility.yul\":3429:3495   */\n      tag_142\n        /* \"#utility.yul\":3445:3494   */\n      tag_143\n        /* \"#utility.yul\":3487:3493   */\n      dup5\n        /* \"#utility.yul\":3445:3494   */\n      tag_84\n      jump\t// in\n    tag_143:\n        /* \"#utility.yul\":3429:3495   */\n      tag_83\n      jump\t// in\n    tag_142:\n        /* \"#utility.yul\":3420:3495   */\n      swap1\n      pop\n        /* \"#utility.yul\":3518:3524   */\n      dup3\n        /* \"#utility.yul\":3511:3516   */\n      dup2\n        /* \"#utility.yul\":3504:3525   */\n      mstore\n        /* \"#utility.yul\":3556:3560   */\n      0x20\n        /* \"#utility.yul\":3549:3554   */\n      dup2\n        /* \"#utility.yul\":3545:3561   */\n      add\n        /* \"#utility.yul\":3594:3597   */\n      dup5\n        /* \"#utility.yul\":3585:3591   */\n      dup5\n        /* \"#utility.yul\":3580:3583   */\n      dup5\n        /* \"#utility.yul\":3576:3592   */\n      add\n        /* \"#utility.yul\":3573:3598   */\n      gt\n        /* \"#utility.yul\":3570:3682   */\n      iszero\n      tag_144\n      jumpi\n        /* \"#utility.yul\":3601:3680   */\n      tag_145\n      tag_80\n      jump\t// in\n    tag_145:\n        /* \"#utility.yul\":3570:3682   */\n    tag_144:\n        /* \"#utility.yul\":3691:3745   */\n      tag_146\n        /* \"#utility.yul\":3738:3744   */\n      dup5\n        /* \"#utility.yul\":3733:3736   */\n      dup3\n        /* \"#utility.yul\":3728:3731   */\n      dup6\n        /* \"#utility.yul\":3691:3745   */\n      tag_85\n      jump\t// in\n    tag_146:\n        /* \"#utility.yul\":3410:3751   */\n      pop\n        /* \"#utility.yul\":3326:3751   */\n      swap4\n      swap3\n      pop\n      pop\n      pop\n      jump\t// out\n        /* \"#utility.yul\":3771:4111   */\n    tag_87:\n        /* \"#utility.yul\":3827:3832   */\n      0x00\n        /* \"#utility.yul\":3876:3879   */\n      dup3\n        /* \"#utility.yul\":3869:3873   */\n      0x1f\n        /* \"#utility.yul\":3861:3867   */\n      dup4\n        /* \"#utility.yul\":3857:3874   */\n      add\n        /* \"#utility.yul\":3853:3880   */\n      slt\n        /* \"#utility.yul\":3843:3965   */\n      tag_148\n      jumpi\n        /* \"#utility.yul\":3884:3963   */\n      tag_149\n      tag_79\n      jump\t// in\n    tag_149:\n        /* \"#utility.yul\":3843:3965   */\n    tag_148:\n        /* \"#utility.yul\":4001:4007   */\n      dup2\n        /* \"#utility.yul\":3988:4008   */\n      calldataload\n        /* \"#utility.yul\":4026:4105   */\n      tag_150\n        /* \"#utility.yul\":4101:4104   */\n      dup5\n        /* \"#utility.yul\":4093:4099   */\n      dup3\n        /* \"#utility.yul\":4086:4090   */\n      0x20\n        /* \"#utility.yul\":4078:4084   */\n      dup7\n        /* \"#utility.yul\":4074:4091   */\n      add\n        /* \"#utility.yul\":4026:4105   */\n      tag_86\n      jump\t// in\n    tag_150:\n        /* \"#utility.yul\":4017:4105   */\n      swap2\n      pop\n        /* \"#utility.yul\":3833:4111   */\n      pop\n        /* \"#utility.yul\":3771:4111   */\n      swap3\n      swap2\n      pop\n      pop\n      jump\t// out\n        /* \"#utility.yul\":4117:4951   */\n    tag_33:\n        /* \"#utility.yul\":4205:4211   */\n      0x00\n        /* \"#utility.yul\":4213:4219   */\n      dup1\n        /* \"#utility.yul\":4262:4264   */\n      0x40\n        /* \"#utility.yul\":4250:4259   */\n      dup4\n        /* \"#utility.yul\":4241:4248   */\n      dup6\n        /* \"#utility.yul\":4237:4260   */\n      sub\n        /* \"#utility.yul\":4233:4265   */\n      slt\n        /* \"#utility.yul\":4230:4349   */\n      iszero\n      tag_152\n      jumpi\n        /* \"#utility.yul\":4268:4347   */\n      tag_153\n      tag_77\n      jump\t// in\n    tag_153:\n        /* \"#utility.yul\":4230:4349   */\n    tag_152:\n        /* \"#utility.yul\":4416:4417   */\n      0x00\n        /* \"#utility.yul\":4405:4414   */\n      dup4\n        /* \"#utility.yul\":4401:4418   */\n      add\n        /* \"#utility.yul\":4388:4419   */\n      calldataload\n        /* \"#utility.yul\":4446:4464   */\n      0xffffffffffffffff\n        /* \"#utility.yul\":4438:4444   */\n      dup2\n        /* \"#utility.yul\":4435:4465   */\n      gt\n        /* \"#utility.yul\":4432:4549   */\n      iszero\n      tag_154\n      jumpi\n        /* \"#utility.yul\":4468:4547   */\n      tag_155\n      tag_78\n      jump\t// in\n    tag_155:\n        /* \"#utility.yul\":4432:4549   */\n    tag_154:\n        /* \"#utility.yul\":4573:4636   */\n      tag_156\n        /* \"#utility.yul\":4628:4635   */\n      dup6\n        /* \"#utility.yul\":4619:4625   */\n      dup3\n        /* \"#utility.yul\":4608:4617   */\n      dup7\n        /* \"#utility.yul\":4604:4626   */\n      add\n        /* \"#utility.yul\":4573:4636   */\n      tag_87\n      jump\t// in\n    tag_156:\n        /* \"#utility.yul\":4563:4636   */\n      swap3\n      pop\n        /* \"#utility.yul\":4359:4646   */\n      pop\n        /* \"#utility.yul\":4713:4715   */\n      0x20\n        /* \"#utility.yul\":4702:4711   */\n      dup4\n        /* \"#utility.yul\":4698:4716   */\n      add\n        /* \"#utility.yul\":4685:4717   */\n      calldataload\n        /* \"#utility.yul\":4744:4762   */\n      0xffffffffffffffff\n        /* \"#utility.yul\":4736:4742   */\n      dup2\n        /* \"#utility.yul\":4733:4763   */\n      gt\n        /* \"#utility.yul\":4730:4847   */\n      iszero\n      tag_157\n      jumpi\n        /* \"#utility.yul\":4766:4845   */\n      tag_158\n      tag_78\n      jump\t// in\n    tag_158:\n        /* \"#utility.yul\":4730:4847   */\n    tag_157:\n        /* \"#utility.yul\":4871:4934   */\n      tag_159\n        /* \"#utility.yul\":4926:4933   */\n      dup6\n        /* \"#utility.yul\":4917:4923   */\n      dup3\n        /* \"#utility.yul\":4906:4915   */\n      dup7\n        /* \"#utility.yul\":4902:4924   */\n      add\n        /* \"#utility.yul\":4871:4934   */\n      tag_87\n      jump\t// in\n    tag_159:\n        /* \"#utility.yul\":4861:4934   */\n      swap2\n      pop\n        /* \"#utility.yul\":4656:4944   */\n      pop\n        /* \"#utility.yul\":4117:4951   */\n      swap3\n      pop\n      swap3\n      swap1\n      pop\n      jump\t// out\n        /* \"#utility.yul\":4957:5137   */\n    tag_88:\n        /* \"#utility.yul\":5005:5082   */\n      0x4e487b7100000000000000000000000000000000000000000000000000000000\n        /* \"#utility.yul\":5002:5003   */\n      0x00\n        /* \"#utility.yul\":4995:5083   */\n      mstore\n        /* \"#utility.yul\":5102:5106   */\n      0x22\n        /* \"#utility.yul\":5099:5100   */\n      0x04\n        /* \"#utility.yul\":5092:5107   */\n      mstore\n        /* \"#utility.yul\":5126:5130   */\n      0x24\n        /* \"#utility.yul\":5123:5124   */\n      0x00\n        /* \"#utility.yul\":5116:5131   */\n      revert\n        /* \"#utility.yul\":5143:5463   */\n    tag_39:\n        /* \"#utility.yul\":5187:5193   */\n      0x00\n        /* \"#utility.yul\":5224:5225   */\n      0x02\n        /* \"#utility.yul\":5218:5222   */\n      dup3\n        /* \"#utility.yul\":5214:5226   */\n      div\n        /* \"#utility.yul\":5204:5226   */\n      swap1\n      pop\n        /* \"#utility.yul\":5271:5272   */\n      0x01\n        /* \"#utility.yul\":5265:5269   */\n      dup3\n        /* \"#utility.yul\":5261:5273   */\n      and\n        /* \"#utility.yul\":5292:5310   */\n      dup1\n        /* \"#utility.yul\":5282:5363   */\n      tag_162\n      jumpi\n        /* \"#utility.yul\":5348:5352   */\n      0x7f\n        /* \"#utility.yul\":5340:5346   */\n      dup3\n        /* \"#utility.yul\":5336:5353   */\n      and\n        /* \"#utility.yul\":5326:5353   */\n      swap2\n      pop\n        /* \"#utility.yul\":5282:5363   */\n    tag_162:\n        /* \"#utility.yul\":5410:5412   */\n      0x20\n        /* \"#utility.yul\":5402:5408   */\n      dup3\n        /* \"#utility.yul\":5399:5413   */\n      lt\n        /* \"#utility.yul\":5379:5397   */\n      dup2\n        /* \"#utility.yul\":5376:5414   */\n      sub\n        /* \"#utility.yul\":5373:5457   */\n      tag_163\n      jumpi\n        /* \"#utility.yul\":5429:5447   */\n      tag_164\n      tag_88\n      jump\t// in\n    tag_164:\n        /* \"#utility.yul\":5373:5457   */\n    tag_163:\n        /* \"#utility.yul\":5194:5463   */\n      pop\n        /* \"#utility.yul\":5143:5463   */\n      swap2\n      swap1\n      pop\n      jump\t// out\n        /* \"#utility.yul\":5469:5644   */\n    tag_89:\n        /* \"#utility.yul\":5609:5636   */\n      0x5461736b206e616d652063616e6e6f7420626520656d70747900000000000000\n        /* \"#utility.yul\":5605:5606   */\n      0x00\n        /* \"#utility.yul\":5597:5603   */\n      dup3\n        /* \"#utility.yul\":5593:5607   */\n      add\n        /* \"#utility.yul\":5586:5637   */\n      mstore\n        /* \"#utility.yul\":5469:5644   */\n      pop\n      jump\t// out\n        /* \"#utility.yul\":5650:6016   */\n    tag_90:\n        /* \"#utility.yul\":5792:5795   */\n      0x00\n        /* \"#utility.yul\":5813:5880   */\n      tag_167\n        /* \"#utility.yul\":5877:5879   */\n      0x19\n        /* \"#utility.yul\":5872:5875   */\n      dup4\n        /* \"#utility.yul\":5813:5880   */\n      tag_72\n      jump\t// in\n    tag_167:\n        /* \"#utility.yul\":5806:5880   */\n      swap2\n      pop\n        /* \"#utility.yul\":5889:5982   */\n      tag_168\n        /* \"#utility.yul\":5978:5981   */\n      dup3\n        /* \"#utility.yul\":5889:5982   */\n      tag_89\n      jump\t// in\n    tag_168:\n        /* \"#utility.yul\":6007:6009   */\n      0x20\n        /* \"#utility.yul\":6002:6005   */\n      dup3\n        /* \"#utility.yul\":5998:6010   */\n      add\n        /* \"#utility.yul\":5991:6010   */\n      swap1\n      pop\n        /* \"#utility.yul\":5650:6016   */\n      swap2\n      swap1\n      pop\n      jump\t// out\n        /* \"#utility.yul\":6022:6441   */\n    tag_59:\n        /* \"#utility.yul\":6188:6192   */\n      0x00\n        /* \"#utility.yul\":6226:6228   */\n      0x20\n        /* \"#utility.yul\":6215:6224   */\n      dup3\n        /* \"#utility.yul\":6211:6229   */\n      add\n        /* \"#utility.yul\":6203:6229   */\n      swap1\n      pop\n        /* \"#utility.yul\":6275:6284   */\n      dup2\n        /* \"#utility.yul\":6269:6273   */\n      dup2\n        /* \"#utility.yul\":6265:6285   */\n      sub\n        /* \"#utility.yul\":6261:6262   */\n      0x00\n        /* \"#utility.yul\":6250:6259   */\n      dup4\n        /* \"#utility.yul\":6246:6263   */\n      add\n        /* \"#utility.yul\":6239:6286   */\n      mstore\n        /* \"#utility.yul\":6303:6434   */\n      tag_170\n        /* \"#utility.yul\":6429:6433   */\n      dup2\n        /* \"#utility.yul\":6303:6434   */\n      tag_90\n      jump\t// in\n    tag_170:\n        /* \"#utility.yul\":6295:6434   */\n      swap1\n      pop\n        /* \"#utility.yul\":6022:6441   */\n      swap2\n      swap1\n      pop\n      jump\t// out\n        /* \"#utility.yul\":6447:6588   */\n    tag_91:\n        /* \"#utility.yul\":6496:6500   */\n      0x00\n        /* \"#utility.yul\":6519:6522   */\n      dup2\n        /* \"#utility.yul\":6511:6522   */\n      swap1\n      pop\n        /* \"#utility.yul\":6542:6545   */\n      dup2\n        /* \"#utility.yul\":6539:6540   */\n      0x00\n        /* \"#utility.yul\":6532:6546   */\n      mstore\n        /* \"#utility.yul\":6576:6580   */\n      0x20\n        /* \"#utility.yul\":6573:6574   */\n      0x00\n        /* \"#utility.yul\":6563:6581   */\n      keccak256\n        /* \"#utility.yul\":6555:6581   */\n      swap1\n      pop\n        /* \"#utility.yul\":6447:6588   */\n      swap2\n      swap1\n      pop\n      jump\t// out\n        /* \"#utility.yul\":6594:6687   */\n    tag_92:\n        /* \"#utility.yul\":6631:6637   */\n      0x00\n        /* \"#utility.yul\":6678:6680   */\n      0x20\n        /* \"#utility.yul\":6673:6675   */\n      0x1f\n        /* \"#utility.yul\":6666:6671   */\n      dup4\n        /* \"#utility.yul\":6662:6676   */\n      add\n        /* \"#utility.yul\":6658:6681   */\n      div\n        /* \"#utility.yul\":6648:6681   */\n      swap1\n      pop\n        /* \"#utility.yul\":6594:6687   */\n      swap2\n      swap1\n      pop\n      jump\t// out\n        /* \"#utility.yul\":6693:6800   */\n    tag_93:\n        /* \"#utility.yul\":6737:6745   */\n      0x00\n        /* \"#utility.yul\":6787:6792   */\n      dup3\n        /* \"#utility.yul\":6781:6785   */\n      dup3\n        /* \"#utility.yul\":6777:6793   */\n      shl\n        /* \"#utility.yul\":6756:6793   */\n      swap1\n      pop\n        /* \"#utility.yul\":6693:6800   */\n      swap3\n      swap2\n      pop\n      pop\n      jump\t// out\n        /* \"#utility.yul\":6806:7199   */\n    tag_94:\n        /* \"#utility.yul\":6875:6881   */\n      0x00\n        /* \"#utility.yul\":6925:6926   */\n      0x08\n        /* \"#utility.yul\":6913:6923   */\n      dup4\n        /* \"#utility.yul\":6909:6927   */\n      mul\n        /* \"#utility.yul\":6948:7045   */\n      tag_175\n        /* \"#utility.yul\":6978:7044   */\n      0xffffffffffffffffffffffffffffffffffffffffffffffffffffffffffffffff\n        /* \"#utility.yul\":6967:6976   */\n      dup3\n        /* \"#utility.yul\":6948:7045   */\n      tag_93\n      jump\t// in\n    tag_175:\n        /* \"#utility.yul\":7066:7105   */\n      tag_176\n        /* \"#utility.yul\":7096:7104   */\n      dup7\n        /* \"#utility.yul\":7085:7094   */\n      dup4\n        /* \"#utility.yul\":7066:7105   */\n      tag_93\n      jump\t// in\n    tag_176:\n        /* \"#utility.yul\":7054:7105   */\n      swap6\n      pop\n        /* \"#utility.yul\":7138:7142   */\n      dup1\n        /* \"#utility.yul\":7134:7143   */\n      not\n        /* \"#utility.yul\":7127:7132   */\n      dup5\n        /* \"#utility.yul\":7123:7144   */\n      and\n        /* \"#utility.yul\":7114:7144   */\n      swap4\n      pop\n        /* \"#utility.yul\":7187:7191   */\n      dup1\n        /* \"#utility.yul\":7177:7185   */\n      dup7\n        /* \"#utility.yul\":7173:7192   */\n      and\n        /* \"#utility.yul\":7166:7171   */\n      dup5\n        /* \"#utility.yul\":7163:7193   */\n      or\n        /* \"#utility.yul\":7153:7193   */\n      swap3\n      pop\n        /* \"#utility.yul\":6882:7199   */\n      pop\n      pop\n        /* \"#utility.yul\":6806:7199   */\n      swap4\n      swap3\n      pop\n      pop\n      pop\n      jump\t// out\n        /* \"#utility.yul\":7205:7265   */\n    tag_95:\n        /* \"#utility.yul\":7233:7236   */\n      0x00\n        /* \"#utility.yul\":7254:7259   */\n      dup2\n        /* \"#utility.yul\":7247:7259   */\n      swap1\n      pop\n        /* \"#utility.yul\":7205:7265   */\n      swap2\n      swap1\n      pop\n      jump\t// out\n        /* \"#utility.yul\":7271:7413   */\n    tag_96:\n        /* \"#utility.yul\":7321:7330   */\n      0x00\n        /* \"#utility.yul\":7354:7407   */\n      tag_179\n        /* \"#utility.yul\":7372:7406   */\n      tag_180\n        /* \"#utility.yul\":7381:7405   */\n      tag_181\n        /* \"#utility.yul\":7399:7404   */\n      dup5\n        /* \"#utility.yul\":7381:7405   */\n      tag_69\n      jump\t// in\n    tag_181:\n        /* \"#utility.yul\":7372:7406   */\n      tag_95\n      jump\t// in\n    tag_180:\n        /* \"#utility.yul\":7354:7407   */\n      tag_69\n      jump\t// in\n    tag_179:\n        /* \"#utility.yul\":7341:7407   */\n      swap1\n      pop\n        /* \"#utility.yul\":7271:7413   */\n      swap2\n      swap1\n      pop\n      jump\t// out\n        /* \"#utility.yul\":7419:7494   */\n    tag_97:\n        /* \"#utility.yul\":7462:7465   */\n      0x00\n        /* \"#utility.yul\":7483:7488   */\n      dup2\n        /* \"#utility.yul\":7476:7488   */\n      swap1\n      pop\n        /* \"#utility.yul\":7419:7494   */\n      swap2\n      swap1\n      pop\n      jump\t// out\n        /* \"#utility.yul\":7500:7769   */\n    tag_98:\n        /* \"#utility.yul\":7610:7649   */\n      tag_184\n        /* \"#utility.yul\":7641:7648   */\n      dup4\n        /* \"#utility.yul\":7610:7649   */\n      tag_96\n      jump\t// in\n    tag_184:\n        /* \"#utility.yul\":7671:7762   */\n      tag_185\n        /* \"#utility.yul\":7720:7761   */\n      tag_186\n        /* \"#utility.yul\":7744:7760   */\n      dup3\n        /* \"#utility.yul\":7720:7761   */\n      tag_97\n      jump\t// in\n    tag_186:\n        /* \"#utility.yul\":7712:7718   */\n      dup5\n        /* \"#utility.yul\":7705:7709   */\n      dup5\n        /* \"#utility.yul\":7699:7710   */\n      sload\n        /* \"#utility.yul\":7671:7762   */\n      tag_94\n      jump\t// in\n    tag_185:\n        /* \"#utility.yul\":7665:7669   */\n      dup3\n        /* \"#utility.yul\":7658:7763   */\n      sstore\n        /* \"#utility.yul\":7576:7769   */\n      pop\n        /* \"#utility.yul\":7500:7769   */\n      pop\n      pop\n      pop\n      jump\t// out\n        /* \"#utility.yul\":7775:7848   */\n    tag_99:\n        /* \"#utility.yul\":7820:7823   */\n      0x00\n        /* \"#utility.yul\":7775:7848   */\n      swap1\n      jump\t// out\n        /* \"#utility.yul\":7854:8043   */\n    tag_100:\n        /* \"#utility.yul\":7931:7963   */\n      tag_189\n      tag_99\n      jump\t// in\n    tag_189:\n        /* \"#utility.yul\":7972:8037   */\n      tag_190\n        /* \"#utility.yul\":8030:8036   */\n      dup2\n        /* \"#utility.yul\":8022:8028   */\n      dup5\n        /* \"#utility.yul\":8016:8020   */\n      dup5\n        /* \"#utility.yul\":7972:8037   */\n      tag_98\n      jump\t// in\n    tag_190:\n        /* \"#utility.yul\":7907:8043   */\n      pop\n        /* \"#utility.yul\":7854:8043   */\n      pop\n      pop\n      jump\t// out\n        /* \"#utility.yul\":8049:8235   */\n    tag_101:\n        /* \"#utility.yul\":8109:8229   */\n    tag_192:\n        /* \"#utility.yul\":8126:8129   */\n      dup2\n        /* \"#utility.yul\":8119:8124   */\n      dup2\n        /* \"#utility.yul\":8116:8130   */\n      lt\n        /* \"#utility.yul\":8109:8229   */\n      iszero\n      tag_194\n      jumpi\n        /* \"#utility.yul\":8180:8219   */\n      tag_195\n        /* \"#utility.yul\":8217:8218   */\n      0x00\n        /* \"#utility.yul\":8210:8215   */\n      dup3\n        /* \"#utility.yul\":8180:8219   */\n      tag_100\n      jump\t// in\n    tag_195:\n        /* \"#utility.yul\":8153:8154   */\n      0x01\n        /* \"#utility.yul\":8146:8151   */\n      dup2\n        /* \"#utility.yul\":8142:8155   */\n      add\n        /* \"#utility.yul\":8133:8155   */\n      swap1\n      pop\n        /* \"#utility.yul\":8109:8229   */\n      jump(tag_192)\n    tag_194:\n        /* \"#utility.yul\":8049:8235   */\n      pop\n      pop\n      jump\t// out\n        /* \"#utility.yul\":8241:8784   */\n    tag_102:\n        /* \"#utility.yul\":8342:8344   */\n      0x1f\n        /* \"#utility.yul\":8337:8340   */\n      dup3\n        /* \"#utility.yul\":8334:8345   */\n      gt\n        /* \"#utility.yul\":8331:8777   */\n      iszero\n      tag_197\n      jumpi\n        /* \"#utility.yul\":8376:8414   */\n      tag_198\n        /* \"#utility.yul\":8408:8413   */\n      dup2\n        /* \"#utility.yul\":8376:8414   */\n      tag_91\n      jump\t// in\n    tag_198:\n        /* \"#utility.yul\":8460:8489   */\n      tag_199\n        /* \"#utility.yul\":8478:8488   */\n      dup5\n        /* \"#utility.yul\":8460:8489   */\n      tag_92\n      jump\t// in\n    tag_199:\n        /* \"#utility.yul\":8450:8458   */\n      dup2\n        /* \"#utility.yul\":8446:8490   */\n      add\n        /* \"#utility.yul\":8643:8645   */\n      0x20\n        /* \"#utility.yul\":8631:8641   */\n      dup6\n        /* \"#utility.yul\":8628:8646   */\n      lt\n        /* \"#utility.yul\":8625:8674   */\n      iszero\n      tag_200\n      jumpi\n        /* \"#utility.yul\":8664:8672   */\n      dup2\n        /* \"#utility.yul\":8649:8672   */\n      swap1\n      pop\n        /* \"#utility.yul\":8625:8674   */\n    tag_200:\n        /* \"#utility.yul\":8687:8767   */\n      tag_201\n        /* \"#utility.yul\":8743:8765   */\n      tag_202\n        /* \"#utility.yul\":8761:8764   */\n      dup6\n        /* \"#utility.yul\":8743:8765   */\n      tag_92\n      jump\t// in\n    tag_202:\n        /* \"#utility.yul\":8733:8741   */\n      dup4\n        /* \"#utility.yul\":8729:8766   */\n      add\n        /* \"#utility.yul\":8716:8727   */\n      dup3\n        /* \"#utility.yul\":8687:8767   */\n      tag_101\n      jump\t// in\n    tag_201:\n        /* \"#utility.yul\":8346:8777   */\n      pop\n      pop\n        /* \"#utility.yul\":8331:8777   */\n    tag_197:\n        /* \"#utility.yul\":8241:8784   */\n      pop\n      pop\n      pop\n      jump\t// out\n        /* \"#utility.yul\":8790:8907   */\n    tag_103:\n        /* \"#utility.yul\":8844:8852   */\n      0x00\n        /* \"#utility.yul\":8894:8899   */\n      dup3\n        /* \"#utility.yul\":8888:8892   */\n      dup3\n        /* \"#utility.yul\":8884:8900   */\n      shr\n        /* \"#utility.yul\":8863:8900   */\n      swap1\n      pop\n        /* \"#utility.yul\":8790:8907   */\n      swap3\n      swap2\n      pop\n      pop\n      jump\t// out\n        /* \"#utility.yul\":8913:9082   */\n    tag_104:\n        /* \"#utility.yul\":8957:8963   */\n      0x00\n        /* \"#utility.yul\":8990:9041   */\n      tag_205\n        /* \"#utility.yul\":9038:9039   */\n      0x00\n        /* \"#utility.yul\":9034:9040   */\n      not\n        /* \"#utility.yul\":9026:9031   */\n      dup5\n        /* \"#utility.yul\":9023:9024   */\n      0x08\n        /* \"#utility.yul\":9019:9032   */\n      mul\n        /* \"#utility.yul\":8990:9041   */\n      tag_103\n      jump\t// in\n    tag_205:\n        /* \"#utility.yul\":8986:9042   */\n      not\n        /* \"#utility.yul\":9071:9075   */\n      dup1\n        /* \"#utility.yul\":9065:9069   */\n      dup4\n        /* \"#utility.yul\":9061:9076   */\n      and\n        /* \"#utility.yul\":9051:9076   */\n      swap2\n      pop\n        /* \"#utility.yul\":8964:9082   */\n      pop\n        /* \"#utility.yul\":8913:9082   */\n      swap3\n      swap2\n      pop\n      pop\n      jump\t// out\n        /* \"#utility.yul\":9087:9382   */\n    tag_105:\n        /* \"#utility.yul\":9163:9167   */\n      0x00\n        /* \"#utility.yul\":9309:9338   */\n      tag_207\n        /* \"#utility.yul\":9334:9337   */\n      dup4\n        /* \"#utility.yul\":9328:9332   */\n      dup4\n        /* \"#utility.yul\":9309:9338   */\n      tag_104\n      jump\t// in\n    tag_207:\n        /* \"#utility.yul\":9301:9338   */\n      swap2\n      pop\n        /* \"#utility.yul\":9371:9374   */\n      dup3\n        /* \"#utility.yul\":9368:9369   */\n      0x02\n        /* \"#utility.yul\":9364:9375   */\n      mul\n        /* \"#utility.yul\":9358:9362   */\n      dup3\n        /* \"#utility.yul\":9355:9376   */\n      or\n        /* \"#utility.yul\":9347:9376   */\n      swap1\n      pop\n        /* \"#utility.yul\":9087:9382   */\n      swap3\n      swap2\n      pop\n      pop\n      jump\t// out\n        /* \"#utility.yul\":9387:10782   */\n    tag_61:\n        /* \"#utility.yul\":9504:9541   */\n      tag_209\n        /* \"#utility.yul\":9537:9540   */\n      dup3\n        /* \"#utility.yul\":9504:9541   */\n      tag_71\n      jump\t// in\n    tag_209:\n        /* \"#utility.yul\":9606:9624   */\n      0xffffffffffffffff\n        /* \"#utility.yul\":9598:9604   */\n      dup2\n        /* \"#utility.yul\":9595:9625   */\n      gt\n        /* \"#utility.yul\":9592:9648   */\n      iszero\n      tag_210\n      jumpi\n        /* \"#utility.yul\":9628:9646   */\n      tag_211\n      tag_81\n      jump\t// in\n    tag_211:\n        /* \"#utility.yul\":9592:9648   */\n    tag_210:\n        /* \"#utility.yul\":9672:9710   */\n      tag_212\n        /* \"#utility.yul\":9704:9708   */\n      dup3\n        /* \"#utility.yul\":9698:9709   */\n      sload\n        /* \"#utility.yul\":9672:9710   */\n      tag_39\n      jump\t// in\n    tag_212:\n        /* \"#utility.yul\":9757:9824   */\n      tag_213\n        /* \"#utility.yul\":9817:9823   */\n      dup3\n        /* \"#utility.yul\":9809:9815   */\n      dup3\n        /* \"#utility.yul\":9803:9807   */\n      dup6\n        /* \"#utility.yul\":9757:9824   */\n      tag_102\n      jump\t// in\n    tag_213:\n        /* \"#utility.yul\":9851:9852   */\n      0x00\n        /* \"#utility.yul\":9875:9879   */\n      0x20\n        /* \"#utility.yul\":9862:9879   */\n      swap1\n      pop\n        /* \"#utility.yul\":9907:9909   */\n      0x1f\n        /* \"#utility.yul\":9899:9905   */\n      dup4\n        /* \"#utility.yul\":9896:9910   */\n      gt\n        /* \"#utility.yul\":9924:9925   */\n      0x01\n        /* \"#utility.yul\":9919:10537   */\n      dup2\n      eq\n      tag_215\n      jumpi\n        /* \"#utility.yul\":10581:10582   */\n      0x00\n        /* \"#utility.yul\":10598:10604   */\n      dup5\n        /* \"#utility.yul\":10595:10672   */\n      iszero\n      tag_216\n      jumpi\n        /* \"#utility.yul\":10647:10656   */\n      dup3\n        /* \"#utility.yul\":10642:10645   */\n      dup8\n        /* \"#utility.yul\":10638:10657   */\n      add\n        /* \"#utility.yul\":10632:10658   */\n      mload\n        /* \"#utility.yul\":10623:10658   */\n      swap1\n      pop\n        /* \"#utility.yul\":10595:10672   */\n    tag_216:\n        /* \"#utility.yul\":10698:10765   */\n      tag_217\n        /* \"#utility.yul\":10758:10764   */\n      dup6\n        /* \"#utility.yul\":10751:10756   */\n      dup3\n        /* \"#utility.yul\":10698:10765   */\n      tag_105\n      jump\t// in\n    tag_217:\n        /* \"#utility.yul\":10692:10696   */\n      dup7\n        /* \"#utility.yul\":10685:10766   */\n      sstore\n        /* \"#utility.yul\":10554:10776   */\n      pop\n        /* \"#utility.yul\":9889:10776   */\n      jump(tag_214)\n        /* \"#utility.yul\":9919:10537   */\n    tag_215:\n        /* \"#utility.yul\":9971:9975   */\n      0x1f\n        /* \"#utility.yul\":9967:9976   */\n      not\n        /* \"#utility.yul\":9959:9965   */\n      dup5\n        /* \"#utility.yul\":9955:9977   */\n      and\n        /* \"#utility.yul\":10005:10042   */\n      tag_218\n        /* \"#utility.yul\":10037:10041   */\n      dup7\n        /* \"#utility.yul\":10005:10042   */\n      tag_91\n      jump\t// in\n    tag_218:\n        /* \"#utility.yul\":10064:10065   */\n      0x00\n        /* \"#utility.yul\":10078:10286   */\n    tag_219:\n        /* \"#utility.yul\":10092:10099   */\n      dup3\n        /* \"#utility.yul\":10089:10090   */\n      dup2\n        /* \"#utility.yul\":10086:10100   */\n      lt\n        /* \"#utility.yul\":10078:10286   */\n      iszero\n      tag_221\n      jumpi\n        /* \"#utility.yul\":10171:10180   */\n      dup5\n        /* \"#utility.yul\":10166:10169   */\n      dup10\n        /* \"#utility.yul\":10162:10181   */\n      add\n        /* \"#utility.yul\":10156:10182   */\n      mload\n        /* \"#utility.yul\":10148:10154   */\n      dup3\n        /* \"#utility.yul\":10141:10183   */\n      sstore\n        /* \"#utility.yul\":10222:10223   */\n      0x01\n        /* \"#utility.yul\":10214:10220   */\n      dup3\n        /* \"#utility.yul\":10210:10224   */\n      add\n        /* \"#utility.yul\":10200:10224   */\n      swap2\n      pop\n        /* \"#utility.yul\":10269:10271   */\n      0x20\n        /* \"#utility.yul\":10258:10267   */\n      dup6\n        /* \"#utility.yul\":10254:10272   */\n      add\n        /* \"#utility.yul\":10241:10272   */\n      swap5\n      pop\n        /* \"#utility.yul\":10115:10119   */\n      0x20\n        /* \"#utility.yul\":10112:10113   */\n      dup2\n        /* \"#utility.yul\":10108:10120   */\n      add\n        /* \"#utility.yul\":10103:10120   */\n      swap1\n      pop\n        /* \"#utility.yul\":10078:10286   */\n      jump(tag_219)\n    tag_221:\n        /* \"#utility.yul\":10314:10320   */\n      dup7\n        /* \"#utility.yul\":10305:10312   */\n      dup4\n        /* \"#utility.yul\":10302:10321   */\n      lt\n        /* \"#utility.yul\":10299:10478   */\n      iszero\n      tag_222\n      jumpi\n        /* \"#utility.yul\":10372:10381   */\n      dup5\n        /* \"#utility.yul\":10367:10370   */\n      dup10\n        /* \"#utility.yul\":10363:10382   */\n      add\n        /* \"#utility.yul\":10357:10383   */\n      mload\n        /* \"#utility.yul\":10415:10463   */\n      tag_223\n        /* \"#utility.yul\":10457:10461   */\n      0x1f\n        /* \"#utility.yul\":10449:10455   */\n      dup10\n        /* \"#utility.yul\":10445:10462   */\n      and\n        /* \"#utility.yul\":10434:10443   */\n      dup3\n        /* \"#utility.yul\":10415:10463   */\n      tag_104\n      jump\t// in\n    tag_223:\n        /* \"#utility.yul\":10407:10413   */\n      dup4\n        /* \"#utility.yul\":10400:10464   */\n      sstore\n        /* \"#utility.yul\":10322:10478   */\n      pop\n        /* \"#utility.yul\":10299:10478   */\n    tag_222:\n        /* \"#utility.yul\":10524:10525   */\n      0x01\n        /* \"#utility.yul\":10520:10521   */\n      0x02\n        /* \"#utility.yul\":10512:10518   */\n      dup9\n        /* \"#utility.yul\":10508:10522   */\n      mul\n        /* \"#utility.yul\":10504:10526   */\n      add\n        /* \"#utility.yul\":10498:10502   */\n      dup9\n        /* \"#utility.yul\":10491:10527   */\n      sstore\n        /* \"#utility.yul\":9926:10537   */\n      pop\n      pop\n      pop\n        /* \"#utility.yul\":9889:10776   */\n    tag_214:\n      pop\n        /* \"#utility.yul\":9479:10782   */\n      pop\n      pop\n      pop\n        /* \"#utility.yul\":9387:10782   */\n      pop\n      pop\n      jump\t// out\n\n    auxdata: 0xa2646970667358221220459acf8cc3d86952d834f3a2e0306d927ef478e305fb9f066e594ac5a588e0c064736f6c634300081a0033\n}\n",
				"bytecode": {
					"linkReferences": {},
					"object": "608060405234801561000f575f80fd5b506040518060400160405280600a81526020017f50726f6772616d6d6572000000000000000000000000000000000000000000008152506002908161005491906102d9565b506040518060400160405280600681526020017f64756d64756d00000000000000000000000000000000000000000000000000008152506001908161009991906102d9565b506103a8565b5f81519050919050565b7f4e487b71000000000000000000000000000000000000000000000000000000005f52604160045260245ffd5b7f4e487b71000000000000000000000000000000000000000000000000000000005f52602260045260245ffd5b5f600282049050600182168061011a57607f821691505b60208210810361012d5761012c6100d6565b5b50919050565b5f819050815f5260205f209050919050565b5f6020601f8301049050919050565b5f82821b905092915050565b5f6008830261018f7fffffffffffffffffffffffffffffffffffffffffffffffffffffffffffffffff82610154565b6101998683610154565b95508019841693508086168417925050509392505050565b5f819050919050565b5f819050919050565b5f6101dd6101d86101d3846101b1565b6101ba565b6101b1565b9050919050565b5f819050919050565b6101f6836101c3565b61020a610202826101e4565b848454610160565b825550505050565b5f90565b61021e610212565b6102298184846101ed565b505050565b5b8181101561024c576102415f82610216565b60018101905061022f565b5050565b601f8211156102915761026281610133565b61026b84610145565b8101602085101561027a578190505b61028e61028685610145565b83018261022e565b50505b505050565b5f82821c905092915050565b5f6102b15f1984600802610296565b1980831691505092915050565b5f6102c983836102a2565b9150826002028217905092915050565b6102e28261009f565b67ffffffffffffffff8111156102fb576102fa6100a9565b5b6103058254610103565b610310828285610250565b5f60209050601f831160018114610341575f841561032f578287015190505b61033985826102be565b8655506103a0565b601f19841661034f86610133565b5f5b8281101561037657848901518255600182019150602085019450602081019050610351565b86831015610393578489015161038f601f8916826102a2565b8355505b6001600288020188555050505b505050505050565b6109ac806103b55f395ff3fe608060405234801561000f575f80fd5b5060043610610086575f3560e01c806397c16e781161005957806397c16e7814610102578063a4e7d4371461010c578063bba75f9f1461012a578063bbad9c7a1461014657610086565b80630397b6521461008a57806306fdde03146100a85780633ff4b938146100c6578063767800de146100e4575b5f80fd5b610092610164565b60405161009f91906103e9565b60405180910390f35b6100b061016a565b6040516100bd9190610472565b60405180910390f35b6100ce6101f5565b6040516100db9190610472565b60405180910390f35b6100ec610281565b6040516100f99190610472565b60405180910390f35b61010a61030d565b005b61011461030f565b60405161012191906103e9565b60405180910390f35b610144600480360381019061013f91906105cf565b61032c565b005b61014e610383565b60405161015b91906103e9565b60405180910390f35b60035481565b5f805461017690610672565b80601f01602080910402602001604051908101604052809291908181526020018280546101a290610672565b80156101ed5780601f106101c4576101008083540402835291602001916101ed565b820191905f5260205f20905b8154815290600101906020018083116101d057829003601f168201915b505050505081565b6002805461020290610672565b80601f016020809104026020016040519081016040528092919081815260200182805461022e90610672565b80156102795780601f1061025057610100808354040283529160200191610279565b820191905f5260205f20905b81548152906001019060200180831161025c57829003601f168201915b505050505081565b6001805461028e90610672565b80601f01602080910402602001604051908101604052809291908181526020018280546102ba90610672565b80156103055780601f106102dc57610100808354040283529160200191610305565b820191905f5260205f20905b8154815290600101906020018083116102e857829003601f168201915b505050505081565b565b5f3373ffffffffffffffffffffffffffffffffffffffff16905090565b5f81511161036f576040517f08c379a0000000000000000000000000000000000000000000000000000000008152600401610366906106ec565b60405180910390fd5b816001908161037e91906108a7565b505050565b5f805f90506002600454111561039c57600a90506103ca565b6004805411156103af57601490506103c9565b600660045411156103c357605090506103c8565b606490505b5b5b8091505090565b5f819050919050565b6103e3816103d1565b82525050565b5f6020820190506103fc5f8301846103da565b92915050565b5f81519050919050565b5f82825260208201905092915050565b8281835e5f83830152505050565b5f601f19601f8301169050919050565b5f61044482610402565b61044e818561040c565b935061045e81856020860161041c565b6104678161042a565b840191505092915050565b5f6020820190508181035f83015261048a818461043a565b905092915050565b5f604051905090565b5f80fd5b5f80fd5b5f80fd5b5f80fd5b7f4e487b71000000000000000000000000000000000000000000000000000000005f52604160045260245ffd5b6104e18261042a565b810181811067ffffffffffffffff82111715610500576104ff6104ab565b5b80604052505050565b5f610512610492565b905061051e82826104d8565b919050565b5f67ffffffffffffffff82111561053d5761053c6104ab565b5b6105468261042a565b9050602081019050919050565b828183375f83830152505050565b5f61057361056e84610523565b610509565b90508281526020810184848401111561058f5761058e6104a7565b5b61059a848285610553565b509392505050565b5f82601f8301126105b6576105b56104a3565b5b81356105c6848260208601610561565b91505092915050565b5f80604083850312156105e5576105e461049b565b5b5f83013567ffffffffffffffff8111156106025761060161049f565b5b61060e858286016105a2565b925050602083013567ffffffffffffffff81111561062f5761062e61049f565b5b61063b858286016105a2565b9150509250929050565b7f4e487b71000000000000000000000000000000000000000000000000000000005f52602260045260245ffd5b5f600282049050600182168061068957607f821691505b60208210810361069c5761069b610645565b5b50919050565b7f5461736b206e616d652063616e6e6f7420626520656d707479000000000000005f82015250565b5f6106d660198361040c565b91506106e1826106a2565b602082019050919050565b5f6020820190508181035f830152610703816106ca565b9050919050565b5f819050815f5260205f209050919050565b5f6020601f8301049050919050565b5f82821b905092915050565b5f600883026107667fffffffffffffffffffffffffffffffffffffffffffffffffffffffffffffffff8261072b565b610770868361072b565b95508019841693508086168417925050509392505050565b5f819050919050565b5f6107ab6107a66107a1846103d1565b610788565b6103d1565b9050919050565b5f819050919050565b6107c483610791565b6107d86107d0826107b2565b848454610737565b825550505050565b5f90565b6107ec6107e0565b6107f78184846107bb565b505050565b5b8181101561081a5761080f5f826107e4565b6001810190506107fd565b5050565b601f82111561085f576108308161070a565b6108398461071c565b81016020851015610848578190505b61085c6108548561071c565b8301826107fc565b50505b505050565b5f82821c905092915050565b5f61087f5f1984600802610864565b1980831691505092915050565b5f6108978383610870565b9150826002028217905092915050565b6108b082610402565b67ffffffffffffffff8111156108c9576108c86104ab565b5b6108d38254610672565b6108de82828561081e565b5f60209050601f83116001811461090f575f84156108fd578287015190505b610907858261088c565b86555061096e565b601f19841661091d8661070a565b5f5b828110156109445784890151825560018201915060208501945060208101905061091f565b86831015610961578489015161095d601f891682610870565b8355505b6001600288020188555050505b50505050505056fea2646970667358221220459acf8cc3d86952d834f3a2e0306d927ef478e305fb9f066e594ac5a588e0c064736f6c634300081a0033",
					"opcodes": "PUSH1 0x80 PUSH1 0x40 MSTORE CALLVALUE DUP1 ISZERO PUSH2 0xF JUMPI PUSH0 DUP1 REVERT JUMPDEST POP PUSH1 0x40 MLOAD DUP1 PUSH1 0x40 ADD PUSH1 0x40 MSTORE DUP1 PUSH1 0xA DUP2 MSTORE PUSH1 0x20 ADD PUSH32 0x50726F6772616D6D657200000000000000000000000000000000000000000000 DUP2 MSTORE POP PUSH1 0x2 SWAP1 DUP2 PUSH2 0x54 SWAP2 SWAP1 PUSH2 0x2D9 JUMP JUMPDEST POP PUSH1 0x40 MLOAD DUP1 PUSH1 0x40 ADD PUSH1 0x40 MSTORE DUP1 PUSH1 0x6 DUP2 MSTORE PUSH1 0x20 ADD PUSH32 0x64756D64756D0000000000000000000000000000000000000000000000000000 DUP2 MSTORE POP PUSH1 0x1 SWAP1 DUP2 PUSH2 0x99 SWAP2 SWAP1 PUSH2 0x2D9 JUMP JUMPDEST POP PUSH2 0x3A8 JUMP JUMPDEST PUSH0 DUP2 MLOAD SWAP1 POP SWAP2 SWAP1 POP JUMP JUMPDEST PUSH32 0x4E487B7100000000000000000000000000000000000000000000000000000000 PUSH0 MSTORE PUSH1 0x41 PUSH1 0x4 MSTORE PUSH1 0x24 PUSH0 REVERT JUMPDEST PUSH32 0x4E487B7100000000000000000000000000000000000000000000000000000000 PUSH0 MSTORE PUSH1 0x22 PUSH1 0x4 MSTORE PUSH1 0x24 PUSH0 REVERT JUMPDEST PUSH0 PUSH1 0x2 DUP3 DIV SWAP1 POP PUSH1 0x1 DUP3 AND DUP1 PUSH2 0x11A JUMPI PUSH1 0x7F DUP3 AND SWAP2 POP JUMPDEST PUSH1 0x20 DUP3 LT DUP2 SUB PUSH2 0x12D JUMPI PUSH2 0x12C PUSH2 0xD6 JUMP JUMPDEST JUMPDEST POP SWAP2 SWAP1 POP JUMP JUMPDEST PUSH0 DUP2 SWAP1 POP DUP2 PUSH0 MSTORE PUSH1 0x20 PUSH0 KECCAK256 SWAP1 POP SWAP2 SWAP1 POP JUMP JUMPDEST PUSH0 PUSH1 0x20 PUSH1 0x1F DUP4 ADD DIV SWAP1 POP SWAP2 SWAP1 POP JUMP JUMPDEST PUSH0 DUP3 DUP3 SHL SWAP1 POP SWAP3 SWAP2 POP POP JUMP JUMPDEST PUSH0 PUSH1 0x8 DUP4 MUL PUSH2 0x18F PUSH32 0xFFFFFFFFFFFFFFFFFFFFFFFFFFFFFFFFFFFFFFFFFFFFFFFFFFFFFFFFFFFFFFFF DUP3 PUSH2 0x154 JUMP JUMPDEST PUSH2 0x199 DUP7 DUP4 PUSH2 0x154 JUMP JUMPDEST SWAP6 POP DUP1 NOT DUP5 AND SWAP4 POP DUP1 DUP7 AND DUP5 OR SWAP3 POP POP POP SWAP4 SWAP3 POP POP POP JUMP JUMPDEST PUSH0 DUP2 SWAP1 POP SWAP2 SWAP1 POP JUMP JUMPDEST PUSH0 DUP2 SWAP1 POP SWAP2 SWAP1 POP JUMP JUMPDEST PUSH0 PUSH2 0x1DD PUSH2 0x1D8 PUSH2 0x1D3 DUP5 PUSH2 0x1B1 JUMP JUMPDEST PUSH2 0x1BA JUMP JUMPDEST PUSH2 0x1B1 JUMP JUMPDEST SWAP1 POP SWAP2 SWAP1 POP JUMP JUMPDEST PUSH0 DUP2 SWAP1 POP SWAP2 SWAP1 POP JUMP JUMPDEST PUSH2 0x1F6 DUP4 PUSH2 0x1C3 JUMP JUMPDEST PUSH2 0x20A PUSH2 0x202 DUP3 PUSH2 0x1E4 JUMP JUMPDEST DUP5 DUP5 SLOAD PUSH2 0x160 JUMP JUMPDEST DUP3 SSTORE POP POP POP POP JUMP JUMPDEST PUSH0 SWAP1 JUMP JUMPDEST PUSH2 0x21E PUSH2 0x212 JUMP JUMPDEST PUSH2 0x229 DUP2 DUP5 DUP5 PUSH2 0x1ED JUMP JUMPDEST POP POP POP JUMP JUMPDEST JUMPDEST DUP2 DUP2 LT ISZERO PUSH2 0x24C JUMPI PUSH2 0x241 PUSH0 DUP3 PUSH2 0x216 JUMP JUMPDEST PUSH1 0x1 DUP2 ADD SWAP1 POP PUSH2 0x22F JUMP JUMPDEST POP POP JUMP JUMPDEST PUSH1 0x1F DUP3 GT ISZERO PUSH2 0x291 JUMPI PUSH2 0x262 DUP2 PUSH2 0x133 JUMP JUMPDEST PUSH2 0x26B DUP5 PUSH2 0x145 JUMP JUMPDEST DUP2 ADD PUSH1 0x20 DUP6 LT ISZERO PUSH2 0x27A JUMPI DUP2 SWAP1 POP JUMPDEST PUSH2 0x28E PUSH2 0x286 DUP6 PUSH2 0x145 JUMP JUMPDEST DUP4 ADD DUP3 PUSH2 0x22E JUMP JUMPDEST POP POP JUMPDEST POP POP POP JUMP JUMPDEST PUSH0 DUP3 DUP3 SHR SWAP1 POP SWAP3 SWAP2 POP POP JUMP JUMPDEST PUSH0 PUSH2 0x2B1 PUSH0 NOT DUP5 PUSH1 0x8 MUL PUSH2 0x296 JUMP JUMPDEST NOT DUP1 DUP4 AND SWAP2 POP POP SWAP3 SWAP2 POP POP JUMP JUMPDEST PUSH0 PUSH2 0x2C9 DUP4 DUP4 PUSH2 0x2A2 JUMP JUMPDEST SWAP2 POP DUP3 PUSH1 0x2 MUL DUP3 OR SWAP1 POP SWAP3 SWAP2 POP POP JUMP JUMPDEST PUSH2 0x2E2 DUP3 PUSH2 0x9F JUMP JUMPDEST PUSH8 0xFFFFFFFFFFFFFFFF DUP2 GT ISZERO PUSH2 0x2FB JUMPI PUSH2 0x2FA PUSH2 0xA9 JUMP JUMPDEST JUMPDEST PUSH2 0x305 DUP3 SLOAD PUSH2 0x103 JUMP JUMPDEST PUSH2 0x310 DUP3 DUP3 DUP6 PUSH2 0x250 JUMP JUMPDEST PUSH0 PUSH1 0x20 SWAP1 POP PUSH1 0x1F DUP4 GT PUSH1 0x1 DUP2 EQ PUSH2 0x341 JUMPI PUSH0 DUP5 ISZERO PUSH2 0x32F JUMPI DUP3 DUP8 ADD MLOAD SWAP1 POP JUMPDEST PUSH2 0x339 DUP6 DUP3 PUSH2 0x2BE JUMP JUMPDEST DUP7 SSTORE POP PUSH2 0x3A0 JUMP JUMPDEST PUSH1 0x1F NOT DUP5 AND PUSH2 0x34F DUP7 PUSH2 0x133 JUMP JUMPDEST PUSH0 JUMPDEST DUP3 DUP2 LT ISZERO PUSH2 0x376 JUMPI DUP5 DUP10 ADD MLOAD DUP3 SSTORE PUSH1 0x1 DUP3 ADD SWAP2 POP PUSH1 0x20 DUP6 ADD SWAP5 POP PUSH1 0x20 DUP2 ADD SWAP1 POP PUSH2 0x351 JUMP JUMPDEST DUP7 DUP4 LT ISZERO PUSH2 0x393 JUMPI DUP5 DUP10 ADD MLOAD PUSH2 0x38F PUSH1 0x1F DUP10 AND DUP3 PUSH2 0x2A2 JUMP JUMPDEST DUP4 SSTORE POP JUMPDEST PUSH1 0x1 PUSH1 0x2 DUP9 MUL ADD DUP9 SSTORE POP POP POP JUMPDEST POP POP POP POP POP POP JUMP JUMPDEST PUSH2 0x9AC DUP1 PUSH2 0x3B5 PUSH0 CODECOPY PUSH0 RETURN INVALID PUSH1 0x80 PUSH1 0x40 MSTORE CALLVALUE DUP1 ISZERO PUSH2 0xF JUMPI PUSH0 DUP1 REVERT JUMPDEST POP PUSH1 0x4 CALLDATASIZE LT PUSH2 0x86 JUMPI PUSH0 CALLDATALOAD PUSH1 0xE0 SHR DUP1 PUSH4 0x97C16E78 GT PUSH2 0x59 JUMPI DUP1 PUSH4 0x97C16E78 EQ PUSH2 0x102 JUMPI DUP1 PUSH4 0xA4E7D437 EQ PUSH2 0x10C JUMPI DUP1 PUSH4 0xBBA75F9F EQ PUSH2 0x12A JUMPI DUP1 PUSH4 0xBBAD9C7A EQ PUSH2 0x146 JUMPI PUSH2 0x86 JUMP JUMPDEST DUP1 PUSH4 0x397B652 EQ PUSH2 0x8A JUMPI DUP1 PUSH4 0x6FDDE03 EQ PUSH2 0xA8 JUMPI DUP1 PUSH4 0x3FF4B938 EQ PUSH2 0xC6 JUMPI DUP1 PUSH4 0x767800DE EQ PUSH2 0xE4 JUMPI JUMPDEST PUSH0 DUP1 REVERT JUMPDEST PUSH2 0x92 PUSH2 0x164 JUMP JUMPDEST PUSH1 0x40 MLOAD PUSH2 0x9F SWAP2 SWAP1 PUSH2 0x3E9 JUMP JUMPDEST PUSH1 0x40 MLOAD DUP1 SWAP2 SUB SWAP1 RETURN JUMPDEST PUSH2 0xB0 PUSH2 0x16A JUMP JUMPDEST PUSH1 0x40 MLOAD PUSH2 0xBD SWAP2 SWAP1 PUSH2 0x472 JUMP JUMPDEST PUSH1 0x40 MLOAD DUP1 SWAP2 SUB SWAP1 RETURN JUMPDEST PUSH2 0xCE PUSH2 0x1F5 JUMP JUMPDEST PUSH1 0x40 MLOAD PUSH2 0xDB SWAP2 SWAP1 PUSH2 0x472 JUMP JUMPDEST PUSH1 0x40 MLOAD DUP1 SWAP2 SUB SWAP1 RETURN JUMPDEST PUSH2 0xEC PUSH2 0x281 JUMP JUMPDEST PUSH1 0x40 MLOAD PUSH2 0xF9 SWAP2 SWAP1 PUSH2 0x472 JUMP JUMPDEST PUSH1 0x40 MLOAD DUP1 SWAP2 SUB SWAP1 RETURN JUMPDEST PUSH2 0x10A PUSH2 0x30D JUMP JUMPDEST STOP JUMPDEST PUSH2 0x114 PUSH2 0x30F JUMP JUMPDEST PUSH1 0x40 MLOAD PUSH2 0x121 SWAP2 SWAP1 PUSH2 0x3E9 JUMP JUMPDEST PUSH1 0x40 MLOAD DUP1 SWAP2 SUB SWAP1 RETURN JUMPDEST PUSH2 0x144 PUSH1 0x4 DUP1 CALLDATASIZE SUB DUP2 ADD SWAP1 PUSH2 0x13F SWAP2 SWAP1 PUSH2 0x5CF JUMP JUMPDEST PUSH2 0x32C JUMP JUMPDEST STOP JUMPDEST PUSH2 0x14E PUSH2 0x383 JUMP JUMPDEST PUSH1 0x40 MLOAD PUSH2 0x15B SWAP2 SWAP1 PUSH2 0x3E9 JUMP JUMPDEST PUSH1 0x40 MLOAD DUP1 SWAP2 SUB SWAP1 RETURN JUMPDEST PUSH1 0x3 SLOAD DUP2 JUMP JUMPDEST PUSH0 DUP1 SLOAD PUSH2 0x176 SWAP1 PUSH2 0x672 JUMP JUMPDEST DUP1 PUSH1 0x1F ADD PUSH1 0x20 DUP1 SWAP2 DIV MUL PUSH1 0x20 ADD PUSH1 0x40 MLOAD SWAP1 DUP2 ADD PUSH1 0x40 MSTORE DUP1 SWAP3 SWAP2 SWAP1 DUP2 DUP2 MSTORE PUSH1 0x20 ADD DUP3 DUP1 SLOAD PUSH2 0x1A2 SWAP1 PUSH2 0x672 JUMP JUMPDEST DUP1 ISZERO PUSH2 0x1ED JUMPI DUP1 PUSH1 0x1F LT PUSH2 0x1C4 JUMPI PUSH2 0x100 DUP1 DUP4 SLOAD DIV MUL DUP4 MSTORE SWAP2 PUSH1 0x20 ADD SWAP2 PUSH2 0x1ED JUMP JUMPDEST DUP3 ADD SWAP2 SWAP1 PUSH0 MSTORE PUSH1 0x20 PUSH0 KECCAK256 SWAP1 JUMPDEST DUP2 SLOAD DUP2 MSTORE SWAP1 PUSH1 0x1 ADD SWAP1 PUSH1 0x20 ADD DUP1 DUP4 GT PUSH2 0x1D0 JUMPI DUP3 SWAP1 SUB PUSH1 0x1F AND DUP3 ADD SWAP2 JUMPDEST POP POP POP POP POP DUP2 JUMP JUMPDEST PUSH1 0x2 DUP1 SLOAD PUSH2 0x202 SWAP1 PUSH2 0x672 JUMP JUMPDEST DUP1 PUSH1 0x1F ADD PUSH1 0x20 DUP1 SWAP2 DIV MUL PUSH1 0x20 ADD PUSH1 0x40 MLOAD SWAP1 DUP2 ADD PUSH1 0x40 MSTORE DUP1 SWAP3 SWAP2 SWAP1 DUP2 DUP2 MSTORE PUSH1 0x20 ADD DUP3 DUP1 SLOAD PUSH2 0x22E SWAP1 PUSH2 0x672 JUMP JUMPDEST DUP1 ISZERO PUSH2 0x279 JUMPI DUP1 PUSH1 0x1F LT PUSH2 0x250 JUMPI PUSH2 0x100 DUP1 DUP4 SLOAD DIV MUL DUP4 MSTORE SWAP2 PUSH1 0x20 ADD SWAP2 PUSH2 0x279 JUMP JUMPDEST DUP3 ADD SWAP2 SWAP1 PUSH0 MSTORE PUSH1 0x20 PUSH0 KECCAK256 SWAP1 JUMPDEST DUP2 SLOAD DUP2 MSTORE SWAP1 PUSH1 0x1 ADD SWAP1 PUSH1 0x20 ADD DUP1 DUP4 GT PUSH2 0x25C JUMPI DUP3 SWAP1 SUB PUSH1 0x1F AND DUP3 ADD SWAP2 JUMPDEST POP POP POP POP POP DUP2 JUMP JUMPDEST PUSH1 0x1 DUP1 SLOAD PUSH2 0x28E SWAP1 PUSH2 0x672 JUMP JUMPDEST DUP1 PUSH1 0x1F ADD PUSH1 0x20 DUP1 SWAP2 DIV MUL PUSH1 0x20 ADD PUSH1 0x40 MLOAD SWAP1 DUP2 ADD PUSH1 0x40 MSTORE DUP1 SWAP3 SWAP2 SWAP1 DUP2 DUP2 MSTORE PUSH1 0x20 ADD DUP3 DUP1 SLOAD PUSH2 0x2BA SWAP1 PUSH2 0x672 JUMP JUMPDEST DUP1 ISZERO PUSH2 0x305 JUMPI DUP1 PUSH1 0x1F LT PUSH2 0x2DC JUMPI PUSH2 0x100 DUP1 DUP4 SLOAD DIV MUL DUP4 MSTORE SWAP2 PUSH1 0x20 ADD SWAP2 PUSH2 0x305 JUMP JUMPDEST DUP3 ADD SWAP2 SWAP1 PUSH0 MSTORE PUSH1 0x20 PUSH0 KECCAK256 SWAP1 JUMPDEST DUP2 SLOAD DUP2 MSTORE SWAP1 PUSH1 0x1 ADD SWAP1 PUSH1 0x20 ADD DUP1 DUP4 GT PUSH2 0x2E8 JUMPI DUP3 SWAP1 SUB PUSH1 0x1F AND DUP3 ADD SWAP2 JUMPDEST POP POP POP POP POP DUP2 JUMP JUMPDEST JUMP JUMPDEST PUSH0 CALLER PUSH20 0xFFFFFFFFFFFFFFFFFFFFFFFFFFFFFFFFFFFFFFFF AND SWAP1 POP SWAP1 JUMP JUMPDEST PUSH0 DUP2 MLOAD GT PUSH2 0x36F JUMPI PUSH1 0x40 MLOAD PUSH32 0x8C379A000000000000000000000000000000000000000000000000000000000 DUP2 MSTORE PUSH1 0x4 ADD PUSH2 0x366 SWAP1 PUSH2 0x6EC JUMP JUMPDEST PUSH1 0x40 MLOAD DUP1 SWAP2 SUB SWAP1 REVERT JUMPDEST DUP2 PUSH1 0x1 SWAP1 DUP2 PUSH2 0x37E SWAP2 SWAP1 PUSH2 0x8A7 JUMP JUMPDEST POP POP POP JUMP JUMPDEST PUSH0 DUP1 PUSH0 SWAP1 POP PUSH1 0x2 PUSH1 0x4 SLOAD GT ISZERO PUSH2 0x39C JUMPI PUSH1 0xA SWAP1 POP PUSH2 0x3CA JUMP JUMPDEST PUSH1 0x4 DUP1 SLOAD GT ISZERO PUSH2 0x3AF JUMPI PUSH1 0x14 SWAP1 POP PUSH2 0x3C9 JUMP JUMPDEST PUSH1 0x6 PUSH1 0x4 SLOAD GT ISZERO PUSH2 0x3C3 JUMPI PUSH1 0x50 SWAP1 POP PUSH2 0x3C8 JUMP JUMPDEST PUSH1 0x64 SWAP1 POP JUMPDEST JUMPDEST JUMPDEST DUP1 SWAP2 POP POP SWAP1 JUMP JUMPDEST PUSH0 DUP2 SWAP1 POP SWAP2 SWAP1 POP JUMP JUMPDEST PUSH2 0x3E3 DUP2 PUSH2 0x3D1 JUMP JUMPDEST DUP3 MSTORE POP POP JUMP JUMPDEST PUSH0 PUSH1 0x20 DUP3 ADD SWAP1 POP PUSH2 0x3FC PUSH0 DUP4 ADD DUP5 PUSH2 0x3DA JUMP JUMPDEST SWAP3 SWAP2 POP POP JUMP JUMPDEST PUSH0 DUP2 MLOAD SWAP1 POP SWAP2 SWAP1 POP JUMP JUMPDEST PUSH0 DUP3 DUP3 MSTORE PUSH1 0x20 DUP3 ADD SWAP1 POP SWAP3 SWAP2 POP POP JUMP JUMPDEST DUP3 DUP2 DUP4 MCOPY PUSH0 DUP4 DUP4 ADD MSTORE POP POP POP JUMP JUMPDEST PUSH0 PUSH1 0x1F NOT PUSH1 0x1F DUP4 ADD AND SWAP1 POP SWAP2 SWAP1 POP JUMP JUMPDEST PUSH0 PUSH2 0x444 DUP3 PUSH2 0x402 JUMP JUMPDEST PUSH2 0x44E DUP2 DUP6 PUSH2 0x40C JUMP JUMPDEST SWAP4 POP PUSH2 0x45E DUP2 DUP6 PUSH1 0x20 DUP7 ADD PUSH2 0x41C JUMP JUMPDEST PUSH2 0x467 DUP2 PUSH2 0x42A JUMP JUMPDEST DUP5 ADD SWAP2 POP POP SWAP3 SWAP2 POP POP JUMP JUMPDEST PUSH0 PUSH1 0x20 DUP3 ADD SWAP1 POP DUP2 DUP2 SUB PUSH0 DUP4 ADD MSTORE PUSH2 0x48A DUP2 DUP5 PUSH2 0x43A JUMP JUMPDEST SWAP1 POP SWAP3 SWAP2 POP POP JUMP JUMPDEST PUSH0 PUSH1 0x40 MLOAD SWAP1 POP SWAP1 JUMP JUMPDEST PUSH0 DUP1 REVERT JUMPDEST PUSH0 DUP1 REVERT JUMPDEST PUSH0 DUP1 REVERT JUMPDEST PUSH0 DUP1 REVERT JUMPDEST PUSH32 0x4E487B7100000000000000000000000000000000000000000000000000000000 PUSH0 MSTORE PUSH1 0x41 PUSH1 0x4 MSTORE PUSH1 0x24 PUSH0 REVERT JUMPDEST PUSH2 0x4E1 DUP3 PUSH2 0x42A JUMP JUMPDEST DUP2 ADD DUP2 DUP2 LT PUSH8 0xFFFFFFFFFFFFFFFF DUP3 GT OR ISZERO PUSH2 0x500 JUMPI PUSH2 0x4FF PUSH2 0x4AB JUMP JUMPDEST JUMPDEST DUP1 PUSH1 0x40 MSTORE POP POP POP JUMP JUMPDEST PUSH0 PUSH2 0x512 PUSH2 0x492 JUMP JUMPDEST SWAP1 POP PUSH2 0x51E DUP3 DUP3 PUSH2 0x4D8 JUMP JUMPDEST SWAP2 SWAP1 POP JUMP JUMPDEST PUSH0 PUSH8 0xFFFFFFFFFFFFFFFF DUP3 GT ISZERO PUSH2 0x53D JUMPI PUSH2 0x53C PUSH2 0x4AB JUMP JUMPDEST JUMPDEST PUSH2 0x546 DUP3 PUSH2 0x42A JUMP JUMPDEST SWAP1 POP PUSH1 0x20 DUP2 ADD SWAP1 POP SWAP2 SWAP1 POP JUMP JUMPDEST DUP3 DUP2 DUP4 CALLDATACOPY PUSH0 DUP4 DUP4 ADD MSTORE POP POP POP JUMP JUMPDEST PUSH0 PUSH2 0x573 PUSH2 0x56E DUP5 PUSH2 0x523 JUMP JUMPDEST PUSH2 0x509 JUMP JUMPDEST SWAP1 POP DUP3 DUP2 MSTORE PUSH1 0x20 DUP2 ADD DUP5 DUP5 DUP5 ADD GT ISZERO PUSH2 0x58F JUMPI PUSH2 0x58E PUSH2 0x4A7 JUMP JUMPDEST JUMPDEST PUSH2 0x59A DUP5 DUP3 DUP6 PUSH2 0x553 JUMP JUMPDEST POP SWAP4 SWAP3 POP POP POP JUMP JUMPDEST PUSH0 DUP3 PUSH1 0x1F DUP4 ADD SLT PUSH2 0x5B6 JUMPI PUSH2 0x5B5 PUSH2 0x4A3 JUMP JUMPDEST JUMPDEST DUP2 CALLDATALOAD PUSH2 0x5C6 DUP5 DUP3 PUSH1 0x20 DUP7 ADD PUSH2 0x561 JUMP JUMPDEST SWAP2 POP POP SWAP3 SWAP2 POP POP JUMP JUMPDEST PUSH0 DUP1 PUSH1 0x40 DUP4 DUP6 SUB SLT ISZERO PUSH2 0x5E5 JUMPI PUSH2 0x5E4 PUSH2 0x49B JUMP JUMPDEST JUMPDEST PUSH0 DUP4 ADD CALLDATALOAD PUSH8 0xFFFFFFFFFFFFFFFF DUP2 GT ISZERO PUSH2 0x602 JUMPI PUSH2 0x601 PUSH2 0x49F JUMP JUMPDEST JUMPDEST PUSH2 0x60E DUP6 DUP3 DUP7 ADD PUSH2 0x5A2 JUMP JUMPDEST SWAP3 POP POP PUSH1 0x20 DUP4 ADD CALLDATALOAD PUSH8 0xFFFFFFFFFFFFFFFF DUP2 GT ISZERO PUSH2 0x62F JUMPI PUSH2 0x62E PUSH2 0x49F JUMP JUMPDEST JUMPDEST PUSH2 0x63B DUP6 DUP3 DUP7 ADD PUSH2 0x5A2 JUMP JUMPDEST SWAP2 POP POP SWAP3 POP SWAP3 SWAP1 POP JUMP JUMPDEST PUSH32 0x4E487B7100000000000000000000000000000000000000000000000000000000 PUSH0 MSTORE PUSH1 0x22 PUSH1 0x4 MSTORE PUSH1 0x24 PUSH0 REVERT JUMPDEST PUSH0 PUSH1 0x2 DUP3 DIV SWAP1 POP PUSH1 0x1 DUP3 AND DUP1 PUSH2 0x689 JUMPI PUSH1 0x7F DUP3 AND SWAP2 POP JUMPDEST PUSH1 0x20 DUP3 LT DUP2 SUB PUSH2 0x69C JUMPI PUSH2 0x69B PUSH2 0x645 JUMP JUMPDEST JUMPDEST POP SWAP2 SWAP1 POP JUMP JUMPDEST PUSH32 0x5461736B206E616D652063616E6E6F7420626520656D70747900000000000000 PUSH0 DUP3 ADD MSTORE POP JUMP JUMPDEST PUSH0 PUSH2 0x6D6 PUSH1 0x19 DUP4 PUSH2 0x40C JUMP JUMPDEST SWAP2 POP PUSH2 0x6E1 DUP3 PUSH2 0x6A2 JUMP JUMPDEST PUSH1 0x20 DUP3 ADD SWAP1 POP SWAP2 SWAP1 POP JUMP JUMPDEST PUSH0 PUSH1 0x20 DUP3 ADD SWAP1 POP DUP2 DUP2 SUB PUSH0 DUP4 ADD MSTORE PUSH2 0x703 DUP2 PUSH2 0x6CA JUMP JUMPDEST SWAP1 POP SWAP2 SWAP1 POP JUMP JUMPDEST PUSH0 DUP2 SWAP1 POP DUP2 PUSH0 MSTORE PUSH1 0x20 PUSH0 KECCAK256 SWAP1 POP SWAP2 SWAP1 POP JUMP JUMPDEST PUSH0 PUSH1 0x20 PUSH1 0x1F DUP4 ADD DIV SWAP1 POP SWAP2 SWAP1 POP JUMP JUMPDEST PUSH0 DUP3 DUP3 SHL SWAP1 POP SWAP3 SWAP2 POP POP JUMP JUMPDEST PUSH0 PUSH1 0x8 DUP4 MUL PUSH2 0x766 PUSH32 0xFFFFFFFFFFFFFFFFFFFFFFFFFFFFFFFFFFFFFFFFFFFFFFFFFFFFFFFFFFFFFFFF DUP3 PUSH2 0x72B JUMP JUMPDEST PUSH2 0x770 DUP7 DUP4 PUSH2 0x72B JUMP JUMPDEST SWAP6 POP DUP1 NOT DUP5 AND SWAP4 POP DUP1 DUP7 AND DUP5 OR SWAP3 POP POP POP SWAP4 SWAP3 POP POP POP JUMP JUMPDEST PUSH0 DUP2 SWAP1 POP SWAP2 SWAP1 POP JUMP JUMPDEST PUSH0 PUSH2 0x7AB PUSH2 0x7A6 PUSH2 0x7A1 DUP5 PUSH2 0x3D1 JUMP JUMPDEST PUSH2 0x788 JUMP JUMPDEST PUSH2 0x3D1 JUMP JUMPDEST SWAP1 POP SWAP2 SWAP1 POP JUMP JUMPDEST PUSH0 DUP2 SWAP1 POP SWAP2 SWAP1 POP JUMP JUMPDEST PUSH2 0x7C4 DUP4 PUSH2 0x791 JUMP JUMPDEST PUSH2 0x7D8 PUSH2 0x7D0 DUP3 PUSH2 0x7B2 JUMP JUMPDEST DUP5 DUP5 SLOAD PUSH2 0x737 JUMP JUMPDEST DUP3 SSTORE POP POP POP POP JUMP JUMPDEST PUSH0 SWAP1 JUMP JUMPDEST PUSH2 0x7EC PUSH2 0x7E0 JUMP JUMPDEST PUSH2 0x7F7 DUP2 DUP5 DUP5 PUSH2 0x7BB JUMP JUMPDEST POP POP POP JUMP JUMPDEST JUMPDEST DUP2 DUP2 LT ISZERO PUSH2 0x81A JUMPI PUSH2 0x80F PUSH0 DUP3 PUSH2 0x7E4 JUMP JUMPDEST PUSH1 0x1 DUP2 ADD SWAP1 POP PUSH2 0x7FD JUMP JUMPDEST POP POP JUMP JUMPDEST PUSH1 0x1F DUP3 GT ISZERO PUSH2 0x85F JUMPI PUSH2 0x830 DUP2 PUSH2 0x70A JUMP JUMPDEST PUSH2 0x839 DUP5 PUSH2 0x71C JUMP JUMPDEST DUP2 ADD PUSH1 0x20 DUP6 LT ISZERO PUSH2 0x848 JUMPI DUP2 SWAP1 POP JUMPDEST PUSH2 0x85C PUSH2 0x854 DUP6 PUSH2 0x71C JUMP JUMPDEST DUP4 ADD DUP3 PUSH2 0x7FC JUMP JUMPDEST POP POP JUMPDEST POP POP POP JUMP JUMPDEST PUSH0 DUP3 DUP3 SHR SWAP1 POP SWAP3 SWAP2 POP POP JUMP JUMPDEST PUSH0 PUSH2 0x87F PUSH0 NOT DUP5 PUSH1 0x8 MUL PUSH2 0x864 JUMP JUMPDEST NOT DUP1 DUP4 AND SWAP2 POP POP SWAP3 SWAP2 POP POP JUMP JUMPDEST PUSH0 PUSH2 0x897 DUP4 DUP4 PUSH2 0x870 JUMP JUMPDEST SWAP2 POP DUP3 PUSH1 0x2 MUL DUP3 OR SWAP1 POP SWAP3 SWAP2 POP POP JUMP JUMPDEST PUSH2 0x8B0 DUP3 PUSH2 0x402 JUMP JUMPDEST PUSH8 0xFFFFFFFFFFFFFFFF DUP2 GT ISZERO PUSH2 0x8C9 JUMPI PUSH2 0x8C8 PUSH2 0x4AB JUMP JUMPDEST JUMPDEST PUSH2 0x8D3 DUP3 SLOAD PUSH2 0x672 JUMP JUMPDEST PUSH2 0x8DE DUP3 DUP3 DUP6 PUSH2 0x81E JUMP JUMPDEST PUSH0 PUSH1 0x20 SWAP1 POP PUSH1 0x1F DUP4 GT PUSH1 0x1 DUP2 EQ PUSH2 0x90F JUMPI PUSH0 DUP5 ISZERO PUSH2 0x8FD JUMPI DUP3 DUP8 ADD MLOAD SWAP1 POP JUMPDEST PUSH2 0x907 DUP6 DUP3 PUSH2 0x88C JUMP JUMPDEST DUP7 SSTORE POP PUSH2 0x96E JUMP JUMPDEST PUSH1 0x1F NOT DUP5 AND PUSH2 0x91D DUP7 PUSH2 0x70A JUMP JUMPDEST PUSH0 JUMPDEST DUP3 DUP2 LT ISZERO PUSH2 0x944 JUMPI DUP5 DUP10 ADD MLOAD DUP3 SSTORE PUSH1 0x1 DUP3 ADD SWAP2 POP PUSH1 0x20 DUP6 ADD SWAP5 POP PUSH1 0x20 DUP2 ADD SWAP1 POP PUSH2 0x91F JUMP JUMPDEST DUP7 DUP4 LT ISZERO PUSH2 0x961 JUMPI DUP5 DUP10 ADD MLOAD PUSH2 0x95D PUSH1 0x1F DUP10 AND DUP3 PUSH2 0x870 JUMP JUMPDEST DUP4 SSTORE POP JUMPDEST PUSH1 0x1 PUSH1 0x2 DUP9 MUL ADD DUP9 SSTORE POP POP POP JUMPDEST POP POP POP POP POP POP JUMP INVALID LOG2 PUSH5 0x6970667358 0x22 SLT KECCAK256 GASLIMIT SWAP11 0xCF DUP13 0xC3 0xD8 PUSH10 0x52D834F3A2E0306D927E DELEGATECALL PUSH25 0xE305FB9F066E594AC5A588E0C064736F6C634300081A003300 "
				},
				"gasEstimates": {
					"creation": {
						"codeDepositCost": "495200",
						"executionCost": "infinite",
						"totalCost": "infinite"
					},
					"external": {
						"addr()": "infinite",
						"calculateBonus()": "359",
						"genPerformance()": "6809",
						"genPerformance(string,string)": "infinite",
						"jobTitle()": "infinite",
						"manageProjects()": "143",
						"name()": "infinite",
						"salary()": "2426"
					}
				},
				"methodIdentifiers": {
					"addr()": "767800de",
					"calculateBonus()": "a4e7d437",
					"genPerformance()": "bbad9c7a",
					"genPerformance(string,string)": "bba75f9f",
					"jobTitle()": "3ff4b938",
					"manageProjects()": "97c16e78",
					"name()": "06fdde03",
					"salary()": "0397b652"
				}
			},
			"storageLayout": {
				"storage": [
					{
						"astId": 3,
						"contract": "Day06/sample.sol:Programmer",
						"label": "name",
						"offset": 0,
						"slot": "0",
						"type": "t_string_storage"
					},
					{
						"astId": 5,
						"contract": "Day06/sample.sol:Programmer",
						"label": "addr",
						"offset": 0,
						"slot": "1",
						"type": "t_string_storage"
					},
					{
						"astId": 7,
						"contract": "Day06/sample.sol:Programmer",
						"label": "jobTitle",
						"offset": 0,
						"slot": "2",
						"type": "t_string_storage"
					},
					{
						"astId": 9,
						"contract": "Day06/sample.sol:Programmer",
						"label": "salary",
						"offset": 0,
						"slot": "3",
						"type": "t_uint256"
					},
					{
						"astId": 11,
						"contract": "Day06/sample.sol:Programmer",
						"label": "rating",
						"offset": 0,
						"slot": "4",
						"type": "t_uint256"
					}
				],
				"types": {
					"t_string_storage": {
						"encoding": "bytes",
						"label": "string",
						"numberOfBytes": "32"
					},
					"t_uint256": {
						"encoding": "inplace",
						"label": "uint256",
						"numberOfBytes": "32"
					}
				}
			},
			"userdoc": {
				"kind": "user",
				"methods": {},
				"version": 1
			}
		}
	}
}