{
	"Day03/d3p2.sol": {
		"MinMax": {
			"abi": [
				{
					"inputs": [
						{
							"internalType": "uint256",
							"name": "n1",
							"type": "uint256"
						},
						{
							"internalType": "uint256",
							"name": "n2",
							"type": "uint256"
						},
						{
							"internalType": "uint256",
							"name": "n3",
							"type": "uint256"
						}
					],
					"name": "get",
					"outputs": [],
					"stateMutability": "nonpayable",
					"type": "function"
				},
				{
					"inputs": [],
					"name": "max",
					"outputs": [
						{
							"internalType": "uint256",
							"name": "",
							"type": "uint256"
						}
					],
					"stateMutability": "view",
					"type": "function"
				},
				{
					"inputs": [],
					"name": "min",
					"outputs": [
						{
							"internalType": "uint256",
							"name": "",
							"type": "uint256"
						}
					],
					"stateMutability": "view",
					"type": "function"
				}
			],
			"devdoc": {
				"kind": "dev",
				"methods": {},
				"version": 1
			},
			"evm": {
				"assembly": "    /* \"Day03/d3p2.sol\":68:570  contract MinMax{... */\n  mstore(0x40, 0x80)\n  callvalue\n  dup1\n  iszero\n  tag_1\n  jumpi\n  0x00\n  dup1\n  revert\ntag_1:\n  pop\n  dataSize(sub_0)\n  dup1\n  dataOffset(sub_0)\n  0x00\n  codecopy\n  0x00\n  return\nstop\n\nsub_0: assembly {\n        /* \"Day03/d3p2.sol\":68:570  contract MinMax{... */\n      mstore(0x40, 0x80)\n      callvalue\n      dup1\n      iszero\n      tag_1\n      jumpi\n      0x00\n      dup1\n      revert\n    tag_1:\n      pop\n      jumpi(tag_2, lt(calldatasize, 0x04))\n      shr(0xe0, calldataload(0x00))\n      dup1\n      0x0541c707\n      eq\n      tag_3\n      jumpi\n      dup1\n      0x6ac5db19\n      eq\n      tag_4\n      jumpi\n      dup1\n      0xf8897945\n      eq\n      tag_5\n      jumpi\n    tag_2:\n      0x00\n      dup1\n      revert\n        /* \"Day03/d3p2.sol\":142:567  function get(uint256 n1, uint256 n2, uint256 n3) public{... */\n    tag_3:\n      tag_6\n      0x04\n      dup1\n      calldatasize\n      sub\n      dup2\n      add\n      swap1\n      tag_7\n      swap2\n      swap1\n      tag_8\n      jump\t// in\n    tag_7:\n      tag_9\n      jump\t// in\n    tag_6:\n      stop\n        /* \"Day03/d3p2.sol\":90:108  uint256 public max */\n    tag_4:\n      tag_10\n      tag_11\n      jump\t// in\n    tag_10:\n      mload(0x40)\n      tag_12\n      swap2\n      swap1\n      tag_13\n      jump\t// in\n    tag_12:\n      mload(0x40)\n      dup1\n      swap2\n      sub\n      swap1\n      return\n        /* \"Day03/d3p2.sol\":115:133  uint256 public min */\n    tag_5:\n      tag_14\n      tag_15\n      jump\t// in\n    tag_14:\n      mload(0x40)\n      tag_16\n      swap2\n      swap1\n      tag_13\n      jump\t// in\n    tag_16:\n      mload(0x40)\n      dup1\n      swap2\n      sub\n      swap1\n      return\n        /* \"Day03/d3p2.sol\":142:567  function get(uint256 n1, uint256 n2, uint256 n3) public{... */\n    tag_9:\n        /* \"Day03/d3p2.sol\":214:216  n2 */\n      dup2\n        /* \"Day03/d3p2.sol\":211:213  n1 */\n      dup4\n        /* \"Day03/d3p2.sol\":211:216  n1>n2 */\n      gt\n        /* \"Day03/d3p2.sol\":211:225  n1>n2 && n1>n3 */\n      dup1\n      iszero\n      tag_18\n      jumpi\n      pop\n        /* \"Day03/d3p2.sol\":223:225  n3 */\n      dup1\n        /* \"Day03/d3p2.sol\":220:222  n1 */\n      dup4\n        /* \"Day03/d3p2.sol\":220:225  n1>n3 */\n      gt\n        /* \"Day03/d3p2.sol\":211:225  n1>n2 && n1>n3 */\n    tag_18:\n        /* \"Day03/d3p2.sol\":208:378  if(n1>n2 && n1>n3){... */\n      iszero\n      tag_19\n      jumpi\n        /* \"Day03/d3p2.sol\":247:249  n1 */\n      dup3\n        /* \"Day03/d3p2.sol\":241:244  max */\n      0x00\n        /* \"Day03/d3p2.sol\":241:249  max = n1 */\n      dup2\n      swap1\n      sstore\n      pop\n        /* \"Day03/d3p2.sol\":208:378  if(n1>n2 && n1>n3){... */\n      jump(tag_20)\n    tag_19:\n        /* \"Day03/d3p2.sol\":282:284  n1 */\n      dup3\n        /* \"Day03/d3p2.sol\":279:281  n2 */\n      dup3\n        /* \"Day03/d3p2.sol\":279:284  n2>n1 */\n      gt\n        /* \"Day03/d3p2.sol\":279:293  n2>n1 && n2>n3 */\n      dup1\n      iszero\n      tag_21\n      jumpi\n      pop\n        /* \"Day03/d3p2.sol\":291:293  n3 */\n      dup1\n        /* \"Day03/d3p2.sol\":288:290  n2 */\n      dup3\n        /* \"Day03/d3p2.sol\":288:293  n2>n3 */\n      gt\n        /* \"Day03/d3p2.sol\":279:293  n2>n1 && n2>n3 */\n    tag_21:\n        /* \"Day03/d3p2.sol\":276:378  if(n2>n1 && n2>n3){... */\n      iszero\n      tag_22\n      jumpi\n        /* \"Day03/d3p2.sol\":315:317  n2 */\n      dup2\n        /* \"Day03/d3p2.sol\":309:312  max */\n      0x00\n        /* \"Day03/d3p2.sol\":309:317  max = n2 */\n      dup2\n      swap1\n      sstore\n      pop\n        /* \"Day03/d3p2.sol\":276:378  if(n2>n1 && n2>n3){... */\n      jump(tag_23)\n    tag_22:\n        /* \"Day03/d3p2.sol\":364:366  n3 */\n      dup1\n        /* \"Day03/d3p2.sol\":358:361  max */\n      0x00\n        /* \"Day03/d3p2.sol\":358:366  max = n3 */\n      dup2\n      swap1\n      sstore\n      pop\n        /* \"Day03/d3p2.sol\":276:378  if(n2>n1 && n2>n3){... */\n    tag_23:\n        /* \"Day03/d3p2.sol\":208:378  if(n1>n2 && n1>n3){... */\n    tag_20:\n        /* \"Day03/d3p2.sol\":396:398  n2 */\n      dup2\n        /* \"Day03/d3p2.sol\":393:395  n1 */\n      dup4\n        /* \"Day03/d3p2.sol\":393:398  n1<n2 */\n      lt\n        /* \"Day03/d3p2.sol\":393:407  n1<n2 && n1<n3 */\n      dup1\n      iszero\n      tag_24\n      jumpi\n      pop\n        /* \"Day03/d3p2.sol\":405:407  n3 */\n      dup1\n        /* \"Day03/d3p2.sol\":402:404  n1 */\n      dup4\n        /* \"Day03/d3p2.sol\":402:407  n1<n3 */\n      lt\n        /* \"Day03/d3p2.sol\":393:407  n1<n2 && n1<n3 */\n    tag_24:\n        /* \"Day03/d3p2.sol\":390:560  if(n1<n2 && n1<n3){... */\n      iszero\n      tag_25\n      jumpi\n        /* \"Day03/d3p2.sol\":429:431  n1 */\n      dup3\n        /* \"Day03/d3p2.sol\":423:426  min */\n      0x01\n        /* \"Day03/d3p2.sol\":423:431  min = n1 */\n      dup2\n      swap1\n      sstore\n      pop\n        /* \"Day03/d3p2.sol\":390:560  if(n1<n2 && n1<n3){... */\n      jump(tag_26)\n    tag_25:\n        /* \"Day03/d3p2.sol\":464:466  n1 */\n      dup3\n        /* \"Day03/d3p2.sol\":461:463  n2 */\n      dup3\n        /* \"Day03/d3p2.sol\":461:466  n2<n1 */\n      lt\n        /* \"Day03/d3p2.sol\":461:475  n2<n1 && n2<n3 */\n      dup1\n      iszero\n      tag_27\n      jumpi\n      pop\n        /* \"Day03/d3p2.sol\":473:475  n3 */\n      dup1\n        /* \"Day03/d3p2.sol\":470:472  n2 */\n      dup3\n        /* \"Day03/d3p2.sol\":470:475  n2<n3 */\n      lt\n        /* \"Day03/d3p2.sol\":461:475  n2<n1 && n2<n3 */\n    tag_27:\n        /* \"Day03/d3p2.sol\":458:560  if(n2<n1 && n2<n3){... */\n      iszero\n      tag_28\n      jumpi\n        /* \"Day03/d3p2.sol\":497:499  n2 */\n      dup2\n        /* \"Day03/d3p2.sol\":491:494  min */\n      0x01\n        /* \"Day03/d3p2.sol\":491:499  min = n2 */\n      dup2\n      swap1\n      sstore\n      pop\n        /* \"Day03/d3p2.sol\":458:560  if(n2<n1 && n2<n3){... */\n      jump(tag_29)\n    tag_28:\n        /* \"Day03/d3p2.sol\":546:548  n3 */\n      dup1\n        /* \"Day03/d3p2.sol\":540:543  min */\n      0x01\n        /* \"Day03/d3p2.sol\":540:548  min = n3 */\n      dup2\n      swap1\n      sstore\n      pop\n        /* \"Day03/d3p2.sol\":458:560  if(n2<n1 && n2<n3){... */\n    tag_29:\n        /* \"Day03/d3p2.sol\":390:560  if(n1<n2 && n1<n3){... */\n    tag_26:\n        /* \"Day03/d3p2.sol\":142:567  function get(uint256 n1, uint256 n2, uint256 n3) public{... */\n      pop\n      pop\n      pop\n      jump\t// out\n        /* \"Day03/d3p2.sol\":90:108  uint256 public max */\n    tag_11:\n      sload(0x00)\n      dup2\n      jump\t// out\n        /* \"Day03/d3p2.sol\":115:133  uint256 public min */\n    tag_15:\n      sload(0x01)\n      dup2\n      jump\t// out\n        /* \"#utility.yul\":88:205   */\n    tag_31:\n        /* \"#utility.yul\":197:198   */\n      0x00\n        /* \"#utility.yul\":194:195   */\n      dup1\n        /* \"#utility.yul\":187:199   */\n      revert\n        /* \"#utility.yul\":334:411   */\n    tag_33:\n        /* \"#utility.yul\":371:378   */\n      0x00\n        /* \"#utility.yul\":400:405   */\n      dup2\n        /* \"#utility.yul\":389:405   */\n      swap1\n      pop\n        /* \"#utility.yul\":334:411   */\n      swap2\n      swap1\n      pop\n      jump\t// out\n        /* \"#utility.yul\":417:539   */\n    tag_34:\n        /* \"#utility.yul\":490:514   */\n      tag_43\n        /* \"#utility.yul\":508:513   */\n      dup2\n        /* \"#utility.yul\":490:514   */\n      tag_33\n      jump\t// in\n    tag_43:\n        /* \"#utility.yul\":483:488   */\n      dup2\n        /* \"#utility.yul\":480:515   */\n      eq\n        /* \"#utility.yul\":470:533   */\n      tag_44\n      jumpi\n        /* \"#utility.yul\":529:530   */\n      0x00\n        /* \"#utility.yul\":526:527   */\n      dup1\n        /* \"#utility.yul\":519:531   */\n      revert\n        /* \"#utility.yul\":470:533   */\n    tag_44:\n        /* \"#utility.yul\":417:539   */\n      pop\n      jump\t// out\n        /* \"#utility.yul\":545:684   */\n    tag_35:\n        /* \"#utility.yul\":591:596   */\n      0x00\n        /* \"#utility.yul\":629:635   */\n      dup2\n        /* \"#utility.yul\":616:636   */\n      calldataload\n        /* \"#utility.yul\":607:636   */\n      swap1\n      pop\n        /* \"#utility.yul\":645:678   */\n      tag_46\n        /* \"#utility.yul\":672:677   */\n      dup2\n        /* \"#utility.yul\":645:678   */\n      tag_34\n      jump\t// in\n    tag_46:\n        /* \"#utility.yul\":545:684   */\n      swap3\n      swap2\n      pop\n      pop\n      jump\t// out\n        /* \"#utility.yul\":690:1309   */\n    tag_8:\n        /* \"#utility.yul\":767:773   */\n      0x00\n        /* \"#utility.yul\":775:781   */\n      dup1\n        /* \"#utility.yul\":783:789   */\n      0x00\n        /* \"#utility.yul\":832:834   */\n      0x60\n        /* \"#utility.yul\":820:829   */\n      dup5\n        /* \"#utility.yul\":811:818   */\n      dup7\n        /* \"#utility.yul\":807:830   */\n      sub\n        /* \"#utility.yul\":803:835   */\n      slt\n        /* \"#utility.yul\":800:919   */\n      iszero\n      tag_48\n      jumpi\n        /* \"#utility.yul\":838:917   */\n      tag_49\n      tag_31\n      jump\t// in\n    tag_49:\n        /* \"#utility.yul\":800:919   */\n    tag_48:\n        /* \"#utility.yul\":958:959   */\n      0x00\n        /* \"#utility.yul\":983:1036   */\n      tag_50\n        /* \"#utility.yul\":1028:1035   */\n      dup7\n        /* \"#utility.yul\":1019:1025   */\n      dup3\n        /* \"#utility.yul\":1008:1017   */\n      dup8\n        /* \"#utility.yul\":1004:1026   */\n      add\n        /* \"#utility.yul\":983:1036   */\n      tag_35\n      jump\t// in\n    tag_50:\n        /* \"#utility.yul\":973:1036   */\n      swap4\n      pop\n        /* \"#utility.yul\":929:1046   */\n      pop\n        /* \"#utility.yul\":1085:1087   */\n      0x20\n        /* \"#utility.yul\":1111:1164   */\n      tag_51\n        /* \"#utility.yul\":1156:1163   */\n      dup7\n        /* \"#utility.yul\":1147:1153   */\n      dup3\n        /* \"#utility.yul\":1136:1145   */\n      dup8\n        /* \"#utility.yul\":1132:1154   */\n      add\n        /* \"#utility.yul\":1111:1164   */\n      tag_35\n      jump\t// in\n    tag_51:\n        /* \"#utility.yul\":1101:1164   */\n      swap3\n      pop\n        /* \"#utility.yul\":1056:1174   */\n      pop\n        /* \"#utility.yul\":1213:1215   */\n      0x40\n        /* \"#utility.yul\":1239:1292   */\n      tag_52\n        /* \"#utility.yul\":1284:1291   */\n      dup7\n        /* \"#utility.yul\":1275:1281   */\n      dup3\n        /* \"#utility.yul\":1264:1273   */\n      dup8\n        /* \"#utility.yul\":1260:1282   */\n      add\n        /* \"#utility.yul\":1239:1292   */\n      tag_35\n      jump\t// in\n    tag_52:\n        /* \"#utility.yul\":1229:1292   */\n      swap2\n      pop\n        /* \"#utility.yul\":1184:1302   */\n      pop\n        /* \"#utility.yul\":690:1309   */\n      swap3\n      pop\n      swap3\n      pop\n      swap3\n      jump\t// out\n        /* \"#utility.yul\":1315:1433   */\n    tag_36:\n        /* \"#utility.yul\":1402:1426   */\n      tag_54\n        /* \"#utility.yul\":1420:1425   */\n      dup2\n        /* \"#utility.yul\":1402:1426   */\n      tag_33\n      jump\t// in\n    tag_54:\n        /* \"#utility.yul\":1397:1400   */\n      dup3\n        /* \"#utility.yul\":1390:1427   */\n      mstore\n        /* \"#utility.yul\":1315:1433   */\n      pop\n      pop\n      jump\t// out\n        /* \"#utility.yul\":1439:1661   */\n    tag_13:\n        /* \"#utility.yul\":1532:1536   */\n      0x00\n        /* \"#utility.yul\":1570:1572   */\n      0x20\n        /* \"#utility.yul\":1559:1568   */\n      dup3\n        /* \"#utility.yul\":1555:1573   */\n      add\n        /* \"#utility.yul\":1547:1573   */\n      swap1\n      pop\n        /* \"#utility.yul\":1583:1654   */\n      tag_56\n        /* \"#utility.yul\":1651:1652   */\n      0x00\n        /* \"#utility.yul\":1640:1649   */\n      dup4\n        /* \"#utility.yul\":1636:1653   */\n      add\n        /* \"#utility.yul\":1627:1633   */\n      dup5\n        /* \"#utility.yul\":1583:1654   */\n      tag_36\n      jump\t// in\n    tag_56:\n        /* \"#utility.yul\":1439:1661   */\n      swap3\n      swap2\n      pop\n      pop\n      jump\t// out\n\n    auxdata: 0xa2646970667358221220a707fd12634f6b49e5cb870ab8ddc65fa776d76649ee4af4a362cc13e1a3c76364736f6c634300081a0033\n}\n",
				"bytecode": {
					"linkReferences": {},
					"object": "6080604052348015600e575f80fd5b5061021b8061001c5f395ff3fe608060405234801561000f575f80fd5b506004361061003f575f3560e01c80630541c707146100435780636ac5db191461005f578063f88979451461007d575b5f80fd5b61005d6004803603810190610058919061016d565b61009b565b005b61006761012b565b60405161007491906101cc565b60405180910390f35b610085610130565b60405161009291906101cc565b60405180910390f35b81831180156100a957508083115b156100b957825f819055506100df565b82821180156100c757508082115b156100d757815f819055506100de565b805f819055505b5b81831080156100ed57508083105b156100fe5782600181905550610126565b828210801561010c57508082105b1561011d5781600181905550610125565b806001819055505b5b505050565b5f5481565b60015481565b5f80fd5b5f819050919050565b61014c8161013a565b8114610156575f80fd5b50565b5f8135905061016781610143565b92915050565b5f805f6060848603121561018457610183610136565b5b5f61019186828701610159565b93505060206101a286828701610159565b92505060406101b386828701610159565b9150509250925092565b6101c68161013a565b82525050565b5f6020820190506101df5f8301846101bd565b9291505056fea2646970667358221220a707fd12634f6b49e5cb870ab8ddc65fa776d76649ee4af4a362cc13e1a3c76364736f6c634300081a0033",
					"opcodes": "PUSH1 0x80 PUSH1 0x40 MSTORE CALLVALUE DUP1 ISZERO PUSH1 0xE JUMPI PUSH0 DUP1 REVERT JUMPDEST POP PUSH2 0x21B DUP1 PUSH2 0x1C PUSH0 CODECOPY PUSH0 RETURN INVALID PUSH1 0x80 PUSH1 0x40 MSTORE CALLVALUE DUP1 ISZERO PUSH2 0xF JUMPI PUSH0 DUP1 REVERT JUMPDEST POP PUSH1 0x4 CALLDATASIZE LT PUSH2 0x3F JUMPI PUSH0 CALLDATALOAD PUSH1 0xE0 SHR DUP1 PUSH4 0x541C707 EQ PUSH2 0x43 JUMPI DUP1 PUSH4 0x6AC5DB19 EQ PUSH2 0x5F JUMPI DUP1 PUSH4 0xF8897945 EQ PUSH2 0x7D JUMPI JUMPDEST PUSH0 DUP1 REVERT JUMPDEST PUSH2 0x5D PUSH1 0x4 DUP1 CALLDATASIZE SUB DUP2 ADD SWAP1 PUSH2 0x58 SWAP2 SWAP1 PUSH2 0x16D JUMP JUMPDEST PUSH2 0x9B JUMP JUMPDEST STOP JUMPDEST PUSH2 0x67 PUSH2 0x12B JUMP JUMPDEST PUSH1 0x40 MLOAD PUSH2 0x74 SWAP2 SWAP1 PUSH2 0x1CC JUMP JUMPDEST PUSH1 0x40 MLOAD DUP1 SWAP2 SUB SWAP1 RETURN JUMPDEST PUSH2 0x85 PUSH2 0x130 JUMP JUMPDEST PUSH1 0x40 MLOAD PUSH2 0x92 SWAP2 SWAP1 PUSH2 0x1CC JUMP JUMPDEST PUSH1 0x40 MLOAD DUP1 SWAP2 SUB SWAP1 RETURN JUMPDEST DUP2 DUP4 GT DUP1 ISZERO PUSH2 0xA9 JUMPI POP DUP1 DUP4 GT JUMPDEST ISZERO PUSH2 0xB9 JUMPI DUP3 PUSH0 DUP2 SWAP1 SSTORE POP PUSH2 0xDF JUMP JUMPDEST DUP3 DUP3 GT DUP1 ISZERO PUSH2 0xC7 JUMPI POP DUP1 DUP3 GT JUMPDEST ISZERO PUSH2 0xD7 JUMPI DUP2 PUSH0 DUP2 SWAP1 SSTORE POP PUSH2 0xDE JUMP JUMPDEST DUP1 PUSH0 DUP2 SWAP1 SSTORE POP JUMPDEST JUMPDEST DUP2 DUP4 LT DUP1 ISZERO PUSH2 0xED JUMPI POP DUP1 DUP4 LT JUMPDEST ISZERO PUSH2 0xFE JUMPI DUP3 PUSH1 0x1 DUP2 SWAP1 SSTORE POP PUSH2 0x126 JUMP JUMPDEST DUP3 DUP3 LT DUP1 ISZERO PUSH2 0x10C JUMPI POP DUP1 DUP3 LT JUMPDEST ISZERO PUSH2 0x11D JUMPI DUP2 PUSH1 0x1 DUP2 SWAP1 SSTORE POP PUSH2 0x125 JUMP JUMPDEST DUP1 PUSH1 0x1 DUP2 SWAP1 SSTORE POP JUMPDEST JUMPDEST POP POP POP JUMP JUMPDEST PUSH0 SLOAD DUP2 JUMP JUMPDEST PUSH1 0x1 SLOAD DUP2 JUMP JUMPDEST PUSH0 DUP1 REVERT JUMPDEST PUSH0 DUP2 SWAP1 POP SWAP2 SWAP1 POP JUMP JUMPDEST PUSH2 0x14C DUP2 PUSH2 0x13A JUMP JUMPDEST DUP2 EQ PUSH2 0x156 JUMPI PUSH0 DUP1 REVERT JUMPDEST POP JUMP JUMPDEST PUSH0 DUP2 CALLDATALOAD SWAP1 POP PUSH2 0x167 DUP2 PUSH2 0x143 JUMP JUMPDEST SWAP3 SWAP2 POP POP JUMP JUMPDEST PUSH0 DUP1 PUSH0 PUSH1 0x60 DUP5 DUP7 SUB SLT ISZERO PUSH2 0x184 JUMPI PUSH2 0x183 PUSH2 0x136 JUMP JUMPDEST JUMPDEST PUSH0 PUSH2 0x191 DUP7 DUP3 DUP8 ADD PUSH2 0x159 JUMP JUMPDEST SWAP4 POP POP PUSH1 0x20 PUSH2 0x1A2 DUP7 DUP3 DUP8 ADD PUSH2 0x159 JUMP JUMPDEST SWAP3 POP POP PUSH1 0x40 PUSH2 0x1B3 DUP7 DUP3 DUP8 ADD PUSH2 0x159 JUMP JUMPDEST SWAP2 POP POP SWAP3 POP SWAP3 POP SWAP3 JUMP JUMPDEST PUSH2 0x1C6 DUP2 PUSH2 0x13A JUMP JUMPDEST DUP3 MSTORE POP POP JUMP JUMPDEST PUSH0 PUSH1 0x20 DUP3 ADD SWAP1 POP PUSH2 0x1DF PUSH0 DUP4 ADD DUP5 PUSH2 0x1BD JUMP JUMPDEST SWAP3 SWAP2 POP POP JUMP INVALID LOG2 PUSH5 0x6970667358 0x22 SLT KECCAK256 0xA7 SMOD REVERT SLT PUSH4 0x4F6B49E5 0xCB DUP8 EXP 0xB8 0xDD 0xC6 PUSH0 0xA7 PUSH23 0xD76649EE4AF4A362CC13E1A3C76364736F6C634300081A STOP CALLER "
				},
				"gasEstimates": {
					"creation": {
						"codeDepositCost": "107800",
						"executionCost": "151",
						"totalCost": "107951"
					},
					"external": {
						"get(uint256,uint256,uint256)": "infinite",
						"max()": "2424",
						"min()": "2447"
					}
				},
				"methodIdentifiers": {
					"get(uint256,uint256,uint256)": "0541c707",
					"max()": "6ac5db19",
					"min()": "f8897945"
				}
			},
			"storageLayout": {
				"storage": [
					{
						"astId": 3,
						"contract": "Day03/d3p2.sol:MinMax",
						"label": "max",
						"offset": 0,
						"slot": "0",
						"type": "t_uint256"
					},
					{
						"astId": 5,
						"contract": "Day03/d3p2.sol:MinMax",
						"label": "min",
						"offset": 0,
						"slot": "1",
						"type": "t_uint256"
					}
				],
				"types": {
					"t_uint256": {
						"encoding": "inplace",
						"label": "uint256",
						"numberOfBytes": "32"
					}
				}
			},
			"userdoc": {
				"kind": "user",
				"methods": {},
				"version": 1
			}
		}
	}
}