{
	"Day03/d3p1.sol": {
		"Grade": {
			"abi": [
				{
					"inputs": [
						{
							"internalType": "int256",
							"name": "marks",
							"type": "int256"
						}
					],
					"name": "calcGrade",
					"outputs": [
						{
							"internalType": "string",
							"name": "grade",
							"type": "string"
						}
					],
					"stateMutability": "pure",
					"type": "function"
				}
			],
			"devdoc": {
				"kind": "dev",
				"methods": {},
				"version": 1
			},
			"evm": {
				"assembly": "    /* \"Day03/d3p1.sol\":68:760  contract Grade {... */\n  mstore(0x40, 0x80)\n  callvalue\n  dup1\n  iszero\n  tag_1\n  jumpi\n  0x00\n  dup1\n  revert\ntag_1:\n  pop\n  dataSize(sub_0)\n  dup1\n  dataOffset(sub_0)\n  0x00\n  codecopy\n  0x00\n  return\nstop\n\nsub_0: assembly {\n        /* \"Day03/d3p1.sol\":68:760  contract Grade {... */\n      mstore(0x40, 0x80)\n      callvalue\n      dup1\n      iszero\n      tag_1\n      jumpi\n      0x00\n      dup1\n      revert\n    tag_1:\n      pop\n      jumpi(tag_2, lt(calldatasize, 0x04))\n      shr(0xe0, calldataload(0x00))\n      dup1\n      0xdf988d62\n      eq\n      tag_3\n      jumpi\n    tag_2:\n      0x00\n      dup1\n      revert\n        /* \"Day03/d3p1.sol\":90:757  function calcGrade(int256 marks) public pure returns(string memory grade) {... */\n    tag_3:\n      tag_4\n      0x04\n      dup1\n      calldatasize\n      sub\n      dup2\n      add\n      swap1\n      tag_5\n      swap2\n      swap1\n      tag_6\n      jump\t// in\n    tag_5:\n      tag_7\n      jump\t// in\n    tag_4:\n      mload(0x40)\n      tag_8\n      swap2\n      swap1\n      tag_9\n      jump\t// in\n    tag_8:\n      mload(0x40)\n      dup1\n      swap2\n      sub\n      swap1\n      return\n    tag_7:\n        /* \"Day03/d3p1.sol\":143:162  string memory grade */\n      0x60\n        /* \"Day03/d3p1.sol\":187:189  90 */\n      0x5a\n        /* \"Day03/d3p1.sol\":180:185  marks */\n      dup3\n        /* \"Day03/d3p1.sol\":180:189  marks>=90 */\n      slt\n        /* \"Day03/d3p1.sol\":177:750  if(marks>=90){... */\n      tag_11\n      jumpi\n        /* \"Day03/d3p1.sol\":205:215  return \"O\" */\n      mload(0x40)\n      dup1\n      0x40\n      add\n      0x40\n      mstore\n      dup1\n      0x01\n      dup2\n      mstore\n      0x20\n      add\n      0x4f00000000000000000000000000000000000000000000000000000000000000\n      dup2\n      mstore\n      pop\n      swap1\n      pop\n      jump(tag_10)\n        /* \"Day03/d3p1.sol\":177:750  if(marks>=90){... */\n    tag_11:\n        /* \"Day03/d3p1.sol\":252:254  80 */\n      0x50\n        /* \"Day03/d3p1.sol\":245:250  marks */\n      dup3\n        /* \"Day03/d3p1.sol\":245:254  marks>=80 */\n      slt\n      iszero\n        /* \"Day03/d3p1.sol\":245:266  marks>=80 && marks<90 */\n      dup1\n      iszero\n      tag_13\n      jumpi\n      pop\n        /* \"Day03/d3p1.sol\":264:266  90 */\n      0x5a\n        /* \"Day03/d3p1.sol\":258:263  marks */\n      dup3\n        /* \"Day03/d3p1.sol\":258:266  marks<90 */\n      slt\n        /* \"Day03/d3p1.sol\":245:266  marks>=80 && marks<90 */\n    tag_13:\n        /* \"Day03/d3p1.sol\":242:750  if(marks>=80 && marks<90){... */\n      iszero\n      tag_14\n      jumpi\n        /* \"Day03/d3p1.sol\":282:292  return \"E\" */\n      mload(0x40)\n      dup1\n      0x40\n      add\n      0x40\n      mstore\n      dup1\n      0x01\n      dup2\n      mstore\n      0x20\n      add\n      0x4500000000000000000000000000000000000000000000000000000000000000\n      dup2\n      mstore\n      pop\n      swap1\n      pop\n      jump(tag_10)\n        /* \"Day03/d3p1.sol\":242:750  if(marks>=80 && marks<90){... */\n    tag_14:\n        /* \"Day03/d3p1.sol\":329:331  70 */\n      0x46\n        /* \"Day03/d3p1.sol\":322:327  marks */\n      dup3\n        /* \"Day03/d3p1.sol\":322:331  marks>=70 */\n      slt\n      iszero\n        /* \"Day03/d3p1.sol\":322:343  marks>=70 && marks<80 */\n      dup1\n      iszero\n      tag_16\n      jumpi\n      pop\n        /* \"Day03/d3p1.sol\":341:343  80 */\n      0x50\n        /* \"Day03/d3p1.sol\":335:340  marks */\n      dup3\n        /* \"Day03/d3p1.sol\":335:343  marks<80 */\n      slt\n        /* \"Day03/d3p1.sol\":322:343  marks>=70 && marks<80 */\n    tag_16:\n        /* \"Day03/d3p1.sol\":319:750  if(marks>=70 && marks<80){... */\n      iszero\n      tag_17\n      jumpi\n        /* \"Day03/d3p1.sol\":359:369  return \"A\" */\n      mload(0x40)\n      dup1\n      0x40\n      add\n      0x40\n      mstore\n      dup1\n      0x01\n      dup2\n      mstore\n      0x20\n      add\n      0x4100000000000000000000000000000000000000000000000000000000000000\n      dup2\n      mstore\n      pop\n      swap1\n      pop\n      jump(tag_10)\n        /* \"Day03/d3p1.sol\":319:750  if(marks>=70 && marks<80){... */\n    tag_17:\n        /* \"Day03/d3p1.sol\":406:408  60 */\n      0x3c\n        /* \"Day03/d3p1.sol\":399:404  marks */\n      dup3\n        /* \"Day03/d3p1.sol\":399:408  marks>=60 */\n      slt\n      iszero\n        /* \"Day03/d3p1.sol\":399:420  marks>=60 && marks<70 */\n      dup1\n      iszero\n      tag_19\n      jumpi\n      pop\n        /* \"Day03/d3p1.sol\":418:420  70 */\n      0x46\n        /* \"Day03/d3p1.sol\":412:417  marks */\n      dup3\n        /* \"Day03/d3p1.sol\":412:420  marks<70 */\n      slt\n        /* \"Day03/d3p1.sol\":399:420  marks>=60 && marks<70 */\n    tag_19:\n        /* \"Day03/d3p1.sol\":396:750  if(marks>=60 && marks<70){... */\n      iszero\n      tag_20\n      jumpi\n        /* \"Day03/d3p1.sol\":436:446  return \"B\" */\n      mload(0x40)\n      dup1\n      0x40\n      add\n      0x40\n      mstore\n      dup1\n      0x01\n      dup2\n      mstore\n      0x20\n      add\n      0x4200000000000000000000000000000000000000000000000000000000000000\n      dup2\n      mstore\n      pop\n      swap1\n      pop\n      jump(tag_10)\n        /* \"Day03/d3p1.sol\":396:750  if(marks>=60 && marks<70){... */\n    tag_20:\n        /* \"Day03/d3p1.sol\":483:485  50 */\n      0x32\n        /* \"Day03/d3p1.sol\":476:481  marks */\n      dup3\n        /* \"Day03/d3p1.sol\":476:485  marks>=50 */\n      slt\n      iszero\n        /* \"Day03/d3p1.sol\":476:497  marks>=50 && marks<60 */\n      dup1\n      iszero\n      tag_22\n      jumpi\n      pop\n        /* \"Day03/d3p1.sol\":495:497  60 */\n      0x3c\n        /* \"Day03/d3p1.sol\":489:494  marks */\n      dup3\n        /* \"Day03/d3p1.sol\":489:497  marks<60 */\n      slt\n        /* \"Day03/d3p1.sol\":476:497  marks>=50 && marks<60 */\n    tag_22:\n        /* \"Day03/d3p1.sol\":473:750  if(marks>=50 && marks<60){... */\n      iszero\n      tag_23\n      jumpi\n        /* \"Day03/d3p1.sol\":513:523  return \"C\" */\n      mload(0x40)\n      dup1\n      0x40\n      add\n      0x40\n      mstore\n      dup1\n      0x01\n      dup2\n      mstore\n      0x20\n      add\n      0x4300000000000000000000000000000000000000000000000000000000000000\n      dup2\n      mstore\n      pop\n      swap1\n      pop\n      jump(tag_10)\n        /* \"Day03/d3p1.sol\":473:750  if(marks>=50 && marks<60){... */\n    tag_23:\n        /* \"Day03/d3p1.sol\":560:562  40 */\n      0x28\n        /* \"Day03/d3p1.sol\":553:558  marks */\n      dup3\n        /* \"Day03/d3p1.sol\":553:562  marks>=40 */\n      slt\n      iszero\n        /* \"Day03/d3p1.sol\":553:574  marks>=40 && marks<50 */\n      dup1\n      iszero\n      tag_25\n      jumpi\n      pop\n        /* \"Day03/d3p1.sol\":572:574  50 */\n      0x32\n        /* \"Day03/d3p1.sol\":566:571  marks */\n      dup3\n        /* \"Day03/d3p1.sol\":566:574  marks<50 */\n      slt\n        /* \"Day03/d3p1.sol\":553:574  marks>=40 && marks<50 */\n    tag_25:\n        /* \"Day03/d3p1.sol\":550:750  if(marks>=40 && marks<50){... */\n      iszero\n      tag_26\n      jumpi\n        /* \"Day03/d3p1.sol\":590:600  return \"D\" */\n      mload(0x40)\n      dup1\n      0x40\n      add\n      0x40\n      mstore\n      dup1\n      0x01\n      dup2\n      mstore\n      0x20\n      add\n      0x4400000000000000000000000000000000000000000000000000000000000000\n      dup2\n      mstore\n      pop\n      swap1\n      pop\n      jump(tag_10)\n        /* \"Day03/d3p1.sol\":550:750  if(marks>=40 && marks<50){... */\n    tag_26:\n        /* \"Day03/d3p1.sol\":636:637  0 */\n      0x00\n        /* \"Day03/d3p1.sol\":630:635  marks */\n      dup3\n        /* \"Day03/d3p1.sol\":630:637  marks>0 */\n      sgt\n        /* \"Day03/d3p1.sol\":630:649  marks>0 && marks<40 */\n      dup1\n      iszero\n      tag_28\n      jumpi\n      pop\n        /* \"Day03/d3p1.sol\":647:649  40 */\n      0x28\n        /* \"Day03/d3p1.sol\":641:646  marks */\n      dup3\n        /* \"Day03/d3p1.sol\":641:649  marks<40 */\n      slt\n        /* \"Day03/d3p1.sol\":630:649  marks>0 && marks<40 */\n    tag_28:\n        /* \"Day03/d3p1.sol\":627:750  if(marks>0 && marks<40){... */\n      iszero\n      tag_29\n      jumpi\n        /* \"Day03/d3p1.sol\":665:675  return \"F\" */\n      mload(0x40)\n      dup1\n      0x40\n      add\n      0x40\n      mstore\n      dup1\n      0x01\n      dup2\n      mstore\n      0x20\n      add\n      0x4600000000000000000000000000000000000000000000000000000000000000\n      dup2\n      mstore\n      pop\n      swap1\n      pop\n      jump(tag_10)\n        /* \"Day03/d3p1.sol\":627:750  if(marks>0 && marks<40){... */\n    tag_29:\n        /* \"Day03/d3p1.sol\":716:738  return \"Invalid input\" */\n      mload(0x40)\n      dup1\n      0x40\n      add\n      0x40\n      mstore\n      dup1\n      0x0d\n      dup2\n      mstore\n      0x20\n      add\n      0x496e76616c696420696e70757400000000000000000000000000000000000000\n      dup2\n      mstore\n      pop\n      swap1\n      pop\n        /* \"Day03/d3p1.sol\":90:757  function calcGrade(int256 marks) public pure returns(string memory grade) {... */\n    tag_10:\n      swap2\n      swap1\n      pop\n      jump\t// out\n        /* \"#utility.yul\":88:205   */\n    tag_32:\n        /* \"#utility.yul\":197:198   */\n      0x00\n        /* \"#utility.yul\":194:195   */\n      dup1\n        /* \"#utility.yul\":187:199   */\n      revert\n        /* \"#utility.yul\":334:410   */\n    tag_34:\n        /* \"#utility.yul\":370:377   */\n      0x00\n        /* \"#utility.yul\":399:404   */\n      dup2\n        /* \"#utility.yul\":388:404   */\n      swap1\n      pop\n        /* \"#utility.yul\":334:410   */\n      swap2\n      swap1\n      pop\n      jump\t// out\n        /* \"#utility.yul\":416:536   */\n    tag_35:\n        /* \"#utility.yul\":488:511   */\n      tag_48\n        /* \"#utility.yul\":505:510   */\n      dup2\n        /* \"#utility.yul\":488:511   */\n      tag_34\n      jump\t// in\n    tag_48:\n        /* \"#utility.yul\":481:486   */\n      dup2\n        /* \"#utility.yul\":478:512   */\n      eq\n        /* \"#utility.yul\":468:530   */\n      tag_49\n      jumpi\n        /* \"#utility.yul\":526:527   */\n      0x00\n        /* \"#utility.yul\":523:524   */\n      dup1\n        /* \"#utility.yul\":516:528   */\n      revert\n        /* \"#utility.yul\":468:530   */\n    tag_49:\n        /* \"#utility.yul\":416:536   */\n      pop\n      jump\t// out\n        /* \"#utility.yul\":542:679   */\n    tag_36:\n        /* \"#utility.yul\":587:592   */\n      0x00\n        /* \"#utility.yul\":625:631   */\n      dup2\n        /* \"#utility.yul\":612:632   */\n      calldataload\n        /* \"#utility.yul\":603:632   */\n      swap1\n      pop\n        /* \"#utility.yul\":641:673   */\n      tag_51\n        /* \"#utility.yul\":667:672   */\n      dup2\n        /* \"#utility.yul\":641:673   */\n      tag_35\n      jump\t// in\n    tag_51:\n        /* \"#utility.yul\":542:679   */\n      swap3\n      swap2\n      pop\n      pop\n      jump\t// out\n        /* \"#utility.yul\":685:1012   */\n    tag_6:\n        /* \"#utility.yul\":743:749   */\n      0x00\n        /* \"#utility.yul\":792:794   */\n      0x20\n        /* \"#utility.yul\":780:789   */\n      dup3\n        /* \"#utility.yul\":771:778   */\n      dup5\n        /* \"#utility.yul\":767:790   */\n      sub\n        /* \"#utility.yul\":763:795   */\n      slt\n        /* \"#utility.yul\":760:879   */\n      iszero\n      tag_53\n      jumpi\n        /* \"#utility.yul\":798:877   */\n      tag_54\n      tag_32\n      jump\t// in\n    tag_54:\n        /* \"#utility.yul\":760:879   */\n    tag_53:\n        /* \"#utility.yul\":918:919   */\n      0x00\n        /* \"#utility.yul\":943:995   */\n      tag_55\n        /* \"#utility.yul\":987:994   */\n      dup5\n        /* \"#utility.yul\":978:984   */\n      dup3\n        /* \"#utility.yul\":967:976   */\n      dup6\n        /* \"#utility.yul\":963:985   */\n      add\n        /* \"#utility.yul\":943:995   */\n      tag_36\n      jump\t// in\n    tag_55:\n        /* \"#utility.yul\":933:995   */\n      swap2\n      pop\n        /* \"#utility.yul\":889:1005   */\n      pop\n        /* \"#utility.yul\":685:1012   */\n      swap3\n      swap2\n      pop\n      pop\n      jump\t// out\n        /* \"#utility.yul\":1018:1117   */\n    tag_37:\n        /* \"#utility.yul\":1070:1076   */\n      0x00\n        /* \"#utility.yul\":1104:1109   */\n      dup2\n        /* \"#utility.yul\":1098:1110   */\n      mload\n        /* \"#utility.yul\":1088:1110   */\n      swap1\n      pop\n        /* \"#utility.yul\":1018:1117   */\n      swap2\n      swap1\n      pop\n      jump\t// out\n        /* \"#utility.yul\":1123:1292   */\n    tag_38:\n        /* \"#utility.yul\":1207:1218   */\n      0x00\n        /* \"#utility.yul\":1241:1247   */\n      dup3\n        /* \"#utility.yul\":1236:1239   */\n      dup3\n        /* \"#utility.yul\":1229:1248   */\n      mstore\n        /* \"#utility.yul\":1281:1285   */\n      0x20\n        /* \"#utility.yul\":1276:1279   */\n      dup3\n        /* \"#utility.yul\":1272:1286   */\n      add\n        /* \"#utility.yul\":1257:1286   */\n      swap1\n      pop\n        /* \"#utility.yul\":1123:1292   */\n      swap3\n      swap2\n      pop\n      pop\n      jump\t// out\n        /* \"#utility.yul\":1298:1437   */\n    tag_39:\n        /* \"#utility.yul\":1387:1393   */\n      dup3\n        /* \"#utility.yul\":1382:1385   */\n      dup2\n        /* \"#utility.yul\":1377:1380   */\n      dup4\n        /* \"#utility.yul\":1371:1394   */\n      mcopy\n        /* \"#utility.yul\":1428:1429   */\n      0x00\n        /* \"#utility.yul\":1419:1425   */\n      dup4\n        /* \"#utility.yul\":1414:1417   */\n      dup4\n        /* \"#utility.yul\":1410:1426   */\n      add\n        /* \"#utility.yul\":1403:1430   */\n      mstore\n        /* \"#utility.yul\":1298:1437   */\n      pop\n      pop\n      pop\n      jump\t// out\n        /* \"#utility.yul\":1443:1545   */\n    tag_40:\n        /* \"#utility.yul\":1484:1490   */\n      0x00\n        /* \"#utility.yul\":1535:1537   */\n      0x1f\n        /* \"#utility.yul\":1531:1538   */\n      not\n        /* \"#utility.yul\":1526:1528   */\n      0x1f\n        /* \"#utility.yul\":1519:1524   */\n      dup4\n        /* \"#utility.yul\":1515:1529   */\n      add\n        /* \"#utility.yul\":1511:1539   */\n      and\n        /* \"#utility.yul\":1501:1539   */\n      swap1\n      pop\n        /* \"#utility.yul\":1443:1545   */\n      swap2\n      swap1\n      pop\n      jump\t// out\n        /* \"#utility.yul\":1551:1928   */\n    tag_41:\n        /* \"#utility.yul\":1639:1642   */\n      0x00\n        /* \"#utility.yul\":1667:1706   */\n      tag_61\n        /* \"#utility.yul\":1700:1705   */\n      dup3\n        /* \"#utility.yul\":1667:1706   */\n      tag_37\n      jump\t// in\n    tag_61:\n        /* \"#utility.yul\":1722:1793   */\n      tag_62\n        /* \"#utility.yul\":1786:1792   */\n      dup2\n        /* \"#utility.yul\":1781:1784   */\n      dup6\n        /* \"#utility.yul\":1722:1793   */\n      tag_38\n      jump\t// in\n    tag_62:\n        /* \"#utility.yul\":1715:1793   */\n      swap4\n      pop\n        /* \"#utility.yul\":1802:1867   */\n      tag_63\n        /* \"#utility.yul\":1860:1866   */\n      dup2\n        /* \"#utility.yul\":1855:1858   */\n      dup6\n        /* \"#utility.yul\":1848:1852   */\n      0x20\n        /* \"#utility.yul\":1841:1846   */\n      dup7\n        /* \"#utility.yul\":1837:1853   */\n      add\n        /* \"#utility.yul\":1802:1867   */\n      tag_39\n      jump\t// in\n    tag_63:\n        /* \"#utility.yul\":1892:1921   */\n      tag_64\n        /* \"#utility.yul\":1914:1920   */\n      dup2\n        /* \"#utility.yul\":1892:1921   */\n      tag_40\n      jump\t// in\n    tag_64:\n        /* \"#utility.yul\":1887:1890   */\n      dup5\n        /* \"#utility.yul\":1883:1922   */\n      add\n        /* \"#utility.yul\":1876:1922   */\n      swap2\n      pop\n        /* \"#utility.yul\":1643:1928   */\n      pop\n        /* \"#utility.yul\":1551:1928   */\n      swap3\n      swap2\n      pop\n      pop\n      jump\t// out\n        /* \"#utility.yul\":1934:2247   */\n    tag_9:\n        /* \"#utility.yul\":2047:2051   */\n      0x00\n        /* \"#utility.yul\":2085:2087   */\n      0x20\n        /* \"#utility.yul\":2074:2083   */\n      dup3\n        /* \"#utility.yul\":2070:2088   */\n      add\n        /* \"#utility.yul\":2062:2088   */\n      swap1\n      pop\n        /* \"#utility.yul\":2134:2143   */\n      dup2\n        /* \"#utility.yul\":2128:2132   */\n      dup2\n        /* \"#utility.yul\":2124:2144   */\n      sub\n        /* \"#utility.yul\":2120:2121   */\n      0x00\n        /* \"#utility.yul\":2109:2118   */\n      dup4\n        /* \"#utility.yul\":2105:2122   */\n      add\n        /* \"#utility.yul\":2098:2145   */\n      mstore\n        /* \"#utility.yul\":2162:2240   */\n      tag_66\n        /* \"#utility.yul\":2235:2239   */\n      dup2\n        /* \"#utility.yul\":2226:2232   */\n      dup5\n        /* \"#utility.yul\":2162:2240   */\n      tag_41\n      jump\t// in\n    tag_66:\n        /* \"#utility.yul\":2154:2240   */\n      swap1\n      pop\n        /* \"#utility.yul\":1934:2247   */\n      swap3\n      swap2\n      pop\n      pop\n      jump\t// out\n\n    auxdata: 0xa2646970667358221220ad23169c85bb38b5c7f35db3ef0ba5305b4eeaf7b4027f96bd6a05104201952e64736f6c634300081a0033\n}\n",
				"bytecode": {
					"linkReferences": {},
					"object": "6080604052348015600e575f80fd5b506103fa8061001c5f395ff3fe608060405234801561000f575f80fd5b5060043610610029575f3560e01c8063df988d621461002d575b5f80fd5b61004760048036038101906100429190610309565b61005d565b60405161005491906103a4565b60405180910390f35b6060605a82126100a4576040518060400160405280600181526020017f4f0000000000000000000000000000000000000000000000000000000000000081525090506102cd565b605082121580156100b55750605a82125b156100f7576040518060400160405280600181526020017f450000000000000000000000000000000000000000000000000000000000000081525090506102cd565b604682121580156101085750605082125b1561014a576040518060400160405280600181526020017f410000000000000000000000000000000000000000000000000000000000000081525090506102cd565b603c821215801561015b5750604682125b1561019d576040518060400160405280600181526020017f420000000000000000000000000000000000000000000000000000000000000081525090506102cd565b603282121580156101ae5750603c82125b156101f0576040518060400160405280600181526020017f430000000000000000000000000000000000000000000000000000000000000081525090506102cd565b602882121580156102015750603282125b15610243576040518060400160405280600181526020017f440000000000000000000000000000000000000000000000000000000000000081525090506102cd565b5f821380156102525750602882125b15610294576040518060400160405280600181526020017f460000000000000000000000000000000000000000000000000000000000000081525090506102cd565b6040518060400160405280600d81526020017f496e76616c696420696e7075740000000000000000000000000000000000000081525090505b919050565b5f80fd5b5f819050919050565b6102e8816102d6565b81146102f2575f80fd5b50565b5f81359050610303816102df565b92915050565b5f6020828403121561031e5761031d6102d2565b5b5f61032b848285016102f5565b91505092915050565b5f81519050919050565b5f82825260208201905092915050565b8281835e5f83830152505050565b5f601f19601f8301169050919050565b5f61037682610334565b610380818561033e565b935061039081856020860161034e565b6103998161035c565b840191505092915050565b5f6020820190508181035f8301526103bc818461036c565b90509291505056fea2646970667358221220ad23169c85bb38b5c7f35db3ef0ba5305b4eeaf7b4027f96bd6a05104201952e64736f6c634300081a0033",
					"opcodes": "PUSH1 0x80 PUSH1 0x40 MSTORE CALLVALUE DUP1 ISZERO PUSH1 0xE JUMPI PUSH0 DUP1 REVERT JUMPDEST POP PUSH2 0x3FA DUP1 PUSH2 0x1C PUSH0 CODECOPY PUSH0 RETURN INVALID PUSH1 0x80 PUSH1 0x40 MSTORE CALLVALUE DUP1 ISZERO PUSH2 0xF JUMPI PUSH0 DUP1 REVERT JUMPDEST POP PUSH1 0x4 CALLDATASIZE LT PUSH2 0x29 JUMPI PUSH0 CALLDATALOAD PUSH1 0xE0 SHR DUP1 PUSH4 0xDF988D62 EQ PUSH2 0x2D JUMPI JUMPDEST PUSH0 DUP1 REVERT JUMPDEST PUSH2 0x47 PUSH1 0x4 DUP1 CALLDATASIZE SUB DUP2 ADD SWAP1 PUSH2 0x42 SWAP2 SWAP1 PUSH2 0x309 JUMP JUMPDEST PUSH2 0x5D JUMP JUMPDEST PUSH1 0x40 MLOAD PUSH2 0x54 SWAP2 SWAP1 PUSH2 0x3A4 JUMP JUMPDEST PUSH1 0x40 MLOAD DUP1 SWAP2 SUB SWAP1 RETURN JUMPDEST PUSH1 0x60 PUSH1 0x5A DUP3 SLT PUSH2 0xA4 JUMPI PUSH1 0x40 MLOAD DUP1 PUSH1 0x40 ADD PUSH1 0x40 MSTORE DUP1 PUSH1 0x1 DUP2 MSTORE PUSH1 0x20 ADD PUSH32 0x4F00000000000000000000000000000000000000000000000000000000000000 DUP2 MSTORE POP SWAP1 POP PUSH2 0x2CD JUMP JUMPDEST PUSH1 0x50 DUP3 SLT ISZERO DUP1 ISZERO PUSH2 0xB5 JUMPI POP PUSH1 0x5A DUP3 SLT JUMPDEST ISZERO PUSH2 0xF7 JUMPI PUSH1 0x40 MLOAD DUP1 PUSH1 0x40 ADD PUSH1 0x40 MSTORE DUP1 PUSH1 0x1 DUP2 MSTORE PUSH1 0x20 ADD PUSH32 0x4500000000000000000000000000000000000000000000000000000000000000 DUP2 MSTORE POP SWAP1 POP PUSH2 0x2CD JUMP JUMPDEST PUSH1 0x46 DUP3 SLT ISZERO DUP1 ISZERO PUSH2 0x108 JUMPI POP PUSH1 0x50 DUP3 SLT JUMPDEST ISZERO PUSH2 0x14A JUMPI PUSH1 0x40 MLOAD DUP1 PUSH1 0x40 ADD PUSH1 0x40 MSTORE DUP1 PUSH1 0x1 DUP2 MSTORE PUSH1 0x20 ADD PUSH32 0x4100000000000000000000000000000000000000000000000000000000000000 DUP2 MSTORE POP SWAP1 POP PUSH2 0x2CD JUMP JUMPDEST PUSH1 0x3C DUP3 SLT ISZERO DUP1 ISZERO PUSH2 0x15B JUMPI POP PUSH1 0x46 DUP3 SLT JUMPDEST ISZERO PUSH2 0x19D JUMPI PUSH1 0x40 MLOAD DUP1 PUSH1 0x40 ADD PUSH1 0x40 MSTORE DUP1 PUSH1 0x1 DUP2 MSTORE PUSH1 0x20 ADD PUSH32 0x4200000000000000000000000000000000000000000000000000000000000000 DUP2 MSTORE POP SWAP1 POP PUSH2 0x2CD JUMP JUMPDEST PUSH1 0x32 DUP3 SLT ISZERO DUP1 ISZERO PUSH2 0x1AE JUMPI POP PUSH1 0x3C DUP3 SLT JUMPDEST ISZERO PUSH2 0x1F0 JUMPI PUSH1 0x40 MLOAD DUP1 PUSH1 0x40 ADD PUSH1 0x40 MSTORE DUP1 PUSH1 0x1 DUP2 MSTORE PUSH1 0x20 ADD PUSH32 0x4300000000000000000000000000000000000000000000000000000000000000 DUP2 MSTORE POP SWAP1 POP PUSH2 0x2CD JUMP JUMPDEST PUSH1 0x28 DUP3 SLT ISZERO DUP1 ISZERO PUSH2 0x201 JUMPI POP PUSH1 0x32 DUP3 SLT JUMPDEST ISZERO PUSH2 0x243 JUMPI PUSH1 0x40 MLOAD DUP1 PUSH1 0x40 ADD PUSH1 0x40 MSTORE DUP1 PUSH1 0x1 DUP2 MSTORE PUSH1 0x20 ADD PUSH32 0x4400000000000000000000000000000000000000000000000000000000000000 DUP2 MSTORE POP SWAP1 POP PUSH2 0x2CD JUMP JUMPDEST PUSH0 DUP3 SGT DUP1 ISZERO PUSH2 0x252 JUMPI POP PUSH1 0x28 DUP3 SLT JUMPDEST ISZERO PUSH2 0x294 JUMPI PUSH1 0x40 MLOAD DUP1 PUSH1 0x40 ADD PUSH1 0x40 MSTORE DUP1 PUSH1 0x1 DUP2 MSTORE PUSH1 0x20 ADD PUSH32 0x4600000000000000000000000000000000000000000000000000000000000000 DUP2 MSTORE POP SWAP1 POP PUSH2 0x2CD JUMP JUMPDEST PUSH1 0x40 MLOAD DUP1 PUSH1 0x40 ADD PUSH1 0x40 MSTORE DUP1 PUSH1 0xD DUP2 MSTORE PUSH1 0x20 ADD PUSH32 0x496E76616C696420696E70757400000000000000000000000000000000000000 DUP2 MSTORE POP SWAP1 POP JUMPDEST SWAP2 SWAP1 POP JUMP JUMPDEST PUSH0 DUP1 REVERT JUMPDEST PUSH0 DUP2 SWAP1 POP SWAP2 SWAP1 POP JUMP JUMPDEST PUSH2 0x2E8 DUP2 PUSH2 0x2D6 JUMP JUMPDEST DUP2 EQ PUSH2 0x2F2 JUMPI PUSH0 DUP1 REVERT JUMPDEST POP JUMP JUMPDEST PUSH0 DUP2 CALLDATALOAD SWAP1 POP PUSH2 0x303 DUP2 PUSH2 0x2DF JUMP JUMPDEST SWAP3 SWAP2 POP POP JUMP JUMPDEST PUSH0 PUSH1 0x20 DUP3 DUP5 SUB SLT ISZERO PUSH2 0x31E JUMPI PUSH2 0x31D PUSH2 0x2D2 JUMP JUMPDEST JUMPDEST PUSH0 PUSH2 0x32B DUP5 DUP3 DUP6 ADD PUSH2 0x2F5 JUMP JUMPDEST SWAP2 POP POP SWAP3 SWAP2 POP POP JUMP JUMPDEST PUSH0 DUP2 MLOAD SWAP1 POP SWAP2 SWAP1 POP JUMP JUMPDEST PUSH0 DUP3 DUP3 MSTORE PUSH1 0x20 DUP3 ADD SWAP1 POP SWAP3 SWAP2 POP POP JUMP JUMPDEST DUP3 DUP2 DUP4 MCOPY PUSH0 DUP4 DUP4 ADD MSTORE POP POP POP JUMP JUMPDEST PUSH0 PUSH1 0x1F NOT PUSH1 0x1F DUP4 ADD AND SWAP1 POP SWAP2 SWAP1 POP JUMP JUMPDEST PUSH0 PUSH2 0x376 DUP3 PUSH2 0x334 JUMP JUMPDEST PUSH2 0x380 DUP2 DUP6 PUSH2 0x33E JUMP JUMPDEST SWAP4 POP PUSH2 0x390 DUP2 DUP6 PUSH1 0x20 DUP7 ADD PUSH2 0x34E JUMP JUMPDEST PUSH2 0x399 DUP2 PUSH2 0x35C JUMP JUMPDEST DUP5 ADD SWAP2 POP POP SWAP3 SWAP2 POP POP JUMP JUMPDEST PUSH0 PUSH1 0x20 DUP3 ADD SWAP1 POP DUP2 DUP2 SUB PUSH0 DUP4 ADD MSTORE PUSH2 0x3BC DUP2 DUP5 PUSH2 0x36C JUMP JUMPDEST SWAP1 POP SWAP3 SWAP2 POP POP JUMP INVALID LOG2 PUSH5 0x6970667358 0x22 SLT KECCAK256 0xAD 0x23 AND SWAP13 DUP6 0xBB CODESIZE 0xB5 0xC7 RETURN TSTORE 0xB3 0xEF SIGNEXTEND 0xA5 ADDRESS JUMPDEST 0x4E 0xEA 0xF7 0xB4 MUL PUSH32 0x96BD6A05104201952E64736F6C634300081A0033000000000000000000000000 "
				},
				"gasEstimates": {
					"creation": {
						"codeDepositCost": "203600",
						"executionCost": "243",
						"totalCost": "203843"
					},
					"external": {
						"calcGrade(int256)": "infinite"
					}
				},
				"methodIdentifiers": {
					"calcGrade(int256)": "df988d62"
				}
			},
			"storageLayout": {
				"storage": [],
				"types": null
			},
			"userdoc": {
				"kind": "user",
				"methods": {},
				"version": 1
			}
		}
	}
}