{
	"Day03/d3p3.sol": {
		"Triangle": {
			"abi": [
				{
					"inputs": [
						{
							"internalType": "uint256",
							"name": "n1",
							"type": "uint256"
						},
						{
							"internalType": "uint256",
							"name": "n2",
							"type": "uint256"
						},
						{
							"internalType": "uint256",
							"name": "n3",
							"type": "uint256"
						}
					],
					"name": "isTriangle",
					"outputs": [
						{
							"internalType": "string",
							"name": "",
							"type": "string"
						}
					],
					"stateMutability": "pure",
					"type": "function"
				}
			],
			"devdoc": {
				"kind": "dev",
				"methods": {},
				"version": 1
			},
			"evm": {
				"assembly": "    /* \"Day03/d3p3.sol\":68:1049  contract Triangle{... */\n  mstore(0x40, 0x80)\n  callvalue\n  dup1\n  iszero\n  tag_1\n  jumpi\n  0x00\n  dup1\n  revert\ntag_1:\n  pop\n  dataSize(sub_0)\n  dup1\n  dataOffset(sub_0)\n  0x00\n  codecopy\n  0x00\n  return\nstop\n\nsub_0: assembly {\n        /* \"Day03/d3p3.sol\":68:1049  contract Triangle{... */\n      mstore(0x40, 0x80)\n      callvalue\n      dup1\n      iszero\n      tag_1\n      jumpi\n      0x00\n      dup1\n      revert\n    tag_1:\n      pop\n      jumpi(tag_2, lt(calldatasize, 0x04))\n      shr(0xe0, calldataload(0x00))\n      dup1\n      0x957548e7\n      eq\n      tag_3\n      jumpi\n    tag_2:\n      0x00\n      dup1\n      revert\n        /* \"Day03/d3p3.sol\":94:1046  function isTriangle(uint256 n1, uint256 n2, uint256 n3) public pure returns (string memory){... */\n    tag_3:\n      tag_4\n      0x04\n      dup1\n      calldatasize\n      sub\n      dup2\n      add\n      swap1\n      tag_5\n      swap2\n      swap1\n      tag_6\n      jump\t// in\n    tag_5:\n      tag_7\n      jump\t// in\n    tag_4:\n      mload(0x40)\n      tag_8\n      swap2\n      swap1\n      tag_9\n      jump\t// in\n    tag_8:\n      mload(0x40)\n      dup1\n      swap2\n      sub\n      swap1\n      return\n    tag_7:\n        /* \"Day03/d3p3.sol\":171:184  string memory */\n      0x60\n        /* \"Day03/d3p3.sol\":196:208  bool isValid */\n      0x00\n        /* \"Day03/d3p3.sol\":227:240  uint256 scale */\n      dup1\n        /* \"Day03/d3p3.sol\":243:249  10**18 */\n      0x0de0b6b3a7640000\n        /* \"Day03/d3p3.sol\":227:249  uint256 scale = 10**18 */\n      swap1\n      pop\n        /* \"Day03/d3p3.sol\":260:272  uint256 area */\n      0x00\n        /* \"Day03/d3p3.sol\":297:299  n3 */\n      dup5\n        /* \"Day03/d3p3.sol\":294:296  n2 */\n      dup7\n        /* \"Day03/d3p3.sol\":294:299  n2+n3 */\n      tag_11\n      swap2\n      swap1\n      tag_12\n      jump\t// in\n    tag_11:\n        /* \"Day03/d3p3.sol\":288:290  n1 */\n      dup8\n        /* \"Day03/d3p3.sol\":288:299  n1 >= n2+n3 */\n      lt\n      iszero\n        /* \"Day03/d3p3.sol\":288:314  n1 >= n2+n3 || n2 >= n1+n3 */\n      dup1\n      tag_13\n      jumpi\n      pop\n        /* \"Day03/d3p3.sol\":312:314  n3 */\n      dup5\n        /* \"Day03/d3p3.sol\":309:311  n1 */\n      dup8\n        /* \"Day03/d3p3.sol\":309:314  n1+n3 */\n      tag_14\n      swap2\n      swap1\n      tag_12\n      jump\t// in\n    tag_14:\n        /* \"Day03/d3p3.sol\":303:305  n2 */\n      dup7\n        /* \"Day03/d3p3.sol\":303:314  n2 >= n1+n3 */\n      lt\n      iszero\n        /* \"Day03/d3p3.sol\":288:314  n1 >= n2+n3 || n2 >= n1+n3 */\n    tag_13:\n        /* \"Day03/d3p3.sol\":288:329  n1 >= n2+n3 || n2 >= n1+n3 || n3 >= n1+n2 */\n      dup1\n      tag_15\n      jumpi\n      pop\n        /* \"Day03/d3p3.sol\":327:329  n2 */\n      dup6\n        /* \"Day03/d3p3.sol\":324:326  n1 */\n      dup8\n        /* \"Day03/d3p3.sol\":324:329  n1+n2 */\n      tag_16\n      swap2\n      swap1\n      tag_12\n      jump\t// in\n    tag_16:\n        /* \"Day03/d3p3.sol\":318:320  n3 */\n      dup6\n        /* \"Day03/d3p3.sol\":318:329  n3 >= n1+n2 */\n      lt\n      iszero\n        /* \"Day03/d3p3.sol\":288:329  n1 >= n2+n3 || n2 >= n1+n3 || n3 >= n1+n2 */\n    tag_15:\n        /* \"Day03/d3p3.sol\":285:470  if(n1 >= n2+n3 || n2 >= n1+n3 || n3 >= n1+n2){... */\n      iszero\n      tag_17\n      jumpi\n        /* \"Day03/d3p3.sol\":355:360  false */\n      0x00\n        /* \"Day03/d3p3.sol\":345:360  isValid = false */\n      swap3\n      pop\n        /* \"Day03/d3p3.sol\":375:401  return \"Is not a triangle\" */\n      mload(0x40)\n      dup1\n      0x40\n      add\n      0x40\n      mstore\n      dup1\n      0x11\n      dup2\n      mstore\n      0x20\n      add\n      0x4973206e6f74206120747269616e676c65000000000000000000000000000000\n      dup2\n      mstore\n      pop\n      swap4\n      pop\n      pop\n      pop\n      pop\n      jump(tag_10)\n        /* \"Day03/d3p3.sol\":285:470  if(n1 >= n2+n3 || n2 >= n1+n3 || n3 >= n1+n2){... */\n    tag_17:\n        /* \"Day03/d3p3.sol\":452:456  true */\n      0x01\n        /* \"Day03/d3p3.sol\":442:456  isValid = true */\n      swap3\n      pop\n        /* \"Day03/d3p3.sol\":496:500  true */\n      0x01\n        /* \"Day03/d3p3.sol\":485:500  isValid == true */\n      iszero\n      iszero\n        /* \"Day03/d3p3.sol\":485:492  isValid */\n      dup4\n        /* \"Day03/d3p3.sol\":485:500  isValid == true */\n      iszero\n      iszero\n      sub\n        /* \"Day03/d3p3.sol\":482:1039  if(isValid == true){... */\n      tag_19\n      jumpi\n        /* \"Day03/d3p3.sol\":523:525  n2 */\n      dup6\n        /* \"Day03/d3p3.sol\":519:521  n1 */\n      dup8\n        /* \"Day03/d3p3.sol\":519:525  n1==n2 */\n      eq\n        /* \"Day03/d3p3.sol\":519:535  n1==n2 && n2==n3 */\n      dup1\n      iszero\n      tag_20\n      jumpi\n      pop\n        /* \"Day03/d3p3.sol\":533:535  n3 */\n      dup5\n        /* \"Day03/d3p3.sol\":529:531  n2 */\n      dup7\n        /* \"Day03/d3p3.sol\":529:535  n2==n3 */\n      eq\n        /* \"Day03/d3p3.sol\":519:535  n1==n2 && n2==n3 */\n    tag_20:\n        /* \"Day03/d3p3.sol\":516:1028  if(n1==n2 && n2==n3){... */\n      iszero\n      tag_21\n      jumpi\n        /* \"Day03/d3p3.sol\":597:599  n1 */\n      dup7\n        /* \"Day03/d3p3.sol\":592:594  n1 */\n      dup8\n        /* \"Day03/d3p3.sol\":577:587  5*(10**17) */\n      0x06f05b59d3b20000\n        /* \"Day03/d3p3.sol\":572:573  4 */\n      0x04\n        /* \"Day03/d3p3.sol\":566:571  scale */\n      dup6\n        /* \"Day03/d3p3.sol\":564:565  3 */\n      0x03\n        /* \"Day03/d3p3.sol\":564:571  3*scale */\n      tag_22\n      swap2\n      swap1\n      tag_23\n      jump\t// in\n    tag_22:\n        /* \"Day03/d3p3.sol\":564:573  3*scale/4 */\n      tag_24\n      swap2\n      swap1\n      tag_25\n      jump\t// in\n    tag_24:\n        /* \"Day03/d3p3.sol\":563:588  (3*scale/4)**(5*(10**17)) */\n      tag_26\n      swap2\n      swap1\n      tag_27\n      jump\t// in\n    tag_26:\n        /* \"Day03/d3p3.sol\":562:594  ((3*scale/4)**(5*(10**17))) * n1 */\n      tag_28\n      swap2\n      swap1\n      tag_23\n      jump\t// in\n    tag_28:\n        /* \"Day03/d3p3.sol\":562:599  ((3*scale/4)**(5*(10**17))) * n1 * n1 */\n      tag_29\n      swap2\n      swap1\n      tag_23\n      jump\t// in\n    tag_29:\n        /* \"Day03/d3p3.sol\":555:599  area = ((3*scale/4)**(5*(10**17))) * n1 * n1 */\n      swap1\n      pop\n        /* \"Day03/d3p3.sol\":618:653  return \"Is an equilateral triangle\" */\n      mload(0x40)\n      dup1\n      0x40\n      add\n      0x40\n      mstore\n      dup1\n      0x1a\n      dup2\n      mstore\n      0x20\n      add\n      0x497320616e20657175696c61746572616c20747269616e676c65000000000000\n      dup2\n      mstore\n      pop\n      swap4\n      pop\n      pop\n      pop\n      pop\n      jump(tag_10)\n        /* \"Day03/d3p3.sol\":516:1028  if(n1==n2 && n2==n3){... */\n    tag_21:\n        /* \"Day03/d3p3.sol\":697:699  n2 */\n      dup6\n        /* \"Day03/d3p3.sol\":693:695  n1 */\n      dup8\n        /* \"Day03/d3p3.sol\":693:699  n1==n2 */\n      eq\n        /* \"Day03/d3p3.sol\":693:709  n1==n2 || n2==n3 */\n      dup1\n      tag_31\n      jumpi\n      pop\n        /* \"Day03/d3p3.sol\":707:709  n3 */\n      dup5\n        /* \"Day03/d3p3.sol\":703:705  n2 */\n      dup7\n        /* \"Day03/d3p3.sol\":703:709  n2==n3 */\n      eq\n        /* \"Day03/d3p3.sol\":693:709  n1==n2 || n2==n3 */\n    tag_31:\n        /* \"Day03/d3p3.sol\":693:719  n1==n2 || n2==n3 || n1==n3 */\n      dup1\n      tag_32\n      jumpi\n      pop\n        /* \"Day03/d3p3.sol\":717:719  n3 */\n      dup5\n        /* \"Day03/d3p3.sol\":713:715  n1 */\n      dup8\n        /* \"Day03/d3p3.sol\":713:719  n1==n3 */\n      eq\n        /* \"Day03/d3p3.sol\":693:719  n1==n2 || n2==n3 || n1==n3 */\n    tag_32:\n        /* \"Day03/d3p3.sol\":690:1028  if(n1==n2 || n2==n3 || n1==n3){... */\n      iszero\n      tag_33\n      jumpi\n        /* \"Day03/d3p3.sol\":739:772  return \"Is an isosceles triangle\" */\n      mload(0x40)\n      dup1\n      0x40\n      add\n      0x40\n      mstore\n      dup1\n      0x18\n      dup2\n      mstore\n      0x20\n      add\n      0x497320616e2069736f7363656c657320747269616e676c650000000000000000\n      dup2\n      mstore\n      pop\n      swap4\n      pop\n      pop\n      pop\n      pop\n      jump(tag_10)\n        /* \"Day03/d3p3.sol\":690:1028  if(n1==n2 || n2==n3 || n1==n3){... */\n    tag_33:\n        /* \"Day03/d3p3.sol\":828:830  n3 */\n      dup5\n        /* \"Day03/d3p3.sol\":825:827  n3 */\n      dup6\n        /* \"Day03/d3p3.sol\":825:830  n3*n3 */\n      tag_35\n      swap2\n      swap1\n      tag_23\n      jump\t// in\n    tag_35:\n        /* \"Day03/d3p3.sol\":821:823  n2 */\n      dup7\n        /* \"Day03/d3p3.sol\":818:820  n2 */\n      dup8\n        /* \"Day03/d3p3.sol\":818:823  n2*n2 */\n      tag_36\n      swap2\n      swap1\n      tag_23\n      jump\t// in\n    tag_36:\n        /* \"Day03/d3p3.sol\":815:817  n1 */\n      dup9\n        /* \"Day03/d3p3.sol\":812:814  n1 */\n      dup10\n        /* \"Day03/d3p3.sol\":812:817  n1*n1 */\n      tag_37\n      swap2\n      swap1\n      tag_23\n      jump\t// in\n    tag_37:\n        /* \"Day03/d3p3.sol\":812:823  n1*n1+n2*n2 */\n      tag_38\n      swap2\n      swap1\n      tag_12\n      jump\t// in\n    tag_38:\n        /* \"Day03/d3p3.sol\":812:830  n1*n1+n2*n2==n3*n3 */\n      eq\n        /* \"Day03/d3p3.sol\":812:852  n1*n1+n2*n2==n3*n3 || n2*n2+n3*n3==n1*n1 */\n      dup1\n      tag_39\n      jumpi\n      pop\n        /* \"Day03/d3p3.sol\":850:852  n1 */\n      dup7\n        /* \"Day03/d3p3.sol\":847:849  n1 */\n      dup8\n        /* \"Day03/d3p3.sol\":847:852  n1*n1 */\n      tag_40\n      swap2\n      swap1\n      tag_23\n      jump\t// in\n    tag_40:\n        /* \"Day03/d3p3.sol\":843:845  n3 */\n      dup6\n        /* \"Day03/d3p3.sol\":840:842  n3 */\n      dup7\n        /* \"Day03/d3p3.sol\":840:845  n3*n3 */\n      tag_41\n      swap2\n      swap1\n      tag_23\n      jump\t// in\n    tag_41:\n        /* \"Day03/d3p3.sol\":837:839  n2 */\n      dup8\n        /* \"Day03/d3p3.sol\":834:836  n2 */\n      dup9\n        /* \"Day03/d3p3.sol\":834:839  n2*n2 */\n      tag_42\n      swap2\n      swap1\n      tag_23\n      jump\t// in\n    tag_42:\n        /* \"Day03/d3p3.sol\":834:845  n2*n2+n3*n3 */\n      tag_43\n      swap2\n      swap1\n      tag_12\n      jump\t// in\n    tag_43:\n        /* \"Day03/d3p3.sol\":834:852  n2*n2+n3*n3==n1*n1 */\n      eq\n        /* \"Day03/d3p3.sol\":812:852  n1*n1+n2*n2==n3*n3 || n2*n2+n3*n3==n1*n1 */\n    tag_39:\n        /* \"Day03/d3p3.sol\":812:874  n1*n1+n2*n2==n3*n3 || n2*n2+n3*n3==n1*n1 || n1*n1+n3*n3==n2*n2 */\n      dup1\n      tag_44\n      jumpi\n      pop\n        /* \"Day03/d3p3.sol\":872:874  n2 */\n      dup6\n        /* \"Day03/d3p3.sol\":869:871  n2 */\n      dup7\n        /* \"Day03/d3p3.sol\":869:874  n2*n2 */\n      tag_45\n      swap2\n      swap1\n      tag_23\n      jump\t// in\n    tag_45:\n        /* \"Day03/d3p3.sol\":865:867  n3 */\n      dup6\n        /* \"Day03/d3p3.sol\":862:864  n3 */\n      dup7\n        /* \"Day03/d3p3.sol\":862:867  n3*n3 */\n      tag_46\n      swap2\n      swap1\n      tag_23\n      jump\t// in\n    tag_46:\n        /* \"Day03/d3p3.sol\":859:861  n1 */\n      dup9\n        /* \"Day03/d3p3.sol\":856:858  n1 */\n      dup10\n        /* \"Day03/d3p3.sol\":856:861  n1*n1 */\n      tag_47\n      swap2\n      swap1\n      tag_23\n      jump\t// in\n    tag_47:\n        /* \"Day03/d3p3.sol\":856:867  n1*n1+n3*n3 */\n      tag_48\n      swap2\n      swap1\n      tag_12\n      jump\t// in\n    tag_48:\n        /* \"Day03/d3p3.sol\":856:874  n1*n1+n3*n3==n2*n2 */\n      eq\n        /* \"Day03/d3p3.sol\":812:874  n1*n1+n2*n2==n3*n3 || n2*n2+n3*n3==n1*n1 || n1*n1+n3*n3==n2*n2 */\n    tag_44:\n        /* \"Day03/d3p3.sol\":809:1028  if(n1*n1+n2*n2==n3*n3 || n2*n2+n3*n3==n1*n1 || n1*n1+n3*n3==n2*n2){... */\n      iszero\n      tag_49\n      jumpi\n        /* \"Day03/d3p3.sol\":894:929  return \"Is a right-angled triangle\" */\n      mload(0x40)\n      dup1\n      0x40\n      add\n      0x40\n      mstore\n      dup1\n      0x1a\n      dup2\n      mstore\n      0x20\n      add\n      0x497320612072696768742d616e676c656420747269616e676c65000000000000\n      dup2\n      mstore\n      pop\n      swap4\n      pop\n      pop\n      pop\n      pop\n      jump(tag_10)\n        /* \"Day03/d3p3.sol\":809:1028  if(n1*n1+n2*n2==n3*n3 || n2*n2+n3*n3==n1*n1 || n1*n1+n3*n3==n2*n2){... */\n    tag_49:\n        /* \"Day03/d3p3.sol\":982:1012  return \"Is a scalene triangle\" */\n      mload(0x40)\n      dup1\n      0x40\n      add\n      0x40\n      mstore\n      dup1\n      0x15\n      dup2\n      mstore\n      0x20\n      add\n      0x49732061207363616c656e6520747269616e676c650000000000000000000000\n      dup2\n      mstore\n      pop\n      swap4\n      pop\n      pop\n      pop\n      pop\n      jump(tag_10)\n        /* \"Day03/d3p3.sol\":482:1039  if(isValid == true){... */\n    tag_19:\n        /* \"Day03/d3p3.sol\":185:1046  {... */\n      pop\n      pop\n      pop\n        /* \"Day03/d3p3.sol\":94:1046  function isTriangle(uint256 n1, uint256 n2, uint256 n3) public pure returns (string memory){... */\n    tag_10:\n      swap4\n      swap3\n      pop\n      pop\n      pop\n      jump\t// out\n        /* \"#utility.yul\":88:205   */\n    tag_52:\n        /* \"#utility.yul\":197:198   */\n      0x00\n        /* \"#utility.yul\":194:195   */\n      dup1\n        /* \"#utility.yul\":187:199   */\n      revert\n        /* \"#utility.yul\":334:411   */\n    tag_54:\n        /* \"#utility.yul\":371:378   */\n      0x00\n        /* \"#utility.yul\":400:405   */\n      dup2\n        /* \"#utility.yul\":389:405   */\n      swap1\n      pop\n        /* \"#utility.yul\":334:411   */\n      swap2\n      swap1\n      pop\n      jump\t// out\n        /* \"#utility.yul\":417:539   */\n    tag_55:\n        /* \"#utility.yul\":490:514   */\n      tag_74\n        /* \"#utility.yul\":508:513   */\n      dup2\n        /* \"#utility.yul\":490:514   */\n      tag_54\n      jump\t// in\n    tag_74:\n        /* \"#utility.yul\":483:488   */\n      dup2\n        /* \"#utility.yul\":480:515   */\n      eq\n        /* \"#utility.yul\":470:533   */\n      tag_75\n      jumpi\n        /* \"#utility.yul\":529:530   */\n      0x00\n        /* \"#utility.yul\":526:527   */\n      dup1\n        /* \"#utility.yul\":519:531   */\n      revert\n        /* \"#utility.yul\":470:533   */\n    tag_75:\n        /* \"#utility.yul\":417:539   */\n      pop\n      jump\t// out\n        /* \"#utility.yul\":545:684   */\n    tag_56:\n        /* \"#utility.yul\":591:596   */\n      0x00\n        /* \"#utility.yul\":629:635   */\n      dup2\n        /* \"#utility.yul\":616:636   */\n      calldataload\n        /* \"#utility.yul\":607:636   */\n      swap1\n      pop\n        /* \"#utility.yul\":645:678   */\n      tag_77\n        /* \"#utility.yul\":672:677   */\n      dup2\n        /* \"#utility.yul\":645:678   */\n      tag_55\n      jump\t// in\n    tag_77:\n        /* \"#utility.yul\":545:684   */\n      swap3\n      swap2\n      pop\n      pop\n      jump\t// out\n        /* \"#utility.yul\":690:1309   */\n    tag_6:\n        /* \"#utility.yul\":767:773   */\n      0x00\n        /* \"#utility.yul\":775:781   */\n      dup1\n        /* \"#utility.yul\":783:789   */\n      0x00\n        /* \"#utility.yul\":832:834   */\n      0x60\n        /* \"#utility.yul\":820:829   */\n      dup5\n        /* \"#utility.yul\":811:818   */\n      dup7\n        /* \"#utility.yul\":807:830   */\n      sub\n        /* \"#utility.yul\":803:835   */\n      slt\n        /* \"#utility.yul\":800:919   */\n      iszero\n      tag_79\n      jumpi\n        /* \"#utility.yul\":838:917   */\n      tag_80\n      tag_52\n      jump\t// in\n    tag_80:\n        /* \"#utility.yul\":800:919   */\n    tag_79:\n        /* \"#utility.yul\":958:959   */\n      0x00\n        /* \"#utility.yul\":983:1036   */\n      tag_81\n        /* \"#utility.yul\":1028:1035   */\n      dup7\n        /* \"#utility.yul\":1019:1025   */\n      dup3\n        /* \"#utility.yul\":1008:1017   */\n      dup8\n        /* \"#utility.yul\":1004:1026   */\n      add\n        /* \"#utility.yul\":983:1036   */\n      tag_56\n      jump\t// in\n    tag_81:\n        /* \"#utility.yul\":973:1036   */\n      swap4\n      pop\n        /* \"#utility.yul\":929:1046   */\n      pop\n        /* \"#utility.yul\":1085:1087   */\n      0x20\n        /* \"#utility.yul\":1111:1164   */\n      tag_82\n        /* \"#utility.yul\":1156:1163   */\n      dup7\n        /* \"#utility.yul\":1147:1153   */\n      dup3\n        /* \"#utility.yul\":1136:1145   */\n      dup8\n        /* \"#utility.yul\":1132:1154   */\n      add\n        /* \"#utility.yul\":1111:1164   */\n      tag_56\n      jump\t// in\n    tag_82:\n        /* \"#utility.yul\":1101:1164   */\n      swap3\n      pop\n        /* \"#utility.yul\":1056:1174   */\n      pop\n        /* \"#utility.yul\":1213:1215   */\n      0x40\n        /* \"#utility.yul\":1239:1292   */\n      tag_83\n        /* \"#utility.yul\":1284:1291   */\n      dup7\n        /* \"#utility.yul\":1275:1281   */\n      dup3\n        /* \"#utility.yul\":1264:1273   */\n      dup8\n        /* \"#utility.yul\":1260:1282   */\n      add\n        /* \"#utility.yul\":1239:1292   */\n      tag_56\n      jump\t// in\n    tag_83:\n        /* \"#utility.yul\":1229:1292   */\n      swap2\n      pop\n        /* \"#utility.yul\":1184:1302   */\n      pop\n        /* \"#utility.yul\":690:1309   */\n      swap3\n      pop\n      swap3\n      pop\n      swap3\n      jump\t// out\n        /* \"#utility.yul\":1315:1414   */\n    tag_57:\n        /* \"#utility.yul\":1367:1373   */\n      0x00\n        /* \"#utility.yul\":1401:1406   */\n      dup2\n        /* \"#utility.yul\":1395:1407   */\n      mload\n        /* \"#utility.yul\":1385:1407   */\n      swap1\n      pop\n        /* \"#utility.yul\":1315:1414   */\n      swap2\n      swap1\n      pop\n      jump\t// out\n        /* \"#utility.yul\":1420:1589   */\n    tag_58:\n        /* \"#utility.yul\":1504:1515   */\n      0x00\n        /* \"#utility.yul\":1538:1544   */\n      dup3\n        /* \"#utility.yul\":1533:1536   */\n      dup3\n        /* \"#utility.yul\":1526:1545   */\n      mstore\n        /* \"#utility.yul\":1578:1582   */\n      0x20\n        /* \"#utility.yul\":1573:1576   */\n      dup3\n        /* \"#utility.yul\":1569:1583   */\n      add\n        /* \"#utility.yul\":1554:1583   */\n      swap1\n      pop\n        /* \"#utility.yul\":1420:1589   */\n      swap3\n      swap2\n      pop\n      pop\n      jump\t// out\n        /* \"#utility.yul\":1595:1734   */\n    tag_59:\n        /* \"#utility.yul\":1684:1690   */\n      dup3\n        /* \"#utility.yul\":1679:1682   */\n      dup2\n        /* \"#utility.yul\":1674:1677   */\n      dup4\n        /* \"#utility.yul\":1668:1691   */\n      mcopy\n        /* \"#utility.yul\":1725:1726   */\n      0x00\n        /* \"#utility.yul\":1716:1722   */\n      dup4\n        /* \"#utility.yul\":1711:1714   */\n      dup4\n        /* \"#utility.yul\":1707:1723   */\n      add\n        /* \"#utility.yul\":1700:1727   */\n      mstore\n        /* \"#utility.yul\":1595:1734   */\n      pop\n      pop\n      pop\n      jump\t// out\n        /* \"#utility.yul\":1740:1842   */\n    tag_60:\n        /* \"#utility.yul\":1781:1787   */\n      0x00\n        /* \"#utility.yul\":1832:1834   */\n      0x1f\n        /* \"#utility.yul\":1828:1835   */\n      not\n        /* \"#utility.yul\":1823:1825   */\n      0x1f\n        /* \"#utility.yul\":1816:1821   */\n      dup4\n        /* \"#utility.yul\":1812:1826   */\n      add\n        /* \"#utility.yul\":1808:1836   */\n      and\n        /* \"#utility.yul\":1798:1836   */\n      swap1\n      pop\n        /* \"#utility.yul\":1740:1842   */\n      swap2\n      swap1\n      pop\n      jump\t// out\n        /* \"#utility.yul\":1848:2225   */\n    tag_61:\n        /* \"#utility.yul\":1936:1939   */\n      0x00\n        /* \"#utility.yul\":1964:2003   */\n      tag_89\n        /* \"#utility.yul\":1997:2002   */\n      dup3\n        /* \"#utility.yul\":1964:2003   */\n      tag_57\n      jump\t// in\n    tag_89:\n        /* \"#utility.yul\":2019:2090   */\n      tag_90\n        /* \"#utility.yul\":2083:2089   */\n      dup2\n        /* \"#utility.yul\":2078:2081   */\n      dup6\n        /* \"#utility.yul\":2019:2090   */\n      tag_58\n      jump\t// in\n    tag_90:\n        /* \"#utility.yul\":2012:2090   */\n      swap4\n      pop\n        /* \"#utility.yul\":2099:2164   */\n      tag_91\n        /* \"#utility.yul\":2157:2163   */\n      dup2\n        /* \"#utility.yul\":2152:2155   */\n      dup6\n        /* \"#utility.yul\":2145:2149   */\n      0x20\n        /* \"#utility.yul\":2138:2143   */\n      dup7\n        /* \"#utility.yul\":2134:2150   */\n      add\n        /* \"#utility.yul\":2099:2164   */\n      tag_59\n      jump\t// in\n    tag_91:\n        /* \"#utility.yul\":2189:2218   */\n      tag_92\n        /* \"#utility.yul\":2211:2217   */\n      dup2\n        /* \"#utility.yul\":2189:2218   */\n      tag_60\n      jump\t// in\n    tag_92:\n        /* \"#utility.yul\":2184:2187   */\n      dup5\n        /* \"#utility.yul\":2180:2219   */\n      add\n        /* \"#utility.yul\":2173:2219   */\n      swap2\n      pop\n        /* \"#utility.yul\":1940:2225   */\n      pop\n        /* \"#utility.yul\":1848:2225   */\n      swap3\n      swap2\n      pop\n      pop\n      jump\t// out\n        /* \"#utility.yul\":2231:2544   */\n    tag_9:\n        /* \"#utility.yul\":2344:2348   */\n      0x00\n        /* \"#utility.yul\":2382:2384   */\n      0x20\n        /* \"#utility.yul\":2371:2380   */\n      dup3\n        /* \"#utility.yul\":2367:2385   */\n      add\n        /* \"#utility.yul\":2359:2385   */\n      swap1\n      pop\n        /* \"#utility.yul\":2431:2440   */\n      dup2\n        /* \"#utility.yul\":2425:2429   */\n      dup2\n        /* \"#utility.yul\":2421:2441   */\n      sub\n        /* \"#utility.yul\":2417:2418   */\n      0x00\n        /* \"#utility.yul\":2406:2415   */\n      dup4\n        /* \"#utility.yul\":2402:2419   */\n      add\n        /* \"#utility.yul\":2395:2442   */\n      mstore\n        /* \"#utility.yul\":2459:2537   */\n      tag_94\n        /* \"#utility.yul\":2532:2536   */\n      dup2\n        /* \"#utility.yul\":2523:2529   */\n      dup5\n        /* \"#utility.yul\":2459:2537   */\n      tag_61\n      jump\t// in\n    tag_94:\n        /* \"#utility.yul\":2451:2537   */\n      swap1\n      pop\n        /* \"#utility.yul\":2231:2544   */\n      swap3\n      swap2\n      pop\n      pop\n      jump\t// out\n        /* \"#utility.yul\":2550:2730   */\n    tag_62:\n        /* \"#utility.yul\":2598:2675   */\n      0x4e487b7100000000000000000000000000000000000000000000000000000000\n        /* \"#utility.yul\":2595:2596   */\n      0x00\n        /* \"#utility.yul\":2588:2676   */\n      mstore\n        /* \"#utility.yul\":2695:2699   */\n      0x11\n        /* \"#utility.yul\":2692:2693   */\n      0x04\n        /* \"#utility.yul\":2685:2700   */\n      mstore\n        /* \"#utility.yul\":2719:2723   */\n      0x24\n        /* \"#utility.yul\":2716:2717   */\n      0x00\n        /* \"#utility.yul\":2709:2724   */\n      revert\n        /* \"#utility.yul\":2736:2927   */\n    tag_12:\n        /* \"#utility.yul\":2776:2779   */\n      0x00\n        /* \"#utility.yul\":2795:2815   */\n      tag_97\n        /* \"#utility.yul\":2813:2814   */\n      dup3\n        /* \"#utility.yul\":2795:2815   */\n      tag_54\n      jump\t// in\n    tag_97:\n        /* \"#utility.yul\":2790:2815   */\n      swap2\n      pop\n        /* \"#utility.yul\":2829:2849   */\n      tag_98\n        /* \"#utility.yul\":2847:2848   */\n      dup4\n        /* \"#utility.yul\":2829:2849   */\n      tag_54\n      jump\t// in\n    tag_98:\n        /* \"#utility.yul\":2824:2849   */\n      swap3\n      pop\n        /* \"#utility.yul\":2872:2873   */\n      dup3\n        /* \"#utility.yul\":2869:2870   */\n      dup3\n        /* \"#utility.yul\":2865:2874   */\n      add\n        /* \"#utility.yul\":2858:2874   */\n      swap1\n      pop\n        /* \"#utility.yul\":2893:2896   */\n      dup1\n        /* \"#utility.yul\":2890:2891   */\n      dup3\n        /* \"#utility.yul\":2887:2897   */\n      gt\n        /* \"#utility.yul\":2884:2920   */\n      iszero\n      tag_99\n      jumpi\n        /* \"#utility.yul\":2900:2918   */\n      tag_100\n      tag_62\n      jump\t// in\n    tag_100:\n        /* \"#utility.yul\":2884:2920   */\n    tag_99:\n        /* \"#utility.yul\":2736:2927   */\n      swap3\n      swap2\n      pop\n      pop\n      jump\t// out\n        /* \"#utility.yul\":2933:3343   */\n    tag_23:\n        /* \"#utility.yul\":2973:2980   */\n      0x00\n        /* \"#utility.yul\":2996:3016   */\n      tag_102\n        /* \"#utility.yul\":3014:3015   */\n      dup3\n        /* \"#utility.yul\":2996:3016   */\n      tag_54\n      jump\t// in\n    tag_102:\n        /* \"#utility.yul\":2991:3016   */\n      swap2\n      pop\n        /* \"#utility.yul\":3030:3050   */\n      tag_103\n        /* \"#utility.yul\":3048:3049   */\n      dup4\n        /* \"#utility.yul\":3030:3050   */\n      tag_54\n      jump\t// in\n    tag_103:\n        /* \"#utility.yul\":3025:3050   */\n      swap3\n      pop\n        /* \"#utility.yul\":3085:3086   */\n      dup3\n        /* \"#utility.yul\":3082:3083   */\n      dup3\n        /* \"#utility.yul\":3078:3087   */\n      mul\n        /* \"#utility.yul\":3107:3137   */\n      tag_104\n        /* \"#utility.yul\":3125:3136   */\n      dup2\n        /* \"#utility.yul\":3107:3137   */\n      tag_54\n      jump\t// in\n    tag_104:\n        /* \"#utility.yul\":3096:3137   */\n      swap2\n      pop\n        /* \"#utility.yul\":3286:3287   */\n      dup3\n        /* \"#utility.yul\":3277:3284   */\n      dup3\n        /* \"#utility.yul\":3273:3288   */\n      div\n        /* \"#utility.yul\":3270:3271   */\n      dup5\n        /* \"#utility.yul\":3267:3289   */\n      eq\n        /* \"#utility.yul\":3247:3248   */\n      dup4\n        /* \"#utility.yul\":3240:3249   */\n      iszero\n        /* \"#utility.yul\":3220:3303   */\n      or\n        /* \"#utility.yul\":3197:3336   */\n      tag_105\n      jumpi\n        /* \"#utility.yul\":3316:3334   */\n      tag_106\n      tag_62\n      jump\t// in\n    tag_106:\n        /* \"#utility.yul\":3197:3336   */\n    tag_105:\n        /* \"#utility.yul\":2981:3343   */\n      pop\n        /* \"#utility.yul\":2933:3343   */\n      swap3\n      swap2\n      pop\n      pop\n      jump\t// out\n        /* \"#utility.yul\":3349:3529   */\n    tag_63:\n        /* \"#utility.yul\":3397:3474   */\n      0x4e487b7100000000000000000000000000000000000000000000000000000000\n        /* \"#utility.yul\":3394:3395   */\n      0x00\n        /* \"#utility.yul\":3387:3475   */\n      mstore\n        /* \"#utility.yul\":3494:3498   */\n      0x12\n        /* \"#utility.yul\":3491:3492   */\n      0x04\n        /* \"#utility.yul\":3484:3499   */\n      mstore\n        /* \"#utility.yul\":3518:3522   */\n      0x24\n        /* \"#utility.yul\":3515:3516   */\n      0x00\n        /* \"#utility.yul\":3508:3523   */\n      revert\n        /* \"#utility.yul\":3535:3720   */\n    tag_25:\n        /* \"#utility.yul\":3575:3576   */\n      0x00\n        /* \"#utility.yul\":3592:3612   */\n      tag_109\n        /* \"#utility.yul\":3610:3611   */\n      dup3\n        /* \"#utility.yul\":3592:3612   */\n      tag_54\n      jump\t// in\n    tag_109:\n        /* \"#utility.yul\":3587:3612   */\n      swap2\n      pop\n        /* \"#utility.yul\":3626:3646   */\n      tag_110\n        /* \"#utility.yul\":3644:3645   */\n      dup4\n        /* \"#utility.yul\":3626:3646   */\n      tag_54\n      jump\t// in\n    tag_110:\n        /* \"#utility.yul\":3621:3646   */\n      swap3\n      pop\n        /* \"#utility.yul\":3665:3666   */\n      dup3\n        /* \"#utility.yul\":3655:3690   */\n      tag_111\n      jumpi\n        /* \"#utility.yul\":3670:3688   */\n      tag_112\n      tag_63\n      jump\t// in\n    tag_112:\n        /* \"#utility.yul\":3655:3690   */\n    tag_111:\n        /* \"#utility.yul\":3712:3713   */\n      dup3\n        /* \"#utility.yul\":3709:3710   */\n      dup3\n        /* \"#utility.yul\":3705:3714   */\n      div\n        /* \"#utility.yul\":3700:3714   */\n      swap1\n      pop\n        /* \"#utility.yul\":3535:3720   */\n      swap3\n      swap2\n      pop\n      pop\n      jump\t// out\n        /* \"#utility.yul\":3726:3828   */\n    tag_64:\n        /* \"#utility.yul\":3768:3776   */\n      0x00\n        /* \"#utility.yul\":3815:3820   */\n      dup2\n        /* \"#utility.yul\":3812:3813   */\n      0x01\n        /* \"#utility.yul\":3808:3821   */\n      shr\n        /* \"#utility.yul\":3787:3821   */\n      swap1\n      pop\n        /* \"#utility.yul\":3726:3828   */\n      swap2\n      swap1\n      pop\n      jump\t// out\n        /* \"#utility.yul\":3834:4682   */\n    tag_65:\n        /* \"#utility.yul\":3895:3900   */\n      0x00\n        /* \"#utility.yul\":3902:3906   */\n      dup1\n        /* \"#utility.yul\":3926:3932   */\n      dup3\n        /* \"#utility.yul\":3917:3932   */\n      swap2\n      pop\n        /* \"#utility.yul\":3950:3955   */\n      dup4\n        /* \"#utility.yul\":3941:3955   */\n      swap1\n      pop\n        /* \"#utility.yul\":3964:4676   */\n    tag_115:\n        /* \"#utility.yul\":3985:3986   */\n      0x01\n        /* \"#utility.yul\":3975:3983   */\n      dup6\n        /* \"#utility.yul\":3972:3987   */\n      gt\n        /* \"#utility.yul\":3964:4676   */\n      iszero\n      tag_117\n      jumpi\n        /* \"#utility.yul\":4080:4084   */\n      dup1\n        /* \"#utility.yul\":4075:4078   */\n      dup7\n        /* \"#utility.yul\":4071:4085   */\n      div\n        /* \"#utility.yul\":4065:4069   */\n      dup2\n        /* \"#utility.yul\":4062:4086   */\n      gt\n        /* \"#utility.yul\":4059:4109   */\n      iszero\n      tag_118\n      jumpi\n        /* \"#utility.yul\":4089:4107   */\n      tag_119\n      tag_62\n      jump\t// in\n    tag_119:\n        /* \"#utility.yul\":4059:4109   */\n    tag_118:\n        /* \"#utility.yul\":4139:4140   */\n      0x01\n        /* \"#utility.yul\":4129:4137   */\n      dup6\n        /* \"#utility.yul\":4125:4141   */\n      and\n        /* \"#utility.yul\":4122:4573   */\n      iszero\n      tag_120\n      jumpi\n        /* \"#utility.yul\":4554:4558   */\n      dup1\n        /* \"#utility.yul\":4547:4552   */\n      dup3\n        /* \"#utility.yul\":4543:4559   */\n      mul\n        /* \"#utility.yul\":4534:4559   */\n      swap2\n      pop\n        /* \"#utility.yul\":4122:4573   */\n    tag_120:\n        /* \"#utility.yul\":4604:4608   */\n      dup1\n        /* \"#utility.yul\":4598:4602   */\n      dup2\n        /* \"#utility.yul\":4594:4609   */\n      mul\n        /* \"#utility.yul\":4586:4609   */\n      swap1\n      pop\n        /* \"#utility.yul\":4634:4666   */\n      tag_121\n        /* \"#utility.yul\":4657:4665   */\n      dup6\n        /* \"#utility.yul\":4634:4666   */\n      tag_64\n      jump\t// in\n    tag_121:\n        /* \"#utility.yul\":4622:4666   */\n      swap5\n      pop\n        /* \"#utility.yul\":3964:4676   */\n      jump(tag_115)\n    tag_117:\n        /* \"#utility.yul\":3834:4682   */\n      swap5\n      pop\n      swap5\n      swap3\n      pop\n      pop\n      pop\n      jump\t// out\n        /* \"#utility.yul\":4688:5761   */\n    tag_66:\n        /* \"#utility.yul\":4742:4747   */\n      0x00\n        /* \"#utility.yul\":4933:4941   */\n      dup3\n        /* \"#utility.yul\":4923:4963   */\n      tag_123\n      jumpi\n        /* \"#utility.yul\":4954:4955   */\n      0x01\n        /* \"#utility.yul\":4945:4955   */\n      swap1\n      pop\n        /* \"#utility.yul\":4956:4961   */\n      jump(tag_122)\n        /* \"#utility.yul\":4923:4963   */\n    tag_123:\n        /* \"#utility.yul\":4982:4986   */\n      dup2\n        /* \"#utility.yul\":4972:5008   */\n      tag_124\n      jumpi\n        /* \"#utility.yul\":4999:5000   */\n      0x00\n        /* \"#utility.yul\":4990:5000   */\n      swap1\n      pop\n        /* \"#utility.yul\":5001:5006   */\n      jump(tag_122)\n        /* \"#utility.yul\":4972:5008   */\n    tag_124:\n        /* \"#utility.yul\":5068:5072   */\n      dup2\n        /* \"#utility.yul\":5116:5117   */\n      0x01\n        /* \"#utility.yul\":5111:5138   */\n      dup2\n      eq\n      tag_126\n      jumpi\n        /* \"#utility.yul\":5152:5153   */\n      0x02\n        /* \"#utility.yul\":5147:5338   */\n      dup2\n      eq\n      tag_127\n      jumpi\n        /* \"#utility.yul\":5061:5338   */\n      jump(tag_125)\n        /* \"#utility.yul\":5111:5138   */\n    tag_126:\n        /* \"#utility.yul\":5129:5130   */\n      0x01\n        /* \"#utility.yul\":5120:5130   */\n      swap2\n      pop\n        /* \"#utility.yul\":5131:5136   */\n      pop\n      jump(tag_122)\n        /* \"#utility.yul\":5147:5338   */\n    tag_127:\n        /* \"#utility.yul\":5192:5195   */\n      0xff\n        /* \"#utility.yul\":5182:5190   */\n      dup5\n        /* \"#utility.yul\":5179:5196   */\n      gt\n        /* \"#utility.yul\":5176:5219   */\n      iszero\n      tag_128\n      jumpi\n        /* \"#utility.yul\":5199:5217   */\n      tag_129\n      tag_62\n      jump\t// in\n    tag_129:\n        /* \"#utility.yul\":5176:5219   */\n    tag_128:\n        /* \"#utility.yul\":5248:5256   */\n      dup4\n        /* \"#utility.yul\":5245:5246   */\n      0x02\n        /* \"#utility.yul\":5241:5257   */\n      exp\n        /* \"#utility.yul\":5232:5257   */\n      swap2\n      pop\n        /* \"#utility.yul\":5283:5286   */\n      dup5\n        /* \"#utility.yul\":5276:5281   */\n      dup3\n        /* \"#utility.yul\":5273:5287   */\n      gt\n        /* \"#utility.yul\":5270:5310   */\n      iszero\n      tag_130\n      jumpi\n        /* \"#utility.yul\":5290:5308   */\n      tag_131\n      tag_62\n      jump\t// in\n    tag_131:\n        /* \"#utility.yul\":5270:5310   */\n    tag_130:\n        /* \"#utility.yul\":5323:5328   */\n      pop\n      jump(tag_122)\n        /* \"#utility.yul\":5061:5338   */\n    tag_125:\n      pop\n        /* \"#utility.yul\":5447:5449   */\n      0x20\n        /* \"#utility.yul\":5437:5445   */\n      dup4\n        /* \"#utility.yul\":5434:5450   */\n      lt\n        /* \"#utility.yul\":5428:5431   */\n      0x0133\n        /* \"#utility.yul\":5422:5426   */\n      dup4\n        /* \"#utility.yul\":5419:5432   */\n      lt\n        /* \"#utility.yul\":5415:5451   */\n      and\n        /* \"#utility.yul\":5397:5399   */\n      0x4e\n        /* \"#utility.yul\":5387:5395   */\n      dup5\n        /* \"#utility.yul\":5384:5400   */\n      lt\n        /* \"#utility.yul\":5379:5381   */\n      0x0b\n        /* \"#utility.yul\":5373:5377   */\n      dup5\n        /* \"#utility.yul\":5370:5382   */\n      lt\n        /* \"#utility.yul\":5366:5401   */\n      and\n        /* \"#utility.yul\":5350:5461   */\n      or\n        /* \"#utility.yul\":5347:5593   */\n      iszero\n      tag_132\n      jumpi\n        /* \"#utility.yul\":5503:5511   */\n      dup3\n        /* \"#utility.yul\":5497:5501   */\n      dup3\n        /* \"#utility.yul\":5493:5512   */\n      exp\n        /* \"#utility.yul\":5484:5512   */\n      swap1\n      pop\n        /* \"#utility.yul\":5538:5541   */\n      dup4\n        /* \"#utility.yul\":5531:5536   */\n      dup2\n        /* \"#utility.yul\":5528:5542   */\n      gt\n        /* \"#utility.yul\":5525:5565   */\n      iszero\n      tag_133\n      jumpi\n        /* \"#utility.yul\":5545:5563   */\n      tag_134\n      tag_62\n      jump\t// in\n    tag_134:\n        /* \"#utility.yul\":5525:5565   */\n    tag_133:\n        /* \"#utility.yul\":5578:5583   */\n      jump(tag_122)\n        /* \"#utility.yul\":5347:5593   */\n    tag_132:\n        /* \"#utility.yul\":5618:5660   */\n      tag_135\n        /* \"#utility.yul\":5656:5659   */\n      dup5\n        /* \"#utility.yul\":5646:5654   */\n      dup5\n        /* \"#utility.yul\":5640:5644   */\n      dup5\n        /* \"#utility.yul\":5637:5638   */\n      0x01\n        /* \"#utility.yul\":5618:5660   */\n      tag_65\n      jump\t// in\n    tag_135:\n        /* \"#utility.yul\":5603:5660   */\n      swap3\n      pop\n      swap1\n      pop\n        /* \"#utility.yul\":5692:5696   */\n      dup2\n        /* \"#utility.yul\":5687:5690   */\n      dup5\n        /* \"#utility.yul\":5683:5697   */\n      div\n        /* \"#utility.yul\":5676:5681   */\n      dup2\n        /* \"#utility.yul\":5673:5698   */\n      gt\n        /* \"#utility.yul\":5670:5721   */\n      iszero\n      tag_136\n      jumpi\n        /* \"#utility.yul\":5701:5719   */\n      tag_137\n      tag_62\n      jump\t// in\n    tag_137:\n        /* \"#utility.yul\":5670:5721   */\n    tag_136:\n        /* \"#utility.yul\":5750:5754   */\n      dup2\n        /* \"#utility.yul\":5743:5748   */\n      dup2\n        /* \"#utility.yul\":5739:5755   */\n      mul\n        /* \"#utility.yul\":5730:5755   */\n      swap1\n      pop\n        /* \"#utility.yul\":4688:5761   */\n    tag_122:\n      swap4\n      swap3\n      pop\n      pop\n      pop\n      jump\t// out\n        /* \"#utility.yul\":5767:5868   */\n    tag_67:\n        /* \"#utility.yul\":5803:5810   */\n      0x00\n        /* \"#utility.yul\":5843:5861   */\n      0xffffffffffffffff\n        /* \"#utility.yul\":5836:5841   */\n      dup3\n        /* \"#utility.yul\":5832:5862   */\n      and\n        /* \"#utility.yul\":5821:5862   */\n      swap1\n      pop\n        /* \"#utility.yul\":5767:5868   */\n      swap2\n      swap1\n      pop\n      jump\t// out\n        /* \"#utility.yul\":5874:6157   */\n    tag_27:\n        /* \"#utility.yul\":5933:5938   */\n      0x00\n        /* \"#utility.yul\":5957:5980   */\n      tag_140\n        /* \"#utility.yul\":5975:5979   */\n      dup3\n        /* \"#utility.yul\":5957:5980   */\n      tag_54\n      jump\t// in\n    tag_140:\n        /* \"#utility.yul\":5949:5980   */\n      swap2\n      pop\n        /* \"#utility.yul\":6001:6027   */\n      tag_141\n        /* \"#utility.yul\":6018:6026   */\n      dup4\n        /* \"#utility.yul\":6001:6027   */\n      tag_67\n      jump\t// in\n    tag_141:\n        /* \"#utility.yul\":5989:6027   */\n      swap3\n      pop\n        /* \"#utility.yul\":6046:6150   */\n      tag_142\n        /* \"#utility.yul\":6083:6149   */\n      0xffffffffffffffffffffffffffffffffffffffffffffffffffffffffffffffff\n        /* \"#utility.yul\":6073:6081   */\n      dup5\n        /* \"#utility.yul\":6067:6071   */\n      dup5\n        /* \"#utility.yul\":6046:6150   */\n      tag_66\n      jump\t// in\n    tag_142:\n        /* \"#utility.yul\":6037:6150   */\n      swap1\n      pop\n        /* \"#utility.yul\":5874:6157   */\n      swap3\n      swap2\n      pop\n      pop\n      jump\t// out\n\n    auxdata: 0xa264697066735822122060e46a77e9a454bf649166941d9a227fc6c9724076c073ec5ef738e2bffe1a3964736f6c634300081a0033\n}\n",
				"bytecode": {
					"linkReferences": {},
					"object": "6080604052348015600e575f80fd5b506106f58061001c5f395ff3fe608060405234801561000f575f80fd5b5060043610610029575f3560e01c8063957548e71461002d575b5f80fd5b61004760048036038101906100429190610355565b61005d565b6040516100549190610415565b60405180910390f35b60605f80670de0b6b3a764000090505f84866100799190610462565b871015806100925750848761008e9190610462565b8610155b806100a8575085876100a49190610462565b8510155b156100f0575f92506040518060400160405280601181526020017f4973206e6f74206120747269616e676c650000000000000000000000000000008152509350505050610317565b60019250600115158315150361031357858714801561010e57508486145b156101975786876706f05b59d3b20000600485600361012d9190610495565b6101379190610503565b6101419190610675565b61014b9190610495565b6101559190610495565b90506040518060400160405280601a81526020017f497320616e20657175696c61746572616c20747269616e676c650000000000008152509350505050610317565b858714806101a457508486145b806101ae57508487145b156101f3576040518060400160405280601881526020017f497320616e2069736f7363656c657320747269616e676c6500000000000000008152509350505050610317565b84856101ff9190610495565b868761020b9190610495565b88896102179190610495565b6102219190610462565b1480610258575086876102349190610495565b85866102409190610495565b878861024c9190610495565b6102569190610462565b145b8061028e5750858661026a9190610495565b85866102769190610495565b88896102829190610495565b61028c9190610462565b145b156102d3576040518060400160405280601a81526020017f497320612072696768742d616e676c656420747269616e676c650000000000008152509350505050610317565b6040518060400160405280601581526020017f49732061207363616c656e6520747269616e676c6500000000000000000000008152509350505050610317565b5050505b9392505050565b5f80fd5b5f819050919050565b61033481610322565b811461033e575f80fd5b50565b5f8135905061034f8161032b565b92915050565b5f805f6060848603121561036c5761036b61031e565b5b5f61037986828701610341565b935050602061038a86828701610341565b925050604061039b86828701610341565b9150509250925092565b5f81519050919050565b5f82825260208201905092915050565b8281835e5f83830152505050565b5f601f19601f8301169050919050565b5f6103e7826103a5565b6103f181856103af565b93506104018185602086016103bf565b61040a816103cd565b840191505092915050565b5f6020820190508181035f83015261042d81846103dd565b905092915050565b7f4e487b71000000000000000000000000000000000000000000000000000000005f52601160045260245ffd5b5f61046c82610322565b915061047783610322565b925082820190508082111561048f5761048e610435565b5b92915050565b5f61049f82610322565b91506104aa83610322565b92508282026104b881610322565b915082820484148315176104cf576104ce610435565b5b5092915050565b7f4e487b71000000000000000000000000000000000000000000000000000000005f52601260045260245ffd5b5f61050d82610322565b915061051883610322565b925082610528576105276104d6565b5b828204905092915050565b5f8160011c9050919050565b5f808291508390505b60018511156105885780860481111561056457610563610435565b5b60018516156105735780820291505b808102905061058185610533565b9450610548565b94509492505050565b5f826105a0576001905061065b565b816105ad575f905061065b565b81600181146105c357600281146105cd576105fc565b600191505061065b565b60ff8411156105df576105de610435565b5b8360020a9150848211156105f6576105f5610435565b5b5061065b565b5060208310610133831016604e8410600b84101617156106315782820a90508381111561062c5761062b610435565b5b61065b565b61063e848484600161053f565b9250905081840481111561065557610654610435565b5b81810290505b9392505050565b5f67ffffffffffffffff82169050919050565b5f61067f82610322565b915061068a83610662565b92506106b77fffffffffffffffffffffffffffffffffffffffffffffffffffffffffffffffff8484610591565b90509291505056fea264697066735822122060e46a77e9a454bf649166941d9a227fc6c9724076c073ec5ef738e2bffe1a3964736f6c634300081a0033",
					"opcodes": "PUSH1 0x80 PUSH1 0x40 MSTORE CALLVALUE DUP1 ISZERO PUSH1 0xE JUMPI PUSH0 DUP1 REVERT JUMPDEST POP PUSH2 0x6F5 DUP1 PUSH2 0x1C PUSH0 CODECOPY PUSH0 RETURN INVALID PUSH1 0x80 PUSH1 0x40 MSTORE CALLVALUE DUP1 ISZERO PUSH2 0xF JUMPI PUSH0 DUP1 REVERT JUMPDEST POP PUSH1 0x4 CALLDATASIZE LT PUSH2 0x29 JUMPI PUSH0 CALLDATALOAD PUSH1 0xE0 SHR DUP1 PUSH4 0x957548E7 EQ PUSH2 0x2D JUMPI JUMPDEST PUSH0 DUP1 REVERT JUMPDEST PUSH2 0x47 PUSH1 0x4 DUP1 CALLDATASIZE SUB DUP2 ADD SWAP1 PUSH2 0x42 SWAP2 SWAP1 PUSH2 0x355 JUMP JUMPDEST PUSH2 0x5D JUMP JUMPDEST PUSH1 0x40 MLOAD PUSH2 0x54 SWAP2 SWAP1 PUSH2 0x415 JUMP JUMPDEST PUSH1 0x40 MLOAD DUP1 SWAP2 SUB SWAP1 RETURN JUMPDEST PUSH1 0x60 PUSH0 DUP1 PUSH8 0xDE0B6B3A7640000 SWAP1 POP PUSH0 DUP5 DUP7 PUSH2 0x79 SWAP2 SWAP1 PUSH2 0x462 JUMP JUMPDEST DUP8 LT ISZERO DUP1 PUSH2 0x92 JUMPI POP DUP5 DUP8 PUSH2 0x8E SWAP2 SWAP1 PUSH2 0x462 JUMP JUMPDEST DUP7 LT ISZERO JUMPDEST DUP1 PUSH2 0xA8 JUMPI POP DUP6 DUP8 PUSH2 0xA4 SWAP2 SWAP1 PUSH2 0x462 JUMP JUMPDEST DUP6 LT ISZERO JUMPDEST ISZERO PUSH2 0xF0 JUMPI PUSH0 SWAP3 POP PUSH1 0x40 MLOAD DUP1 PUSH1 0x40 ADD PUSH1 0x40 MSTORE DUP1 PUSH1 0x11 DUP2 MSTORE PUSH1 0x20 ADD PUSH32 0x4973206E6F74206120747269616E676C65000000000000000000000000000000 DUP2 MSTORE POP SWAP4 POP POP POP POP PUSH2 0x317 JUMP JUMPDEST PUSH1 0x1 SWAP3 POP PUSH1 0x1 ISZERO ISZERO DUP4 ISZERO ISZERO SUB PUSH2 0x313 JUMPI DUP6 DUP8 EQ DUP1 ISZERO PUSH2 0x10E JUMPI POP DUP5 DUP7 EQ JUMPDEST ISZERO PUSH2 0x197 JUMPI DUP7 DUP8 PUSH8 0x6F05B59D3B20000 PUSH1 0x4 DUP6 PUSH1 0x3 PUSH2 0x12D SWAP2 SWAP1 PUSH2 0x495 JUMP JUMPDEST PUSH2 0x137 SWAP2 SWAP1 PUSH2 0x503 JUMP JUMPDEST PUSH2 0x141 SWAP2 SWAP1 PUSH2 0x675 JUMP JUMPDEST PUSH2 0x14B SWAP2 SWAP1 PUSH2 0x495 JUMP JUMPDEST PUSH2 0x155 SWAP2 SWAP1 PUSH2 0x495 JUMP JUMPDEST SWAP1 POP PUSH1 0x40 MLOAD DUP1 PUSH1 0x40 ADD PUSH1 0x40 MSTORE DUP1 PUSH1 0x1A DUP2 MSTORE PUSH1 0x20 ADD PUSH32 0x497320616E20657175696C61746572616C20747269616E676C65000000000000 DUP2 MSTORE POP SWAP4 POP POP POP POP PUSH2 0x317 JUMP JUMPDEST DUP6 DUP8 EQ DUP1 PUSH2 0x1A4 JUMPI POP DUP5 DUP7 EQ JUMPDEST DUP1 PUSH2 0x1AE JUMPI POP DUP5 DUP8 EQ JUMPDEST ISZERO PUSH2 0x1F3 JUMPI PUSH1 0x40 MLOAD DUP1 PUSH1 0x40 ADD PUSH1 0x40 MSTORE DUP1 PUSH1 0x18 DUP2 MSTORE PUSH1 0x20 ADD PUSH32 0x497320616E2069736F7363656C657320747269616E676C650000000000000000 DUP2 MSTORE POP SWAP4 POP POP POP POP PUSH2 0x317 JUMP JUMPDEST DUP5 DUP6 PUSH2 0x1FF SWAP2 SWAP1 PUSH2 0x495 JUMP JUMPDEST DUP7 DUP8 PUSH2 0x20B SWAP2 SWAP1 PUSH2 0x495 JUMP JUMPDEST DUP9 DUP10 PUSH2 0x217 SWAP2 SWAP1 PUSH2 0x495 JUMP JUMPDEST PUSH2 0x221 SWAP2 SWAP1 PUSH2 0x462 JUMP JUMPDEST EQ DUP1 PUSH2 0x258 JUMPI POP DUP7 DUP8 PUSH2 0x234 SWAP2 SWAP1 PUSH2 0x495 JUMP JUMPDEST DUP6 DUP7 PUSH2 0x240 SWAP2 SWAP1 PUSH2 0x495 JUMP JUMPDEST DUP8 DUP9 PUSH2 0x24C SWAP2 SWAP1 PUSH2 0x495 JUMP JUMPDEST PUSH2 0x256 SWAP2 SWAP1 PUSH2 0x462 JUMP JUMPDEST EQ JUMPDEST DUP1 PUSH2 0x28E JUMPI POP DUP6 DUP7 PUSH2 0x26A SWAP2 SWAP1 PUSH2 0x495 JUMP JUMPDEST DUP6 DUP7 PUSH2 0x276 SWAP2 SWAP1 PUSH2 0x495 JUMP JUMPDEST DUP9 DUP10 PUSH2 0x282 SWAP2 SWAP1 PUSH2 0x495 JUMP JUMPDEST PUSH2 0x28C SWAP2 SWAP1 PUSH2 0x462 JUMP JUMPDEST EQ JUMPDEST ISZERO PUSH2 0x2D3 JUMPI PUSH1 0x40 MLOAD DUP1 PUSH1 0x40 ADD PUSH1 0x40 MSTORE DUP1 PUSH1 0x1A DUP2 MSTORE PUSH1 0x20 ADD PUSH32 0x497320612072696768742D616E676C656420747269616E676C65000000000000 DUP2 MSTORE POP SWAP4 POP POP POP POP PUSH2 0x317 JUMP JUMPDEST PUSH1 0x40 MLOAD DUP1 PUSH1 0x40 ADD PUSH1 0x40 MSTORE DUP1 PUSH1 0x15 DUP2 MSTORE PUSH1 0x20 ADD PUSH32 0x49732061207363616C656E6520747269616E676C650000000000000000000000 DUP2 MSTORE POP SWAP4 POP POP POP POP PUSH2 0x317 JUMP JUMPDEST POP POP POP JUMPDEST SWAP4 SWAP3 POP POP POP JUMP JUMPDEST PUSH0 DUP1 REVERT JUMPDEST PUSH0 DUP2 SWAP1 POP SWAP2 SWAP1 POP JUMP JUMPDEST PUSH2 0x334 DUP2 PUSH2 0x322 JUMP JUMPDEST DUP2 EQ PUSH2 0x33E JUMPI PUSH0 DUP1 REVERT JUMPDEST POP JUMP JUMPDEST PUSH0 DUP2 CALLDATALOAD SWAP1 POP PUSH2 0x34F DUP2 PUSH2 0x32B JUMP JUMPDEST SWAP3 SWAP2 POP POP JUMP JUMPDEST PUSH0 DUP1 PUSH0 PUSH1 0x60 DUP5 DUP7 SUB SLT ISZERO PUSH2 0x36C JUMPI PUSH2 0x36B PUSH2 0x31E JUMP JUMPDEST JUMPDEST PUSH0 PUSH2 0x379 DUP7 DUP3 DUP8 ADD PUSH2 0x341 JUMP JUMPDEST SWAP4 POP POP PUSH1 0x20 PUSH2 0x38A DUP7 DUP3 DUP8 ADD PUSH2 0x341 JUMP JUMPDEST SWAP3 POP POP PUSH1 0x40 PUSH2 0x39B DUP7 DUP3 DUP8 ADD PUSH2 0x341 JUMP JUMPDEST SWAP2 POP POP SWAP3 POP SWAP3 POP SWAP3 JUMP JUMPDEST PUSH0 DUP2 MLOAD SWAP1 POP SWAP2 SWAP1 POP JUMP JUMPDEST PUSH0 DUP3 DUP3 MSTORE PUSH1 0x20 DUP3 ADD SWAP1 POP SWAP3 SWAP2 POP POP JUMP JUMPDEST DUP3 DUP2 DUP4 MCOPY PUSH0 DUP4 DUP4 ADD MSTORE POP POP POP JUMP JUMPDEST PUSH0 PUSH1 0x1F NOT PUSH1 0x1F DUP4 ADD AND SWAP1 POP SWAP2 SWAP1 POP JUMP JUMPDEST PUSH0 PUSH2 0x3E7 DUP3 PUSH2 0x3A5 JUMP JUMPDEST PUSH2 0x3F1 DUP2 DUP6 PUSH2 0x3AF JUMP JUMPDEST SWAP4 POP PUSH2 0x401 DUP2 DUP6 PUSH1 0x20 DUP7 ADD PUSH2 0x3BF JUMP JUMPDEST PUSH2 0x40A DUP2 PUSH2 0x3CD JUMP JUMPDEST DUP5 ADD SWAP2 POP POP SWAP3 SWAP2 POP POP JUMP JUMPDEST PUSH0 PUSH1 0x20 DUP3 ADD SWAP1 POP DUP2 DUP2 SUB PUSH0 DUP4 ADD MSTORE PUSH2 0x42D DUP2 DUP5 PUSH2 0x3DD JUMP JUMPDEST SWAP1 POP SWAP3 SWAP2 POP POP JUMP JUMPDEST PUSH32 0x4E487B7100000000000000000000000000000000000000000000000000000000 PUSH0 MSTORE PUSH1 0x11 PUSH1 0x4 MSTORE PUSH1 0x24 PUSH0 REVERT JUMPDEST PUSH0 PUSH2 0x46C DUP3 PUSH2 0x322 JUMP JUMPDEST SWAP2 POP PUSH2 0x477 DUP4 PUSH2 0x322 JUMP JUMPDEST SWAP3 POP DUP3 DUP3 ADD SWAP1 POP DUP1 DUP3 GT ISZERO PUSH2 0x48F JUMPI PUSH2 0x48E PUSH2 0x435 JUMP JUMPDEST JUMPDEST SWAP3 SWAP2 POP POP JUMP JUMPDEST PUSH0 PUSH2 0x49F DUP3 PUSH2 0x322 JUMP JUMPDEST SWAP2 POP PUSH2 0x4AA DUP4 PUSH2 0x322 JUMP JUMPDEST SWAP3 POP DUP3 DUP3 MUL PUSH2 0x4B8 DUP2 PUSH2 0x322 JUMP JUMPDEST SWAP2 POP DUP3 DUP3 DIV DUP5 EQ DUP4 ISZERO OR PUSH2 0x4CF JUMPI PUSH2 0x4CE PUSH2 0x435 JUMP JUMPDEST JUMPDEST POP SWAP3 SWAP2 POP POP JUMP JUMPDEST PUSH32 0x4E487B7100000000000000000000000000000000000000000000000000000000 PUSH0 MSTORE PUSH1 0x12 PUSH1 0x4 MSTORE PUSH1 0x24 PUSH0 REVERT JUMPDEST PUSH0 PUSH2 0x50D DUP3 PUSH2 0x322 JUMP JUMPDEST SWAP2 POP PUSH2 0x518 DUP4 PUSH2 0x322 JUMP JUMPDEST SWAP3 POP DUP3 PUSH2 0x528 JUMPI PUSH2 0x527 PUSH2 0x4D6 JUMP JUMPDEST JUMPDEST DUP3 DUP3 DIV SWAP1 POP SWAP3 SWAP2 POP POP JUMP JUMPDEST PUSH0 DUP2 PUSH1 0x1 SHR SWAP1 POP SWAP2 SWAP1 POP JUMP JUMPDEST PUSH0 DUP1 DUP3 SWAP2 POP DUP4 SWAP1 POP JUMPDEST PUSH1 0x1 DUP6 GT ISZERO PUSH2 0x588 JUMPI DUP1 DUP7 DIV DUP2 GT ISZERO PUSH2 0x564 JUMPI PUSH2 0x563 PUSH2 0x435 JUMP JUMPDEST JUMPDEST PUSH1 0x1 DUP6 AND ISZERO PUSH2 0x573 JUMPI DUP1 DUP3 MUL SWAP2 POP JUMPDEST DUP1 DUP2 MUL SWAP1 POP PUSH2 0x581 DUP6 PUSH2 0x533 JUMP JUMPDEST SWAP5 POP PUSH2 0x548 JUMP JUMPDEST SWAP5 POP SWAP5 SWAP3 POP POP POP JUMP JUMPDEST PUSH0 DUP3 PUSH2 0x5A0 JUMPI PUSH1 0x1 SWAP1 POP PUSH2 0x65B JUMP JUMPDEST DUP2 PUSH2 0x5AD JUMPI PUSH0 SWAP1 POP PUSH2 0x65B JUMP JUMPDEST DUP2 PUSH1 0x1 DUP2 EQ PUSH2 0x5C3 JUMPI PUSH1 0x2 DUP2 EQ PUSH2 0x5CD JUMPI PUSH2 0x5FC JUMP JUMPDEST PUSH1 0x1 SWAP2 POP POP PUSH2 0x65B JUMP JUMPDEST PUSH1 0xFF DUP5 GT ISZERO PUSH2 0x5DF JUMPI PUSH2 0x5DE PUSH2 0x435 JUMP JUMPDEST JUMPDEST DUP4 PUSH1 0x2 EXP SWAP2 POP DUP5 DUP3 GT ISZERO PUSH2 0x5F6 JUMPI PUSH2 0x5F5 PUSH2 0x435 JUMP JUMPDEST JUMPDEST POP PUSH2 0x65B JUMP JUMPDEST POP PUSH1 0x20 DUP4 LT PUSH2 0x133 DUP4 LT AND PUSH1 0x4E DUP5 LT PUSH1 0xB DUP5 LT AND OR ISZERO PUSH2 0x631 JUMPI DUP3 DUP3 EXP SWAP1 POP DUP4 DUP2 GT ISZERO PUSH2 0x62C JUMPI PUSH2 0x62B PUSH2 0x435 JUMP JUMPDEST JUMPDEST PUSH2 0x65B JUMP JUMPDEST PUSH2 0x63E DUP5 DUP5 DUP5 PUSH1 0x1 PUSH2 0x53F JUMP JUMPDEST SWAP3 POP SWAP1 POP DUP2 DUP5 DIV DUP2 GT ISZERO PUSH2 0x655 JUMPI PUSH2 0x654 PUSH2 0x435 JUMP JUMPDEST JUMPDEST DUP2 DUP2 MUL SWAP1 POP JUMPDEST SWAP4 SWAP3 POP POP POP JUMP JUMPDEST PUSH0 PUSH8 0xFFFFFFFFFFFFFFFF DUP3 AND SWAP1 POP SWAP2 SWAP1 POP JUMP JUMPDEST PUSH0 PUSH2 0x67F DUP3 PUSH2 0x322 JUMP JUMPDEST SWAP2 POP PUSH2 0x68A DUP4 PUSH2 0x662 JUMP JUMPDEST SWAP3 POP PUSH2 0x6B7 PUSH32 0xFFFFFFFFFFFFFFFFFFFFFFFFFFFFFFFFFFFFFFFFFFFFFFFFFFFFFFFFFFFFFFFF DUP5 DUP5 PUSH2 0x591 JUMP JUMPDEST SWAP1 POP SWAP3 SWAP2 POP POP JUMP INVALID LOG2 PUSH5 0x6970667358 0x22 SLT KECCAK256 PUSH1 0xE4 PUSH11 0x77E9A454BF649166941D9A 0x22 PUSH32 0xC6C9724076C073EC5EF738E2BFFE1A3964736F6C634300081A00330000000000 "
				},
				"gasEstimates": {
					"creation": {
						"codeDepositCost": "356200",
						"executionCost": "391",
						"totalCost": "356591"
					},
					"external": {
						"isTriangle(uint256,uint256,uint256)": "infinite"
					}
				},
				"methodIdentifiers": {
					"isTriangle(uint256,uint256,uint256)": "957548e7"
				}
			},
			"storageLayout": {
				"storage": [],
				"types": null
			},
			"userdoc": {
				"kind": "user",
				"methods": {},
				"version": 1
			}
		}
	}
}