{
	"data": {
		"bytecode": {
			"linkReferences": {},
			"object": "6080604052348015600e575f80fd5b506107c58061001c5f395ff3fe608060405234801561000f575f80fd5b5060043610610055575f3560e01c806329aa9cbe1461005957806381fe57861461008957806383714834146100b9578063c6c2ea17146100e9578063fe459d2014610119575b5f80fd5b610073600480360381019061006e9190610316565b610149565b6040516100809190610363565b60405180910390f35b6100a3600480360381019061009e9190610316565b610164565b6040516100b09190610363565b60405180910390f35b6100d360048036038101906100ce91906103af565b610177565b6040516100e091906103e9565b60405180910390f35b61010360048036038101906100fe91906103af565b6101c6565b60405161011091906103e9565b60405180910390f35b610133600480360381019061012e91906103af565b61021e565b6040516101409190610472565b60405180910390f35b5f8183121561015a5782905061015e565b8190505b92915050565b5f61016f8383610164565b905092915050565b5f805f90505f830361018d5760019150506101c1565b5f600190505b8381116101bb5780826101a691906104bf565b915080806101b390610500565b915050610193565b50809150505b919050565b5f60018214806101d557505f82145b156101e257819050610219565b6101f76002836101f29190610547565b6101c6565b61020c6001846102079190610547565b6101c6565b610216919061057a565b90505b919050565b60605f805b5f84111561025957600a8461023891906105da565b90506003816102479190610745565b82610252919061057a565b9150610223565b83820361029f576040518060400160405280601881526020017f4974277320616e2061726d7374726f6e67206e756d6265720000000000000000815250925050506102da565b6040518060400160405280601481526020017f4e6f742041726d7374726f6e67204e756d626572000000000000000000000000815250925050505b919050565b5f80fd5b5f819050919050565b6102f5816102e3565b81146102ff575f80fd5b50565b5f81359050610310816102ec565b92915050565b5f806040838503121561032c5761032b6102df565b5b5f61033985828601610302565b925050602061034a85828601610302565b9150509250929050565b61035d816102e3565b82525050565b5f6020820190506103765f830184610354565b92915050565b5f819050919050565b61038e8161037c565b8114610398575f80fd5b50565b5f813590506103a981610385565b92915050565b5f602082840312156103c4576103c36102df565b5b5f6103d18482850161039b565b91505092915050565b6103e38161037c565b82525050565b5f6020820190506103fc5f8301846103da565b92915050565b5f81519050919050565b5f82825260208201905092915050565b8281835e5f83830152505050565b5f601f19601f8301169050919050565b5f61044482610402565b61044e818561040c565b935061045e81856020860161041c565b6104678161042a565b840191505092915050565b5f6020820190508181035f83015261048a818461043a565b905092915050565b7f4e487b71000000000000000000000000000000000000000000000000000000005f52601160045260245ffd5b5f6104c98261037c565b91506104d48361037c565b92508282026104e28161037c565b915082820484148315176104f9576104f8610492565b5b5092915050565b5f61050a8261037c565b91507fffffffffffffffffffffffffffffffffffffffffffffffffffffffffffffffff820361053c5761053b610492565b5b600182019050919050565b5f6105518261037c565b915061055c8361037c565b925082820390508181111561057457610573610492565b5b92915050565b5f6105848261037c565b915061058f8361037c565b92508282019050808211156105a7576105a6610492565b5b92915050565b7f4e487b71000000000000000000000000000000000000000000000000000000005f52601260045260245ffd5b5f6105e48261037c565b91506105ef8361037c565b9250826105ff576105fe6105ad565b5b828206905092915050565b5f8160011c9050919050565b5f808291508390505b600185111561065f5780860481111561063b5761063a610492565b5b600185161561064a5780820291505b80810290506106588561060a565b945061061f565b94509492505050565b5f826106775760019050610732565b81610684575f9050610732565b816001811461069a57600281146106a4576106d3565b6001915050610732565b60ff8411156106b6576106b5610492565b5b8360020a9150848211156106cd576106cc610492565b5b50610732565b5060208310610133831016604e8410600b84101617156107085782820a90508381111561070357610702610492565b5b610732565b6107158484846001610616565b9250905081840481111561072c5761072b610492565b5b81810290505b9392505050565b5f60ff82169050919050565b5f61074f8261037c565b915061075a83610739565b92506107877fffffffffffffffffffffffffffffffffffffffffffffffffffffffffffffffff8484610668565b90509291505056fea264697066735822122076b6375da7537ac1c38771feb2361b5f6092e46f6a53a2bedeb17bc66f3f646464736f6c634300081a0033",
			"opcodes": "PUSH1 0x80 PUSH1 0x40 MSTORE CALLVALUE DUP1 ISZERO PUSH1 0xE JUMPI PUSH0 DUP1 REVERT JUMPDEST POP PUSH2 0x7C5 DUP1 PUSH2 0x1C PUSH0 CODECOPY PUSH0 RETURN INVALID PUSH1 0x80 PUSH1 0x40 MSTORE CALLVALUE DUP1 ISZERO PUSH2 0xF JUMPI PUSH0 DUP1 REVERT JUMPDEST POP PUSH1 0x4 CALLDATASIZE LT PUSH2 0x55 JUMPI PUSH0 CALLDATALOAD PUSH1 0xE0 SHR DUP1 PUSH4 0x29AA9CBE EQ PUSH2 0x59 JUMPI DUP1 PUSH4 0x81FE5786 EQ PUSH2 0x89 JUMPI DUP1 PUSH4 0x83714834 EQ PUSH2 0xB9 JUMPI DUP1 PUSH4 0xC6C2EA17 EQ PUSH2 0xE9 JUMPI DUP1 PUSH4 0xFE459D20 EQ PUSH2 0x119 JUMPI JUMPDEST PUSH0 DUP1 REVERT JUMPDEST PUSH2 0x73 PUSH1 0x4 DUP1 CALLDATASIZE SUB DUP2 ADD SWAP1 PUSH2 0x6E SWAP2 SWAP1 PUSH2 0x316 JUMP JUMPDEST PUSH2 0x149 JUMP JUMPDEST PUSH1 0x40 MLOAD PUSH2 0x80 SWAP2 SWAP1 PUSH2 0x363 JUMP JUMPDEST PUSH1 0x40 MLOAD DUP1 SWAP2 SUB SWAP1 RETURN JUMPDEST PUSH2 0xA3 PUSH1 0x4 DUP1 CALLDATASIZE SUB DUP2 ADD SWAP1 PUSH2 0x9E SWAP2 SWAP1 PUSH2 0x316 JUMP JUMPDEST PUSH2 0x164 JUMP JUMPDEST PUSH1 0x40 MLOAD PUSH2 0xB0 SWAP2 SWAP1 PUSH2 0x363 JUMP JUMPDEST PUSH1 0x40 MLOAD DUP1 SWAP2 SUB SWAP1 RETURN JUMPDEST PUSH2 0xD3 PUSH1 0x4 DUP1 CALLDATASIZE SUB DUP2 ADD SWAP1 PUSH2 0xCE SWAP2 SWAP1 PUSH2 0x3AF JUMP JUMPDEST PUSH2 0x177 JUMP JUMPDEST PUSH1 0x40 MLOAD PUSH2 0xE0 SWAP2 SWAP1 PUSH2 0x3E9 JUMP JUMPDEST PUSH1 0x40 MLOAD DUP1 SWAP2 SUB SWAP1 RETURN JUMPDEST PUSH2 0x103 PUSH1 0x4 DUP1 CALLDATASIZE SUB DUP2 ADD SWAP1 PUSH2 0xFE SWAP2 SWAP1 PUSH2 0x3AF JUMP JUMPDEST PUSH2 0x1C6 JUMP JUMPDEST PUSH1 0x40 MLOAD PUSH2 0x110 SWAP2 SWAP1 PUSH2 0x3E9 JUMP JUMPDEST PUSH1 0x40 MLOAD DUP1 SWAP2 SUB SWAP1 RETURN JUMPDEST PUSH2 0x133 PUSH1 0x4 DUP1 CALLDATASIZE SUB DUP2 ADD SWAP1 PUSH2 0x12E SWAP2 SWAP1 PUSH2 0x3AF JUMP JUMPDEST PUSH2 0x21E JUMP JUMPDEST PUSH1 0x40 MLOAD PUSH2 0x140 SWAP2 SWAP1 PUSH2 0x472 JUMP JUMPDEST PUSH1 0x40 MLOAD DUP1 SWAP2 SUB SWAP1 RETURN JUMPDEST PUSH0 DUP2 DUP4 SLT ISZERO PUSH2 0x15A JUMPI DUP3 SWAP1 POP PUSH2 0x15E JUMP JUMPDEST DUP2 SWAP1 POP JUMPDEST SWAP3 SWAP2 POP POP JUMP JUMPDEST PUSH0 PUSH2 0x16F DUP4 DUP4 PUSH2 0x164 JUMP JUMPDEST SWAP1 POP SWAP3 SWAP2 POP POP JUMP JUMPDEST PUSH0 DUP1 PUSH0 SWAP1 POP PUSH0 DUP4 SUB PUSH2 0x18D JUMPI PUSH1 0x1 SWAP2 POP POP PUSH2 0x1C1 JUMP JUMPDEST PUSH0 PUSH1 0x1 SWAP1 POP JUMPDEST DUP4 DUP2 GT PUSH2 0x1BB JUMPI DUP1 DUP3 PUSH2 0x1A6 SWAP2 SWAP1 PUSH2 0x4BF JUMP JUMPDEST SWAP2 POP DUP1 DUP1 PUSH2 0x1B3 SWAP1 PUSH2 0x500 JUMP JUMPDEST SWAP2 POP POP PUSH2 0x193 JUMP JUMPDEST POP DUP1 SWAP2 POP POP JUMPDEST SWAP2 SWAP1 POP JUMP JUMPDEST PUSH0 PUSH1 0x1 DUP3 EQ DUP1 PUSH2 0x1D5 JUMPI POP PUSH0 DUP3 EQ JUMPDEST ISZERO PUSH2 0x1E2 JUMPI DUP2 SWAP1 POP PUSH2 0x219 JUMP JUMPDEST PUSH2 0x1F7 PUSH1 0x2 DUP4 PUSH2 0x1F2 SWAP2 SWAP1 PUSH2 0x547 JUMP JUMPDEST PUSH2 0x1C6 JUMP JUMPDEST PUSH2 0x20C PUSH1 0x1 DUP5 PUSH2 0x207 SWAP2 SWAP1 PUSH2 0x547 JUMP JUMPDEST PUSH2 0x1C6 JUMP JUMPDEST PUSH2 0x216 SWAP2 SWAP1 PUSH2 0x57A JUMP JUMPDEST SWAP1 POP JUMPDEST SWAP2 SWAP1 POP JUMP JUMPDEST PUSH1 0x60 PUSH0 DUP1 JUMPDEST PUSH0 DUP5 GT ISZERO PUSH2 0x259 JUMPI PUSH1 0xA DUP5 PUSH2 0x238 SWAP2 SWAP1 PUSH2 0x5DA JUMP JUMPDEST SWAP1 POP PUSH1 0x3 DUP2 PUSH2 0x247 SWAP2 SWAP1 PUSH2 0x745 JUMP JUMPDEST DUP3 PUSH2 0x252 SWAP2 SWAP1 PUSH2 0x57A JUMP JUMPDEST SWAP2 POP PUSH2 0x223 JUMP JUMPDEST DUP4 DUP3 SUB PUSH2 0x29F JUMPI PUSH1 0x40 MLOAD DUP1 PUSH1 0x40 ADD PUSH1 0x40 MSTORE DUP1 PUSH1 0x18 DUP2 MSTORE PUSH1 0x20 ADD PUSH32 0x4974277320616E2061726D7374726F6E67206E756D6265720000000000000000 DUP2 MSTORE POP SWAP3 POP POP POP PUSH2 0x2DA JUMP JUMPDEST PUSH1 0x40 MLOAD DUP1 PUSH1 0x40 ADD PUSH1 0x40 MSTORE DUP1 PUSH1 0x14 DUP2 MSTORE PUSH1 0x20 ADD PUSH32 0x4E6F742041726D7374726F6E67204E756D626572000000000000000000000000 DUP2 MSTORE POP SWAP3 POP POP POP JUMPDEST SWAP2 SWAP1 POP JUMP JUMPDEST PUSH0 DUP1 REVERT JUMPDEST PUSH0 DUP2 SWAP1 POP SWAP2 SWAP1 POP JUMP JUMPDEST PUSH2 0x2F5 DUP2 PUSH2 0x2E3 JUMP JUMPDEST DUP2 EQ PUSH2 0x2FF JUMPI PUSH0 DUP1 REVERT JUMPDEST POP JUMP JUMPDEST PUSH0 DUP2 CALLDATALOAD SWAP1 POP PUSH2 0x310 DUP2 PUSH2 0x2EC JUMP JUMPDEST SWAP3 SWAP2 POP POP JUMP JUMPDEST PUSH0 DUP1 PUSH1 0x40 DUP4 DUP6 SUB SLT ISZERO PUSH2 0x32C JUMPI PUSH2 0x32B PUSH2 0x2DF JUMP JUMPDEST JUMPDEST PUSH0 PUSH2 0x339 DUP6 DUP3 DUP7 ADD PUSH2 0x302 JUMP JUMPDEST SWAP3 POP POP PUSH1 0x20 PUSH2 0x34A DUP6 DUP3 DUP7 ADD PUSH2 0x302 JUMP JUMPDEST SWAP2 POP POP SWAP3 POP SWAP3 SWAP1 POP JUMP JUMPDEST PUSH2 0x35D DUP2 PUSH2 0x2E3 JUMP JUMPDEST DUP3 MSTORE POP POP JUMP JUMPDEST PUSH0 PUSH1 0x20 DUP3 ADD SWAP1 POP PUSH2 0x376 PUSH0 DUP4 ADD DUP5 PUSH2 0x354 JUMP JUMPDEST SWAP3 SWAP2 POP POP JUMP JUMPDEST PUSH0 DUP2 SWAP1 POP SWAP2 SWAP1 POP JUMP JUMPDEST PUSH2 0x38E DUP2 PUSH2 0x37C JUMP JUMPDEST DUP2 EQ PUSH2 0x398 JUMPI PUSH0 DUP1 REVERT JUMPDEST POP JUMP JUMPDEST PUSH0 DUP2 CALLDATALOAD SWAP1 POP PUSH2 0x3A9 DUP2 PUSH2 0x385 JUMP JUMPDEST SWAP3 SWAP2 POP POP JUMP JUMPDEST PUSH0 PUSH1 0x20 DUP3 DUP5 SUB SLT ISZERO PUSH2 0x3C4 JUMPI PUSH2 0x3C3 PUSH2 0x2DF JUMP JUMPDEST JUMPDEST PUSH0 PUSH2 0x3D1 DUP5 DUP3 DUP6 ADD PUSH2 0x39B JUMP JUMPDEST SWAP2 POP POP SWAP3 SWAP2 POP POP JUMP JUMPDEST PUSH2 0x3E3 DUP2 PUSH2 0x37C JUMP JUMPDEST DUP3 MSTORE POP POP JUMP JUMPDEST PUSH0 PUSH1 0x20 DUP3 ADD SWAP1 POP PUSH2 0x3FC PUSH0 DUP4 ADD DUP5 PUSH2 0x3DA JUMP JUMPDEST SWAP3 SWAP2 POP POP JUMP JUMPDEST PUSH0 DUP2 MLOAD SWAP1 POP SWAP2 SWAP1 POP JUMP JUMPDEST PUSH0 DUP3 DUP3 MSTORE PUSH1 0x20 DUP3 ADD SWAP1 POP SWAP3 SWAP2 POP POP JUMP JUMPDEST DUP3 DUP2 DUP4 MCOPY PUSH0 DUP4 DUP4 ADD MSTORE POP POP POP JUMP JUMPDEST PUSH0 PUSH1 0x1F NOT PUSH1 0x1F DUP4 ADD AND SWAP1 POP SWAP2 SWAP1 POP JUMP JUMPDEST PUSH0 PUSH2 0x444 DUP3 PUSH2 0x402 JUMP JUMPDEST PUSH2 0x44E DUP2 DUP6 PUSH2 0x40C JUMP JUMPDEST SWAP4 POP PUSH2 0x45E DUP2 DUP6 PUSH1 0x20 DUP7 ADD PUSH2 0x41C JUMP JUMPDEST PUSH2 0x467 DUP2 PUSH2 0x42A JUMP JUMPDEST DUP5 ADD SWAP2 POP POP SWAP3 SWAP2 POP POP JUMP JUMPDEST PUSH0 PUSH1 0x20 DUP3 ADD SWAP1 POP DUP2 DUP2 SUB PUSH0 DUP4 ADD MSTORE PUSH2 0x48A DUP2 DUP5 PUSH2 0x43A JUMP JUMPDEST SWAP1 POP SWAP3 SWAP2 POP POP JUMP JUMPDEST PUSH32 0x4E487B7100000000000000000000000000000000000000000000000000000000 PUSH0 MSTORE PUSH1 0x11 PUSH1 0x4 MSTORE PUSH1 0x24 PUSH0 REVERT JUMPDEST PUSH0 PUSH2 0x4C9 DUP3 PUSH2 0x37C JUMP JUMPDEST SWAP2 POP PUSH2 0x4D4 DUP4 PUSH2 0x37C JUMP JUMPDEST SWAP3 POP DUP3 DUP3 MUL PUSH2 0x4E2 DUP2 PUSH2 0x37C JUMP JUMPDEST SWAP2 POP DUP3 DUP3 DIV DUP5 EQ DUP4 ISZERO OR PUSH2 0x4F9 JUMPI PUSH2 0x4F8 PUSH2 0x492 JUMP JUMPDEST JUMPDEST POP SWAP3 SWAP2 POP POP JUMP JUMPDEST PUSH0 PUSH2 0x50A DUP3 PUSH2 0x37C JUMP JUMPDEST SWAP2 POP PUSH32 0xFFFFFFFFFFFFFFFFFFFFFFFFFFFFFFFFFFFFFFFFFFFFFFFFFFFFFFFFFFFFFFFF DUP3 SUB PUSH2 0x53C JUMPI PUSH2 0x53B PUSH2 0x492 JUMP JUMPDEST JUMPDEST PUSH1 0x1 DUP3 ADD SWAP1 POP SWAP2 SWAP1 POP JUMP JUMPDEST PUSH0 PUSH2 0x551 DUP3 PUSH2 0x37C JUMP JUMPDEST SWAP2 POP PUSH2 0x55C DUP4 PUSH2 0x37C JUMP JUMPDEST SWAP3 POP DUP3 DUP3 SUB SWAP1 POP DUP2 DUP2 GT ISZERO PUSH2 0x574 JUMPI PUSH2 0x573 PUSH2 0x492 JUMP JUMPDEST JUMPDEST SWAP3 SWAP2 POP POP JUMP JUMPDEST PUSH0 PUSH2 0x584 DUP3 PUSH2 0x37C JUMP JUMPDEST SWAP2 POP PUSH2 0x58F DUP4 PUSH2 0x37C JUMP JUMPDEST SWAP3 POP DUP3 DUP3 ADD SWAP1 POP DUP1 DUP3 GT ISZERO PUSH2 0x5A7 JUMPI PUSH2 0x5A6 PUSH2 0x492 JUMP JUMPDEST JUMPDEST SWAP3 SWAP2 POP POP JUMP JUMPDEST PUSH32 0x4E487B7100000000000000000000000000000000000000000000000000000000 PUSH0 MSTORE PUSH1 0x12 PUSH1 0x4 MSTORE PUSH1 0x24 PUSH0 REVERT JUMPDEST PUSH0 PUSH2 0x5E4 DUP3 PUSH2 0x37C JUMP JUMPDEST SWAP2 POP PUSH2 0x5EF DUP4 PUSH2 0x37C JUMP JUMPDEST SWAP3 POP DUP3 PUSH2 0x5FF JUMPI PUSH2 0x5FE PUSH2 0x5AD JUMP JUMPDEST JUMPDEST DUP3 DUP3 MOD SWAP1 POP SWAP3 SWAP2 POP POP JUMP JUMPDEST PUSH0 DUP2 PUSH1 0x1 SHR SWAP1 POP SWAP2 SWAP1 POP JUMP JUMPDEST PUSH0 DUP1 DUP3 SWAP2 POP DUP4 SWAP1 POP JUMPDEST PUSH1 0x1 DUP6 GT ISZERO PUSH2 0x65F JUMPI DUP1 DUP7 DIV DUP2 GT ISZERO PUSH2 0x63B JUMPI PUSH2 0x63A PUSH2 0x492 JUMP JUMPDEST JUMPDEST PUSH1 0x1 DUP6 AND ISZERO PUSH2 0x64A JUMPI DUP1 DUP3 MUL SWAP2 POP JUMPDEST DUP1 DUP2 MUL SWAP1 POP PUSH2 0x658 DUP6 PUSH2 0x60A JUMP JUMPDEST SWAP5 POP PUSH2 0x61F JUMP JUMPDEST SWAP5 POP SWAP5 SWAP3 POP POP POP JUMP JUMPDEST PUSH0 DUP3 PUSH2 0x677 JUMPI PUSH1 0x1 SWAP1 POP PUSH2 0x732 JUMP JUMPDEST DUP2 PUSH2 0x684 JUMPI PUSH0 SWAP1 POP PUSH2 0x732 JUMP JUMPDEST DUP2 PUSH1 0x1 DUP2 EQ PUSH2 0x69A JUMPI PUSH1 0x2 DUP2 EQ PUSH2 0x6A4 JUMPI PUSH2 0x6D3 JUMP JUMPDEST PUSH1 0x1 SWAP2 POP POP PUSH2 0x732 JUMP JUMPDEST PUSH1 0xFF DUP5 GT ISZERO PUSH2 0x6B6 JUMPI PUSH2 0x6B5 PUSH2 0x492 JUMP JUMPDEST JUMPDEST DUP4 PUSH1 0x2 EXP SWAP2 POP DUP5 DUP3 GT ISZERO PUSH2 0x6CD JUMPI PUSH2 0x6CC PUSH2 0x492 JUMP JUMPDEST JUMPDEST POP PUSH2 0x732 JUMP JUMPDEST POP PUSH1 0x20 DUP4 LT PUSH2 0x133 DUP4 LT AND PUSH1 0x4E DUP5 LT PUSH1 0xB DUP5 LT AND OR ISZERO PUSH2 0x708 JUMPI DUP3 DUP3 EXP SWAP1 POP DUP4 DUP2 GT ISZERO PUSH2 0x703 JUMPI PUSH2 0x702 PUSH2 0x492 JUMP JUMPDEST JUMPDEST PUSH2 0x732 JUMP JUMPDEST PUSH2 0x715 DUP5 DUP5 DUP5 PUSH1 0x1 PUSH2 0x616 JUMP JUMPDEST SWAP3 POP SWAP1 POP DUP2 DUP5 DIV DUP2 GT ISZERO PUSH2 0x72C JUMPI PUSH2 0x72B PUSH2 0x492 JUMP JUMPDEST JUMPDEST DUP2 DUP2 MUL SWAP1 POP JUMPDEST SWAP4 SWAP3 POP POP POP JUMP JUMPDEST PUSH0 PUSH1 0xFF DUP3 AND SWAP1 POP SWAP2 SWAP1 POP JUMP JUMPDEST PUSH0 PUSH2 0x74F DUP3 PUSH2 0x37C JUMP JUMPDEST SWAP2 POP PUSH2 0x75A DUP4 PUSH2 0x739 JUMP JUMPDEST SWAP3 POP PUSH2 0x787 PUSH32 0xFFFFFFFFFFFFFFFFFFFFFFFFFFFFFFFFFFFFFFFFFFFFFFFFFFFFFFFFFFFFFFFF DUP5 DUP5 PUSH2 0x668 JUMP JUMPDEST SWAP1 POP SWAP3 SWAP2 POP POP JUMP INVALID LOG2 PUSH5 0x6970667358 0x22 SLT KECCAK256 PUSH23 0xB6375DA7537AC1C38771FEB2361B5F6092E46F6A53A2BE 0xDE 0xB1 PUSH28 0xC66F3F646464736F6C634300081A0033000000000000000000000000 "
		},
		"gasEstimates": {
			"creation": {
				"codeDepositCost": "397800",
				"executionCost": "434",
				"totalCost": "398234"
			},
			"external": {
				"factorial(uint256)": "infinite",
				"fib(uint256)": "infinite",
				"isArmstrong(uint256)": "infinite",
				"max(int256,int256)": "infinite",
				"min(int256,int256)": "infinite"
			}
		},
		"methodIdentifiers": {
			"factorial(uint256)": "83714834",
			"fib(uint256)": "c6c2ea17",
			"isArmstrong(uint256)": "fe459d20",
			"max(int256,int256)": "81fe5786",
			"min(int256,int256)": "29aa9cbe"
		}
	},
	"abi": [
		{
			"inputs": [
				{
					"internalType": "uint256",
					"name": "x",
					"type": "uint256"
				}
			],
			"name": "factorial",
			"outputs": [
				{
					"internalType": "uint256",
					"name": "",
					"type": "uint256"
				}
			],
			"stateMutability": "pure",
			"type": "function"
		},
		{
			"inputs": [
				{
					"internalType": "uint256",
					"name": "x",
					"type": "uint256"
				}
			],
			"name": "fib",
			"outputs": [
				{
					"internalType": "uint256",
					"name": "",
					"type": "uint256"
				}
			],
			"stateMutability": "pure",
			"type": "function"
		},
		{
			"inputs": [
				{
					"internalType": "uint256",
					"name": "x",
					"type": "uint256"
				}
			],
			"name": "isArmstrong",
			"outputs": [
				{
					"internalType": "string",
					"name": "",
					"type": "string"
				}
			],
			"stateMutability": "pure",
			"type": "function"
		},
		{
			"inputs": [
				{
					"internalType": "int256",
					"name": "x",
					"type": "int256"
				},
				{
					"internalType": "int256",
					"name": "y",
					"type": "int256"
				}
			],
			"name": "max",
			"outputs": [
				{
					"internalType": "int256",
					"name": "",
					"type": "int256"
				}
			],
			"stateMutability": "pure",
			"type": "function"
		},
		{
			"inputs": [
				{
					"internalType": "int256",
					"name": "x",
					"type": "int256"
				},
				{
					"internalType": "int256",
					"name": "y",
					"type": "int256"
				}
			],
			"name": "min",
			"outputs": [
				{
					"internalType": "int256",
					"name": "",
					"type": "int256"
				}
			],
			"stateMutability": "pure",
			"type": "function"
		}
	]
}