{
	"data": {
		"bytecode": {
			"linkReferences": {
				"Day07/d7p1lib.sol": {
					"d7p1lib": [
						{
							"length": 20,
							"start": 361
						},
						{
							"length": 20,
							"start": 490
						},
						{
							"length": 20,
							"start": 619
						},
						{
							"length": 20,
							"start": 748
						},
						{
							"length": 20,
							"start": 874
						}
					]
				}
			},
			"object": "6080604052348015600e575f80fd5b506108008061001c5f395ff3fe608060405234801561000f575f80fd5b5060043610610055575f3560e01c806304fc379014610059578063208a677414610089578063555134a5146100b9578063d842396e146100e9578063e3ce143c14610119575b5f80fd5b610073600480360381019061006e919061040d565b610149565b60405161008091906104a8565b60405180910390f35b6100a3600480360381019061009e91906104fb565b6101cb565b6040516100b09190610548565b60405180910390f35b6100d360048036038101906100ce91906104fb565b61024c565b6040516100e09190610548565b60405180910390f35b61010360048036038101906100fe919061040d565b6102cd565b6040516101109190610570565b60405180910390f35b610133600480360381019061012e919061040d565b61034b565b6040516101409190610570565b60405180910390f35b606073__$c2f1498062f0f0697ad41222a9e5193876$__63fe459d20836040518263ffffffff1660e01b81526004016101829190610598565b5f60405180830381865af415801561019c573d5f803e3d5ffd5b505050506040513d5f823e3d601f19601f820116820180604052508101906101c491906106cf565b9050919050565b5f73__$c2f1498062f0f0697ad41222a9e5193876$__6329aa9cbe84846040518363ffffffff1660e01b8152600401610205929190610725565b602060405180830381865af4158015610220573d5f803e3d5ffd5b505050506040513d601f19601f820116820180604052508101906102449190610760565b905092915050565b5f73__$c2f1498062f0f0697ad41222a9e5193876$__6381fe578684846040518363ffffffff1660e01b8152600401610286929190610725565b602060405180830381865af41580156102a1573d5f803e3d5ffd5b505050506040513d601f19601f820116820180604052508101906102c59190610760565b905092915050565b5f73__$c2f1498062f0f0697ad41222a9e5193876$__63c6c2ea17836040518263ffffffff1660e01b81526004016103059190610598565b602060405180830381865af4158015610320573d5f803e3d5ffd5b505050506040513d601f19601f82011682018060405250810190610344919061079f565b9050919050565b5f73__$c2f1498062f0f0697ad41222a9e5193876$__6383714834836040518263ffffffff1660e01b81526004016103839190610598565b602060405180830381865af415801561039e573d5f803e3d5ffd5b505050506040513d601f19601f820116820180604052508101906103c2919061079f565b9050919050565b5f604051905090565b5f80fd5b5f80fd5b5f819050919050565b6103ec816103da565b81146103f6575f80fd5b50565b5f81359050610407816103e3565b92915050565b5f60208284031215610422576104216103d2565b5b5f61042f848285016103f9565b91505092915050565b5f81519050919050565b5f82825260208201905092915050565b8281835e5f83830152505050565b5f601f19601f8301169050919050565b5f61047a82610438565b6104848185610442565b9350610494818560208601610452565b61049d81610460565b840191505092915050565b5f6020820190508181035f8301526104c08184610470565b905092915050565b5f819050919050565b6104da816104c8565b81146104e4575f80fd5b50565b5f813590506104f5816104d1565b92915050565b5f8060408385031215610511576105106103d2565b5b5f61051e858286016104e7565b925050602061052f858286016104e7565b9150509250929050565b610542816104c8565b82525050565b5f60208201905061055b5f830184610539565b92915050565b61056a816103da565b82525050565b5f6020820190506105835f830184610561565b92915050565b610592816103da565b82525050565b5f6020820190506105ab5f830184610589565b92915050565b5f80fd5b5f80fd5b7f4e487b71000000000000000000000000000000000000000000000000000000005f52604160045260245ffd5b6105ef82610460565b810181811067ffffffffffffffff8211171561060e5761060d6105b9565b5b80604052505050565b5f6106206103c9565b905061062c82826105e6565b919050565b5f67ffffffffffffffff82111561064b5761064a6105b9565b5b61065482610460565b9050602081019050919050565b5f61067361066e84610631565b610617565b90508281526020810184848401111561068f5761068e6105b5565b5b61069a848285610452565b509392505050565b5f82601f8301126106b6576106b56105b1565b5b81516106c6848260208601610661565b91505092915050565b5f602082840312156106e4576106e36103d2565b5b5f82015167ffffffffffffffff811115610701576107006103d6565b5b61070d848285016106a2565b91505092915050565b61071f816104c8565b82525050565b5f6040820190506107385f830185610716565b6107456020830184610716565b9392505050565b5f8151905061075a816104d1565b92915050565b5f60208284031215610775576107746103d2565b5b5f6107828482850161074c565b91505092915050565b5f81519050610799816103e3565b92915050565b5f602082840312156107b4576107b36103d2565b5b5f6107c18482850161078b565b9150509291505056fea264697066735822122068cdee6a2ff7aa5ad11ebd3c563ed16ed3145d00676357f15e208da8fa03d30864736f6c634300081a0033",
			"opcodes": "PUSH1 0x80 PUSH1 0x40 MSTORE CALLVALUE DUP1 ISZERO PUSH1 0xE JUMPI PUSH0 DUP1 REVERT JUMPDEST POP PUSH2 0x800 DUP1 PUSH2 0x1C PUSH0 CODECOPY PUSH0 RETURN INVALID PUSH1 0x80 PUSH1 0x40 MSTORE CALLVALUE DUP1 ISZERO PUSH2 0xF JUMPI PUSH0 DUP1 REVERT JUMPDEST POP PUSH1 0x4 CALLDATASIZE LT PUSH2 0x55 JUMPI PUSH0 CALLDATALOAD PUSH1 0xE0 SHR DUP1 PUSH4 0x4FC3790 EQ PUSH2 0x59 JUMPI DUP1 PUSH4 0x208A6774 EQ PUSH2 0x89 JUMPI DUP1 PUSH4 0x555134A5 EQ PUSH2 0xB9 JUMPI DUP1 PUSH4 0xD842396E EQ PUSH2 0xE9 JUMPI DUP1 PUSH4 0xE3CE143C EQ PUSH2 0x119 JUMPI JUMPDEST PUSH0 DUP1 REVERT JUMPDEST PUSH2 0x73 PUSH1 0x4 DUP1 CALLDATASIZE SUB DUP2 ADD SWAP1 PUSH2 0x6E SWAP2 SWAP1 PUSH2 0x40D JUMP JUMPDEST PUSH2 0x149 JUMP JUMPDEST PUSH1 0x40 MLOAD PUSH2 0x80 SWAP2 SWAP1 PUSH2 0x4A8 JUMP JUMPDEST PUSH1 0x40 MLOAD DUP1 SWAP2 SUB SWAP1 RETURN JUMPDEST PUSH2 0xA3 PUSH1 0x4 DUP1 CALLDATASIZE SUB DUP2 ADD SWAP1 PUSH2 0x9E SWAP2 SWAP1 PUSH2 0x4FB JUMP JUMPDEST PUSH2 0x1CB JUMP JUMPDEST PUSH1 0x40 MLOAD PUSH2 0xB0 SWAP2 SWAP1 PUSH2 0x548 JUMP JUMPDEST PUSH1 0x40 MLOAD DUP1 SWAP2 SUB SWAP1 RETURN JUMPDEST PUSH2 0xD3 PUSH1 0x4 DUP1 CALLDATASIZE SUB DUP2 ADD SWAP1 PUSH2 0xCE SWAP2 SWAP1 PUSH2 0x4FB JUMP JUMPDEST PUSH2 0x24C JUMP JUMPDEST PUSH1 0x40 MLOAD PUSH2 0xE0 SWAP2 SWAP1 PUSH2 0x548 JUMP JUMPDEST PUSH1 0x40 MLOAD DUP1 SWAP2 SUB SWAP1 RETURN JUMPDEST PUSH2 0x103 PUSH1 0x4 DUP1 CALLDATASIZE SUB DUP2 ADD SWAP1 PUSH2 0xFE SWAP2 SWAP1 PUSH2 0x40D JUMP JUMPDEST PUSH2 0x2CD JUMP JUMPDEST PUSH1 0x40 MLOAD PUSH2 0x110 SWAP2 SWAP1 PUSH2 0x570 JUMP JUMPDEST PUSH1 0x40 MLOAD DUP1 SWAP2 SUB SWAP1 RETURN JUMPDEST PUSH2 0x133 PUSH1 0x4 DUP1 CALLDATASIZE SUB DUP2 ADD SWAP1 PUSH2 0x12E SWAP2 SWAP1 PUSH2 0x40D JUMP JUMPDEST PUSH2 0x34B JUMP JUMPDEST PUSH1 0x40 MLOAD PUSH2 0x140 SWAP2 SWAP1 PUSH2 0x570 JUMP JUMPDEST PUSH1 0x40 MLOAD DUP1 SWAP2 SUB SWAP1 RETURN JUMPDEST PUSH1 0x60 PUSH20 0x0 PUSH4 0xFE459D20 DUP4 PUSH1 0x40 MLOAD DUP3 PUSH4 0xFFFFFFFF AND PUSH1 0xE0 SHL DUP2 MSTORE PUSH1 0x4 ADD PUSH2 0x182 SWAP2 SWAP1 PUSH2 0x598 JUMP JUMPDEST PUSH0 PUSH1 0x40 MLOAD DUP1 DUP4 SUB DUP2 DUP7 GAS DELEGATECALL ISZERO DUP1 ISZERO PUSH2 0x19C JUMPI RETURNDATASIZE PUSH0 DUP1 RETURNDATACOPY RETURNDATASIZE PUSH0 REVERT JUMPDEST POP POP POP POP PUSH1 0x40 MLOAD RETURNDATASIZE PUSH0 DUP3 RETURNDATACOPY RETURNDATASIZE PUSH1 0x1F NOT PUSH1 0x1F DUP3 ADD AND DUP3 ADD DUP1 PUSH1 0x40 MSTORE POP DUP2 ADD SWAP1 PUSH2 0x1C4 SWAP2 SWAP1 PUSH2 0x6CF JUMP JUMPDEST SWAP1 POP SWAP2 SWAP1 POP JUMP JUMPDEST PUSH0 PUSH20 0x0 PUSH4 0x29AA9CBE DUP5 DUP5 PUSH1 0x40 MLOAD DUP4 PUSH4 0xFFFFFFFF AND PUSH1 0xE0 SHL DUP2 MSTORE PUSH1 0x4 ADD PUSH2 0x205 SWAP3 SWAP2 SWAP1 PUSH2 0x725 JUMP JUMPDEST PUSH1 0x20 PUSH1 0x40 MLOAD DUP1 DUP4 SUB DUP2 DUP7 GAS DELEGATECALL ISZERO DUP1 ISZERO PUSH2 0x220 JUMPI RETURNDATASIZE PUSH0 DUP1 RETURNDATACOPY RETURNDATASIZE PUSH0 REVERT JUMPDEST POP POP POP POP PUSH1 0x40 MLOAD RETURNDATASIZE PUSH1 0x1F NOT PUSH1 0x1F DUP3 ADD AND DUP3 ADD DUP1 PUSH1 0x40 MSTORE POP DUP2 ADD SWAP1 PUSH2 0x244 SWAP2 SWAP1 PUSH2 0x760 JUMP JUMPDEST SWAP1 POP SWAP3 SWAP2 POP POP JUMP JUMPDEST PUSH0 PUSH20 0x0 PUSH4 0x81FE5786 DUP5 DUP5 PUSH1 0x40 MLOAD DUP4 PUSH4 0xFFFFFFFF AND PUSH1 0xE0 SHL DUP2 MSTORE PUSH1 0x4 ADD PUSH2 0x286 SWAP3 SWAP2 SWAP1 PUSH2 0x725 JUMP JUMPDEST PUSH1 0x20 PUSH1 0x40 MLOAD DUP1 DUP4 SUB DUP2 DUP7 GAS DELEGATECALL ISZERO DUP1 ISZERO PUSH2 0x2A1 JUMPI RETURNDATASIZE PUSH0 DUP1 RETURNDATACOPY RETURNDATASIZE PUSH0 REVERT JUMPDEST POP POP POP POP PUSH1 0x40 MLOAD RETURNDATASIZE PUSH1 0x1F NOT PUSH1 0x1F DUP3 ADD AND DUP3 ADD DUP1 PUSH1 0x40 MSTORE POP DUP2 ADD SWAP1 PUSH2 0x2C5 SWAP2 SWAP1 PUSH2 0x760 JUMP JUMPDEST SWAP1 POP SWAP3 SWAP2 POP POP JUMP JUMPDEST PUSH0 PUSH20 0x0 PUSH4 0xC6C2EA17 DUP4 PUSH1 0x40 MLOAD DUP3 PUSH4 0xFFFFFFFF AND PUSH1 0xE0 SHL DUP2 MSTORE PUSH1 0x4 ADD PUSH2 0x305 SWAP2 SWAP1 PUSH2 0x598 JUMP JUMPDEST PUSH1 0x20 PUSH1 0x40 MLOAD DUP1 DUP4 SUB DUP2 DUP7 GAS DELEGATECALL ISZERO DUP1 ISZERO PUSH2 0x320 JUMPI RETURNDATASIZE PUSH0 DUP1 RETURNDATACOPY RETURNDATASIZE PUSH0 REVERT JUMPDEST POP POP POP POP PUSH1 0x40 MLOAD RETURNDATASIZE PUSH1 0x1F NOT PUSH1 0x1F DUP3 ADD AND DUP3 ADD DUP1 PUSH1 0x40 MSTORE POP DUP2 ADD SWAP1 PUSH2 0x344 SWAP2 SWAP1 PUSH2 0x79F JUMP JUMPDEST SWAP1 POP SWAP2 SWAP1 POP JUMP JUMPDEST PUSH0 PUSH20 0x0 PUSH4 0x83714834 DUP4 PUSH1 0x40 MLOAD DUP3 PUSH4 0xFFFFFFFF AND PUSH1 0xE0 SHL DUP2 MSTORE PUSH1 0x4 ADD PUSH2 0x383 SWAP2 SWAP1 PUSH2 0x598 JUMP JUMPDEST PUSH1 0x20 PUSH1 0x40 MLOAD DUP1 DUP4 SUB DUP2 DUP7 GAS DELEGATECALL ISZERO DUP1 ISZERO PUSH2 0x39E JUMPI RETURNDATASIZE PUSH0 DUP1 RETURNDATACOPY RETURNDATASIZE PUSH0 REVERT JUMPDEST POP POP POP POP PUSH1 0x40 MLOAD RETURNDATASIZE PUSH1 0x1F NOT PUSH1 0x1F DUP3 ADD AND DUP3 ADD DUP1 PUSH1 0x40 MSTORE POP DUP2 ADD SWAP1 PUSH2 0x3C2 SWAP2 SWAP1 PUSH2 0x79F JUMP JUMPDEST SWAP1 POP SWAP2 SWAP1 POP JUMP JUMPDEST PUSH0 PUSH1 0x40 MLOAD SWAP1 POP SWAP1 JUMP JUMPDEST PUSH0 DUP1 REVERT JUMPDEST PUSH0 DUP1 REVERT JUMPDEST PUSH0 DUP2 SWAP1 POP SWAP2 SWAP1 POP JUMP JUMPDEST PUSH2 0x3EC DUP2 PUSH2 0x3DA JUMP JUMPDEST DUP2 EQ PUSH2 0x3F6 JUMPI PUSH0 DUP1 REVERT JUMPDEST POP JUMP JUMPDEST PUSH0 DUP2 CALLDATALOAD SWAP1 POP PUSH2 0x407 DUP2 PUSH2 0x3E3 JUMP JUMPDEST SWAP3 SWAP2 POP POP JUMP JUMPDEST PUSH0 PUSH1 0x20 DUP3 DUP5 SUB SLT ISZERO PUSH2 0x422 JUMPI PUSH2 0x421 PUSH2 0x3D2 JUMP JUMPDEST JUMPDEST PUSH0 PUSH2 0x42F DUP5 DUP3 DUP6 ADD PUSH2 0x3F9 JUMP JUMPDEST SWAP2 POP POP SWAP3 SWAP2 POP POP JUMP JUMPDEST PUSH0 DUP2 MLOAD SWAP1 POP SWAP2 SWAP1 POP JUMP JUMPDEST PUSH0 DUP3 DUP3 MSTORE PUSH1 0x20 DUP3 ADD SWAP1 POP SWAP3 SWAP2 POP POP JUMP JUMPDEST DUP3 DUP2 DUP4 MCOPY PUSH0 DUP4 DUP4 ADD MSTORE POP POP POP JUMP JUMPDEST PUSH0 PUSH1 0x1F NOT PUSH1 0x1F DUP4 ADD AND SWAP1 POP SWAP2 SWAP1 POP JUMP JUMPDEST PUSH0 PUSH2 0x47A DUP3 PUSH2 0x438 JUMP JUMPDEST PUSH2 0x484 DUP2 DUP6 PUSH2 0x442 JUMP JUMPDEST SWAP4 POP PUSH2 0x494 DUP2 DUP6 PUSH1 0x20 DUP7 ADD PUSH2 0x452 JUMP JUMPDEST PUSH2 0x49D DUP2 PUSH2 0x460 JUMP JUMPDEST DUP5 ADD SWAP2 POP POP SWAP3 SWAP2 POP POP JUMP JUMPDEST PUSH0 PUSH1 0x20 DUP3 ADD SWAP1 POP DUP2 DUP2 SUB PUSH0 DUP4 ADD MSTORE PUSH2 0x4C0 DUP2 DUP5 PUSH2 0x470 JUMP JUMPDEST SWAP1 POP SWAP3 SWAP2 POP POP JUMP JUMPDEST PUSH0 DUP2 SWAP1 POP SWAP2 SWAP1 POP JUMP JUMPDEST PUSH2 0x4DA DUP2 PUSH2 0x4C8 JUMP JUMPDEST DUP2 EQ PUSH2 0x4E4 JUMPI PUSH0 DUP1 REVERT JUMPDEST POP JUMP JUMPDEST PUSH0 DUP2 CALLDATALOAD SWAP1 POP PUSH2 0x4F5 DUP2 PUSH2 0x4D1 JUMP JUMPDEST SWAP3 SWAP2 POP POP JUMP JUMPDEST PUSH0 DUP1 PUSH1 0x40 DUP4 DUP6 SUB SLT ISZERO PUSH2 0x511 JUMPI PUSH2 0x510 PUSH2 0x3D2 JUMP JUMPDEST JUMPDEST PUSH0 PUSH2 0x51E DUP6 DUP3 DUP7 ADD PUSH2 0x4E7 JUMP JUMPDEST SWAP3 POP POP PUSH1 0x20 PUSH2 0x52F DUP6 DUP3 DUP7 ADD PUSH2 0x4E7 JUMP JUMPDEST SWAP2 POP POP SWAP3 POP SWAP3 SWAP1 POP JUMP JUMPDEST PUSH2 0x542 DUP2 PUSH2 0x4C8 JUMP JUMPDEST DUP3 MSTORE POP POP JUMP JUMPDEST PUSH0 PUSH1 0x20 DUP3 ADD SWAP1 POP PUSH2 0x55B PUSH0 DUP4 ADD DUP5 PUSH2 0x539 JUMP JUMPDEST SWAP3 SWAP2 POP POP JUMP JUMPDEST PUSH2 0x56A DUP2 PUSH2 0x3DA JUMP JUMPDEST DUP3 MSTORE POP POP JUMP JUMPDEST PUSH0 PUSH1 0x20 DUP3 ADD SWAP1 POP PUSH2 0x583 PUSH0 DUP4 ADD DUP5 PUSH2 0x561 JUMP JUMPDEST SWAP3 SWAP2 POP POP JUMP JUMPDEST PUSH2 0x592 DUP2 PUSH2 0x3DA JUMP JUMPDEST DUP3 MSTORE POP POP JUMP JUMPDEST PUSH0 PUSH1 0x20 DUP3 ADD SWAP1 POP PUSH2 0x5AB PUSH0 DUP4 ADD DUP5 PUSH2 0x589 JUMP JUMPDEST SWAP3 SWAP2 POP POP JUMP JUMPDEST PUSH0 DUP1 REVERT JUMPDEST PUSH0 DUP1 REVERT JUMPDEST PUSH32 0x4E487B7100000000000000000000000000000000000000000000000000000000 PUSH0 MSTORE PUSH1 0x41 PUSH1 0x4 MSTORE PUSH1 0x24 PUSH0 REVERT JUMPDEST PUSH2 0x5EF DUP3 PUSH2 0x460 JUMP JUMPDEST DUP2 ADD DUP2 DUP2 LT PUSH8 0xFFFFFFFFFFFFFFFF DUP3 GT OR ISZERO PUSH2 0x60E JUMPI PUSH2 0x60D PUSH2 0x5B9 JUMP JUMPDEST JUMPDEST DUP1 PUSH1 0x40 MSTORE POP POP POP JUMP JUMPDEST PUSH0 PUSH2 0x620 PUSH2 0x3C9 JUMP JUMPDEST SWAP1 POP PUSH2 0x62C DUP3 DUP3 PUSH2 0x5E6 JUMP JUMPDEST SWAP2 SWAP1 POP JUMP JUMPDEST PUSH0 PUSH8 0xFFFFFFFFFFFFFFFF DUP3 GT ISZERO PUSH2 0x64B JUMPI PUSH2 0x64A PUSH2 0x5B9 JUMP JUMPDEST JUMPDEST PUSH2 0x654 DUP3 PUSH2 0x460 JUMP JUMPDEST SWAP1 POP PUSH1 0x20 DUP2 ADD SWAP1 POP SWAP2 SWAP1 POP JUMP JUMPDEST PUSH0 PUSH2 0x673 PUSH2 0x66E DUP5 PUSH2 0x631 JUMP JUMPDEST PUSH2 0x617 JUMP JUMPDEST SWAP1 POP DUP3 DUP2 MSTORE PUSH1 0x20 DUP2 ADD DUP5 DUP5 DUP5 ADD GT ISZERO PUSH2 0x68F JUMPI PUSH2 0x68E PUSH2 0x5B5 JUMP JUMPDEST JUMPDEST PUSH2 0x69A DUP5 DUP3 DUP6 PUSH2 0x452 JUMP JUMPDEST POP SWAP4 SWAP3 POP POP POP JUMP JUMPDEST PUSH0 DUP3 PUSH1 0x1F DUP4 ADD SLT PUSH2 0x6B6 JUMPI PUSH2 0x6B5 PUSH2 0x5B1 JUMP JUMPDEST JUMPDEST DUP2 MLOAD PUSH2 0x6C6 DUP5 DUP3 PUSH1 0x20 DUP7 ADD PUSH2 0x661 JUMP JUMPDEST SWAP2 POP POP SWAP3 SWAP2 POP POP JUMP JUMPDEST PUSH0 PUSH1 0x20 DUP3 DUP5 SUB SLT ISZERO PUSH2 0x6E4 JUMPI PUSH2 0x6E3 PUSH2 0x3D2 JUMP JUMPDEST JUMPDEST PUSH0 DUP3 ADD MLOAD PUSH8 0xFFFFFFFFFFFFFFFF DUP2 GT ISZERO PUSH2 0x701 JUMPI PUSH2 0x700 PUSH2 0x3D6 JUMP JUMPDEST JUMPDEST PUSH2 0x70D DUP5 DUP3 DUP6 ADD PUSH2 0x6A2 JUMP JUMPDEST SWAP2 POP POP SWAP3 SWAP2 POP POP JUMP JUMPDEST PUSH2 0x71F DUP2 PUSH2 0x4C8 JUMP JUMPDEST DUP3 MSTORE POP POP JUMP JUMPDEST PUSH0 PUSH1 0x40 DUP3 ADD SWAP1 POP PUSH2 0x738 PUSH0 DUP4 ADD DUP6 PUSH2 0x716 JUMP JUMPDEST PUSH2 0x745 PUSH1 0x20 DUP4 ADD DUP5 PUSH2 0x716 JUMP JUMPDEST SWAP4 SWAP3 POP POP POP JUMP JUMPDEST PUSH0 DUP2 MLOAD SWAP1 POP PUSH2 0x75A DUP2 PUSH2 0x4D1 JUMP JUMPDEST SWAP3 SWAP2 POP POP JUMP JUMPDEST PUSH0 PUSH1 0x20 DUP3 DUP5 SUB SLT ISZERO PUSH2 0x775 JUMPI PUSH2 0x774 PUSH2 0x3D2 JUMP JUMPDEST JUMPDEST PUSH0 PUSH2 0x782 DUP5 DUP3 DUP6 ADD PUSH2 0x74C JUMP JUMPDEST SWAP2 POP POP SWAP3 SWAP2 POP POP JUMP JUMPDEST PUSH0 DUP2 MLOAD SWAP1 POP PUSH2 0x799 DUP2 PUSH2 0x3E3 JUMP JUMPDEST SWAP3 SWAP2 POP POP JUMP JUMPDEST PUSH0 PUSH1 0x20 DUP3 DUP5 SUB SLT ISZERO PUSH2 0x7B4 JUMPI PUSH2 0x7B3 PUSH2 0x3D2 JUMP JUMPDEST JUMPDEST PUSH0 PUSH2 0x7C1 DUP5 DUP3 DUP6 ADD PUSH2 0x78B JUMP JUMPDEST SWAP2 POP POP SWAP3 SWAP2 POP POP JUMP INVALID LOG2 PUSH5 0x6970667358 0x22 SLT KECCAK256 PUSH9 0xCDEE6A2FF7AA5AD11E 0xBD EXTCODECOPY JUMP RETURNDATACOPY 0xD1 PUSH15 0xD3145D00676357F15E208DA8FA03D3 ADDMOD PUSH5 0x736F6C6343 STOP ADDMOD BYTE STOP CALLER "
		},
		"gasEstimates": {
			"creation": {
				"codeDepositCost": "409600",
				"executionCost": "441",
				"totalCost": "410041"
			},
			"external": {
				"checkfactorial(uint256)": "infinite",
				"checkfib(uint256)": "infinite",
				"checkisArmstrong(uint256)": "infinite",
				"checkmax(int256,int256)": "infinite",
				"checkmin(int256,int256)": "infinite"
			}
		},
		"methodIdentifiers": {
			"checkfactorial(uint256)": "e3ce143c",
			"checkfib(uint256)": "d842396e",
			"checkisArmstrong(uint256)": "04fc3790",
			"checkmax(int256,int256)": "555134a5",
			"checkmin(int256,int256)": "208a6774"
		}
	},
	"abi": [
		{
			"inputs": [
				{
					"internalType": "uint256",
					"name": "x",
					"type": "uint256"
				}
			],
			"name": "checkfactorial",
			"outputs": [
				{
					"internalType": "uint256",
					"name": "",
					"type": "uint256"
				}
			],
			"stateMutability": "pure",
			"type": "function"
		},
		{
			"inputs": [
				{
					"internalType": "uint256",
					"name": "x",
					"type": "uint256"
				}
			],
			"name": "checkfib",
			"outputs": [
				{
					"internalType": "uint256",
					"name": "",
					"type": "uint256"
				}
			],
			"stateMutability": "pure",
			"type": "function"
		},
		{
			"inputs": [
				{
					"internalType": "uint256",
					"name": "x",
					"type": "uint256"
				}
			],
			"name": "checkisArmstrong",
			"outputs": [
				{
					"internalType": "string",
					"name": "",
					"type": "string"
				}
			],
			"stateMutability": "pure",
			"type": "function"
		},
		{
			"inputs": [
				{
					"internalType": "int256",
					"name": "x",
					"type": "int256"
				},
				{
					"internalType": "int256",
					"name": "y",
					"type": "int256"
				}
			],
			"name": "checkmax",
			"outputs": [
				{
					"internalType": "int256",
					"name": "",
					"type": "int256"
				}
			],
			"stateMutability": "pure",
			"type": "function"
		},
		{
			"inputs": [
				{
					"internalType": "int256",
					"name": "x",
					"type": "int256"
				},
				{
					"internalType": "int256",
					"name": "y",
					"type": "int256"
				}
			],
			"name": "checkmin",
			"outputs": [
				{
					"internalType": "int256",
					"name": "",
					"type": "int256"
				}
			],
			"stateMutability": "pure",
			"type": "function"
		}
	]
}