{
	"data": {
		"bytecode": {
			"linkReferences": {},
			"object": "6080604052670de0b6b3a76400005f553480156019575f80fd5b506102af806100275f395ff3fe608060405234801561000f575f80fd5b506004361061003f575f3560e01c80632d0d82dd146100435780637ebeb19c1461005f57806385be3e621461007d575b5f80fd5b61005d6004803603810190610058919061015b565b61009b565b005b6100676100a5565b6040516100749190610195565b60405180910390f35b6100856100e4565b6040516100929190610195565b60405180910390f35b8060018190555050565b5f8060015460645f5461013a6100bb91906101db565b6100c59190610249565b60026100d191906101db565b6100db91906101db565b90508091505090565b5f8060015460015460645f5461013a6100fd91906101db565b6101079190610249565b61011191906101db565b61011b91906101db565b90508091505090565b5f80fd5b5f819050919050565b61013a81610128565b8114610144575f80fd5b50565b5f8135905061015581610131565b92915050565b5f602082840312156101705761016f610124565b5b5f61017d84828501610147565b91505092915050565b61018f81610128565b82525050565b5f6020820190506101a85f830184610186565b92915050565b7f4e487b71000000000000000000000000000000000000000000000000000000005f52601160045260245ffd5b5f6101e582610128565b91506101f083610128565b92508282026101fe81610128565b91508282048414831517610215576102146101ae565b5b5092915050565b7f4e487b71000000000000000000000000000000000000000000000000000000005f52601260045260245ffd5b5f61025382610128565b915061025e83610128565b92508261026e5761026d61021c565b5b82820490509291505056fea264697066735822122095fc72f8b134fcbab7e7a100abf4a1dca60772819241f8d82b5d09b64299662064736f6c634300081a0033",
			"opcodes": "PUSH1 0x80 PUSH1 0x40 MSTORE PUSH8 0xDE0B6B3A7640000 PUSH0 SSTORE CALLVALUE DUP1 ISZERO PUSH1 0x19 JUMPI PUSH0 DUP1 REVERT JUMPDEST POP PUSH2 0x2AF DUP1 PUSH2 0x27 PUSH0 CODECOPY PUSH0 RETURN INVALID PUSH1 0x80 PUSH1 0x40 MSTORE CALLVALUE DUP1 ISZERO PUSH2 0xF JUMPI PUSH0 DUP1 REVERT JUMPDEST POP PUSH1 0x4 CALLDATASIZE LT PUSH2 0x3F JUMPI PUSH0 CALLDATALOAD PUSH1 0xE0 SHR DUP1 PUSH4 0x2D0D82DD EQ PUSH2 0x43 JUMPI DUP1 PUSH4 0x7EBEB19C EQ PUSH2 0x5F JUMPI DUP1 PUSH4 0x85BE3E62 EQ PUSH2 0x7D JUMPI JUMPDEST PUSH0 DUP1 REVERT JUMPDEST PUSH2 0x5D PUSH1 0x4 DUP1 CALLDATASIZE SUB DUP2 ADD SWAP1 PUSH2 0x58 SWAP2 SWAP1 PUSH2 0x15B JUMP JUMPDEST PUSH2 0x9B JUMP JUMPDEST STOP JUMPDEST PUSH2 0x67 PUSH2 0xA5 JUMP JUMPDEST PUSH1 0x40 MLOAD PUSH2 0x74 SWAP2 SWAP1 PUSH2 0x195 JUMP JUMPDEST PUSH1 0x40 MLOAD DUP1 SWAP2 SUB SWAP1 RETURN JUMPDEST PUSH2 0x85 PUSH2 0xE4 JUMP JUMPDEST PUSH1 0x40 MLOAD PUSH2 0x92 SWAP2 SWAP1 PUSH2 0x195 JUMP JUMPDEST PUSH1 0x40 MLOAD DUP1 SWAP2 SUB SWAP1 RETURN JUMPDEST DUP1 PUSH1 0x1 DUP2 SWAP1 SSTORE POP POP JUMP JUMPDEST PUSH0 DUP1 PUSH1 0x1 SLOAD PUSH1 0x64 PUSH0 SLOAD PUSH2 0x13A PUSH2 0xBB SWAP2 SWAP1 PUSH2 0x1DB JUMP JUMPDEST PUSH2 0xC5 SWAP2 SWAP1 PUSH2 0x249 JUMP JUMPDEST PUSH1 0x2 PUSH2 0xD1 SWAP2 SWAP1 PUSH2 0x1DB JUMP JUMPDEST PUSH2 0xDB SWAP2 SWAP1 PUSH2 0x1DB JUMP JUMPDEST SWAP1 POP DUP1 SWAP2 POP POP SWAP1 JUMP JUMPDEST PUSH0 DUP1 PUSH1 0x1 SLOAD PUSH1 0x1 SLOAD PUSH1 0x64 PUSH0 SLOAD PUSH2 0x13A PUSH2 0xFD SWAP2 SWAP1 PUSH2 0x1DB JUMP JUMPDEST PUSH2 0x107 SWAP2 SWAP1 PUSH2 0x249 JUMP JUMPDEST PUSH2 0x111 SWAP2 SWAP1 PUSH2 0x1DB JUMP JUMPDEST PUSH2 0x11B SWAP2 SWAP1 PUSH2 0x1DB JUMP JUMPDEST SWAP1 POP DUP1 SWAP2 POP POP SWAP1 JUMP JUMPDEST PUSH0 DUP1 REVERT JUMPDEST PUSH0 DUP2 SWAP1 POP SWAP2 SWAP1 POP JUMP JUMPDEST PUSH2 0x13A DUP2 PUSH2 0x128 JUMP JUMPDEST DUP2 EQ PUSH2 0x144 JUMPI PUSH0 DUP1 REVERT JUMPDEST POP JUMP JUMPDEST PUSH0 DUP2 CALLDATALOAD SWAP1 POP PUSH2 0x155 DUP2 PUSH2 0x131 JUMP JUMPDEST SWAP3 SWAP2 POP POP JUMP JUMPDEST PUSH0 PUSH1 0x20 DUP3 DUP5 SUB SLT ISZERO PUSH2 0x170 JUMPI PUSH2 0x16F PUSH2 0x124 JUMP JUMPDEST JUMPDEST PUSH0 PUSH2 0x17D DUP5 DUP3 DUP6 ADD PUSH2 0x147 JUMP JUMPDEST SWAP2 POP POP SWAP3 SWAP2 POP POP JUMP JUMPDEST PUSH2 0x18F DUP2 PUSH2 0x128 JUMP JUMPDEST DUP3 MSTORE POP POP JUMP JUMPDEST PUSH0 PUSH1 0x20 DUP3 ADD SWAP1 POP PUSH2 0x1A8 PUSH0 DUP4 ADD DUP5 PUSH2 0x186 JUMP JUMPDEST SWAP3 SWAP2 POP POP JUMP JUMPDEST PUSH32 0x4E487B7100000000000000000000000000000000000000000000000000000000 PUSH0 MSTORE PUSH1 0x11 PUSH1 0x4 MSTORE PUSH1 0x24 PUSH0 REVERT JUMPDEST PUSH0 PUSH2 0x1E5 DUP3 PUSH2 0x128 JUMP JUMPDEST SWAP2 POP PUSH2 0x1F0 DUP4 PUSH2 0x128 JUMP JUMPDEST SWAP3 POP DUP3 DUP3 MUL PUSH2 0x1FE DUP2 PUSH2 0x128 JUMP JUMPDEST SWAP2 POP DUP3 DUP3 DIV DUP5 EQ DUP4 ISZERO OR PUSH2 0x215 JUMPI PUSH2 0x214 PUSH2 0x1AE JUMP JUMPDEST JUMPDEST POP SWAP3 SWAP2 POP POP JUMP JUMPDEST PUSH32 0x4E487B7100000000000000000000000000000000000000000000000000000000 PUSH0 MSTORE PUSH1 0x12 PUSH1 0x4 MSTORE PUSH1 0x24 PUSH0 REVERT JUMPDEST PUSH0 PUSH2 0x253 DUP3 PUSH2 0x128 JUMP JUMPDEST SWAP2 POP PUSH2 0x25E DUP4 PUSH2 0x128 JUMP JUMPDEST SWAP3 POP DUP3 PUSH2 0x26E JUMPI PUSH2 0x26D PUSH2 0x21C JUMP JUMPDEST JUMPDEST DUP3 DUP3 DIV SWAP1 POP SWAP3 SWAP2 POP POP JUMP INVALID LOG2 PUSH5 0x6970667358 0x22 SLT KECCAK256 SWAP6 0xFC PUSH19 0xF8B134FCBAB7E7A100ABF4A1DCA60772819241 0xF8 0xD8 0x2B TSTORE MULMOD 0xB6 TIMESTAMP SWAP10 PUSH7 0x2064736F6C6343 STOP ADDMOD BYTE STOP CALLER "
		},
		"gasEstimates": {
			"creation": {
				"codeDepositCost": "137400",
				"executionCost": "22286",
				"totalCost": "159686"
			},
			"external": {
				"getArea()": "infinite",
				"getPerimeter()": "infinite",
				"setInput(uint256)": "22493"
			}
		},
		"methodIdentifiers": {
			"getArea()": "85be3e62",
			"getPerimeter()": "7ebeb19c",
			"setInput(uint256)": "2d0d82dd"
		}
	},
	"abi": [
		{
			"inputs": [],
			"name": "getArea",
			"outputs": [
				{
					"internalType": "uint256",
					"name": "",
					"type": "uint256"
				}
			],
			"stateMutability": "view",
			"type": "function"
		},
		{
			"inputs": [],
			"name": "getPerimeter",
			"outputs": [
				{
					"internalType": "uint256",
					"name": "",
					"type": "uint256"
				}
			],
			"stateMutability": "view",
			"type": "function"
		},
		{
			"inputs": [
				{
					"internalType": "uint256",
					"name": "_radius",
					"type": "uint256"
				}
			],
			"name": "setInput",
			"outputs": [],
			"stateMutability": "nonpayable",
			"type": "function"
		}
	]
}