{
	"data": {
		"bytecode": {
			"linkReferences": {},
			"object": "6080604052670de0b6b3a76400005f553480156019575f80fd5b50610259806100275f395ff3fe608060405234801561000f575f80fd5b506004361061003f575f3560e01c80637ebeb19c146100435780637f7c5dcb1461006157806385be3e621461007d575b5f80fd5b61004b61009b565b60405161005891906100fd565b60405180910390f35b61007b60048036038101906100769190610144565b6100bd565b005b6100856100cf565b60405161009291906100fd565b60405180910390f35b5f6002546001546100ac91906101af565b60026100b891906101e2565b905090565b81600181905550806002819055505050565b5f6002546001546100e091906101e2565b905090565b5f819050919050565b6100f7816100e5565b82525050565b5f6020820190506101105f8301846100ee565b92915050565b5f80fd5b610123816100e5565b811461012d575f80fd5b50565b5f8135905061013e8161011a565b92915050565b5f806040838503121561015a57610159610116565b5b5f61016785828601610130565b925050602061017885828601610130565b9150509250929050565b7f4e487b71000000000000000000000000000000000000000000000000000000005f52601160045260245ffd5b5f6101b9826100e5565b91506101c4836100e5565b92508282019050808211156101dc576101db610182565b5b92915050565b5f6101ec826100e5565b91506101f7836100e5565b9250828202610205816100e5565b9150828204841483151761021c5761021b610182565b5b509291505056fea264697066735822122090a57424ad4d64605fe889cb168661fe9b8b9682fef90bd9342b726009cd059f64736f6c634300081a0033",
			"opcodes": "PUSH1 0x80 PUSH1 0x40 MSTORE PUSH8 0xDE0B6B3A7640000 PUSH0 SSTORE CALLVALUE DUP1 ISZERO PUSH1 0x19 JUMPI PUSH0 DUP1 REVERT JUMPDEST POP PUSH2 0x259 DUP1 PUSH2 0x27 PUSH0 CODECOPY PUSH0 RETURN INVALID PUSH1 0x80 PUSH1 0x40 MSTORE CALLVALUE DUP1 ISZERO PUSH2 0xF JUMPI PUSH0 DUP1 REVERT JUMPDEST POP PUSH1 0x4 CALLDATASIZE LT PUSH2 0x3F JUMPI PUSH0 CALLDATALOAD PUSH1 0xE0 SHR DUP1 PUSH4 0x7EBEB19C EQ PUSH2 0x43 JUMPI DUP1 PUSH4 0x7F7C5DCB EQ PUSH2 0x61 JUMPI DUP1 PUSH4 0x85BE3E62 EQ PUSH2 0x7D JUMPI JUMPDEST PUSH0 DUP1 REVERT JUMPDEST PUSH2 0x4B PUSH2 0x9B JUMP JUMPDEST PUSH1 0x40 MLOAD PUSH2 0x58 SWAP2 SWAP1 PUSH2 0xFD JUMP JUMPDEST PUSH1 0x40 MLOAD DUP1 SWAP2 SUB SWAP1 RETURN JUMPDEST PUSH2 0x7B PUSH1 0x4 DUP1 CALLDATASIZE SUB DUP2 ADD SWAP1 PUSH2 0x76 SWAP2 SWAP1 PUSH2 0x144 JUMP JUMPDEST PUSH2 0xBD JUMP JUMPDEST STOP JUMPDEST PUSH2 0x85 PUSH2 0xCF JUMP JUMPDEST PUSH1 0x40 MLOAD PUSH2 0x92 SWAP2 SWAP1 PUSH2 0xFD JUMP JUMPDEST PUSH1 0x40 MLOAD DUP1 SWAP2 SUB SWAP1 RETURN JUMPDEST PUSH0 PUSH1 0x2 SLOAD PUSH1 0x1 SLOAD PUSH2 0xAC SWAP2 SWAP1 PUSH2 0x1AF JUMP JUMPDEST PUSH1 0x2 PUSH2 0xB8 SWAP2 SWAP1 PUSH2 0x1E2 JUMP JUMPDEST SWAP1 POP SWAP1 JUMP JUMPDEST DUP2 PUSH1 0x1 DUP2 SWAP1 SSTORE POP DUP1 PUSH1 0x2 DUP2 SWAP1 SSTORE POP POP POP JUMP JUMPDEST PUSH0 PUSH1 0x2 SLOAD PUSH1 0x1 SLOAD PUSH2 0xE0 SWAP2 SWAP1 PUSH2 0x1E2 JUMP JUMPDEST SWAP1 POP SWAP1 JUMP JUMPDEST PUSH0 DUP2 SWAP1 POP SWAP2 SWAP1 POP JUMP JUMPDEST PUSH2 0xF7 DUP2 PUSH2 0xE5 JUMP JUMPDEST DUP3 MSTORE POP POP JUMP JUMPDEST PUSH0 PUSH1 0x20 DUP3 ADD SWAP1 POP PUSH2 0x110 PUSH0 DUP4 ADD DUP5 PUSH2 0xEE JUMP JUMPDEST SWAP3 SWAP2 POP POP JUMP JUMPDEST PUSH0 DUP1 REVERT JUMPDEST PUSH2 0x123 DUP2 PUSH2 0xE5 JUMP JUMPDEST DUP2 EQ PUSH2 0x12D JUMPI PUSH0 DUP1 REVERT JUMPDEST POP JUMP JUMPDEST PUSH0 DUP2 CALLDATALOAD SWAP1 POP PUSH2 0x13E DUP2 PUSH2 0x11A JUMP JUMPDEST SWAP3 SWAP2 POP POP JUMP JUMPDEST PUSH0 DUP1 PUSH1 0x40 DUP4 DUP6 SUB SLT ISZERO PUSH2 0x15A JUMPI PUSH2 0x159 PUSH2 0x116 JUMP JUMPDEST JUMPDEST PUSH0 PUSH2 0x167 DUP6 DUP3 DUP7 ADD PUSH2 0x130 JUMP JUMPDEST SWAP3 POP POP PUSH1 0x20 PUSH2 0x178 DUP6 DUP3 DUP7 ADD PUSH2 0x130 JUMP JUMPDEST SWAP2 POP POP SWAP3 POP SWAP3 SWAP1 POP JUMP JUMPDEST PUSH32 0x4E487B7100000000000000000000000000000000000000000000000000000000 PUSH0 MSTORE PUSH1 0x11 PUSH1 0x4 MSTORE PUSH1 0x24 PUSH0 REVERT JUMPDEST PUSH0 PUSH2 0x1B9 DUP3 PUSH2 0xE5 JUMP JUMPDEST SWAP2 POP PUSH2 0x1C4 DUP4 PUSH2 0xE5 JUMP JUMPDEST SWAP3 POP DUP3 DUP3 ADD SWAP1 POP DUP1 DUP3 GT ISZERO PUSH2 0x1DC JUMPI PUSH2 0x1DB PUSH2 0x182 JUMP JUMPDEST JUMPDEST SWAP3 SWAP2 POP POP JUMP JUMPDEST PUSH0 PUSH2 0x1EC DUP3 PUSH2 0xE5 JUMP JUMPDEST SWAP2 POP PUSH2 0x1F7 DUP4 PUSH2 0xE5 JUMP JUMPDEST SWAP3 POP DUP3 DUP3 MUL PUSH2 0x205 DUP2 PUSH2 0xE5 JUMP JUMPDEST SWAP2 POP DUP3 DUP3 DIV DUP5 EQ DUP4 ISZERO OR PUSH2 0x21C JUMPI PUSH2 0x21B PUSH2 0x182 JUMP JUMPDEST JUMPDEST POP SWAP3 SWAP2 POP POP JUMP INVALID LOG2 PUSH5 0x6970667358 0x22 SLT KECCAK256 SWAP1 0xA5 PUSH21 0x24AD4D64605FE889CB168661FE9B8B9682FEF90BD9 CALLVALUE 0x2B PUSH19 0x6009CD059F64736F6C634300081A0033000000 "
		},
		"gasEstimates": {
			"creation": {
				"codeDepositCost": "120200",
				"executionCost": "22268",
				"totalCost": "142468"
			},
			"external": {
				"getArea()": "infinite",
				"getPerimeter()": "infinite",
				"setInput(uint256,uint256)": "infinite"
			}
		},
		"methodIdentifiers": {
			"getArea()": "85be3e62",
			"getPerimeter()": "7ebeb19c",
			"setInput(uint256,uint256)": "7f7c5dcb"
		}
	},
	"abi": [
		{
			"inputs": [],
			"name": "getArea",
			"outputs": [
				{
					"internalType": "uint256",
					"name": "",
					"type": "uint256"
				}
			],
			"stateMutability": "view",
			"type": "function"
		},
		{
			"inputs": [],
			"name": "getPerimeter",
			"outputs": [
				{
					"internalType": "uint256",
					"name": "",
					"type": "uint256"
				}
			],
			"stateMutability": "view",
			"type": "function"
		},
		{
			"inputs": [
				{
					"internalType": "uint256",
					"name": "_length",
					"type": "uint256"
				},
				{
					"internalType": "uint256",
					"name": "_breadth",
					"type": "uint256"
				}
			],
			"name": "setInput",
			"outputs": [],
			"stateMutability": "nonpayable",
			"type": "function"
		}
	]
}