{
	"data": {
		"bytecode": {
			"linkReferences": {},
			"object": "6080604052670de0b6b3a76400005f553480156019575f80fd5b50610517806100275f395ff3fe608060405234801561000f575f80fd5b506004361061003f575f3560e01c80637ebeb19c1461004357806385be3e6214610061578063bae7e9e51461007f575b5f80fd5b61004b61009b565b6040516100589190610319565b60405180910390f35b6100696100be565b6040516100769190610319565b60405180910390f35b61009960048036038101906100949190610360565b610142565b005b5f6003546002546001546100af91906103dd565b6100b991906103dd565b905090565b5f8060026003546002546001546100d591906103dd565b6100df91906103dd565b6100e9919061043d565b905061013c600354826100fc919061046d565b6002548361010a919061046d565b60015484610118919061046d565b8461012391906104a0565b61012d91906104a0565b61013791906104a0565b61015c565b91505090565b826001819055508160028190555080600381905550505050565b5f6001821161016d578190506102f1565b5f8290505f60019050700100000000000000000000000000000000821061019d57608082901c9150604081901b90505b6801000000000000000082106101bc57604082901c9150602081901b90505b64010000000082106101d757602082901c9150601081901b90505b6201000082106101f057601082901c9150600881901b90505b610100821061020857600882901c9150600481901b90505b6010821061021f57600482901c9150600281901b90505b6004821061022f57600181901b90505b600181600302901c9050600181858161024b5761024a610410565b5b048201901c9050600181858161026457610263610410565b5b048201901c9050600181858161027d5761027c610410565b5b048201901c9050600181858161029657610295610410565b5b048201901c905060018185816102af576102ae610410565b5b048201901c905060018185816102c8576102c7610410565b5b048201901c90506102ea8185816102e2576102e1610410565b5b0482116102f6565b8103925050505b919050565b5f8115159050919050565b5f819050919050565b61031381610301565b82525050565b5f60208201905061032c5f83018461030a565b92915050565b5f80fd5b61033f81610301565b8114610349575f80fd5b50565b5f8135905061035a81610336565b92915050565b5f805f6060848603121561037757610376610332565b5b5f6103848682870161034c565b93505060206103958682870161034c565b92505060406103a68682870161034c565b9150509250925092565b7f4e487b71000000000000000000000000000000000000000000000000000000005f52601160045260245ffd5b5f6103e782610301565b91506103f283610301565b925082820190508082111561040a576104096103b0565b5b92915050565b7f4e487b71000000000000000000000000000000000000000000000000000000005f52601260045260245ffd5b5f61044782610301565b915061045283610301565b92508261046257610461610410565b5b828204905092915050565b5f61047782610301565b915061048283610301565b925082820390508181111561049a576104996103b0565b5b92915050565b5f6104aa82610301565b91506104b583610301565b92508282026104c381610301565b915082820484148315176104da576104d96103b0565b5b509291505056fea2646970667358221220595497ec4a8242114a1bf0e70e551ac8789342eebefa338b3fd8749518eed9cf64736f6c634300081a0033",
			"opcodes": "PUSH1 0x80 PUSH1 0x40 MSTORE PUSH8 0xDE0B6B3A7640000 PUSH0 SSTORE CALLVALUE DUP1 ISZERO PUSH1 0x19 JUMPI PUSH0 DUP1 REVERT JUMPDEST POP PUSH2 0x517 DUP1 PUSH2 0x27 PUSH0 CODECOPY PUSH0 RETURN INVALID PUSH1 0x80 PUSH1 0x40 MSTORE CALLVALUE DUP1 ISZERO PUSH2 0xF JUMPI PUSH0 DUP1 REVERT JUMPDEST POP PUSH1 0x4 CALLDATASIZE LT PUSH2 0x3F JUMPI PUSH0 CALLDATALOAD PUSH1 0xE0 SHR DUP1 PUSH4 0x7EBEB19C EQ PUSH2 0x43 JUMPI DUP1 PUSH4 0x85BE3E62 EQ PUSH2 0x61 JUMPI DUP1 PUSH4 0xBAE7E9E5 EQ PUSH2 0x7F JUMPI JUMPDEST PUSH0 DUP1 REVERT JUMPDEST PUSH2 0x4B PUSH2 0x9B JUMP JUMPDEST PUSH1 0x40 MLOAD PUSH2 0x58 SWAP2 SWAP1 PUSH2 0x319 JUMP JUMPDEST PUSH1 0x40 MLOAD DUP1 SWAP2 SUB SWAP1 RETURN JUMPDEST PUSH2 0x69 PUSH2 0xBE JUMP JUMPDEST PUSH1 0x40 MLOAD PUSH2 0x76 SWAP2 SWAP1 PUSH2 0x319 JUMP JUMPDEST PUSH1 0x40 MLOAD DUP1 SWAP2 SUB SWAP1 RETURN JUMPDEST PUSH2 0x99 PUSH1 0x4 DUP1 CALLDATASIZE SUB DUP2 ADD SWAP1 PUSH2 0x94 SWAP2 SWAP1 PUSH2 0x360 JUMP JUMPDEST PUSH2 0x142 JUMP JUMPDEST STOP JUMPDEST PUSH0 PUSH1 0x3 SLOAD PUSH1 0x2 SLOAD PUSH1 0x1 SLOAD PUSH2 0xAF SWAP2 SWAP1 PUSH2 0x3DD JUMP JUMPDEST PUSH2 0xB9 SWAP2 SWAP1 PUSH2 0x3DD JUMP JUMPDEST SWAP1 POP SWAP1 JUMP JUMPDEST PUSH0 DUP1 PUSH1 0x2 PUSH1 0x3 SLOAD PUSH1 0x2 SLOAD PUSH1 0x1 SLOAD PUSH2 0xD5 SWAP2 SWAP1 PUSH2 0x3DD JUMP JUMPDEST PUSH2 0xDF SWAP2 SWAP1 PUSH2 0x3DD JUMP JUMPDEST PUSH2 0xE9 SWAP2 SWAP1 PUSH2 0x43D JUMP JUMPDEST SWAP1 POP PUSH2 0x13C PUSH1 0x3 SLOAD DUP3 PUSH2 0xFC SWAP2 SWAP1 PUSH2 0x46D JUMP JUMPDEST PUSH1 0x2 SLOAD DUP4 PUSH2 0x10A SWAP2 SWAP1 PUSH2 0x46D JUMP JUMPDEST PUSH1 0x1 SLOAD DUP5 PUSH2 0x118 SWAP2 SWAP1 PUSH2 0x46D JUMP JUMPDEST DUP5 PUSH2 0x123 SWAP2 SWAP1 PUSH2 0x4A0 JUMP JUMPDEST PUSH2 0x12D SWAP2 SWAP1 PUSH2 0x4A0 JUMP JUMPDEST PUSH2 0x137 SWAP2 SWAP1 PUSH2 0x4A0 JUMP JUMPDEST PUSH2 0x15C JUMP JUMPDEST SWAP2 POP POP SWAP1 JUMP JUMPDEST DUP3 PUSH1 0x1 DUP2 SWAP1 SSTORE POP DUP2 PUSH1 0x2 DUP2 SWAP1 SSTORE POP DUP1 PUSH1 0x3 DUP2 SWAP1 SSTORE POP POP POP POP JUMP JUMPDEST PUSH0 PUSH1 0x1 DUP3 GT PUSH2 0x16D JUMPI DUP2 SWAP1 POP PUSH2 0x2F1 JUMP JUMPDEST PUSH0 DUP3 SWAP1 POP PUSH0 PUSH1 0x1 SWAP1 POP PUSH17 0x100000000000000000000000000000000 DUP3 LT PUSH2 0x19D JUMPI PUSH1 0x80 DUP3 SWAP1 SHR SWAP2 POP PUSH1 0x40 DUP2 SWAP1 SHL SWAP1 POP JUMPDEST PUSH9 0x10000000000000000 DUP3 LT PUSH2 0x1BC JUMPI PUSH1 0x40 DUP3 SWAP1 SHR SWAP2 POP PUSH1 0x20 DUP2 SWAP1 SHL SWAP1 POP JUMPDEST PUSH5 0x100000000 DUP3 LT PUSH2 0x1D7 JUMPI PUSH1 0x20 DUP3 SWAP1 SHR SWAP2 POP PUSH1 0x10 DUP2 SWAP1 SHL SWAP1 POP JUMPDEST PUSH3 0x10000 DUP3 LT PUSH2 0x1F0 JUMPI PUSH1 0x10 DUP3 SWAP1 SHR SWAP2 POP PUSH1 0x8 DUP2 SWAP1 SHL SWAP1 POP JUMPDEST PUSH2 0x100 DUP3 LT PUSH2 0x208 JUMPI PUSH1 0x8 DUP3 SWAP1 SHR SWAP2 POP PUSH1 0x4 DUP2 SWAP1 SHL SWAP1 POP JUMPDEST PUSH1 0x10 DUP3 LT PUSH2 0x21F JUMPI PUSH1 0x4 DUP3 SWAP1 SHR SWAP2 POP PUSH1 0x2 DUP2 SWAP1 SHL SWAP1 POP JUMPDEST PUSH1 0x4 DUP3 LT PUSH2 0x22F JUMPI PUSH1 0x1 DUP2 SWAP1 SHL SWAP1 POP JUMPDEST PUSH1 0x1 DUP2 PUSH1 0x3 MUL SWAP1 SHR SWAP1 POP PUSH1 0x1 DUP2 DUP6 DUP2 PUSH2 0x24B JUMPI PUSH2 0x24A PUSH2 0x410 JUMP JUMPDEST JUMPDEST DIV DUP3 ADD SWAP1 SHR SWAP1 POP PUSH1 0x1 DUP2 DUP6 DUP2 PUSH2 0x264 JUMPI PUSH2 0x263 PUSH2 0x410 JUMP JUMPDEST JUMPDEST DIV DUP3 ADD SWAP1 SHR SWAP1 POP PUSH1 0x1 DUP2 DUP6 DUP2 PUSH2 0x27D JUMPI PUSH2 0x27C PUSH2 0x410 JUMP JUMPDEST JUMPDEST DIV DUP3 ADD SWAP1 SHR SWAP1 POP PUSH1 0x1 DUP2 DUP6 DUP2 PUSH2 0x296 JUMPI PUSH2 0x295 PUSH2 0x410 JUMP JUMPDEST JUMPDEST DIV DUP3 ADD SWAP1 SHR SWAP1 POP PUSH1 0x1 DUP2 DUP6 DUP2 PUSH2 0x2AF JUMPI PUSH2 0x2AE PUSH2 0x410 JUMP JUMPDEST JUMPDEST DIV DUP3 ADD SWAP1 SHR SWAP1 POP PUSH1 0x1 DUP2 DUP6 DUP2 PUSH2 0x2C8 JUMPI PUSH2 0x2C7 PUSH2 0x410 JUMP JUMPDEST JUMPDEST DIV DUP3 ADD SWAP1 SHR SWAP1 POP PUSH2 0x2EA DUP2 DUP6 DUP2 PUSH2 0x2E2 JUMPI PUSH2 0x2E1 PUSH2 0x410 JUMP JUMPDEST JUMPDEST DIV DUP3 GT PUSH2 0x2F6 JUMP JUMPDEST DUP2 SUB SWAP3 POP POP POP JUMPDEST SWAP2 SWAP1 POP JUMP JUMPDEST PUSH0 DUP2 ISZERO ISZERO SWAP1 POP SWAP2 SWAP1 POP JUMP JUMPDEST PUSH0 DUP2 SWAP1 POP SWAP2 SWAP1 POP JUMP JUMPDEST PUSH2 0x313 DUP2 PUSH2 0x301 JUMP JUMPDEST DUP3 MSTORE POP POP JUMP JUMPDEST PUSH0 PUSH1 0x20 DUP3 ADD SWAP1 POP PUSH2 0x32C PUSH0 DUP4 ADD DUP5 PUSH2 0x30A JUMP JUMPDEST SWAP3 SWAP2 POP POP JUMP JUMPDEST PUSH0 DUP1 REVERT JUMPDEST PUSH2 0x33F DUP2 PUSH2 0x301 JUMP JUMPDEST DUP2 EQ PUSH2 0x349 JUMPI PUSH0 DUP1 REVERT JUMPDEST POP JUMP JUMPDEST PUSH0 DUP2 CALLDATALOAD SWAP1 POP PUSH2 0x35A DUP2 PUSH2 0x336 JUMP JUMPDEST SWAP3 SWAP2 POP POP JUMP JUMPDEST PUSH0 DUP1 PUSH0 PUSH1 0x60 DUP5 DUP7 SUB SLT ISZERO PUSH2 0x377 JUMPI PUSH2 0x376 PUSH2 0x332 JUMP JUMPDEST JUMPDEST PUSH0 PUSH2 0x384 DUP7 DUP3 DUP8 ADD PUSH2 0x34C JUMP JUMPDEST SWAP4 POP POP PUSH1 0x20 PUSH2 0x395 DUP7 DUP3 DUP8 ADD PUSH2 0x34C JUMP JUMPDEST SWAP3 POP POP PUSH1 0x40 PUSH2 0x3A6 DUP7 DUP3 DUP8 ADD PUSH2 0x34C JUMP JUMPDEST SWAP2 POP POP SWAP3 POP SWAP3 POP SWAP3 JUMP JUMPDEST PUSH32 0x4E487B7100000000000000000000000000000000000000000000000000000000 PUSH0 MSTORE PUSH1 0x11 PUSH1 0x4 MSTORE PUSH1 0x24 PUSH0 REVERT JUMPDEST PUSH0 PUSH2 0x3E7 DUP3 PUSH2 0x301 JUMP JUMPDEST SWAP2 POP PUSH2 0x3F2 DUP4 PUSH2 0x301 JUMP JUMPDEST SWAP3 POP DUP3 DUP3 ADD SWAP1 POP DUP1 DUP3 GT ISZERO PUSH2 0x40A JUMPI PUSH2 0x409 PUSH2 0x3B0 JUMP JUMPDEST JUMPDEST SWAP3 SWAP2 POP POP JUMP JUMPDEST PUSH32 0x4E487B7100000000000000000000000000000000000000000000000000000000 PUSH0 MSTORE PUSH1 0x12 PUSH1 0x4 MSTORE PUSH1 0x24 PUSH0 REVERT JUMPDEST PUSH0 PUSH2 0x447 DUP3 PUSH2 0x301 JUMP JUMPDEST SWAP2 POP PUSH2 0x452 DUP4 PUSH2 0x301 JUMP JUMPDEST SWAP3 POP DUP3 PUSH2 0x462 JUMPI PUSH2 0x461 PUSH2 0x410 JUMP JUMPDEST JUMPDEST DUP3 DUP3 DIV SWAP1 POP SWAP3 SWAP2 POP POP JUMP JUMPDEST PUSH0 PUSH2 0x477 DUP3 PUSH2 0x301 JUMP JUMPDEST SWAP2 POP PUSH2 0x482 DUP4 PUSH2 0x301 JUMP JUMPDEST SWAP3 POP DUP3 DUP3 SUB SWAP1 POP DUP2 DUP2 GT ISZERO PUSH2 0x49A JUMPI PUSH2 0x499 PUSH2 0x3B0 JUMP JUMPDEST JUMPDEST SWAP3 SWAP2 POP POP JUMP JUMPDEST PUSH0 PUSH2 0x4AA DUP3 PUSH2 0x301 JUMP JUMPDEST SWAP2 POP PUSH2 0x4B5 DUP4 PUSH2 0x301 JUMP JUMPDEST SWAP3 POP DUP3 DUP3 MUL PUSH2 0x4C3 DUP2 PUSH2 0x301 JUMP JUMPDEST SWAP2 POP DUP3 DUP3 DIV DUP5 EQ DUP4 ISZERO OR PUSH2 0x4DA JUMPI PUSH2 0x4D9 PUSH2 0x3B0 JUMP JUMPDEST JUMPDEST POP SWAP3 SWAP2 POP POP JUMP INVALID LOG2 PUSH5 0x6970667358 0x22 SLT KECCAK256 MSIZE SLOAD SWAP8 0xEC BLOBBASEFEE DUP3 TIMESTAMP GT BLOBBASEFEE SHL CREATE 0xE7 0xE SSTORE BYTE 0xC8 PUSH25 0x9342EEBEFA338B3FD8749518EED9CF64736F6C634300081A00 CALLER "
		},
		"gasEstimates": {
			"creation": {
				"codeDepositCost": "260600",
				"executionCost": "22403",
				"totalCost": "283003"
			},
			"external": {
				"getArea()": "infinite",
				"getPerimeter()": "infinite",
				"setInput(uint256,uint256,uint256)": "infinite"
			}
		},
		"methodIdentifiers": {
			"getArea()": "85be3e62",
			"getPerimeter()": "7ebeb19c",
			"setInput(uint256,uint256,uint256)": "bae7e9e5"
		}
	},
	"abi": [
		{
			"inputs": [],
			"name": "getArea",
			"outputs": [
				{
					"internalType": "uint256",
					"name": "",
					"type": "uint256"
				}
			],
			"stateMutability": "view",
			"type": "function"
		},
		{
			"inputs": [],
			"name": "getPerimeter",
			"outputs": [
				{
					"internalType": "uint256",
					"name": "",
					"type": "uint256"
				}
			],
			"stateMutability": "view",
			"type": "function"
		},
		{
			"inputs": [
				{
					"internalType": "uint256",
					"name": "_s1",
					"type": "uint256"
				},
				{
					"internalType": "uint256",
					"name": "_s2",
					"type": "uint256"
				},
				{
					"internalType": "uint256",
					"name": "_s3",
					"type": "uint256"
				}
			],
			"name": "setInput",
			"outputs": [],
			"stateMutability": "nonpayable",
			"type": "function"
		}
	]
}