{
	"Day02/d2p5.sol": {
		"swap": {
			"abi": [
				{
					"inputs": [],
					"name": "getA",
					"outputs": [
						{
							"internalType": "int256",
							"name": "",
							"type": "int256"
						}
					],
					"stateMutability": "view",
					"type": "function"
				},
				{
					"inputs": [],
					"name": "getB",
					"outputs": [
						{
							"internalType": "int256",
							"name": "",
							"type": "int256"
						}
					],
					"stateMutability": "view",
					"type": "function"
				},
				{
					"inputs": [
						{
							"internalType": "int256",
							"name": "x",
							"type": "int256"
						},
						{
							"internalType": "int256",
							"name": "y",
							"type": "int256"
						}
					],
					"name": "input",
					"outputs": [],
					"stateMutability": "nonpayable",
					"type": "function"
				},
				{
					"inputs": [],
					"name": "swapNoThird",
					"outputs": [],
					"stateMutability": "nonpayable",
					"type": "function"
				},
				{
					"inputs": [],
					"name": "swapUsingThird",
					"outputs": [],
					"stateMutability": "nonpayable",
					"type": "function"
				}
			],
			"devdoc": {
				"kind": "dev",
				"methods": {},
				"version": 1
			},
			"evm": {
				"assembly": "    /* \"Day02/d2p5.sol\":68:583  contract swap {... */\n  mstore(0x40, 0x80)\n    /* \"Day02/d2p5.sol\":100:101  0 */\n  0x00\n    /* \"Day02/d2p5.sol\":91:101  int256 a=0 */\n  dup1\n  sstore\n    /* \"Day02/d2p5.sol\":117:118  0 */\n  0x00\n    /* \"Day02/d2p5.sol\":108:118  int256 b=0 */\n  0x01\n  sstore\n    /* \"Day02/d2p5.sol\":68:583  contract swap {... */\n  callvalue\n  dup1\n  iszero\n  tag_1\n  jumpi\n  0x00\n  dup1\n  revert\ntag_1:\n  pop\n  dataSize(sub_0)\n  dup1\n  dataOffset(sub_0)\n  0x00\n  codecopy\n  0x00\n  return\nstop\n\nsub_0: assembly {\n        /* \"Day02/d2p5.sol\":68:583  contract swap {... */\n      mstore(0x40, 0x80)\n      callvalue\n      dup1\n      iszero\n      tag_1\n      jumpi\n      0x00\n      dup1\n      revert\n    tag_1:\n      pop\n      jumpi(tag_2, lt(calldatasize, 0x04))\n      shr(0xe0, calldataload(0x00))\n      dup1\n      0x528a337c\n      eq\n      tag_3\n      jumpi\n      dup1\n      0xa1c51915\n      eq\n      tag_4\n      jumpi\n      dup1\n      0xba834742\n      eq\n      tag_5\n      jumpi\n      dup1\n      0xd46300fd\n      eq\n      tag_6\n      jumpi\n      dup1\n      0xea465eba\n      eq\n      tag_7\n      jumpi\n    tag_2:\n      0x00\n      dup1\n      revert\n        /* \"Day02/d2p5.sol\":213:320  function swapUsingThird() public{... */\n    tag_3:\n      tag_8\n      tag_9\n      jump\t// in\n    tag_8:\n      stop\n        /* \"Day02/d2p5.sol\":508:579  function getB() public view returns (int256){... */\n    tag_4:\n      tag_10\n      tag_11\n      jump\t// in\n    tag_10:\n      mload(0x40)\n      tag_12\n      swap2\n      swap1\n      tag_13\n      jump\t// in\n    tag_12:\n      mload(0x40)\n      dup1\n      swap2\n      sub\n      swap1\n      return\n        /* \"Day02/d2p5.sol\":125:207  function input(int256 x, int256 y) public {... */\n    tag_5:\n      tag_14\n      0x04\n      dup1\n      calldatasize\n      sub\n      dup2\n      add\n      swap1\n      tag_15\n      swap2\n      swap1\n      tag_16\n      jump\t// in\n    tag_15:\n      tag_17\n      jump\t// in\n    tag_14:\n      stop\n        /* \"Day02/d2p5.sol\":428:499  function getA() public view returns (int256){... */\n    tag_6:\n      tag_18\n      tag_19\n      jump\t// in\n    tag_18:\n      mload(0x40)\n      tag_20\n      swap2\n      swap1\n      tag_13\n      jump\t// in\n    tag_20:\n      mload(0x40)\n      dup1\n      swap2\n      sub\n      swap1\n      return\n        /* \"Day02/d2p5.sol\":328:420  function swapNoThird() public {... */\n    tag_7:\n      tag_21\n      tag_22\n      jump\t// in\n    tag_21:\n      stop\n        /* \"Day02/d2p5.sol\":213:320  function swapUsingThird() public{... */\n    tag_9:\n        /* \"Day02/d2p5.sol\":256:264  int256 c */\n      0x00\n        /* \"Day02/d2p5.sol\":279:280  a */\n      dup1\n      sload\n        /* \"Day02/d2p5.sol\":275:280  c = a */\n      swap1\n      pop\n        /* \"Day02/d2p5.sol\":295:296  b */\n      sload(0x01)\n        /* \"Day02/d2p5.sol\":291:292  a */\n      0x00\n        /* \"Day02/d2p5.sol\":291:296  a = b */\n      dup2\n      swap1\n      sstore\n      pop\n        /* \"Day02/d2p5.sol\":311:312  c */\n      dup1\n        /* \"Day02/d2p5.sol\":307:308  b */\n      0x01\n        /* \"Day02/d2p5.sol\":307:312  b = c */\n      dup2\n      swap1\n      sstore\n      pop\n        /* \"Day02/d2p5.sol\":245:320  {... */\n      pop\n        /* \"Day02/d2p5.sol\":213:320  function swapUsingThird() public{... */\n      jump\t// out\n        /* \"Day02/d2p5.sol\":508:579  function getB() public view returns (int256){... */\n    tag_11:\n        /* \"Day02/d2p5.sol\":545:551  int256 */\n      0x00\n        /* \"Day02/d2p5.sol\":570:571  b */\n      sload(0x01)\n        /* \"Day02/d2p5.sol\":563:571  return b */\n      swap1\n      pop\n        /* \"Day02/d2p5.sol\":508:579  function getB() public view returns (int256){... */\n      swap1\n      jump\t// out\n        /* \"Day02/d2p5.sol\":125:207  function input(int256 x, int256 y) public {... */\n    tag_17:\n        /* \"Day02/d2p5.sol\":182:183  x */\n      dup2\n        /* \"Day02/d2p5.sol\":178:179  a */\n      0x00\n        /* \"Day02/d2p5.sol\":178:183  a = x */\n      dup2\n      swap1\n      sstore\n      pop\n        /* \"Day02/d2p5.sol\":198:199  y */\n      dup1\n        /* \"Day02/d2p5.sol\":194:195  b */\n      0x01\n        /* \"Day02/d2p5.sol\":194:199  b = y */\n      dup2\n      swap1\n      sstore\n      pop\n        /* \"Day02/d2p5.sol\":125:207  function input(int256 x, int256 y) public {... */\n      pop\n      pop\n      jump\t// out\n        /* \"Day02/d2p5.sol\":428:499  function getA() public view returns (int256){... */\n    tag_19:\n        /* \"Day02/d2p5.sol\":465:471  int256 */\n      0x00\n        /* \"Day02/d2p5.sol\":490:491  a */\n      dup1\n      sload\n        /* \"Day02/d2p5.sol\":483:491  return a */\n      swap1\n      pop\n        /* \"Day02/d2p5.sol\":428:499  function getA() public view returns (int256){... */\n      swap1\n      jump\t// out\n        /* \"Day02/d2p5.sol\":328:420  function swapNoThird() public {... */\n    tag_22:\n        /* \"Day02/d2p5.sol\":375:376  b */\n      sload(0x01)\n        /* \"Day02/d2p5.sol\":373:374  a */\n      sload(0x00)\n        /* \"Day02/d2p5.sol\":373:376  a+b */\n      tag_28\n      swap2\n      swap1\n      tag_29\n      jump\t// in\n    tag_28:\n        /* \"Day02/d2p5.sol\":369:370  a */\n      0x00\n        /* \"Day02/d2p5.sol\":369:376  a = a+b */\n      dup2\n      swap1\n      sstore\n      pop\n        /* \"Day02/d2p5.sol\":393:394  b */\n      sload(0x01)\n        /* \"Day02/d2p5.sol\":391:392  a */\n      sload(0x00)\n        /* \"Day02/d2p5.sol\":391:394  a-b */\n      tag_30\n      swap2\n      swap1\n      tag_31\n      jump\t// in\n    tag_30:\n        /* \"Day02/d2p5.sol\":387:388  b */\n      0x01\n        /* \"Day02/d2p5.sol\":387:394  b = a-b */\n      dup2\n      swap1\n      sstore\n      pop\n        /* \"Day02/d2p5.sol\":411:412  b */\n      sload(0x01)\n        /* \"Day02/d2p5.sol\":409:410  a */\n      sload(0x00)\n        /* \"Day02/d2p5.sol\":409:412  a-b */\n      tag_32\n      swap2\n      swap1\n      tag_31\n      jump\t// in\n    tag_32:\n        /* \"Day02/d2p5.sol\":405:406  a */\n      0x00\n        /* \"Day02/d2p5.sol\":405:412  a = a-b */\n      dup2\n      swap1\n      sstore\n      pop\n        /* \"Day02/d2p5.sol\":328:420  function swapNoThird() public {... */\n      jump\t// out\n        /* \"#utility.yul\":7:83   */\n    tag_33:\n        /* \"#utility.yul\":43:50   */\n      0x00\n        /* \"#utility.yul\":72:77   */\n      dup2\n        /* \"#utility.yul\":61:77   */\n      swap1\n      pop\n        /* \"#utility.yul\":7:83   */\n      swap2\n      swap1\n      pop\n      jump\t// out\n        /* \"#utility.yul\":89:204   */\n    tag_34:\n        /* \"#utility.yul\":174:197   */\n      tag_44\n        /* \"#utility.yul\":191:196   */\n      dup2\n        /* \"#utility.yul\":174:197   */\n      tag_33\n      jump\t// in\n    tag_44:\n        /* \"#utility.yul\":169:172   */\n      dup3\n        /* \"#utility.yul\":162:198   */\n      mstore\n        /* \"#utility.yul\":89:204   */\n      pop\n      pop\n      jump\t// out\n        /* \"#utility.yul\":210:428   */\n    tag_13:\n        /* \"#utility.yul\":301:305   */\n      0x00\n        /* \"#utility.yul\":339:341   */\n      0x20\n        /* \"#utility.yul\":328:337   */\n      dup3\n        /* \"#utility.yul\":324:342   */\n      add\n        /* \"#utility.yul\":316:342   */\n      swap1\n      pop\n        /* \"#utility.yul\":352:421   */\n      tag_46\n        /* \"#utility.yul\":418:419   */\n      0x00\n        /* \"#utility.yul\":407:416   */\n      dup4\n        /* \"#utility.yul\":403:420   */\n      add\n        /* \"#utility.yul\":394:400   */\n      dup5\n        /* \"#utility.yul\":352:421   */\n      tag_34\n      jump\t// in\n    tag_46:\n        /* \"#utility.yul\":210:428   */\n      swap3\n      swap2\n      pop\n      pop\n      jump\t// out\n        /* \"#utility.yul\":515:632   */\n    tag_36:\n        /* \"#utility.yul\":624:625   */\n      0x00\n        /* \"#utility.yul\":621:622   */\n      dup1\n        /* \"#utility.yul\":614:626   */\n      revert\n        /* \"#utility.yul\":761:881   */\n    tag_38:\n        /* \"#utility.yul\":833:856   */\n      tag_51\n        /* \"#utility.yul\":850:855   */\n      dup2\n        /* \"#utility.yul\":833:856   */\n      tag_33\n      jump\t// in\n    tag_51:\n        /* \"#utility.yul\":826:831   */\n      dup2\n        /* \"#utility.yul\":823:857   */\n      eq\n        /* \"#utility.yul\":813:875   */\n      tag_52\n      jumpi\n        /* \"#utility.yul\":871:872   */\n      0x00\n        /* \"#utility.yul\":868:869   */\n      dup1\n        /* \"#utility.yul\":861:873   */\n      revert\n        /* \"#utility.yul\":813:875   */\n    tag_52:\n        /* \"#utility.yul\":761:881   */\n      pop\n      jump\t// out\n        /* \"#utility.yul\":887:1024   */\n    tag_39:\n        /* \"#utility.yul\":932:937   */\n      0x00\n        /* \"#utility.yul\":970:976   */\n      dup2\n        /* \"#utility.yul\":957:977   */\n      calldataload\n        /* \"#utility.yul\":948:977   */\n      swap1\n      pop\n        /* \"#utility.yul\":986:1018   */\n      tag_54\n        /* \"#utility.yul\":1012:1017   */\n      dup2\n        /* \"#utility.yul\":986:1018   */\n      tag_38\n      jump\t// in\n    tag_54:\n        /* \"#utility.yul\":887:1024   */\n      swap3\n      swap2\n      pop\n      pop\n      jump\t// out\n        /* \"#utility.yul\":1030:1500   */\n    tag_16:\n        /* \"#utility.yul\":1096:1102   */\n      0x00\n        /* \"#utility.yul\":1104:1110   */\n      dup1\n        /* \"#utility.yul\":1153:1155   */\n      0x40\n        /* \"#utility.yul\":1141:1150   */\n      dup4\n        /* \"#utility.yul\":1132:1139   */\n      dup6\n        /* \"#utility.yul\":1128:1151   */\n      sub\n        /* \"#utility.yul\":1124:1156   */\n      slt\n        /* \"#utility.yul\":1121:1240   */\n      iszero\n      tag_56\n      jumpi\n        /* \"#utility.yul\":1159:1238   */\n      tag_57\n      tag_36\n      jump\t// in\n    tag_57:\n        /* \"#utility.yul\":1121:1240   */\n    tag_56:\n        /* \"#utility.yul\":1279:1280   */\n      0x00\n        /* \"#utility.yul\":1304:1356   */\n      tag_58\n        /* \"#utility.yul\":1348:1355   */\n      dup6\n        /* \"#utility.yul\":1339:1345   */\n      dup3\n        /* \"#utility.yul\":1328:1337   */\n      dup7\n        /* \"#utility.yul\":1324:1346   */\n      add\n        /* \"#utility.yul\":1304:1356   */\n      tag_39\n      jump\t// in\n    tag_58:\n        /* \"#utility.yul\":1294:1356   */\n      swap3\n      pop\n        /* \"#utility.yul\":1250:1366   */\n      pop\n        /* \"#utility.yul\":1405:1407   */\n      0x20\n        /* \"#utility.yul\":1431:1483   */\n      tag_59\n        /* \"#utility.yul\":1475:1482   */\n      dup6\n        /* \"#utility.yul\":1466:1472   */\n      dup3\n        /* \"#utility.yul\":1455:1464   */\n      dup7\n        /* \"#utility.yul\":1451:1473   */\n      add\n        /* \"#utility.yul\":1431:1483   */\n      tag_39\n      jump\t// in\n    tag_59:\n        /* \"#utility.yul\":1421:1483   */\n      swap2\n      pop\n        /* \"#utility.yul\":1376:1493   */\n      pop\n        /* \"#utility.yul\":1030:1500   */\n      swap3\n      pop\n      swap3\n      swap1\n      pop\n      jump\t// out\n        /* \"#utility.yul\":1506:1686   */\n    tag_40:\n        /* \"#utility.yul\":1554:1631   */\n      0x4e487b7100000000000000000000000000000000000000000000000000000000\n        /* \"#utility.yul\":1551:1552   */\n      0x00\n        /* \"#utility.yul\":1544:1632   */\n      mstore\n        /* \"#utility.yul\":1651:1655   */\n      0x11\n        /* \"#utility.yul\":1648:1649   */\n      0x04\n        /* \"#utility.yul\":1641:1656   */\n      mstore\n        /* \"#utility.yul\":1675:1679   */\n      0x24\n        /* \"#utility.yul\":1672:1673   */\n      0x00\n        /* \"#utility.yul\":1665:1680   */\n      revert\n        /* \"#utility.yul\":1692:2067   */\n    tag_29:\n        /* \"#utility.yul\":1731:1734   */\n      0x00\n        /* \"#utility.yul\":1750:1769   */\n      tag_62\n        /* \"#utility.yul\":1767:1768   */\n      dup3\n        /* \"#utility.yul\":1750:1769   */\n      tag_33\n      jump\t// in\n    tag_62:\n        /* \"#utility.yul\":1745:1769   */\n      swap2\n      pop\n        /* \"#utility.yul\":1783:1802   */\n      tag_63\n        /* \"#utility.yul\":1800:1801   */\n      dup4\n        /* \"#utility.yul\":1783:1802   */\n      tag_33\n      jump\t// in\n    tag_63:\n        /* \"#utility.yul\":1778:1802   */\n      swap3\n      pop\n        /* \"#utility.yul\":1825:1826   */\n      dup3\n        /* \"#utility.yul\":1822:1823   */\n      dup3\n        /* \"#utility.yul\":1818:1827   */\n      add\n        /* \"#utility.yul\":1811:1827   */\n      swap1\n      pop\n        /* \"#utility.yul\":2023:2024   */\n      dup3\n        /* \"#utility.yul\":2018:2021   */\n      dup2\n        /* \"#utility.yul\":2014:2025   */\n      slt\n        /* \"#utility.yul\":2007:2026   */\n      iszero\n        /* \"#utility.yul\":2003:2004   */\n      0x00\n        /* \"#utility.yul\":2000:2001   */\n      dup4\n        /* \"#utility.yul\":1996:2005   */\n      slt\n        /* \"#utility.yul\":1992:2027   */\n      and\n        /* \"#utility.yul\":1975:1976   */\n      dup4\n        /* \"#utility.yul\":1970:1973   */\n      dup3\n        /* \"#utility.yul\":1966:1977   */\n      slt\n        /* \"#utility.yul\":1961:1962   */\n      0x00\n        /* \"#utility.yul\":1958:1959   */\n      dup5\n        /* \"#utility.yul\":1954:1963   */\n      slt\n        /* \"#utility.yul\":1947:1964   */\n      iszero\n        /* \"#utility.yul\":1943:1978   */\n      and\n        /* \"#utility.yul\":1927:2037   */\n      or\n        /* \"#utility.yul\":1924:2060   */\n      iszero\n      tag_64\n      jumpi\n        /* \"#utility.yul\":2040:2058   */\n      tag_65\n      tag_40\n      jump\t// in\n    tag_65:\n        /* \"#utility.yul\":1924:2060   */\n    tag_64:\n        /* \"#utility.yul\":1692:2067   */\n      swap3\n      swap2\n      pop\n      pop\n      jump\t// out\n        /* \"#utility.yul\":2073:2445   */\n    tag_31:\n        /* \"#utility.yul\":2112:2116   */\n      0x00\n        /* \"#utility.yul\":2132:2151   */\n      tag_67\n        /* \"#utility.yul\":2149:2150   */\n      dup3\n        /* \"#utility.yul\":2132:2151   */\n      tag_33\n      jump\t// in\n    tag_67:\n        /* \"#utility.yul\":2127:2151   */\n      swap2\n      pop\n        /* \"#utility.yul\":2165:2184   */\n      tag_68\n        /* \"#utility.yul\":2182:2183   */\n      dup4\n        /* \"#utility.yul\":2165:2184   */\n      tag_33\n      jump\t// in\n    tag_68:\n        /* \"#utility.yul\":2160:2184   */\n      swap3\n      pop\n        /* \"#utility.yul\":2208:2209   */\n      dup3\n        /* \"#utility.yul\":2205:2206   */\n      dup3\n        /* \"#utility.yul\":2201:2210   */\n      sub\n        /* \"#utility.yul\":2193:2210   */\n      swap1\n      pop\n        /* \"#utility.yul\":2402:2403   */\n      dup2\n        /* \"#utility.yul\":2396:2400   */\n      dup2\n        /* \"#utility.yul\":2392:2404   */\n      slt\n        /* \"#utility.yul\":2388:2389   */\n      0x00\n        /* \"#utility.yul\":2385:2386   */\n      dup5\n        /* \"#utility.yul\":2381:2390   */\n      slt\n        /* \"#utility.yul\":2377:2405   */\n      and\n        /* \"#utility.yul\":2360:2361   */\n      dup3\n        /* \"#utility.yul\":2354:2358   */\n      dup3\n        /* \"#utility.yul\":2350:2362   */\n      sgt\n        /* \"#utility.yul\":2345:2346   */\n      0x00\n        /* \"#utility.yul\":2342:2343   */\n      dup6\n        /* \"#utility.yul\":2338:2347   */\n      slt\n        /* \"#utility.yul\":2331:2348   */\n      iszero\n        /* \"#utility.yul\":2327:2363   */\n      and\n        /* \"#utility.yul\":2311:2415   */\n      or\n        /* \"#utility.yul\":2308:2438   */\n      iszero\n      tag_69\n      jumpi\n        /* \"#utility.yul\":2418:2436   */\n      tag_70\n      tag_40\n      jump\t// in\n    tag_70:\n        /* \"#utility.yul\":2308:2438   */\n    tag_69:\n        /* \"#utility.yul\":2073:2445   */\n      swap3\n      swap2\n      pop\n      pop\n      jump\t// out\n\n    auxdata: 0xa2646970667358221220e68d8ac45a04919d89a2649321336b70ed00534d01c5982ae840620aed39460d64736f6c634300081a0033\n}\n",
				"bytecode": {
					"linkReferences": {},
					"object": "60806040525f80555f6001553480156015575f80fd5b506102be806100235f395ff3fe608060405234801561000f575f80fd5b5060043610610055575f3560e01c8063528a337c14610059578063a1c5191514610063578063ba83474214610081578063d46300fd1461009d578063ea465eba146100bb575b5f80fd5b6100616100c5565b005b61006b6100dc565b6040516100789190610155565b60405180910390f35b61009b6004803603810190610096919061019c565b6100e5565b005b6100a56100f6565b6040516100b29190610155565b60405180910390f35b6100c36100fe565b005b5f805490506001545f819055508060018190555050565b5f600154905090565b815f81905550806001819055505050565b5f8054905090565b6001545f5461010d9190610207565b5f819055506001545f546101219190610248565b6001819055506001545f546101369190610248565b5f81905550565b5f819050919050565b61014f8161013d565b82525050565b5f6020820190506101685f830184610146565b92915050565b5f80fd5b61017b8161013d565b8114610185575f80fd5b50565b5f8135905061019681610172565b92915050565b5f80604083850312156101b2576101b161016e565b5b5f6101bf85828601610188565b92505060206101d085828601610188565b9150509250929050565b7f4e487b71000000000000000000000000000000000000000000000000000000005f52601160045260245ffd5b5f6102118261013d565b915061021c8361013d565b92508282019050828112155f8312168382125f841215161715610242576102416101da565b5b92915050565b5f6102528261013d565b915061025d8361013d565b925082820390508181125f8412168282135f851215161715610282576102816101da565b5b9291505056fea2646970667358221220e68d8ac45a04919d89a2649321336b70ed00534d01c5982ae840620aed39460d64736f6c634300081a0033",
					"opcodes": "PUSH1 0x80 PUSH1 0x40 MSTORE PUSH0 DUP1 SSTORE PUSH0 PUSH1 0x1 SSTORE CALLVALUE DUP1 ISZERO PUSH1 0x15 JUMPI PUSH0 DUP1 REVERT JUMPDEST POP PUSH2 0x2BE DUP1 PUSH2 0x23 PUSH0 CODECOPY PUSH0 RETURN INVALID PUSH1 0x80 PUSH1 0x40 MSTORE CALLVALUE DUP1 ISZERO PUSH2 0xF JUMPI PUSH0 DUP1 REVERT JUMPDEST POP PUSH1 0x4 CALLDATASIZE LT PUSH2 0x55 JUMPI PUSH0 CALLDATALOAD PUSH1 0xE0 SHR DUP1 PUSH4 0x528A337C EQ PUSH2 0x59 JUMPI DUP1 PUSH4 0xA1C51915 EQ PUSH2 0x63 JUMPI DUP1 PUSH4 0xBA834742 EQ PUSH2 0x81 JUMPI DUP1 PUSH4 0xD46300FD EQ PUSH2 0x9D JUMPI DUP1 PUSH4 0xEA465EBA EQ PUSH2 0xBB JUMPI JUMPDEST PUSH0 DUP1 REVERT JUMPDEST PUSH2 0x61 PUSH2 0xC5 JUMP JUMPDEST STOP JUMPDEST PUSH2 0x6B PUSH2 0xDC JUMP JUMPDEST PUSH1 0x40 MLOAD PUSH2 0x78 SWAP2 SWAP1 PUSH2 0x155 JUMP JUMPDEST PUSH1 0x40 MLOAD DUP1 SWAP2 SUB SWAP1 RETURN JUMPDEST PUSH2 0x9B PUSH1 0x4 DUP1 CALLDATASIZE SUB DUP2 ADD SWAP1 PUSH2 0x96 SWAP2 SWAP1 PUSH2 0x19C JUMP JUMPDEST PUSH2 0xE5 JUMP JUMPDEST STOP JUMPDEST PUSH2 0xA5 PUSH2 0xF6 JUMP JUMPDEST PUSH1 0x40 MLOAD PUSH2 0xB2 SWAP2 SWAP1 PUSH2 0x155 JUMP JUMPDEST PUSH1 0x40 MLOAD DUP1 SWAP2 SUB SWAP1 RETURN JUMPDEST PUSH2 0xC3 PUSH2 0xFE JUMP JUMPDEST STOP JUMPDEST PUSH0 DUP1 SLOAD SWAP1 POP PUSH1 0x1 SLOAD PUSH0 DUP2 SWAP1 SSTORE POP DUP1 PUSH1 0x1 DUP2 SWAP1 SSTORE POP POP JUMP JUMPDEST PUSH0 PUSH1 0x1 SLOAD SWAP1 POP SWAP1 JUMP JUMPDEST DUP2 PUSH0 DUP2 SWAP1 SSTORE POP DUP1 PUSH1 0x1 DUP2 SWAP1 SSTORE POP POP POP JUMP JUMPDEST PUSH0 DUP1 SLOAD SWAP1 POP SWAP1 JUMP JUMPDEST PUSH1 0x1 SLOAD PUSH0 SLOAD PUSH2 0x10D SWAP2 SWAP1 PUSH2 0x207 JUMP JUMPDEST PUSH0 DUP2 SWAP1 SSTORE POP PUSH1 0x1 SLOAD PUSH0 SLOAD PUSH2 0x121 SWAP2 SWAP1 PUSH2 0x248 JUMP JUMPDEST PUSH1 0x1 DUP2 SWAP1 SSTORE POP PUSH1 0x1 SLOAD PUSH0 SLOAD PUSH2 0x136 SWAP2 SWAP1 PUSH2 0x248 JUMP JUMPDEST PUSH0 DUP2 SWAP1 SSTORE POP JUMP JUMPDEST PUSH0 DUP2 SWAP1 POP SWAP2 SWAP1 POP JUMP JUMPDEST PUSH2 0x14F DUP2 PUSH2 0x13D JUMP JUMPDEST DUP3 MSTORE POP POP JUMP JUMPDEST PUSH0 PUSH1 0x20 DUP3 ADD SWAP1 POP PUSH2 0x168 PUSH0 DUP4 ADD DUP5 PUSH2 0x146 JUMP JUMPDEST SWAP3 SWAP2 POP POP JUMP JUMPDEST PUSH0 DUP1 REVERT JUMPDEST PUSH2 0x17B DUP2 PUSH2 0x13D JUMP JUMPDEST DUP2 EQ PUSH2 0x185 JUMPI PUSH0 DUP1 REVERT JUMPDEST POP JUMP JUMPDEST PUSH0 DUP2 CALLDATALOAD SWAP1 POP PUSH2 0x196 DUP2 PUSH2 0x172 JUMP JUMPDEST SWAP3 SWAP2 POP POP JUMP JUMPDEST PUSH0 DUP1 PUSH1 0x40 DUP4 DUP6 SUB SLT ISZERO PUSH2 0x1B2 JUMPI PUSH2 0x1B1 PUSH2 0x16E JUMP JUMPDEST JUMPDEST PUSH0 PUSH2 0x1BF DUP6 DUP3 DUP7 ADD PUSH2 0x188 JUMP JUMPDEST SWAP3 POP POP PUSH1 0x20 PUSH2 0x1D0 DUP6 DUP3 DUP7 ADD PUSH2 0x188 JUMP JUMPDEST SWAP2 POP POP SWAP3 POP SWAP3 SWAP1 POP JUMP JUMPDEST PUSH32 0x4E487B7100000000000000000000000000000000000000000000000000000000 PUSH0 MSTORE PUSH1 0x11 PUSH1 0x4 MSTORE PUSH1 0x24 PUSH0 REVERT JUMPDEST PUSH0 PUSH2 0x211 DUP3 PUSH2 0x13D JUMP JUMPDEST SWAP2 POP PUSH2 0x21C DUP4 PUSH2 0x13D JUMP JUMPDEST SWAP3 POP DUP3 DUP3 ADD SWAP1 POP DUP3 DUP2 SLT ISZERO PUSH0 DUP4 SLT AND DUP4 DUP3 SLT PUSH0 DUP5 SLT ISZERO AND OR ISZERO PUSH2 0x242 JUMPI PUSH2 0x241 PUSH2 0x1DA JUMP JUMPDEST JUMPDEST SWAP3 SWAP2 POP POP JUMP JUMPDEST PUSH0 PUSH2 0x252 DUP3 PUSH2 0x13D JUMP JUMPDEST SWAP2 POP PUSH2 0x25D DUP4 PUSH2 0x13D JUMP JUMPDEST SWAP3 POP DUP3 DUP3 SUB SWAP1 POP DUP2 DUP2 SLT PUSH0 DUP5 SLT AND DUP3 DUP3 SGT PUSH0 DUP6 SLT ISZERO AND OR ISZERO PUSH2 0x282 JUMPI PUSH2 0x281 PUSH2 0x1DA JUMP JUMPDEST JUMPDEST SWAP3 SWAP2 POP POP JUMP INVALID LOG2 PUSH5 0x6970667358 0x22 SLT KECCAK256 0xE6 DUP14 DUP11 0xC4 GAS DIV SWAP2 SWAP14 DUP10 LOG2 PUSH5 0x9321336B70 0xED STOP MSTORE8 0x4D ADD 0xC5 SWAP9 0x2A 0xE8 BLOCKHASH PUSH3 0xAED39 CHAINID 0xD PUSH5 0x736F6C6343 STOP ADDMOD BYTE STOP CALLER "
				},
				"gasEstimates": {
					"creation": {
						"codeDepositCost": "140400",
						"executionCost": "10191",
						"totalCost": "150591"
					},
					"external": {
						"getA()": "2476",
						"getB()": "2432",
						"input(int256,int256)": "infinite",
						"swapNoThird()": "infinite",
						"swapUsingThird()": "48560"
					}
				},
				"methodIdentifiers": {
					"getA()": "d46300fd",
					"getB()": "a1c51915",
					"input(int256,int256)": "ba834742",
					"swapNoThird()": "ea465eba",
					"swapUsingThird()": "528a337c"
				}
			},
			"storageLayout": {
				"storage": [
					{
						"astId": 4,
						"contract": "Day02/d2p5.sol:swap",
						"label": "a",
						"offset": 0,
						"slot": "0",
						"type": "t_int256"
					},
					{
						"astId": 7,
						"contract": "Day02/d2p5.sol:swap",
						"label": "b",
						"offset": 0,
						"slot": "1",
						"type": "t_int256"
					}
				],
				"types": {
					"t_int256": {
						"encoding": "inplace",
						"label": "int256",
						"numberOfBytes": "32"
					}
				}
			},
			"userdoc": {
				"kind": "user",
				"methods": {},
				"version": 1
			}
		}
	}
}