{
	"Day02/d2p3.sol": {
		"TemperatureConverter": {
			"abi": [
				{
					"inputs": [],
					"name": "celsius",
					"outputs": [
						{
							"internalType": "int256",
							"name": "",
							"type": "int256"
						}
					],
					"stateMutability": "view",
					"type": "function"
				},
				{
					"inputs": [],
					"name": "fahrenheit",
					"outputs": [
						{
							"internalType": "int256",
							"name": "",
							"type": "int256"
						}
					],
					"stateMutability": "view",
					"type": "function"
				},
				{
					"inputs": [],
					"name": "getFahrenheit",
					"outputs": [
						{
							"internalType": "int256",
							"name": "",
							"type": "int256"
						}
					],
					"stateMutability": "view",
					"type": "function"
				},
				{
					"inputs": [],
					"name": "scale",
					"outputs": [
						{
							"internalType": "int256",
							"name": "",
							"type": "int256"
						}
					],
					"stateMutability": "view",
					"type": "function"
				},
				{
					"inputs": [
						{
							"internalType": "int256",
							"name": "c",
							"type": "int256"
						}
					],
					"name": "setTemperature",
					"outputs": [],
					"stateMutability": "nonpayable",
					"type": "function"
				}
			],
			"devdoc": {
				"kind": "dev",
				"methods": {},
				"version": 1
			},
			"evm": {
				"assembly": "    /* \"Day02/d2p3.sol\":68:443  contract TemperatureConverter {... */\n  mstore(0x40, 0x80)\n    /* \"Day02/d2p3.sol\":129:135  10**18 */\n  0x0de0b6b3a7640000\n    /* \"Day02/d2p3.sol\":107:135  int256 public scale = 10**18 */\n  0x00\n  sstore\n    /* \"Day02/d2p3.sol\":68:443  contract TemperatureConverter {... */\n  callvalue\n  dup1\n  iszero\n  tag_1\n  jumpi\n  0x00\n  dup1\n  revert\ntag_1:\n  pop\n  dataSize(sub_0)\n  dup1\n  dataOffset(sub_0)\n  0x00\n  codecopy\n  0x00\n  return\nstop\n\nsub_0: assembly {\n        /* \"Day02/d2p3.sol\":68:443  contract TemperatureConverter {... */\n      mstore(0x40, 0x80)\n      callvalue\n      dup1\n      iszero\n      tag_1\n      jumpi\n      0x00\n      dup1\n      revert\n    tag_1:\n      pop\n      jumpi(tag_2, lt(calldatasize, 0x04))\n      shr(0xe0, calldataload(0x00))\n      dup1\n      0x17268452\n      eq\n      tag_3\n      jumpi\n      dup1\n      0x2e7e3de4\n      eq\n      tag_4\n      jumpi\n      dup1\n      0x5102d775\n      eq\n      tag_5\n      jumpi\n      dup1\n      0xa9422e7d\n      eq\n      tag_6\n      jumpi\n      dup1\n      0xf51e181a\n      eq\n      tag_7\n      jumpi\n    tag_2:\n      0x00\n      dup1\n      revert\n        /* \"Day02/d2p3.sol\":350:440  function getFahrenheit() public view returns (int256) {... */\n    tag_3:\n      tag_8\n      tag_9\n      jump\t// in\n    tag_8:\n      mload(0x40)\n      tag_10\n      swap2\n      swap1\n      tag_11\n      jump\t// in\n    tag_10:\n      mload(0x40)\n      dup1\n      swap2\n      sub\n      swap1\n      return\n        /* \"Day02/d2p3.sol\":142:163  int256 public celsius */\n    tag_4:\n      tag_12\n      tag_13\n      jump\t// in\n    tag_12:\n      mload(0x40)\n      tag_14\n      swap2\n      swap1\n      tag_11\n      jump\t// in\n    tag_14:\n      mload(0x40)\n      dup1\n      swap2\n      sub\n      swap1\n      return\n        /* \"Day02/d2p3.sol\":170:194  int256 public fahrenheit */\n    tag_5:\n      tag_15\n      tag_16\n      jump\t// in\n    tag_15:\n      mload(0x40)\n      tag_17\n      swap2\n      swap1\n      tag_11\n      jump\t// in\n    tag_17:\n      mload(0x40)\n      dup1\n      swap2\n      sub\n      swap1\n      return\n        /* \"Day02/d2p3.sol\":203:342  function setTemperature(int256 c) public {... */\n    tag_6:\n      tag_18\n      0x04\n      dup1\n      calldatasize\n      sub\n      dup2\n      add\n      swap1\n      tag_19\n      swap2\n      swap1\n      tag_20\n      jump\t// in\n    tag_19:\n      tag_21\n      jump\t// in\n    tag_18:\n      stop\n        /* \"Day02/d2p3.sol\":107:135  int256 public scale = 10**18 */\n    tag_7:\n      tag_22\n      tag_23\n      jump\t// in\n    tag_22:\n      mload(0x40)\n      tag_24\n      swap2\n      swap1\n      tag_11\n      jump\t// in\n    tag_24:\n      mload(0x40)\n      dup1\n      swap2\n      sub\n      swap1\n      return\n        /* \"Day02/d2p3.sol\":350:440  function getFahrenheit() public view returns (int256) {... */\n    tag_9:\n        /* \"Day02/d2p3.sol\":396:402  int256 */\n      0x00\n        /* \"Day02/d2p3.sol\":422:432  fahrenheit */\n      sload(0x02)\n        /* \"Day02/d2p3.sol\":415:432  return fahrenheit */\n      swap1\n      pop\n        /* \"Day02/d2p3.sol\":350:440  function getFahrenheit() public view returns (int256) {... */\n      swap1\n      jump\t// out\n        /* \"Day02/d2p3.sol\":142:163  int256 public celsius */\n    tag_13:\n      sload(0x01)\n      dup2\n      jump\t// out\n        /* \"Day02/d2p3.sol\":170:194  int256 public fahrenheit */\n    tag_16:\n      sload(0x02)\n      dup2\n      jump\t// out\n        /* \"Day02/d2p3.sol\":203:342  function setTemperature(int256 c) public {... */\n    tag_21:\n        /* \"Day02/d2p3.sol\":265:266  c */\n      dup1\n        /* \"Day02/d2p3.sol\":255:262  celsius */\n      0x01\n        /* \"Day02/d2p3.sol\":255:266  celsius = c */\n      dup2\n      swap1\n      sstore\n      pop\n        /* \"Day02/d2p3.sol\":327:332  scale */\n      sload(0x00)\n        /* \"Day02/d2p3.sol\":322:324  32 */\n      0x20\n        /* \"Day02/d2p3.sol\":322:332  32 * scale */\n      tag_27\n      swap2\n      swap1\n      tag_28\n      jump\t// in\n    tag_27:\n        /* \"Day02/d2p3.sol\":316:317  5 */\n      0x05\n        /* \"Day02/d2p3.sol\":311:312  9 */\n      0x09\n        /* \"Day02/d2p3.sol\":303:308  scale */\n      sload(0x00)\n        /* \"Day02/d2p3.sol\":293:300  celsius */\n      sload(0x01)\n        /* \"Day02/d2p3.sol\":293:308  celsius * scale */\n      tag_29\n      swap2\n      swap1\n      tag_28\n      jump\t// in\n    tag_29:\n        /* \"Day02/d2p3.sol\":293:312  celsius * scale * 9 */\n      tag_30\n      swap2\n      swap1\n      tag_28\n      jump\t// in\n    tag_30:\n        /* \"Day02/d2p3.sol\":292:317  (celsius * scale * 9) / 5 */\n      tag_31\n      swap2\n      swap1\n      tag_32\n      jump\t// in\n    tag_31:\n        /* \"Day02/d2p3.sol\":291:333  ((celsius * scale * 9) / 5) + (32 * scale) */\n      tag_33\n      swap2\n      swap1\n      tag_34\n      jump\t// in\n    tag_33:\n        /* \"Day02/d2p3.sol\":277:287  fahrenheit */\n      0x02\n        /* \"Day02/d2p3.sol\":277:334  fahrenheit = (((celsius * scale * 9) / 5) + (32 * scale)) */\n      dup2\n      swap1\n      sstore\n      pop\n        /* \"Day02/d2p3.sol\":203:342  function setTemperature(int256 c) public {... */\n      pop\n      jump\t// out\n        /* \"Day02/d2p3.sol\":107:135  int256 public scale = 10**18 */\n    tag_23:\n      sload(0x00)\n      dup2\n      jump\t// out\n        /* \"#utility.yul\":7:83   */\n    tag_35:\n        /* \"#utility.yul\":43:50   */\n      0x00\n        /* \"#utility.yul\":72:77   */\n      dup2\n        /* \"#utility.yul\":61:77   */\n      swap1\n      pop\n        /* \"#utility.yul\":7:83   */\n      swap2\n      swap1\n      pop\n      jump\t// out\n        /* \"#utility.yul\":89:204   */\n    tag_36:\n        /* \"#utility.yul\":174:197   */\n      tag_47\n        /* \"#utility.yul\":191:196   */\n      dup2\n        /* \"#utility.yul\":174:197   */\n      tag_35\n      jump\t// in\n    tag_47:\n        /* \"#utility.yul\":169:172   */\n      dup3\n        /* \"#utility.yul\":162:198   */\n      mstore\n        /* \"#utility.yul\":89:204   */\n      pop\n      pop\n      jump\t// out\n        /* \"#utility.yul\":210:428   */\n    tag_11:\n        /* \"#utility.yul\":301:305   */\n      0x00\n        /* \"#utility.yul\":339:341   */\n      0x20\n        /* \"#utility.yul\":328:337   */\n      dup3\n        /* \"#utility.yul\":324:342   */\n      add\n        /* \"#utility.yul\":316:342   */\n      swap1\n      pop\n        /* \"#utility.yul\":352:421   */\n      tag_49\n        /* \"#utility.yul\":418:419   */\n      0x00\n        /* \"#utility.yul\":407:416   */\n      dup4\n        /* \"#utility.yul\":403:420   */\n      add\n        /* \"#utility.yul\":394:400   */\n      dup5\n        /* \"#utility.yul\":352:421   */\n      tag_36\n      jump\t// in\n    tag_49:\n        /* \"#utility.yul\":210:428   */\n      swap3\n      swap2\n      pop\n      pop\n      jump\t// out\n        /* \"#utility.yul\":515:632   */\n    tag_38:\n        /* \"#utility.yul\":624:625   */\n      0x00\n        /* \"#utility.yul\":621:622   */\n      dup1\n        /* \"#utility.yul\":614:626   */\n      revert\n        /* \"#utility.yul\":761:881   */\n    tag_40:\n        /* \"#utility.yul\":833:856   */\n      tag_54\n        /* \"#utility.yul\":850:855   */\n      dup2\n        /* \"#utility.yul\":833:856   */\n      tag_35\n      jump\t// in\n    tag_54:\n        /* \"#utility.yul\":826:831   */\n      dup2\n        /* \"#utility.yul\":823:857   */\n      eq\n        /* \"#utility.yul\":813:875   */\n      tag_55\n      jumpi\n        /* \"#utility.yul\":871:872   */\n      0x00\n        /* \"#utility.yul\":868:869   */\n      dup1\n        /* \"#utility.yul\":861:873   */\n      revert\n        /* \"#utility.yul\":813:875   */\n    tag_55:\n        /* \"#utility.yul\":761:881   */\n      pop\n      jump\t// out\n        /* \"#utility.yul\":887:1024   */\n    tag_41:\n        /* \"#utility.yul\":932:937   */\n      0x00\n        /* \"#utility.yul\":970:976   */\n      dup2\n        /* \"#utility.yul\":957:977   */\n      calldataload\n        /* \"#utility.yul\":948:977   */\n      swap1\n      pop\n        /* \"#utility.yul\":986:1018   */\n      tag_57\n        /* \"#utility.yul\":1012:1017   */\n      dup2\n        /* \"#utility.yul\":986:1018   */\n      tag_40\n      jump\t// in\n    tag_57:\n        /* \"#utility.yul\":887:1024   */\n      swap3\n      swap2\n      pop\n      pop\n      jump\t// out\n        /* \"#utility.yul\":1030:1357   */\n    tag_20:\n        /* \"#utility.yul\":1088:1094   */\n      0x00\n        /* \"#utility.yul\":1137:1139   */\n      0x20\n        /* \"#utility.yul\":1125:1134   */\n      dup3\n        /* \"#utility.yul\":1116:1123   */\n      dup5\n        /* \"#utility.yul\":1112:1135   */\n      sub\n        /* \"#utility.yul\":1108:1140   */\n      slt\n        /* \"#utility.yul\":1105:1224   */\n      iszero\n      tag_59\n      jumpi\n        /* \"#utility.yul\":1143:1222   */\n      tag_60\n      tag_38\n      jump\t// in\n    tag_60:\n        /* \"#utility.yul\":1105:1224   */\n    tag_59:\n        /* \"#utility.yul\":1263:1264   */\n      0x00\n        /* \"#utility.yul\":1288:1340   */\n      tag_61\n        /* \"#utility.yul\":1332:1339   */\n      dup5\n        /* \"#utility.yul\":1323:1329   */\n      dup3\n        /* \"#utility.yul\":1312:1321   */\n      dup6\n        /* \"#utility.yul\":1308:1330   */\n      add\n        /* \"#utility.yul\":1288:1340   */\n      tag_41\n      jump\t// in\n    tag_61:\n        /* \"#utility.yul\":1278:1340   */\n      swap2\n      pop\n        /* \"#utility.yul\":1234:1350   */\n      pop\n        /* \"#utility.yul\":1030:1357   */\n      swap3\n      swap2\n      pop\n      pop\n      jump\t// out\n        /* \"#utility.yul\":1363:1543   */\n    tag_42:\n        /* \"#utility.yul\":1411:1488   */\n      0x4e487b7100000000000000000000000000000000000000000000000000000000\n        /* \"#utility.yul\":1408:1409   */\n      0x00\n        /* \"#utility.yul\":1401:1489   */\n      mstore\n        /* \"#utility.yul\":1508:1512   */\n      0x11\n        /* \"#utility.yul\":1505:1506   */\n      0x04\n        /* \"#utility.yul\":1498:1513   */\n      mstore\n        /* \"#utility.yul\":1532:1536   */\n      0x24\n        /* \"#utility.yul\":1529:1530   */\n      0x00\n        /* \"#utility.yul\":1522:1537   */\n      revert\n        /* \"#utility.yul\":1549:2105   */\n    tag_28:\n        /* \"#utility.yul\":1588:1595   */\n      0x00\n        /* \"#utility.yul\":1611:1630   */\n      tag_64\n        /* \"#utility.yul\":1628:1629   */\n      dup3\n        /* \"#utility.yul\":1611:1630   */\n      tag_35\n      jump\t// in\n    tag_64:\n        /* \"#utility.yul\":1606:1630   */\n      swap2\n      pop\n        /* \"#utility.yul\":1644:1663   */\n      tag_65\n        /* \"#utility.yul\":1661:1662   */\n      dup4\n        /* \"#utility.yul\":1644:1663   */\n      tag_35\n      jump\t// in\n    tag_65:\n        /* \"#utility.yul\":1639:1663   */\n      swap3\n      pop\n        /* \"#utility.yul\":1698:1699   */\n      dup3\n        /* \"#utility.yul\":1695:1696   */\n      dup3\n        /* \"#utility.yul\":1691:1700   */\n      mul\n        /* \"#utility.yul\":1720:1749   */\n      tag_66\n        /* \"#utility.yul\":1737:1748   */\n      dup2\n        /* \"#utility.yul\":1720:1749   */\n      tag_35\n      jump\t// in\n    tag_66:\n        /* \"#utility.yul\":1709:1749   */\n      swap2\n      pop\n        /* \"#utility.yul\":1807:1873   */\n      0x8000000000000000000000000000000000000000000000000000000000000000\n        /* \"#utility.yul\":1804:1805   */\n      dup5\n        /* \"#utility.yul\":1801:1874   */\n      eq\n        /* \"#utility.yul\":1797:1798   */\n      0x00\n        /* \"#utility.yul\":1794:1795   */\n      dup5\n        /* \"#utility.yul\":1790:1799   */\n      slt\n        /* \"#utility.yul\":1786:1875   */\n      and\n        /* \"#utility.yul\":1783:1898   */\n      iszero\n      tag_67\n      jumpi\n        /* \"#utility.yul\":1878:1896   */\n      tag_68\n      tag_42\n      jump\t// in\n    tag_68:\n        /* \"#utility.yul\":1783:1898   */\n    tag_67:\n        /* \"#utility.yul\":2048:2049   */\n      dup3\n        /* \"#utility.yul\":2039:2046   */\n      dup3\n        /* \"#utility.yul\":2034:2050   */\n      sdiv\n        /* \"#utility.yul\":2031:2032   */\n      dup5\n        /* \"#utility.yul\":2028:2051   */\n      eq\n        /* \"#utility.yul\":2008:2009   */\n      dup4\n        /* \"#utility.yul\":2001:2010   */\n      iszero\n        /* \"#utility.yul\":1981:2065   */\n      or\n        /* \"#utility.yul\":1958:2098   */\n      tag_69\n      jumpi\n        /* \"#utility.yul\":2078:2096   */\n      tag_70\n      tag_42\n      jump\t// in\n    tag_70:\n        /* \"#utility.yul\":1958:2098   */\n    tag_69:\n        /* \"#utility.yul\":1596:2105   */\n      pop\n        /* \"#utility.yul\":1549:2105   */\n      swap3\n      swap2\n      pop\n      pop\n      jump\t// out\n        /* \"#utility.yul\":2111:2291   */\n    tag_43:\n        /* \"#utility.yul\":2159:2236   */\n      0x4e487b7100000000000000000000000000000000000000000000000000000000\n        /* \"#utility.yul\":2156:2157   */\n      0x00\n        /* \"#utility.yul\":2149:2237   */\n      mstore\n        /* \"#utility.yul\":2256:2260   */\n      0x12\n        /* \"#utility.yul\":2253:2254   */\n      0x04\n        /* \"#utility.yul\":2246:2261   */\n      mstore\n        /* \"#utility.yul\":2280:2284   */\n      0x24\n        /* \"#utility.yul\":2277:2278   */\n      0x00\n        /* \"#utility.yul\":2270:2285   */\n      revert\n        /* \"#utility.yul\":2297:2682   */\n    tag_32:\n        /* \"#utility.yul\":2336:2337   */\n      0x00\n        /* \"#utility.yul\":2353:2372   */\n      tag_73\n        /* \"#utility.yul\":2370:2371   */\n      dup3\n        /* \"#utility.yul\":2353:2372   */\n      tag_35\n      jump\t// in\n    tag_73:\n        /* \"#utility.yul\":2348:2372   */\n      swap2\n      pop\n        /* \"#utility.yul\":2386:2405   */\n      tag_74\n        /* \"#utility.yul\":2403:2404   */\n      dup4\n        /* \"#utility.yul\":2386:2405   */\n      tag_35\n      jump\t// in\n    tag_74:\n        /* \"#utility.yul\":2381:2405   */\n      swap3\n      pop\n        /* \"#utility.yul\":2424:2425   */\n      dup3\n        /* \"#utility.yul\":2414:2449   */\n      tag_75\n      jumpi\n        /* \"#utility.yul\":2429:2447   */\n      tag_76\n      tag_43\n      jump\t// in\n    tag_76:\n        /* \"#utility.yul\":2414:2449   */\n    tag_75:\n        /* \"#utility.yul\":2615:2616   */\n      0x01\n        /* \"#utility.yul\":2612:2613   */\n      0x00\n        /* \"#utility.yul\":2608:2617   */\n      sub\n        /* \"#utility.yul\":2605:2606   */\n      dup4\n        /* \"#utility.yul\":2602:2618   */\n      eq\n        /* \"#utility.yul\":2521:2587   */\n      0x8000000000000000000000000000000000000000000000000000000000000000\n        /* \"#utility.yul\":2518:2519   */\n      dup4\n        /* \"#utility.yul\":2515:2588   */\n      eq\n        /* \"#utility.yul\":2498:2628   */\n      and\n        /* \"#utility.yul\":2495:2651   */\n      iszero\n      tag_77\n      jumpi\n        /* \"#utility.yul\":2631:2649   */\n      tag_78\n      tag_42\n      jump\t// in\n    tag_78:\n        /* \"#utility.yul\":2495:2651   */\n    tag_77:\n        /* \"#utility.yul\":2674:2675   */\n      dup3\n        /* \"#utility.yul\":2671:2672   */\n      dup3\n        /* \"#utility.yul\":2666:2676   */\n      sdiv\n        /* \"#utility.yul\":2661:2676   */\n      swap1\n      pop\n        /* \"#utility.yul\":2297:2682   */\n      swap3\n      swap2\n      pop\n      pop\n      jump\t// out\n        /* \"#utility.yul\":2688:3063   */\n    tag_34:\n        /* \"#utility.yul\":2727:2730   */\n      0x00\n        /* \"#utility.yul\":2746:2765   */\n      tag_80\n        /* \"#utility.yul\":2763:2764   */\n      dup3\n        /* \"#utility.yul\":2746:2765   */\n      tag_35\n      jump\t// in\n    tag_80:\n        /* \"#utility.yul\":2741:2765   */\n      swap2\n      pop\n        /* \"#utility.yul\":2779:2798   */\n      tag_81\n        /* \"#utility.yul\":2796:2797   */\n      dup4\n        /* \"#utility.yul\":2779:2798   */\n      tag_35\n      jump\t// in\n    tag_81:\n        /* \"#utility.yul\":2774:2798   */\n      swap3\n      pop\n        /* \"#utility.yul\":2821:2822   */\n      dup3\n        /* \"#utility.yul\":2818:2819   */\n      dup3\n        /* \"#utility.yul\":2814:2823   */\n      add\n        /* \"#utility.yul\":2807:2823   */\n      swap1\n      pop\n        /* \"#utility.yul\":3019:3020   */\n      dup3\n        /* \"#utility.yul\":3014:3017   */\n      dup2\n        /* \"#utility.yul\":3010:3021   */\n      slt\n        /* \"#utility.yul\":3003:3022   */\n      iszero\n        /* \"#utility.yul\":2999:3000   */\n      0x00\n        /* \"#utility.yul\":2996:2997   */\n      dup4\n        /* \"#utility.yul\":2992:3001   */\n      slt\n        /* \"#utility.yul\":2988:3023   */\n      and\n        /* \"#utility.yul\":2971:2972   */\n      dup4\n        /* \"#utility.yul\":2966:2969   */\n      dup3\n        /* \"#utility.yul\":2962:2973   */\n      slt\n        /* \"#utility.yul\":2957:2958   */\n      0x00\n        /* \"#utility.yul\":2954:2955   */\n      dup5\n        /* \"#utility.yul\":2950:2959   */\n      slt\n        /* \"#utility.yul\":2943:2960   */\n      iszero\n        /* \"#utility.yul\":2939:2974   */\n      and\n        /* \"#utility.yul\":2923:3033   */\n      or\n        /* \"#utility.yul\":2920:3056   */\n      iszero\n      tag_82\n      jumpi\n        /* \"#utility.yul\":3036:3054   */\n      tag_83\n      tag_42\n      jump\t// in\n    tag_83:\n        /* \"#utility.yul\":2920:3056   */\n    tag_82:\n        /* \"#utility.yul\":2688:3063   */\n      swap3\n      swap2\n      pop\n      pop\n      jump\t// out\n\n    auxdata: 0xa2646970667358221220405ef6b1e0a8bca2a5950c98f1364fde593c8ff21a505beca9bcd3cf1d3b342d64736f6c634300081a0033\n}\n",
				"bytecode": {
					"linkReferences": {},
					"object": "6080604052670de0b6b3a76400005f553480156019575f80fd5b5061038f806100275f395ff3fe608060405234801561000f575f80fd5b5060043610610055575f3560e01c806317268452146100595780632e7e3de4146100775780635102d77514610095578063a9422e7d146100b3578063f51e181a146100cf575b5f80fd5b6100616100ed565b60405161006e919061016e565b60405180910390f35b61007f6100f6565b60405161008c919061016e565b60405180910390f35b61009d6100fc565b6040516100aa919061016e565b60405180910390f35b6100cd60048036038101906100c891906101b5565b610102565b005b6100d7610151565b6040516100e4919061016e565b60405180910390f35b5f600254905090565b60015481565b60025481565b806001819055505f546020610117919061020d565b600560095f5460015461012a919061020d565b610134919061020d565b61013e91906102b0565b6101489190610318565b60028190555050565b5f5481565b5f819050919050565b61016881610156565b82525050565b5f6020820190506101815f83018461015f565b92915050565b5f80fd5b61019481610156565b811461019e575f80fd5b50565b5f813590506101af8161018b565b92915050565b5f602082840312156101ca576101c9610187565b5b5f6101d7848285016101a1565b91505092915050565b7f4e487b71000000000000000000000000000000000000000000000000000000005f52601160045260245ffd5b5f61021782610156565b915061022283610156565b925082820261023081610156565b91507f800000000000000000000000000000000000000000000000000000000000000084145f84121615610267576102666101e0565b5b828205841483151761027c5761027b6101e0565b5b5092915050565b7f4e487b71000000000000000000000000000000000000000000000000000000005f52601260045260245ffd5b5f6102ba82610156565b91506102c583610156565b9250826102d5576102d4610283565b5b60015f0383147f80000000000000000000000000000000000000000000000000000000000000008314161561030d5761030c6101e0565b5b828205905092915050565b5f61032282610156565b915061032d83610156565b92508282019050828112155f8312168382125f841215161715610353576103526101e0565b5b9291505056fea2646970667358221220405ef6b1e0a8bca2a5950c98f1364fde593c8ff21a505beca9bcd3cf1d3b342d64736f6c634300081a0033",
					"opcodes": "PUSH1 0x80 PUSH1 0x40 MSTORE PUSH8 0xDE0B6B3A7640000 PUSH0 SSTORE CALLVALUE DUP1 ISZERO PUSH1 0x19 JUMPI PUSH0 DUP1 REVERT JUMPDEST POP PUSH2 0x38F DUP1 PUSH2 0x27 PUSH0 CODECOPY PUSH0 RETURN INVALID PUSH1 0x80 PUSH1 0x40 MSTORE CALLVALUE DUP1 ISZERO PUSH2 0xF JUMPI PUSH0 DUP1 REVERT JUMPDEST POP PUSH1 0x4 CALLDATASIZE LT PUSH2 0x55 JUMPI PUSH0 CALLDATALOAD PUSH1 0xE0 SHR DUP1 PUSH4 0x17268452 EQ PUSH2 0x59 JUMPI DUP1 PUSH4 0x2E7E3DE4 EQ PUSH2 0x77 JUMPI DUP1 PUSH4 0x5102D775 EQ PUSH2 0x95 JUMPI DUP1 PUSH4 0xA9422E7D EQ PUSH2 0xB3 JUMPI DUP1 PUSH4 0xF51E181A EQ PUSH2 0xCF JUMPI JUMPDEST PUSH0 DUP1 REVERT JUMPDEST PUSH2 0x61 PUSH2 0xED JUMP JUMPDEST PUSH1 0x40 MLOAD PUSH2 0x6E SWAP2 SWAP1 PUSH2 0x16E JUMP JUMPDEST PUSH1 0x40 MLOAD DUP1 SWAP2 SUB SWAP1 RETURN JUMPDEST PUSH2 0x7F PUSH2 0xF6 JUMP JUMPDEST PUSH1 0x40 MLOAD PUSH2 0x8C SWAP2 SWAP1 PUSH2 0x16E JUMP JUMPDEST PUSH1 0x40 MLOAD DUP1 SWAP2 SUB SWAP1 RETURN JUMPDEST PUSH2 0x9D PUSH2 0xFC JUMP JUMPDEST PUSH1 0x40 MLOAD PUSH2 0xAA SWAP2 SWAP1 PUSH2 0x16E JUMP JUMPDEST PUSH1 0x40 MLOAD DUP1 SWAP2 SUB SWAP1 RETURN JUMPDEST PUSH2 0xCD PUSH1 0x4 DUP1 CALLDATASIZE SUB DUP2 ADD SWAP1 PUSH2 0xC8 SWAP2 SWAP1 PUSH2 0x1B5 JUMP JUMPDEST PUSH2 0x102 JUMP JUMPDEST STOP JUMPDEST PUSH2 0xD7 PUSH2 0x151 JUMP JUMPDEST PUSH1 0x40 MLOAD PUSH2 0xE4 SWAP2 SWAP1 PUSH2 0x16E JUMP JUMPDEST PUSH1 0x40 MLOAD DUP1 SWAP2 SUB SWAP1 RETURN JUMPDEST PUSH0 PUSH1 0x2 SLOAD SWAP1 POP SWAP1 JUMP JUMPDEST PUSH1 0x1 SLOAD DUP2 JUMP JUMPDEST PUSH1 0x2 SLOAD DUP2 JUMP JUMPDEST DUP1 PUSH1 0x1 DUP2 SWAP1 SSTORE POP PUSH0 SLOAD PUSH1 0x20 PUSH2 0x117 SWAP2 SWAP1 PUSH2 0x20D JUMP JUMPDEST PUSH1 0x5 PUSH1 0x9 PUSH0 SLOAD PUSH1 0x1 SLOAD PUSH2 0x12A SWAP2 SWAP1 PUSH2 0x20D JUMP JUMPDEST PUSH2 0x134 SWAP2 SWAP1 PUSH2 0x20D JUMP JUMPDEST PUSH2 0x13E SWAP2 SWAP1 PUSH2 0x2B0 JUMP JUMPDEST PUSH2 0x148 SWAP2 SWAP1 PUSH2 0x318 JUMP JUMPDEST PUSH1 0x2 DUP2 SWAP1 SSTORE POP POP JUMP JUMPDEST PUSH0 SLOAD DUP2 JUMP JUMPDEST PUSH0 DUP2 SWAP1 POP SWAP2 SWAP1 POP JUMP JUMPDEST PUSH2 0x168 DUP2 PUSH2 0x156 JUMP JUMPDEST DUP3 MSTORE POP POP JUMP JUMPDEST PUSH0 PUSH1 0x20 DUP3 ADD SWAP1 POP PUSH2 0x181 PUSH0 DUP4 ADD DUP5 PUSH2 0x15F JUMP JUMPDEST SWAP3 SWAP2 POP POP JUMP JUMPDEST PUSH0 DUP1 REVERT JUMPDEST PUSH2 0x194 DUP2 PUSH2 0x156 JUMP JUMPDEST DUP2 EQ PUSH2 0x19E JUMPI PUSH0 DUP1 REVERT JUMPDEST POP JUMP JUMPDEST PUSH0 DUP2 CALLDATALOAD SWAP1 POP PUSH2 0x1AF DUP2 PUSH2 0x18B JUMP JUMPDEST SWAP3 SWAP2 POP POP JUMP JUMPDEST PUSH0 PUSH1 0x20 DUP3 DUP5 SUB SLT ISZERO PUSH2 0x1CA JUMPI PUSH2 0x1C9 PUSH2 0x187 JUMP JUMPDEST JUMPDEST PUSH0 PUSH2 0x1D7 DUP5 DUP3 DUP6 ADD PUSH2 0x1A1 JUMP JUMPDEST SWAP2 POP POP SWAP3 SWAP2 POP POP JUMP JUMPDEST PUSH32 0x4E487B7100000000000000000000000000000000000000000000000000000000 PUSH0 MSTORE PUSH1 0x11 PUSH1 0x4 MSTORE PUSH1 0x24 PUSH0 REVERT JUMPDEST PUSH0 PUSH2 0x217 DUP3 PUSH2 0x156 JUMP JUMPDEST SWAP2 POP PUSH2 0x222 DUP4 PUSH2 0x156 JUMP JUMPDEST SWAP3 POP DUP3 DUP3 MUL PUSH2 0x230 DUP2 PUSH2 0x156 JUMP JUMPDEST SWAP2 POP PUSH32 0x8000000000000000000000000000000000000000000000000000000000000000 DUP5 EQ PUSH0 DUP5 SLT AND ISZERO PUSH2 0x267 JUMPI PUSH2 0x266 PUSH2 0x1E0 JUMP JUMPDEST JUMPDEST DUP3 DUP3 SDIV DUP5 EQ DUP4 ISZERO OR PUSH2 0x27C JUMPI PUSH2 0x27B PUSH2 0x1E0 JUMP JUMPDEST JUMPDEST POP SWAP3 SWAP2 POP POP JUMP JUMPDEST PUSH32 0x4E487B7100000000000000000000000000000000000000000000000000000000 PUSH0 MSTORE PUSH1 0x12 PUSH1 0x4 MSTORE PUSH1 0x24 PUSH0 REVERT JUMPDEST PUSH0 PUSH2 0x2BA DUP3 PUSH2 0x156 JUMP JUMPDEST SWAP2 POP PUSH2 0x2C5 DUP4 PUSH2 0x156 JUMP JUMPDEST SWAP3 POP DUP3 PUSH2 0x2D5 JUMPI PUSH2 0x2D4 PUSH2 0x283 JUMP JUMPDEST JUMPDEST PUSH1 0x1 PUSH0 SUB DUP4 EQ PUSH32 0x8000000000000000000000000000000000000000000000000000000000000000 DUP4 EQ AND ISZERO PUSH2 0x30D JUMPI PUSH2 0x30C PUSH2 0x1E0 JUMP JUMPDEST JUMPDEST DUP3 DUP3 SDIV SWAP1 POP SWAP3 SWAP2 POP POP JUMP JUMPDEST PUSH0 PUSH2 0x322 DUP3 PUSH2 0x156 JUMP JUMPDEST SWAP2 POP PUSH2 0x32D DUP4 PUSH2 0x156 JUMP JUMPDEST SWAP3 POP DUP3 DUP3 ADD SWAP1 POP DUP3 DUP2 SLT ISZERO PUSH0 DUP4 SLT AND DUP4 DUP3 SLT PUSH0 DUP5 SLT ISZERO AND OR ISZERO PUSH2 0x353 JUMPI PUSH2 0x352 PUSH2 0x1E0 JUMP JUMPDEST JUMPDEST SWAP3 SWAP2 POP POP JUMP INVALID LOG2 PUSH5 0x6970667358 0x22 SLT KECCAK256 BLOCKHASH MCOPY 0xF6 0xB1 0xE0 0xA8 0xBC LOG2 0xA5 SWAP6 0xC SWAP9 CALL CALLDATASIZE 0x4F 0xDE MSIZE EXTCODECOPY DUP16 CALLCODE BYTE POP JUMPDEST 0xEC 0xA9 0xBC 0xD3 0xCF SAR EXTCODESIZE CALLVALUE 0x2D PUSH5 0x736F6C6343 STOP ADDMOD BYTE STOP CALLER "
				},
				"gasEstimates": {
					"creation": {
						"codeDepositCost": "182200",
						"executionCost": "22329",
						"totalCost": "204529"
					},
					"external": {
						"celsius()": "2425",
						"fahrenheit()": "2447",
						"getFahrenheit()": "2410",
						"scale()": "2490",
						"setTemperature(int256)": "infinite"
					}
				},
				"methodIdentifiers": {
					"celsius()": "2e7e3de4",
					"fahrenheit()": "5102d775",
					"getFahrenheit()": "17268452",
					"scale()": "f51e181a",
					"setTemperature(int256)": "a9422e7d"
				}
			},
			"storageLayout": {
				"storage": [
					{
						"astId": 6,
						"contract": "Day02/d2p3.sol:TemperatureConverter",
						"label": "scale",
						"offset": 0,
						"slot": "0",
						"type": "t_int256"
					},
					{
						"astId": 8,
						"contract": "Day02/d2p3.sol:TemperatureConverter",
						"label": "celsius",
						"offset": 0,
						"slot": "1",
						"type": "t_int256"
					},
					{
						"astId": 10,
						"contract": "Day02/d2p3.sol:TemperatureConverter",
						"label": "fahrenheit",
						"offset": 0,
						"slot": "2",
						"type": "t_int256"
					}
				],
				"types": {
					"t_int256": {
						"encoding": "inplace",
						"label": "int256",
						"numberOfBytes": "32"
					}
				}
			},
			"userdoc": {
				"kind": "user",
				"methods": {},
				"version": 1
			}
		}
	}
}