{
	"Day02/d2p6.sol": {
		"Circle": {
			"abi": [
				{
					"inputs": [
						{
							"internalType": "int256",
							"name": "r",
							"type": "int256"
						}
					],
					"name": "area",
					"outputs": [
						{
							"internalType": "int256",
							"name": "",
							"type": "int256"
						}
					],
					"stateMutability": "pure",
					"type": "function"
				}
			],
			"devdoc": {
				"kind": "dev",
				"methods": {},
				"version": 1
			},
			"evm": {
				"assembly": "    /* \"Day02/d2p6.sol\":68:286  contract Circle {... */\n  mstore(0x40, 0x80)\n  callvalue\n  dup1\n  iszero\n  tag_1\n  jumpi\n  0x00\n  dup1\n  revert\ntag_1:\n  pop\n  dataSize(sub_0)\n  dup1\n  dataOffset(sub_0)\n  0x00\n  codecopy\n  0x00\n  return\nstop\n\nsub_0: assembly {\n        /* \"Day02/d2p6.sol\":68:286  contract Circle {... */\n      mstore(0x40, 0x80)\n      callvalue\n      dup1\n      iszero\n      tag_1\n      jumpi\n      0x00\n      dup1\n      revert\n    tag_1:\n      pop\n      jumpi(tag_2, lt(calldatasize, 0x04))\n      shr(0xe0, calldataload(0x00))\n      dup1\n      0x6a75ff2e\n      eq\n      tag_3\n      jumpi\n    tag_2:\n      0x00\n      dup1\n      revert\n        /* \"Day02/d2p6.sol\":91:283  function area(int256 r) public pure returns(int256){... */\n    tag_3:\n      tag_4\n      0x04\n      dup1\n      calldatasize\n      sub\n      dup2\n      add\n      swap1\n      tag_5\n      swap2\n      swap1\n      tag_6\n      jump\t// in\n    tag_5:\n      tag_7\n      jump\t// in\n    tag_4:\n      mload(0x40)\n      tag_8\n      swap2\n      swap1\n      tag_9\n      jump\t// in\n    tag_8:\n      mload(0x40)\n      dup1\n      swap2\n      sub\n      swap1\n      return\n    tag_7:\n        /* \"Day02/d2p6.sol\":135:141  int256 */\n      0x00\n        /* \"Day02/d2p6.sol\":153:166  int256 result */\n      dup1\n        /* \"Day02/d2p6.sol\":177:189  int256 scale */\n      0x00\n        /* \"Day02/d2p6.sol\":192:200  10 ** 18 */\n      0x0de0b6b3a7640000\n        /* \"Day02/d2p6.sol\":177:200  int256 scale = 10 ** 18 */\n      swap1\n      pop\n        /* \"Day02/d2p6.sol\":248:249  r */\n      dup4\n        /* \"Day02/d2p6.sol\":244:245  r */\n      dup5\n        /* \"Day02/d2p6.sol\":237:240  100 */\n      0x64\n        /* \"Day02/d2p6.sol\":228:233  scale */\n      dup4\n        /* \"Day02/d2p6.sol\":222:225  314 */\n      0x013a\n        /* \"Day02/d2p6.sol\":222:233  314 * scale */\n      tag_11\n      swap2\n      swap1\n      tag_12\n      jump\t// in\n    tag_11:\n        /* \"Day02/d2p6.sol\":221:240  (314 * scale) / 100 */\n      tag_13\n      swap2\n      swap1\n      tag_14\n      jump\t// in\n    tag_13:\n        /* \"Day02/d2p6.sol\":220:245  ((314 * scale) / 100) * r */\n      tag_15\n      swap2\n      swap1\n      tag_12\n      jump\t// in\n    tag_15:\n        /* \"Day02/d2p6.sol\":220:249  ((314 * scale) / 100) * r * r */\n      tag_16\n      swap2\n      swap1\n      tag_12\n      jump\t// in\n    tag_16:\n        /* \"Day02/d2p6.sol\":211:249  result = ((314 * scale) / 100) * r * r */\n      swap2\n      pop\n        /* \"Day02/d2p6.sol\":269:275  result */\n      dup2\n        /* \"Day02/d2p6.sol\":262:275  return result */\n      swap3\n      pop\n      pop\n      pop\n        /* \"Day02/d2p6.sol\":91:283  function area(int256 r) public pure returns(int256){... */\n      swap2\n      swap1\n      pop\n      jump\t// out\n        /* \"#utility.yul\":88:205   */\n    tag_18:\n        /* \"#utility.yul\":197:198   */\n      0x00\n        /* \"#utility.yul\":194:195   */\n      dup1\n        /* \"#utility.yul\":187:199   */\n      revert\n        /* \"#utility.yul\":334:410   */\n    tag_20:\n        /* \"#utility.yul\":370:377   */\n      0x00\n        /* \"#utility.yul\":399:404   */\n      dup2\n        /* \"#utility.yul\":388:404   */\n      swap1\n      pop\n        /* \"#utility.yul\":334:410   */\n      swap2\n      swap1\n      pop\n      jump\t// out\n        /* \"#utility.yul\":416:536   */\n    tag_21:\n        /* \"#utility.yul\":488:511   */\n      tag_32\n        /* \"#utility.yul\":505:510   */\n      dup2\n        /* \"#utility.yul\":488:511   */\n      tag_20\n      jump\t// in\n    tag_32:\n        /* \"#utility.yul\":481:486   */\n      dup2\n        /* \"#utility.yul\":478:512   */\n      eq\n        /* \"#utility.yul\":468:530   */\n      tag_33\n      jumpi\n        /* \"#utility.yul\":526:527   */\n      0x00\n        /* \"#utility.yul\":523:524   */\n      dup1\n        /* \"#utility.yul\":516:528   */\n      revert\n        /* \"#utility.yul\":468:530   */\n    tag_33:\n        /* \"#utility.yul\":416:536   */\n      pop\n      jump\t// out\n        /* \"#utility.yul\":542:679   */\n    tag_22:\n        /* \"#utility.yul\":587:592   */\n      0x00\n        /* \"#utility.yul\":625:631   */\n      dup2\n        /* \"#utility.yul\":612:632   */\n      calldataload\n        /* \"#utility.yul\":603:632   */\n      swap1\n      pop\n        /* \"#utility.yul\":641:673   */\n      tag_35\n        /* \"#utility.yul\":667:672   */\n      dup2\n        /* \"#utility.yul\":641:673   */\n      tag_21\n      jump\t// in\n    tag_35:\n        /* \"#utility.yul\":542:679   */\n      swap3\n      swap2\n      pop\n      pop\n      jump\t// out\n        /* \"#utility.yul\":685:1012   */\n    tag_6:\n        /* \"#utility.yul\":743:749   */\n      0x00\n        /* \"#utility.yul\":792:794   */\n      0x20\n        /* \"#utility.yul\":780:789   */\n      dup3\n        /* \"#utility.yul\":771:778   */\n      dup5\n        /* \"#utility.yul\":767:790   */\n      sub\n        /* \"#utility.yul\":763:795   */\n      slt\n        /* \"#utility.yul\":760:879   */\n      iszero\n      tag_37\n      jumpi\n        /* \"#utility.yul\":798:877   */\n      tag_38\n      tag_18\n      jump\t// in\n    tag_38:\n        /* \"#utility.yul\":760:879   */\n    tag_37:\n        /* \"#utility.yul\":918:919   */\n      0x00\n        /* \"#utility.yul\":943:995   */\n      tag_39\n        /* \"#utility.yul\":987:994   */\n      dup5\n        /* \"#utility.yul\":978:984   */\n      dup3\n        /* \"#utility.yul\":967:976   */\n      dup6\n        /* \"#utility.yul\":963:985   */\n      add\n        /* \"#utility.yul\":943:995   */\n      tag_22\n      jump\t// in\n    tag_39:\n        /* \"#utility.yul\":933:995   */\n      swap2\n      pop\n        /* \"#utility.yul\":889:1005   */\n      pop\n        /* \"#utility.yul\":685:1012   */\n      swap3\n      swap2\n      pop\n      pop\n      jump\t// out\n        /* \"#utility.yul\":1018:1133   */\n    tag_23:\n        /* \"#utility.yul\":1103:1126   */\n      tag_41\n        /* \"#utility.yul\":1120:1125   */\n      dup2\n        /* \"#utility.yul\":1103:1126   */\n      tag_20\n      jump\t// in\n    tag_41:\n        /* \"#utility.yul\":1098:1101   */\n      dup3\n        /* \"#utility.yul\":1091:1127   */\n      mstore\n        /* \"#utility.yul\":1018:1133   */\n      pop\n      pop\n      jump\t// out\n        /* \"#utility.yul\":1139:1357   */\n    tag_9:\n        /* \"#utility.yul\":1230:1234   */\n      0x00\n        /* \"#utility.yul\":1268:1270   */\n      0x20\n        /* \"#utility.yul\":1257:1266   */\n      dup3\n        /* \"#utility.yul\":1253:1271   */\n      add\n        /* \"#utility.yul\":1245:1271   */\n      swap1\n      pop\n        /* \"#utility.yul\":1281:1350   */\n      tag_43\n        /* \"#utility.yul\":1347:1348   */\n      0x00\n        /* \"#utility.yul\":1336:1345   */\n      dup4\n        /* \"#utility.yul\":1332:1349   */\n      add\n        /* \"#utility.yul\":1323:1329   */\n      dup5\n        /* \"#utility.yul\":1281:1350   */\n      tag_23\n      jump\t// in\n    tag_43:\n        /* \"#utility.yul\":1139:1357   */\n      swap3\n      swap2\n      pop\n      pop\n      jump\t// out\n        /* \"#utility.yul\":1363:1543   */\n    tag_24:\n        /* \"#utility.yul\":1411:1488   */\n      0x4e487b7100000000000000000000000000000000000000000000000000000000\n        /* \"#utility.yul\":1408:1409   */\n      0x00\n        /* \"#utility.yul\":1401:1489   */\n      mstore\n        /* \"#utility.yul\":1508:1512   */\n      0x11\n        /* \"#utility.yul\":1505:1506   */\n      0x04\n        /* \"#utility.yul\":1498:1513   */\n      mstore\n        /* \"#utility.yul\":1532:1536   */\n      0x24\n        /* \"#utility.yul\":1529:1530   */\n      0x00\n        /* \"#utility.yul\":1522:1537   */\n      revert\n        /* \"#utility.yul\":1549:2105   */\n    tag_12:\n        /* \"#utility.yul\":1588:1595   */\n      0x00\n        /* \"#utility.yul\":1611:1630   */\n      tag_46\n        /* \"#utility.yul\":1628:1629   */\n      dup3\n        /* \"#utility.yul\":1611:1630   */\n      tag_20\n      jump\t// in\n    tag_46:\n        /* \"#utility.yul\":1606:1630   */\n      swap2\n      pop\n        /* \"#utility.yul\":1644:1663   */\n      tag_47\n        /* \"#utility.yul\":1661:1662   */\n      dup4\n        /* \"#utility.yul\":1644:1663   */\n      tag_20\n      jump\t// in\n    tag_47:\n        /* \"#utility.yul\":1639:1663   */\n      swap3\n      pop\n        /* \"#utility.yul\":1698:1699   */\n      dup3\n        /* \"#utility.yul\":1695:1696   */\n      dup3\n        /* \"#utility.yul\":1691:1700   */\n      mul\n        /* \"#utility.yul\":1720:1749   */\n      tag_48\n        /* \"#utility.yul\":1737:1748   */\n      dup2\n        /* \"#utility.yul\":1720:1749   */\n      tag_20\n      jump\t// in\n    tag_48:\n        /* \"#utility.yul\":1709:1749   */\n      swap2\n      pop\n        /* \"#utility.yul\":1807:1873   */\n      0x8000000000000000000000000000000000000000000000000000000000000000\n        /* \"#utility.yul\":1804:1805   */\n      dup5\n        /* \"#utility.yul\":1801:1874   */\n      eq\n        /* \"#utility.yul\":1797:1798   */\n      0x00\n        /* \"#utility.yul\":1794:1795   */\n      dup5\n        /* \"#utility.yul\":1790:1799   */\n      slt\n        /* \"#utility.yul\":1786:1875   */\n      and\n        /* \"#utility.yul\":1783:1898   */\n      iszero\n      tag_49\n      jumpi\n        /* \"#utility.yul\":1878:1896   */\n      tag_50\n      tag_24\n      jump\t// in\n    tag_50:\n        /* \"#utility.yul\":1783:1898   */\n    tag_49:\n        /* \"#utility.yul\":2048:2049   */\n      dup3\n        /* \"#utility.yul\":2039:2046   */\n      dup3\n        /* \"#utility.yul\":2034:2050   */\n      sdiv\n        /* \"#utility.yul\":2031:2032   */\n      dup5\n        /* \"#utility.yul\":2028:2051   */\n      eq\n        /* \"#utility.yul\":2008:2009   */\n      dup4\n        /* \"#utility.yul\":2001:2010   */\n      iszero\n        /* \"#utility.yul\":1981:2065   */\n      or\n        /* \"#utility.yul\":1958:2098   */\n      tag_51\n      jumpi\n        /* \"#utility.yul\":2078:2096   */\n      tag_52\n      tag_24\n      jump\t// in\n    tag_52:\n        /* \"#utility.yul\":1958:2098   */\n    tag_51:\n        /* \"#utility.yul\":1596:2105   */\n      pop\n        /* \"#utility.yul\":1549:2105   */\n      swap3\n      swap2\n      pop\n      pop\n      jump\t// out\n        /* \"#utility.yul\":2111:2291   */\n    tag_25:\n        /* \"#utility.yul\":2159:2236   */\n      0x4e487b7100000000000000000000000000000000000000000000000000000000\n        /* \"#utility.yul\":2156:2157   */\n      0x00\n        /* \"#utility.yul\":2149:2237   */\n      mstore\n        /* \"#utility.yul\":2256:2260   */\n      0x12\n        /* \"#utility.yul\":2253:2254   */\n      0x04\n        /* \"#utility.yul\":2246:2261   */\n      mstore\n        /* \"#utility.yul\":2280:2284   */\n      0x24\n        /* \"#utility.yul\":2277:2278   */\n      0x00\n        /* \"#utility.yul\":2270:2285   */\n      revert\n        /* \"#utility.yul\":2297:2682   */\n    tag_14:\n        /* \"#utility.yul\":2336:2337   */\n      0x00\n        /* \"#utility.yul\":2353:2372   */\n      tag_55\n        /* \"#utility.yul\":2370:2371   */\n      dup3\n        /* \"#utility.yul\":2353:2372   */\n      tag_20\n      jump\t// in\n    tag_55:\n        /* \"#utility.yul\":2348:2372   */\n      swap2\n      pop\n        /* \"#utility.yul\":2386:2405   */\n      tag_56\n        /* \"#utility.yul\":2403:2404   */\n      dup4\n        /* \"#utility.yul\":2386:2405   */\n      tag_20\n      jump\t// in\n    tag_56:\n        /* \"#utility.yul\":2381:2405   */\n      swap3\n      pop\n        /* \"#utility.yul\":2424:2425   */\n      dup3\n        /* \"#utility.yul\":2414:2449   */\n      tag_57\n      jumpi\n        /* \"#utility.yul\":2429:2447   */\n      tag_58\n      tag_25\n      jump\t// in\n    tag_58:\n        /* \"#utility.yul\":2414:2449   */\n    tag_57:\n        /* \"#utility.yul\":2615:2616   */\n      0x01\n        /* \"#utility.yul\":2612:2613   */\n      0x00\n        /* \"#utility.yul\":2608:2617   */\n      sub\n        /* \"#utility.yul\":2605:2606   */\n      dup4\n        /* \"#utility.yul\":2602:2618   */\n      eq\n        /* \"#utility.yul\":2521:2587   */\n      0x8000000000000000000000000000000000000000000000000000000000000000\n        /* \"#utility.yul\":2518:2519   */\n      dup4\n        /* \"#utility.yul\":2515:2588   */\n      eq\n        /* \"#utility.yul\":2498:2628   */\n      and\n        /* \"#utility.yul\":2495:2651   */\n      iszero\n      tag_59\n      jumpi\n        /* \"#utility.yul\":2631:2649   */\n      tag_60\n      tag_24\n      jump\t// in\n    tag_60:\n        /* \"#utility.yul\":2495:2651   */\n    tag_59:\n        /* \"#utility.yul\":2674:2675   */\n      dup3\n        /* \"#utility.yul\":2671:2672   */\n      dup3\n        /* \"#utility.yul\":2666:2676   */\n      sdiv\n        /* \"#utility.yul\":2661:2676   */\n      swap1\n      pop\n        /* \"#utility.yul\":2297:2682   */\n      swap3\n      swap2\n      pop\n      pop\n      jump\t// out\n\n    auxdata: 0xa2646970667358221220c2c361937899e479a48ad830410adfd89dee4f8fb0903d78a7e73baeef8be32364736f6c634300081a0033\n}\n",
				"bytecode": {
					"linkReferences": {},
					"object": "6080604052348015600e575f80fd5b5061029f8061001c5f395ff3fe608060405234801561000f575f80fd5b5060043610610029575f3560e01c80636a75ff2e1461002d575b5f80fd5b610047600480360381019061004291906100de565b61005d565b6040516100549190610118565b60405180910390f35b5f805f670de0b6b3a76400009050838460648361013a61007d919061015e565b6100879190610201565b610091919061015e565b61009b919061015e565b91508192505050919050565b5f80fd5b5f819050919050565b6100bd816100ab565b81146100c7575f80fd5b50565b5f813590506100d8816100b4565b92915050565b5f602082840312156100f3576100f26100a7565b5b5f610100848285016100ca565b91505092915050565b610112816100ab565b82525050565b5f60208201905061012b5f830184610109565b92915050565b7f4e487b71000000000000000000000000000000000000000000000000000000005f52601160045260245ffd5b5f610168826100ab565b9150610173836100ab565b9250828202610181816100ab565b91507f800000000000000000000000000000000000000000000000000000000000000084145f841216156101b8576101b7610131565b5b82820584148315176101cd576101cc610131565b5b5092915050565b7f4e487b71000000000000000000000000000000000000000000000000000000005f52601260045260245ffd5b5f61020b826100ab565b9150610216836100ab565b925082610226576102256101d4565b5b60015f0383147f80000000000000000000000000000000000000000000000000000000000000008314161561025e5761025d610131565b5b82820590509291505056fea2646970667358221220c2c361937899e479a48ad830410adfd89dee4f8fb0903d78a7e73baeef8be32364736f6c634300081a0033",
					"opcodes": "PUSH1 0x80 PUSH1 0x40 MSTORE CALLVALUE DUP1 ISZERO PUSH1 0xE JUMPI PUSH0 DUP1 REVERT JUMPDEST POP PUSH2 0x29F DUP1 PUSH2 0x1C PUSH0 CODECOPY PUSH0 RETURN INVALID PUSH1 0x80 PUSH1 0x40 MSTORE CALLVALUE DUP1 ISZERO PUSH2 0xF JUMPI PUSH0 DUP1 REVERT JUMPDEST POP PUSH1 0x4 CALLDATASIZE LT PUSH2 0x29 JUMPI PUSH0 CALLDATALOAD PUSH1 0xE0 SHR DUP1 PUSH4 0x6A75FF2E EQ PUSH2 0x2D JUMPI JUMPDEST PUSH0 DUP1 REVERT JUMPDEST PUSH2 0x47 PUSH1 0x4 DUP1 CALLDATASIZE SUB DUP2 ADD SWAP1 PUSH2 0x42 SWAP2 SWAP1 PUSH2 0xDE JUMP JUMPDEST PUSH2 0x5D JUMP JUMPDEST PUSH1 0x40 MLOAD PUSH2 0x54 SWAP2 SWAP1 PUSH2 0x118 JUMP JUMPDEST PUSH1 0x40 MLOAD DUP1 SWAP2 SUB SWAP1 RETURN JUMPDEST PUSH0 DUP1 PUSH0 PUSH8 0xDE0B6B3A7640000 SWAP1 POP DUP4 DUP5 PUSH1 0x64 DUP4 PUSH2 0x13A PUSH2 0x7D SWAP2 SWAP1 PUSH2 0x15E JUMP JUMPDEST PUSH2 0x87 SWAP2 SWAP1 PUSH2 0x201 JUMP JUMPDEST PUSH2 0x91 SWAP2 SWAP1 PUSH2 0x15E JUMP JUMPDEST PUSH2 0x9B SWAP2 SWAP1 PUSH2 0x15E JUMP JUMPDEST SWAP2 POP DUP2 SWAP3 POP POP POP SWAP2 SWAP1 POP JUMP JUMPDEST PUSH0 DUP1 REVERT JUMPDEST PUSH0 DUP2 SWAP1 POP SWAP2 SWAP1 POP JUMP JUMPDEST PUSH2 0xBD DUP2 PUSH2 0xAB JUMP JUMPDEST DUP2 EQ PUSH2 0xC7 JUMPI PUSH0 DUP1 REVERT JUMPDEST POP JUMP JUMPDEST PUSH0 DUP2 CALLDATALOAD SWAP1 POP PUSH2 0xD8 DUP2 PUSH2 0xB4 JUMP JUMPDEST SWAP3 SWAP2 POP POP JUMP JUMPDEST PUSH0 PUSH1 0x20 DUP3 DUP5 SUB SLT ISZERO PUSH2 0xF3 JUMPI PUSH2 0xF2 PUSH2 0xA7 JUMP JUMPDEST JUMPDEST PUSH0 PUSH2 0x100 DUP5 DUP3 DUP6 ADD PUSH2 0xCA JUMP JUMPDEST SWAP2 POP POP SWAP3 SWAP2 POP POP JUMP JUMPDEST PUSH2 0x112 DUP2 PUSH2 0xAB JUMP JUMPDEST DUP3 MSTORE POP POP JUMP JUMPDEST PUSH0 PUSH1 0x20 DUP3 ADD SWAP1 POP PUSH2 0x12B PUSH0 DUP4 ADD DUP5 PUSH2 0x109 JUMP JUMPDEST SWAP3 SWAP2 POP POP JUMP JUMPDEST PUSH32 0x4E487B7100000000000000000000000000000000000000000000000000000000 PUSH0 MSTORE PUSH1 0x11 PUSH1 0x4 MSTORE PUSH1 0x24 PUSH0 REVERT JUMPDEST PUSH0 PUSH2 0x168 DUP3 PUSH2 0xAB JUMP JUMPDEST SWAP2 POP PUSH2 0x173 DUP4 PUSH2 0xAB JUMP JUMPDEST SWAP3 POP DUP3 DUP3 MUL PUSH2 0x181 DUP2 PUSH2 0xAB JUMP JUMPDEST SWAP2 POP PUSH32 0x8000000000000000000000000000000000000000000000000000000000000000 DUP5 EQ PUSH0 DUP5 SLT AND ISZERO PUSH2 0x1B8 JUMPI PUSH2 0x1B7 PUSH2 0x131 JUMP JUMPDEST JUMPDEST DUP3 DUP3 SDIV DUP5 EQ DUP4 ISZERO OR PUSH2 0x1CD JUMPI PUSH2 0x1CC PUSH2 0x131 JUMP JUMPDEST JUMPDEST POP SWAP3 SWAP2 POP POP JUMP JUMPDEST PUSH32 0x4E487B7100000000000000000000000000000000000000000000000000000000 PUSH0 MSTORE PUSH1 0x12 PUSH1 0x4 MSTORE PUSH1 0x24 PUSH0 REVERT JUMPDEST PUSH0 PUSH2 0x20B DUP3 PUSH2 0xAB JUMP JUMPDEST SWAP2 POP PUSH2 0x216 DUP4 PUSH2 0xAB JUMP JUMPDEST SWAP3 POP DUP3 PUSH2 0x226 JUMPI PUSH2 0x225 PUSH2 0x1D4 JUMP JUMPDEST JUMPDEST PUSH1 0x1 PUSH0 SUB DUP4 EQ PUSH32 0x8000000000000000000000000000000000000000000000000000000000000000 DUP4 EQ AND ISZERO PUSH2 0x25E JUMPI PUSH2 0x25D PUSH2 0x131 JUMP JUMPDEST JUMPDEST DUP3 DUP3 SDIV SWAP1 POP SWAP3 SWAP2 POP POP JUMP INVALID LOG2 PUSH5 0x6970667358 0x22 SLT KECCAK256 0xC2 0xC3 PUSH2 0x9378 SWAP10 0xE4 PUSH26 0xA48AD830410ADFD89DEE4F8FB0903D78A7E73BAEEF8BE3236473 PUSH16 0x6C634300081A00330000000000000000 "
				},
				"gasEstimates": {
					"creation": {
						"codeDepositCost": "134200",
						"executionCost": "175",
						"totalCost": "134375"
					},
					"external": {
						"area(int256)": "infinite"
					}
				},
				"methodIdentifiers": {
					"area(int256)": "6a75ff2e"
				}
			},
			"storageLayout": {
				"storage": [],
				"types": null
			},
			"userdoc": {
				"kind": "user",
				"methods": {},
				"version": 1
			}
		}
	}
}