{
	"Day07/d7p1lib.sol": {
		"d7p1lib": {
			"abi": [
				{
					"inputs": [
						{
							"internalType": "uint256",
							"name": "x",
							"type": "uint256"
						}
					],
					"name": "factorial",
					"outputs": [
						{
							"internalType": "uint256",
							"name": "",
							"type": "uint256"
						}
					],
					"stateMutability": "pure",
					"type": "function"
				},
				{
					"inputs": [
						{
							"internalType": "uint256",
							"name": "x",
							"type": "uint256"
						}
					],
					"name": "fib",
					"outputs": [
						{
							"internalType": "uint256",
							"name": "",
							"type": "uint256"
						}
					],
					"stateMutability": "pure",
					"type": "function"
				},
				{
					"inputs": [
						{
							"internalType": "uint256",
							"name": "x",
							"type": "uint256"
						}
					],
					"name": "isArmstrong",
					"outputs": [
						{
							"internalType": "string",
							"name": "",
							"type": "string"
						}
					],
					"stateMutability": "pure",
					"type": "function"
				},
				{
					"inputs": [
						{
							"internalType": "int256",
							"name": "x",
							"type": "int256"
						},
						{
							"internalType": "int256",
							"name": "y",
							"type": "int256"
						}
					],
					"name": "max",
					"outputs": [
						{
							"internalType": "int256",
							"name": "",
							"type": "int256"
						}
					],
					"stateMutability": "pure",
					"type": "function"
				},
				{
					"inputs": [
						{
							"internalType": "int256",
							"name": "x",
							"type": "int256"
						},
						{
							"internalType": "int256",
							"name": "y",
							"type": "int256"
						}
					],
					"name": "min",
					"outputs": [
						{
							"internalType": "int256",
							"name": "",
							"type": "int256"
						}
					],
					"stateMutability": "pure",
					"type": "function"
				}
			],
			"devdoc": {
				"kind": "dev",
				"methods": {},
				"version": 1
			},
			"evm": {
				"assembly": "    /* \"Day07/d7p1lib.sol\":68:1191  library d7p1lib{... */\n  dataSize(sub_0)\n  dataOffset(sub_0)\n  0x0b\n  dup3\n  dup3\n  dup3\n  codecopy\n  dup1\n  mload\n  0x00\n  byte\n  0x73\n  eq\n  tag_1\n  jumpi\n  mstore(0x00, 0x4e487b7100000000000000000000000000000000000000000000000000000000)\n  mstore(0x04, 0x00)\n  revert(0x00, 0x24)\ntag_1:\n  mstore(0x00, address)\n  0x73\n  dup2\n  mstore8\n  dup3\n  dup2\n  return\nstop\n\nsub_0: assembly {\n        /* \"Day07/d7p1lib.sol\":68:1191  library d7p1lib{... */\n      eq(address, deployTimeAddress())\n      mstore(0x40, 0x80)\n      jumpi(tag_1, lt(calldatasize, 0x04))\n      shr(0xe0, calldataload(0x00))\n      dup1\n      0x29aa9cbe\n      eq\n      tag_2\n      jumpi\n      dup1\n      0x81fe5786\n      eq\n      tag_3\n      jumpi\n      dup1\n      0x83714834\n      eq\n      tag_4\n      jumpi\n      dup1\n      0xc6c2ea17\n      eq\n      tag_5\n      jumpi\n      dup1\n      0xfe459d20\n      eq\n      tag_6\n      jumpi\n    tag_1:\n      0x00\n      dup1\n      revert\n        /* \"Day07/d7p1lib.sol\":246:394  function min(int256 x, int256 y) public pure returns (int256){... */\n    tag_2:\n      tag_7\n      0x04\n      dup1\n      calldatasize\n      sub\n      dup2\n      add\n      swap1\n      tag_8\n      swap2\n      swap1\n      tag_9\n      jump\t// in\n    tag_8:\n      tag_10\n      jump\t// in\n    tag_7:\n      mload(0x40)\n      tag_11\n      swap2\n      swap1\n      tag_12\n      jump\t// in\n    tag_11:\n      mload(0x40)\n      dup1\n      swap2\n      sub\n      swap1\n      return\n        /* \"Day07/d7p1lib.sol\":90:238  function max(int256 x, int256 y) public pure returns (int256){... */\n    tag_3:\n      tag_13\n      0x04\n      dup1\n      calldatasize\n      sub\n      dup2\n      add\n      swap1\n      tag_14\n      swap2\n      swap1\n      tag_9\n      jump\t// in\n    tag_14:\n      tag_15\n      jump\t// in\n    tag_13:\n      mload(0x40)\n      tag_16\n      swap2\n      swap1\n      tag_12\n      jump\t// in\n    tag_16:\n      mload(0x40)\n      dup1\n      swap2\n      sub\n      swap1\n      return\n        /* \"Day07/d7p1lib.sol\":402:652  function factorial(uint256 x) public pure returns (uint256){... */\n    tag_4:\n      tag_17\n      0x04\n      dup1\n      calldatasize\n      sub\n      dup2\n      add\n      swap1\n      tag_18\n      swap2\n      swap1\n      tag_19\n      jump\t// in\n    tag_18:\n      tag_20\n      jump\t// in\n    tag_17:\n      mload(0x40)\n      tag_21\n      swap2\n      swap1\n      tag_22\n      jump\t// in\n    tag_21:\n      mload(0x40)\n      dup1\n      swap2\n      sub\n      swap1\n      return\n        /* \"Day07/d7p1lib.sol\":660:829  function fib(uint256 x) public pure returns (uint256){... */\n    tag_5:\n      tag_23\n      0x04\n      dup1\n      calldatasize\n      sub\n      dup2\n      add\n      swap1\n      tag_24\n      swap2\n      swap1\n      tag_19\n      jump\t// in\n    tag_24:\n      tag_25\n      jump\t// in\n    tag_23:\n      mload(0x40)\n      tag_26\n      swap2\n      swap1\n      tag_22\n      jump\t// in\n    tag_26:\n      mload(0x40)\n      dup1\n      swap2\n      sub\n      swap1\n      return\n        /* \"Day07/d7p1lib.sol\":837:1188  function isArmstrong(uint256 x) public pure returns (string memory){... */\n    tag_6:\n      tag_27\n      0x04\n      dup1\n      calldatasize\n      sub\n      dup2\n      add\n      swap1\n      tag_28\n      swap2\n      swap1\n      tag_19\n      jump\t// in\n    tag_28:\n      tag_29\n      jump\t// in\n    tag_27:\n      mload(0x40)\n      tag_30\n      swap2\n      swap1\n      tag_31\n      jump\t// in\n    tag_30:\n      mload(0x40)\n      dup1\n      swap2\n      sub\n      swap1\n      return\n        /* \"Day07/d7p1lib.sol\":246:394  function min(int256 x, int256 y) public pure returns (int256){... */\n    tag_10:\n        /* \"Day07/d7p1lib.sol\":300:306  int256 */\n      0x00\n        /* \"Day07/d7p1lib.sol\":325:326  y */\n      dup2\n        /* \"Day07/d7p1lib.sol\":321:322  x */\n      dup4\n        /* \"Day07/d7p1lib.sol\":321:326  x < y */\n      slt\n        /* \"Day07/d7p1lib.sol\":318:386  if(x < y)... */\n      iszero\n      tag_33\n      jumpi\n        /* \"Day07/d7p1lib.sol\":348:349  x */\n      dup3\n        /* \"Day07/d7p1lib.sol\":341:349  return x */\n      swap1\n      pop\n      jump(tag_32)\n        /* \"Day07/d7p1lib.sol\":318:386  if(x < y)... */\n    tag_33:\n        /* \"Day07/d7p1lib.sol\":385:386  y */\n      dup2\n        /* \"Day07/d7p1lib.sol\":378:386  return y */\n      swap1\n      pop\n        /* \"Day07/d7p1lib.sol\":246:394  function min(int256 x, int256 y) public pure returns (int256){... */\n    tag_32:\n      swap3\n      swap2\n      pop\n      pop\n      jump\t// out\n        /* \"Day07/d7p1lib.sol\":90:238  function max(int256 x, int256 y) public pure returns (int256){... */\n    tag_15:\n        /* \"Day07/d7p1lib.sol\":144:150  int256 */\n      0x00\n        /* \"Day07/d7p1lib.sol\":169:170  y */\n      dup2\n        /* \"Day07/d7p1lib.sol\":165:166  x */\n      dup4\n        /* \"Day07/d7p1lib.sol\":165:170  x > y */\n      sgt\n        /* \"Day07/d7p1lib.sol\":162:230  if(x > y)... */\n      iszero\n      tag_36\n      jumpi\n        /* \"Day07/d7p1lib.sol\":192:193  x */\n      dup3\n        /* \"Day07/d7p1lib.sol\":185:193  return x */\n      swap1\n      pop\n      jump(tag_35)\n        /* \"Day07/d7p1lib.sol\":162:230  if(x > y)... */\n    tag_36:\n        /* \"Day07/d7p1lib.sol\":229:230  y */\n      dup2\n        /* \"Day07/d7p1lib.sol\":222:230  return y */\n      swap1\n      pop\n        /* \"Day07/d7p1lib.sol\":90:238  function max(int256 x, int256 y) public pure returns (int256){... */\n    tag_35:\n      swap3\n      swap2\n      pop\n      pop\n      jump\t// out\n        /* \"Day07/d7p1lib.sol\":402:652  function factorial(uint256 x) public pure returns (uint256){... */\n    tag_20:\n        /* \"Day07/d7p1lib.sol\":453:460  uint256 */\n      0x00\n        /* \"Day07/d7p1lib.sol\":472:486  uint256 result */\n      dup1\n        /* \"Day07/d7p1lib.sol\":489:490  1 */\n      0x01\n        /* \"Day07/d7p1lib.sol\":472:490  uint256 result = 1 */\n      swap1\n      pop\n        /* \"Day07/d7p1lib.sol\":509:510  0 */\n      0x00\n        /* \"Day07/d7p1lib.sol\":504:505  x */\n      dup4\n        /* \"Day07/d7p1lib.sol\":504:510  x == 0 */\n      sub\n        /* \"Day07/d7p1lib.sol\":501:545  if(x == 0) {... */\n      tag_39\n      jumpi\n        /* \"Day07/d7p1lib.sol\":532:533  1 */\n      0x01\n        /* \"Day07/d7p1lib.sol\":525:533  return 1 */\n      swap2\n      pop\n      pop\n      jump(tag_38)\n        /* \"Day07/d7p1lib.sol\":501:545  if(x == 0) {... */\n    tag_39:\n        /* \"Day07/d7p1lib.sol\":559:568  uint256 i */\n      0x00\n        /* \"Day07/d7p1lib.sol\":571:572  1 */\n      0x01\n        /* \"Day07/d7p1lib.sol\":559:572  uint256 i = 1 */\n      swap1\n      pop\n        /* \"Day07/d7p1lib.sol\":555:621  for(uint256 i = 1; i <=x; i++){... */\n    tag_40:\n        /* \"Day07/d7p1lib.sol\":578:579  x */\n      dup4\n        /* \"Day07/d7p1lib.sol\":574:575  i */\n      dup2\n        /* \"Day07/d7p1lib.sol\":574:579  i <=x */\n      gt\n        /* \"Day07/d7p1lib.sol\":555:621  for(uint256 i = 1; i <=x; i++){... */\n      tag_41\n      jumpi\n        /* \"Day07/d7p1lib.sol\":608:609  i */\n      dup1\n        /* \"Day07/d7p1lib.sol\":598:609  result *= i */\n      dup3\n      tag_43\n      swap2\n      swap1\n      tag_44\n      jump\t// in\n    tag_43:\n      swap2\n      pop\n        /* \"Day07/d7p1lib.sol\":581:584  i++ */\n      dup1\n      dup1\n      tag_45\n      swap1\n      tag_46\n      jump\t// in\n    tag_45:\n      swap2\n      pop\n      pop\n        /* \"Day07/d7p1lib.sol\":555:621  for(uint256 i = 1; i <=x; i++){... */\n      jump(tag_40)\n    tag_41:\n      pop\n        /* \"Day07/d7p1lib.sol\":638:644  result */\n      dup1\n        /* \"Day07/d7p1lib.sol\":631:644  return result */\n      swap2\n      pop\n      pop\n        /* \"Day07/d7p1lib.sol\":402:652  function factorial(uint256 x) public pure returns (uint256){... */\n    tag_38:\n      swap2\n      swap1\n      pop\n      jump\t// out\n        /* \"Day07/d7p1lib.sol\":660:829  function fib(uint256 x) public pure returns (uint256){... */\n    tag_25:\n        /* \"Day07/d7p1lib.sol\":705:712  uint256 */\n      0x00\n        /* \"Day07/d7p1lib.sol\":730:731  1 */\n      0x01\n        /* \"Day07/d7p1lib.sol\":727:728  x */\n      dup3\n        /* \"Day07/d7p1lib.sol\":727:731  x==1 */\n      eq\n        /* \"Day07/d7p1lib.sol\":727:741  x==1 || x == 0 */\n      dup1\n      tag_48\n      jumpi\n      pop\n        /* \"Day07/d7p1lib.sol\":740:741  0 */\n      0x00\n        /* \"Day07/d7p1lib.sol\":735:736  x */\n      dup3\n        /* \"Day07/d7p1lib.sol\":735:741  x == 0 */\n      eq\n        /* \"Day07/d7p1lib.sol\":727:741  x==1 || x == 0 */\n    tag_48:\n        /* \"Day07/d7p1lib.sol\":724:821  if(x==1 || x == 0)... */\n      iszero\n      tag_49\n      jumpi\n        /* \"Day07/d7p1lib.sol\":763:764  x */\n      dup2\n        /* \"Day07/d7p1lib.sol\":756:764  return x */\n      swap1\n      pop\n      jump(tag_47)\n        /* \"Day07/d7p1lib.sol\":724:821  if(x==1 || x == 0)... */\n    tag_49:\n        /* \"Day07/d7p1lib.sol\":811:821  fib(x - 2) */\n      tag_51\n        /* \"Day07/d7p1lib.sol\":819:820  2 */\n      0x02\n        /* \"Day07/d7p1lib.sol\":815:816  x */\n      dup4\n        /* \"Day07/d7p1lib.sol\":815:820  x - 2 */\n      tag_52\n      swap2\n      swap1\n      tag_53\n      jump\t// in\n    tag_52:\n        /* \"Day07/d7p1lib.sol\":811:814  fib */\n      tag_25\n        /* \"Day07/d7p1lib.sol\":811:821  fib(x - 2) */\n      jump\t// in\n    tag_51:\n        /* \"Day07/d7p1lib.sol\":800:808  fib(x-1) */\n      tag_54\n        /* \"Day07/d7p1lib.sol\":806:807  1 */\n      0x01\n        /* \"Day07/d7p1lib.sol\":804:805  x */\n      dup5\n        /* \"Day07/d7p1lib.sol\":804:807  x-1 */\n      tag_55\n      swap2\n      swap1\n      tag_53\n      jump\t// in\n    tag_55:\n        /* \"Day07/d7p1lib.sol\":800:803  fib */\n      tag_25\n        /* \"Day07/d7p1lib.sol\":800:808  fib(x-1) */\n      jump\t// in\n    tag_54:\n        /* \"Day07/d7p1lib.sol\":800:821  fib(x-1) + fib(x - 2) */\n      tag_56\n      swap2\n      swap1\n      tag_57\n      jump\t// in\n    tag_56:\n        /* \"Day07/d7p1lib.sol\":793:821  return fib(x-1) + fib(x - 2) */\n      swap1\n      pop\n        /* \"Day07/d7p1lib.sol\":660:829  function fib(uint256 x) public pure returns (uint256){... */\n    tag_47:\n      swap2\n      swap1\n      pop\n      jump\t// out\n        /* \"Day07/d7p1lib.sol\":837:1188  function isArmstrong(uint256 x) public pure returns (string memory){... */\n    tag_29:\n        /* \"Day07/d7p1lib.sol\":890:903  string memory */\n      0x60\n        /* \"Day07/d7p1lib.sol\":915:926  uint256 sum */\n      0x00\n        /* \"Day07/d7p1lib.sol\":941:954  uint256 digit */\n      dup1\n        /* \"Day07/d7p1lib.sol\":965:1053  while(x>0){... */\n    tag_59:\n        /* \"Day07/d7p1lib.sol\":973:974  0 */\n      0x00\n        /* \"Day07/d7p1lib.sol\":971:972  x */\n      dup5\n        /* \"Day07/d7p1lib.sol\":971:974  x>0 */\n      gt\n        /* \"Day07/d7p1lib.sol\":965:1053  while(x>0){... */\n      iszero\n      tag_60\n      jumpi\n        /* \"Day07/d7p1lib.sol\":1002:1004  10 */\n      0x0a\n        /* \"Day07/d7p1lib.sol\":998:999  x */\n      dup5\n        /* \"Day07/d7p1lib.sol\":998:1004  x % 10 */\n      tag_61\n      swap2\n      swap1\n      tag_62\n      jump\t// in\n    tag_61:\n        /* \"Day07/d7p1lib.sol\":990:1004  digit = x % 10 */\n      swap1\n      pop\n        /* \"Day07/d7p1lib.sol\":1039:1040  3 */\n      0x03\n        /* \"Day07/d7p1lib.sol\":1032:1037  digit */\n      dup2\n        /* \"Day07/d7p1lib.sol\":1032:1040  digit**3 */\n      tag_63\n      swap2\n      swap1\n      tag_64\n      jump\t// in\n    tag_63:\n        /* \"Day07/d7p1lib.sol\":1025:1028  sum */\n      dup3\n        /* \"Day07/d7p1lib.sol\":1025:1041  sum + (digit**3) */\n      tag_65\n      swap2\n      swap1\n      tag_57\n      jump\t// in\n    tag_65:\n        /* \"Day07/d7p1lib.sol\":1019:1041  sum = sum + (digit**3) */\n      swap2\n      pop\n        /* \"Day07/d7p1lib.sol\":965:1053  while(x>0){... */\n      jump(tag_59)\n    tag_60:\n        /* \"Day07/d7p1lib.sol\":1073:1074  x */\n      dup4\n        /* \"Day07/d7p1lib.sol\":1066:1069  sum */\n      dup3\n        /* \"Day07/d7p1lib.sol\":1066:1074  sum == x */\n      sub\n        /* \"Day07/d7p1lib.sol\":1063:1180  if(sum == x)... */\n      tag_66\n      jumpi\n        /* \"Day07/d7p1lib.sol\":1089:1122  return \"It's an armstrong number\" */\n      mload(0x40)\n      dup1\n      0x40\n      add\n      0x40\n      mstore\n      dup1\n      0x18\n      dup2\n      mstore\n      0x20\n      add\n      0x4974277320616e2061726d7374726f6e67206e756d6265720000000000000000\n      dup2\n      mstore\n      pop\n      swap3\n      pop\n      pop\n      pop\n      jump(tag_58)\n        /* \"Day07/d7p1lib.sol\":1063:1180  if(sum == x)... */\n    tag_66:\n        /* \"Day07/d7p1lib.sol\":1151:1180  return \"Not Armstrong Number\" */\n      mload(0x40)\n      dup1\n      0x40\n      add\n      0x40\n      mstore\n      dup1\n      0x14\n      dup2\n      mstore\n      0x20\n      add\n      0x4e6f742041726d7374726f6e67204e756d626572000000000000000000000000\n      dup2\n      mstore\n      pop\n      swap3\n      pop\n      pop\n      pop\n        /* \"Day07/d7p1lib.sol\":837:1188  function isArmstrong(uint256 x) public pure returns (string memory){... */\n    tag_58:\n      swap2\n      swap1\n      pop\n      jump\t// out\n        /* \"#utility.yul\":88:205   */\n    tag_69:\n        /* \"#utility.yul\":197:198   */\n      0x00\n        /* \"#utility.yul\":194:195   */\n      dup1\n        /* \"#utility.yul\":187:199   */\n      revert\n        /* \"#utility.yul\":334:410   */\n    tag_71:\n        /* \"#utility.yul\":370:377   */\n      0x00\n        /* \"#utility.yul\":399:404   */\n      dup2\n        /* \"#utility.yul\":388:404   */\n      swap1\n      pop\n        /* \"#utility.yul\":334:410   */\n      swap2\n      swap1\n      pop\n      jump\t// out\n        /* \"#utility.yul\":416:536   */\n    tag_72:\n        /* \"#utility.yul\":488:511   */\n      tag_96\n        /* \"#utility.yul\":505:510   */\n      dup2\n        /* \"#utility.yul\":488:511   */\n      tag_71\n      jump\t// in\n    tag_96:\n        /* \"#utility.yul\":481:486   */\n      dup2\n        /* \"#utility.yul\":478:512   */\n      eq\n        /* \"#utility.yul\":468:530   */\n      tag_97\n      jumpi\n        /* \"#utility.yul\":526:527   */\n      0x00\n        /* \"#utility.yul\":523:524   */\n      dup1\n        /* \"#utility.yul\":516:528   */\n      revert\n        /* \"#utility.yul\":468:530   */\n    tag_97:\n        /* \"#utility.yul\":416:536   */\n      pop\n      jump\t// out\n        /* \"#utility.yul\":542:679   */\n    tag_73:\n        /* \"#utility.yul\":587:592   */\n      0x00\n        /* \"#utility.yul\":625:631   */\n      dup2\n        /* \"#utility.yul\":612:632   */\n      calldataload\n        /* \"#utility.yul\":603:632   */\n      swap1\n      pop\n        /* \"#utility.yul\":641:673   */\n      tag_99\n        /* \"#utility.yul\":667:672   */\n      dup2\n        /* \"#utility.yul\":641:673   */\n      tag_72\n      jump\t// in\n    tag_99:\n        /* \"#utility.yul\":542:679   */\n      swap3\n      swap2\n      pop\n      pop\n      jump\t// out\n        /* \"#utility.yul\":685:1155   */\n    tag_9:\n        /* \"#utility.yul\":751:757   */\n      0x00\n        /* \"#utility.yul\":759:765   */\n      dup1\n        /* \"#utility.yul\":808:810   */\n      0x40\n        /* \"#utility.yul\":796:805   */\n      dup4\n        /* \"#utility.yul\":787:794   */\n      dup6\n        /* \"#utility.yul\":783:806   */\n      sub\n        /* \"#utility.yul\":779:811   */\n      slt\n        /* \"#utility.yul\":776:895   */\n      iszero\n      tag_101\n      jumpi\n        /* \"#utility.yul\":814:893   */\n      tag_102\n      tag_69\n      jump\t// in\n    tag_102:\n        /* \"#utility.yul\":776:895   */\n    tag_101:\n        /* \"#utility.yul\":934:935   */\n      0x00\n        /* \"#utility.yul\":959:1011   */\n      tag_103\n        /* \"#utility.yul\":1003:1010   */\n      dup6\n        /* \"#utility.yul\":994:1000   */\n      dup3\n        /* \"#utility.yul\":983:992   */\n      dup7\n        /* \"#utility.yul\":979:1001   */\n      add\n        /* \"#utility.yul\":959:1011   */\n      tag_73\n      jump\t// in\n    tag_103:\n        /* \"#utility.yul\":949:1011   */\n      swap3\n      pop\n        /* \"#utility.yul\":905:1021   */\n      pop\n        /* \"#utility.yul\":1060:1062   */\n      0x20\n        /* \"#utility.yul\":1086:1138   */\n      tag_104\n        /* \"#utility.yul\":1130:1137   */\n      dup6\n        /* \"#utility.yul\":1121:1127   */\n      dup3\n        /* \"#utility.yul\":1110:1119   */\n      dup7\n        /* \"#utility.yul\":1106:1128   */\n      add\n        /* \"#utility.yul\":1086:1138   */\n      tag_73\n      jump\t// in\n    tag_104:\n        /* \"#utility.yul\":1076:1138   */\n      swap2\n      pop\n        /* \"#utility.yul\":1031:1148   */\n      pop\n        /* \"#utility.yul\":685:1155   */\n      swap3\n      pop\n      swap3\n      swap1\n      pop\n      jump\t// out\n        /* \"#utility.yul\":1161:1284   */\n    tag_74:\n        /* \"#utility.yul\":1254:1277   */\n      tag_106\n        /* \"#utility.yul\":1271:1276   */\n      dup2\n        /* \"#utility.yul\":1254:1277   */\n      tag_71\n      jump\t// in\n    tag_106:\n        /* \"#utility.yul\":1249:1252   */\n      dup3\n        /* \"#utility.yul\":1242:1278   */\n      mstore\n        /* \"#utility.yul\":1161:1284   */\n      pop\n      pop\n      jump\t// out\n        /* \"#utility.yul\":1290:1524   */\n    tag_12:\n        /* \"#utility.yul\":1389:1393   */\n      0x00\n        /* \"#utility.yul\":1427:1429   */\n      0x20\n        /* \"#utility.yul\":1416:1425   */\n      dup3\n        /* \"#utility.yul\":1412:1430   */\n      add\n        /* \"#utility.yul\":1404:1430   */\n      swap1\n      pop\n        /* \"#utility.yul\":1440:1517   */\n      tag_108\n        /* \"#utility.yul\":1514:1515   */\n      0x00\n        /* \"#utility.yul\":1503:1512   */\n      dup4\n        /* \"#utility.yul\":1499:1516   */\n      add\n        /* \"#utility.yul\":1490:1496   */\n      dup5\n        /* \"#utility.yul\":1440:1517   */\n      tag_74\n      jump\t// in\n    tag_108:\n        /* \"#utility.yul\":1290:1524   */\n      swap3\n      swap2\n      pop\n      pop\n      jump\t// out\n        /* \"#utility.yul\":1530:1607   */\n    tag_75:\n        /* \"#utility.yul\":1567:1574   */\n      0x00\n        /* \"#utility.yul\":1596:1601   */\n      dup2\n        /* \"#utility.yul\":1585:1601   */\n      swap1\n      pop\n        /* \"#utility.yul\":1530:1607   */\n      swap2\n      swap1\n      pop\n      jump\t// out\n        /* \"#utility.yul\":1613:1735   */\n    tag_76:\n        /* \"#utility.yul\":1686:1710   */\n      tag_111\n        /* \"#utility.yul\":1704:1709   */\n      dup2\n        /* \"#utility.yul\":1686:1710   */\n      tag_75\n      jump\t// in\n    tag_111:\n        /* \"#utility.yul\":1679:1684   */\n      dup2\n        /* \"#utility.yul\":1676:1711   */\n      eq\n        /* \"#utility.yul\":1666:1729   */\n      tag_112\n      jumpi\n        /* \"#utility.yul\":1725:1726   */\n      0x00\n        /* \"#utility.yul\":1722:1723   */\n      dup1\n        /* \"#utility.yul\":1715:1727   */\n      revert\n        /* \"#utility.yul\":1666:1729   */\n    tag_112:\n        /* \"#utility.yul\":1613:1735   */\n      pop\n      jump\t// out\n        /* \"#utility.yul\":1741:1880   */\n    tag_77:\n        /* \"#utility.yul\":1787:1792   */\n      0x00\n        /* \"#utility.yul\":1825:1831   */\n      dup2\n        /* \"#utility.yul\":1812:1832   */\n      calldataload\n        /* \"#utility.yul\":1803:1832   */\n      swap1\n      pop\n        /* \"#utility.yul\":1841:1874   */\n      tag_114\n        /* \"#utility.yul\":1868:1873   */\n      dup2\n        /* \"#utility.yul\":1841:1874   */\n      tag_76\n      jump\t// in\n    tag_114:\n        /* \"#utility.yul\":1741:1880   */\n      swap3\n      swap2\n      pop\n      pop\n      jump\t// out\n        /* \"#utility.yul\":1886:2215   */\n    tag_19:\n        /* \"#utility.yul\":1945:1951   */\n      0x00\n        /* \"#utility.yul\":1994:1996   */\n      0x20\n        /* \"#utility.yul\":1982:1991   */\n      dup3\n        /* \"#utility.yul\":1973:1980   */\n      dup5\n        /* \"#utility.yul\":1969:1992   */\n      sub\n        /* \"#utility.yul\":1965:1997   */\n      slt\n        /* \"#utility.yul\":1962:2081   */\n      iszero\n      tag_116\n      jumpi\n        /* \"#utility.yul\":2000:2079   */\n      tag_117\n      tag_69\n      jump\t// in\n    tag_117:\n        /* \"#utility.yul\":1962:2081   */\n    tag_116:\n        /* \"#utility.yul\":2120:2121   */\n      0x00\n        /* \"#utility.yul\":2145:2198   */\n      tag_118\n        /* \"#utility.yul\":2190:2197   */\n      dup5\n        /* \"#utility.yul\":2181:2187   */\n      dup3\n        /* \"#utility.yul\":2170:2179   */\n      dup6\n        /* \"#utility.yul\":2166:2188   */\n      add\n        /* \"#utility.yul\":2145:2198   */\n      tag_77\n      jump\t// in\n    tag_118:\n        /* \"#utility.yul\":2135:2198   */\n      swap2\n      pop\n        /* \"#utility.yul\":2091:2208   */\n      pop\n        /* \"#utility.yul\":1886:2215   */\n      swap3\n      swap2\n      pop\n      pop\n      jump\t// out\n        /* \"#utility.yul\":2221:2347   */\n    tag_78:\n        /* \"#utility.yul\":2316:2340   */\n      tag_120\n        /* \"#utility.yul\":2334:2339   */\n      dup2\n        /* \"#utility.yul\":2316:2340   */\n      tag_75\n      jump\t// in\n    tag_120:\n        /* \"#utility.yul\":2311:2314   */\n      dup3\n        /* \"#utility.yul\":2304:2341   */\n      mstore\n        /* \"#utility.yul\":2221:2347   */\n      pop\n      pop\n      jump\t// out\n        /* \"#utility.yul\":2353:2591   */\n    tag_22:\n        /* \"#utility.yul\":2454:2458   */\n      0x00\n        /* \"#utility.yul\":2492:2494   */\n      0x20\n        /* \"#utility.yul\":2481:2490   */\n      dup3\n        /* \"#utility.yul\":2477:2495   */\n      add\n        /* \"#utility.yul\":2469:2495   */\n      swap1\n      pop\n        /* \"#utility.yul\":2505:2584   */\n      tag_122\n        /* \"#utility.yul\":2581:2582   */\n      0x00\n        /* \"#utility.yul\":2570:2579   */\n      dup4\n        /* \"#utility.yul\":2566:2583   */\n      add\n        /* \"#utility.yul\":2557:2563   */\n      dup5\n        /* \"#utility.yul\":2505:2584   */\n      tag_78\n      jump\t// in\n    tag_122:\n        /* \"#utility.yul\":2353:2591   */\n      swap3\n      swap2\n      pop\n      pop\n      jump\t// out\n        /* \"#utility.yul\":2597:2696   */\n    tag_79:\n        /* \"#utility.yul\":2649:2655   */\n      0x00\n        /* \"#utility.yul\":2683:2688   */\n      dup2\n        /* \"#utility.yul\":2677:2689   */\n      mload\n        /* \"#utility.yul\":2667:2689   */\n      swap1\n      pop\n        /* \"#utility.yul\":2597:2696   */\n      swap2\n      swap1\n      pop\n      jump\t// out\n        /* \"#utility.yul\":2702:2879   */\n    tag_80:\n        /* \"#utility.yul\":2794:2805   */\n      0x00\n        /* \"#utility.yul\":2828:2834   */\n      dup3\n        /* \"#utility.yul\":2823:2826   */\n      dup3\n        /* \"#utility.yul\":2816:2835   */\n      mstore\n        /* \"#utility.yul\":2868:2872   */\n      0x20\n        /* \"#utility.yul\":2863:2866   */\n      dup3\n        /* \"#utility.yul\":2859:2873   */\n      add\n        /* \"#utility.yul\":2844:2873   */\n      swap1\n      pop\n        /* \"#utility.yul\":2702:2879   */\n      swap3\n      swap2\n      pop\n      pop\n      jump\t// out\n        /* \"#utility.yul\":2885:3024   */\n    tag_81:\n        /* \"#utility.yul\":2974:2980   */\n      dup3\n        /* \"#utility.yul\":2969:2972   */\n      dup2\n        /* \"#utility.yul\":2964:2967   */\n      dup4\n        /* \"#utility.yul\":2958:2981   */\n      mcopy\n        /* \"#utility.yul\":3015:3016   */\n      0x00\n        /* \"#utility.yul\":3006:3012   */\n      dup4\n        /* \"#utility.yul\":3001:3004   */\n      dup4\n        /* \"#utility.yul\":2997:3013   */\n      add\n        /* \"#utility.yul\":2990:3017   */\n      mstore\n        /* \"#utility.yul\":2885:3024   */\n      pop\n      pop\n      pop\n      jump\t// out\n        /* \"#utility.yul\":3030:3132   */\n    tag_82:\n        /* \"#utility.yul\":3071:3077   */\n      0x00\n        /* \"#utility.yul\":3122:3124   */\n      0x1f\n        /* \"#utility.yul\":3118:3125   */\n      not\n        /* \"#utility.yul\":3113:3115   */\n      0x1f\n        /* \"#utility.yul\":3106:3111   */\n      dup4\n        /* \"#utility.yul\":3102:3116   */\n      add\n        /* \"#utility.yul\":3098:3126   */\n      and\n        /* \"#utility.yul\":3088:3126   */\n      swap1\n      pop\n        /* \"#utility.yul\":3030:3132   */\n      swap2\n      swap1\n      pop\n      jump\t// out\n        /* \"#utility.yul\":3138:3531   */\n    tag_83:\n        /* \"#utility.yul\":3234:3237   */\n      0x00\n        /* \"#utility.yul\":3262:3301   */\n      tag_128\n        /* \"#utility.yul\":3295:3300   */\n      dup3\n        /* \"#utility.yul\":3262:3301   */\n      tag_79\n      jump\t// in\n    tag_128:\n        /* \"#utility.yul\":3317:3396   */\n      tag_129\n        /* \"#utility.yul\":3389:3395   */\n      dup2\n        /* \"#utility.yul\":3384:3387   */\n      dup6\n        /* \"#utility.yul\":3317:3396   */\n      tag_80\n      jump\t// in\n    tag_129:\n        /* \"#utility.yul\":3310:3396   */\n      swap4\n      pop\n        /* \"#utility.yul\":3405:3470   */\n      tag_130\n        /* \"#utility.yul\":3463:3469   */\n      dup2\n        /* \"#utility.yul\":3458:3461   */\n      dup6\n        /* \"#utility.yul\":3451:3455   */\n      0x20\n        /* \"#utility.yul\":3444:3449   */\n      dup7\n        /* \"#utility.yul\":3440:3456   */\n      add\n        /* \"#utility.yul\":3405:3470   */\n      tag_81\n      jump\t// in\n    tag_130:\n        /* \"#utility.yul\":3495:3524   */\n      tag_131\n        /* \"#utility.yul\":3517:3523   */\n      dup2\n        /* \"#utility.yul\":3495:3524   */\n      tag_82\n      jump\t// in\n    tag_131:\n        /* \"#utility.yul\":3490:3493   */\n      dup5\n        /* \"#utility.yul\":3486:3525   */\n      add\n        /* \"#utility.yul\":3479:3525   */\n      swap2\n      pop\n        /* \"#utility.yul\":3238:3531   */\n      pop\n        /* \"#utility.yul\":3138:3531   */\n      swap3\n      swap2\n      pop\n      pop\n      jump\t// out\n        /* \"#utility.yul\":3537:3866   */\n    tag_31:\n        /* \"#utility.yul\":3658:3662   */\n      0x00\n        /* \"#utility.yul\":3696:3698   */\n      0x20\n        /* \"#utility.yul\":3685:3694   */\n      dup3\n        /* \"#utility.yul\":3681:3699   */\n      add\n        /* \"#utility.yul\":3673:3699   */\n      swap1\n      pop\n        /* \"#utility.yul\":3745:3754   */\n      dup2\n        /* \"#utility.yul\":3739:3743   */\n      dup2\n        /* \"#utility.yul\":3735:3755   */\n      sub\n        /* \"#utility.yul\":3731:3732   */\n      0x00\n        /* \"#utility.yul\":3720:3729   */\n      dup4\n        /* \"#utility.yul\":3716:3733   */\n      add\n        /* \"#utility.yul\":3709:3756   */\n      mstore\n        /* \"#utility.yul\":3773:3859   */\n      tag_133\n        /* \"#utility.yul\":3854:3858   */\n      dup2\n        /* \"#utility.yul\":3845:3851   */\n      dup5\n        /* \"#utility.yul\":3773:3859   */\n      tag_83\n      jump\t// in\n    tag_133:\n        /* \"#utility.yul\":3765:3859   */\n      swap1\n      pop\n        /* \"#utility.yul\":3537:3866   */\n      swap3\n      swap2\n      pop\n      pop\n      jump\t// out\n        /* \"#utility.yul\":3872:4052   */\n    tag_84:\n        /* \"#utility.yul\":3920:3997   */\n      0x4e487b7100000000000000000000000000000000000000000000000000000000\n        /* \"#utility.yul\":3917:3918   */\n      0x00\n        /* \"#utility.yul\":3910:3998   */\n      mstore\n        /* \"#utility.yul\":4017:4021   */\n      0x11\n        /* \"#utility.yul\":4014:4015   */\n      0x04\n        /* \"#utility.yul\":4007:4022   */\n      mstore\n        /* \"#utility.yul\":4041:4045   */\n      0x24\n        /* \"#utility.yul\":4038:4039   */\n      0x00\n        /* \"#utility.yul\":4031:4046   */\n      revert\n        /* \"#utility.yul\":4058:4468   */\n    tag_44:\n        /* \"#utility.yul\":4098:4105   */\n      0x00\n        /* \"#utility.yul\":4121:4141   */\n      tag_136\n        /* \"#utility.yul\":4139:4140   */\n      dup3\n        /* \"#utility.yul\":4121:4141   */\n      tag_75\n      jump\t// in\n    tag_136:\n        /* \"#utility.yul\":4116:4141   */\n      swap2\n      pop\n        /* \"#utility.yul\":4155:4175   */\n      tag_137\n        /* \"#utility.yul\":4173:4174   */\n      dup4\n        /* \"#utility.yul\":4155:4175   */\n      tag_75\n      jump\t// in\n    tag_137:\n        /* \"#utility.yul\":4150:4175   */\n      swap3\n      pop\n        /* \"#utility.yul\":4210:4211   */\n      dup3\n        /* \"#utility.yul\":4207:4208   */\n      dup3\n        /* \"#utility.yul\":4203:4212   */\n      mul\n        /* \"#utility.yul\":4232:4262   */\n      tag_138\n        /* \"#utility.yul\":4250:4261   */\n      dup2\n        /* \"#utility.yul\":4232:4262   */\n      tag_75\n      jump\t// in\n    tag_138:\n        /* \"#utility.yul\":4221:4262   */\n      swap2\n      pop\n        /* \"#utility.yul\":4411:4412   */\n      dup3\n        /* \"#utility.yul\":4402:4409   */\n      dup3\n        /* \"#utility.yul\":4398:4413   */\n      div\n        /* \"#utility.yul\":4395:4396   */\n      dup5\n        /* \"#utility.yul\":4392:4414   */\n      eq\n        /* \"#utility.yul\":4372:4373   */\n      dup4\n        /* \"#utility.yul\":4365:4374   */\n      iszero\n        /* \"#utility.yul\":4345:4428   */\n      or\n        /* \"#utility.yul\":4322:4461   */\n      tag_139\n      jumpi\n        /* \"#utility.yul\":4441:4459   */\n      tag_140\n      tag_84\n      jump\t// in\n    tag_140:\n        /* \"#utility.yul\":4322:4461   */\n    tag_139:\n        /* \"#utility.yul\":4106:4468   */\n      pop\n        /* \"#utility.yul\":4058:4468   */\n      swap3\n      swap2\n      pop\n      pop\n      jump\t// out\n        /* \"#utility.yul\":4474:4707   */\n    tag_46:\n        /* \"#utility.yul\":4513:4516   */\n      0x00\n        /* \"#utility.yul\":4536:4560   */\n      tag_142\n        /* \"#utility.yul\":4554:4559   */\n      dup3\n        /* \"#utility.yul\":4536:4560   */\n      tag_75\n      jump\t// in\n    tag_142:\n        /* \"#utility.yul\":4527:4560   */\n      swap2\n      pop\n        /* \"#utility.yul\":4582:4648   */\n      0xffffffffffffffffffffffffffffffffffffffffffffffffffffffffffffffff\n        /* \"#utility.yul\":4575:4580   */\n      dup3\n        /* \"#utility.yul\":4572:4649   */\n      sub\n        /* \"#utility.yul\":4569:4672   */\n      tag_143\n      jumpi\n        /* \"#utility.yul\":4652:4670   */\n      tag_144\n      tag_84\n      jump\t// in\n    tag_144:\n        /* \"#utility.yul\":4569:4672   */\n    tag_143:\n        /* \"#utility.yul\":4699:4700   */\n      0x01\n        /* \"#utility.yul\":4692:4697   */\n      dup3\n        /* \"#utility.yul\":4688:4701   */\n      add\n        /* \"#utility.yul\":4681:4701   */\n      swap1\n      pop\n        /* \"#utility.yul\":4474:4707   */\n      swap2\n      swap1\n      pop\n      jump\t// out\n        /* \"#utility.yul\":4713:4907   */\n    tag_53:\n        /* \"#utility.yul\":4753:4757   */\n      0x00\n        /* \"#utility.yul\":4773:4793   */\n      tag_146\n        /* \"#utility.yul\":4791:4792   */\n      dup3\n        /* \"#utility.yul\":4773:4793   */\n      tag_75\n      jump\t// in\n    tag_146:\n        /* \"#utility.yul\":4768:4793   */\n      swap2\n      pop\n        /* \"#utility.yul\":4807:4827   */\n      tag_147\n        /* \"#utility.yul\":4825:4826   */\n      dup4\n        /* \"#utility.yul\":4807:4827   */\n      tag_75\n      jump\t// in\n    tag_147:\n        /* \"#utility.yul\":4802:4827   */\n      swap3\n      pop\n        /* \"#utility.yul\":4851:4852   */\n      dup3\n        /* \"#utility.yul\":4848:4849   */\n      dup3\n        /* \"#utility.yul\":4844:4853   */\n      sub\n        /* \"#utility.yul\":4836:4853   */\n      swap1\n      pop\n        /* \"#utility.yul\":4875:4876   */\n      dup2\n        /* \"#utility.yul\":4869:4873   */\n      dup2\n        /* \"#utility.yul\":4866:4877   */\n      gt\n        /* \"#utility.yul\":4863:4900   */\n      iszero\n      tag_148\n      jumpi\n        /* \"#utility.yul\":4880:4898   */\n      tag_149\n      tag_84\n      jump\t// in\n    tag_149:\n        /* \"#utility.yul\":4863:4900   */\n    tag_148:\n        /* \"#utility.yul\":4713:4907   */\n      swap3\n      swap2\n      pop\n      pop\n      jump\t// out\n        /* \"#utility.yul\":4913:5104   */\n    tag_57:\n        /* \"#utility.yul\":4953:4956   */\n      0x00\n        /* \"#utility.yul\":4972:4992   */\n      tag_151\n        /* \"#utility.yul\":4990:4991   */\n      dup3\n        /* \"#utility.yul\":4972:4992   */\n      tag_75\n      jump\t// in\n    tag_151:\n        /* \"#utility.yul\":4967:4992   */\n      swap2\n      pop\n        /* \"#utility.yul\":5006:5026   */\n      tag_152\n        /* \"#utility.yul\":5024:5025   */\n      dup4\n        /* \"#utility.yul\":5006:5026   */\n      tag_75\n      jump\t// in\n    tag_152:\n        /* \"#utility.yul\":5001:5026   */\n      swap3\n      pop\n        /* \"#utility.yul\":5049:5050   */\n      dup3\n        /* \"#utility.yul\":5046:5047   */\n      dup3\n        /* \"#utility.yul\":5042:5051   */\n      add\n        /* \"#utility.yul\":5035:5051   */\n      swap1\n      pop\n        /* \"#utility.yul\":5070:5073   */\n      dup1\n        /* \"#utility.yul\":5067:5068   */\n      dup3\n        /* \"#utility.yul\":5064:5074   */\n      gt\n        /* \"#utility.yul\":5061:5097   */\n      iszero\n      tag_153\n      jumpi\n        /* \"#utility.yul\":5077:5095   */\n      tag_154\n      tag_84\n      jump\t// in\n    tag_154:\n        /* \"#utility.yul\":5061:5097   */\n    tag_153:\n        /* \"#utility.yul\":4913:5104   */\n      swap3\n      swap2\n      pop\n      pop\n      jump\t// out\n        /* \"#utility.yul\":5110:5290   */\n    tag_85:\n        /* \"#utility.yul\":5158:5235   */\n      0x4e487b7100000000000000000000000000000000000000000000000000000000\n        /* \"#utility.yul\":5155:5156   */\n      0x00\n        /* \"#utility.yul\":5148:5236   */\n      mstore\n        /* \"#utility.yul\":5255:5259   */\n      0x12\n        /* \"#utility.yul\":5252:5253   */\n      0x04\n        /* \"#utility.yul\":5245:5260   */\n      mstore\n        /* \"#utility.yul\":5279:5283   */\n      0x24\n        /* \"#utility.yul\":5276:5277   */\n      0x00\n        /* \"#utility.yul\":5269:5284   */\n      revert\n        /* \"#utility.yul\":5296:5472   */\n    tag_62:\n        /* \"#utility.yul\":5328:5329   */\n      0x00\n        /* \"#utility.yul\":5345:5365   */\n      tag_157\n        /* \"#utility.yul\":5363:5364   */\n      dup3\n        /* \"#utility.yul\":5345:5365   */\n      tag_75\n      jump\t// in\n    tag_157:\n        /* \"#utility.yul\":5340:5365   */\n      swap2\n      pop\n        /* \"#utility.yul\":5379:5399   */\n      tag_158\n        /* \"#utility.yul\":5397:5398   */\n      dup4\n        /* \"#utility.yul\":5379:5399   */\n      tag_75\n      jump\t// in\n    tag_158:\n        /* \"#utility.yul\":5374:5399   */\n      swap3\n      pop\n        /* \"#utility.yul\":5418:5419   */\n      dup3\n        /* \"#utility.yul\":5408:5443   */\n      tag_159\n      jumpi\n        /* \"#utility.yul\":5423:5441   */\n      tag_160\n      tag_85\n      jump\t// in\n    tag_160:\n        /* \"#utility.yul\":5408:5443   */\n    tag_159:\n        /* \"#utility.yul\":5464:5465   */\n      dup3\n        /* \"#utility.yul\":5461:5462   */\n      dup3\n        /* \"#utility.yul\":5457:5466   */\n      mod\n        /* \"#utility.yul\":5452:5466   */\n      swap1\n      pop\n        /* \"#utility.yul\":5296:5472   */\n      swap3\n      swap2\n      pop\n      pop\n      jump\t// out\n        /* \"#utility.yul\":5478:5580   */\n    tag_86:\n        /* \"#utility.yul\":5520:5528   */\n      0x00\n        /* \"#utility.yul\":5567:5572   */\n      dup2\n        /* \"#utility.yul\":5564:5565   */\n      0x01\n        /* \"#utility.yul\":5560:5573   */\n      shr\n        /* \"#utility.yul\":5539:5573   */\n      swap1\n      pop\n        /* \"#utility.yul\":5478:5580   */\n      swap2\n      swap1\n      pop\n      jump\t// out\n        /* \"#utility.yul\":5586:6434   */\n    tag_87:\n        /* \"#utility.yul\":5647:5652   */\n      0x00\n        /* \"#utility.yul\":5654:5658   */\n      dup1\n        /* \"#utility.yul\":5678:5684   */\n      dup3\n        /* \"#utility.yul\":5669:5684   */\n      swap2\n      pop\n        /* \"#utility.yul\":5702:5707   */\n      dup4\n        /* \"#utility.yul\":5693:5707   */\n      swap1\n      pop\n        /* \"#utility.yul\":5716:6428   */\n    tag_163:\n        /* \"#utility.yul\":5737:5738   */\n      0x01\n        /* \"#utility.yul\":5727:5735   */\n      dup6\n        /* \"#utility.yul\":5724:5739   */\n      gt\n        /* \"#utility.yul\":5716:6428   */\n      iszero\n      tag_165\n      jumpi\n        /* \"#utility.yul\":5832:5836   */\n      dup1\n        /* \"#utility.yul\":5827:5830   */\n      dup7\n        /* \"#utility.yul\":5823:5837   */\n      div\n        /* \"#utility.yul\":5817:5821   */\n      dup2\n        /* \"#utility.yul\":5814:5838   */\n      gt\n        /* \"#utility.yul\":5811:5861   */\n      iszero\n      tag_166\n      jumpi\n        /* \"#utility.yul\":5841:5859   */\n      tag_167\n      tag_84\n      jump\t// in\n    tag_167:\n        /* \"#utility.yul\":5811:5861   */\n    tag_166:\n        /* \"#utility.yul\":5891:5892   */\n      0x01\n        /* \"#utility.yul\":5881:5889   */\n      dup6\n        /* \"#utility.yul\":5877:5893   */\n      and\n        /* \"#utility.yul\":5874:6325   */\n      iszero\n      tag_168\n      jumpi\n        /* \"#utility.yul\":6306:6310   */\n      dup1\n        /* \"#utility.yul\":6299:6304   */\n      dup3\n        /* \"#utility.yul\":6295:6311   */\n      mul\n        /* \"#utility.yul\":6286:6311   */\n      swap2\n      pop\n        /* \"#utility.yul\":5874:6325   */\n    tag_168:\n        /* \"#utility.yul\":6356:6360   */\n      dup1\n        /* \"#utility.yul\":6350:6354   */\n      dup2\n        /* \"#utility.yul\":6346:6361   */\n      mul\n        /* \"#utility.yul\":6338:6361   */\n      swap1\n      pop\n        /* \"#utility.yul\":6386:6418   */\n      tag_169\n        /* \"#utility.yul\":6409:6417   */\n      dup6\n        /* \"#utility.yul\":6386:6418   */\n      tag_86\n      jump\t// in\n    tag_169:\n        /* \"#utility.yul\":6374:6418   */\n      swap5\n      pop\n        /* \"#utility.yul\":5716:6428   */\n      jump(tag_163)\n    tag_165:\n        /* \"#utility.yul\":5586:6434   */\n      swap5\n      pop\n      swap5\n      swap3\n      pop\n      pop\n      pop\n      jump\t// out\n        /* \"#utility.yul\":6440:7513   */\n    tag_88:\n        /* \"#utility.yul\":6494:6499   */\n      0x00\n        /* \"#utility.yul\":6685:6693   */\n      dup3\n        /* \"#utility.yul\":6675:6715   */\n      tag_171\n      jumpi\n        /* \"#utility.yul\":6706:6707   */\n      0x01\n        /* \"#utility.yul\":6697:6707   */\n      swap1\n      pop\n        /* \"#utility.yul\":6708:6713   */\n      jump(tag_170)\n        /* \"#utility.yul\":6675:6715   */\n    tag_171:\n        /* \"#utility.yul\":6734:6738   */\n      dup2\n        /* \"#utility.yul\":6724:6760   */\n      tag_172\n      jumpi\n        /* \"#utility.yul\":6751:6752   */\n      0x00\n        /* \"#utility.yul\":6742:6752   */\n      swap1\n      pop\n        /* \"#utility.yul\":6753:6758   */\n      jump(tag_170)\n        /* \"#utility.yul\":6724:6760   */\n    tag_172:\n        /* \"#utility.yul\":6820:6824   */\n      dup2\n        /* \"#utility.yul\":6868:6869   */\n      0x01\n        /* \"#utility.yul\":6863:6890   */\n      dup2\n      eq\n      tag_174\n      jumpi\n        /* \"#utility.yul\":6904:6905   */\n      0x02\n        /* \"#utility.yul\":6899:7090   */\n      dup2\n      eq\n      tag_175\n      jumpi\n        /* \"#utility.yul\":6813:7090   */\n      jump(tag_173)\n        /* \"#utility.yul\":6863:6890   */\n    tag_174:\n        /* \"#utility.yul\":6881:6882   */\n      0x01\n        /* \"#utility.yul\":6872:6882   */\n      swap2\n      pop\n        /* \"#utility.yul\":6883:6888   */\n      pop\n      jump(tag_170)\n        /* \"#utility.yul\":6899:7090   */\n    tag_175:\n        /* \"#utility.yul\":6944:6947   */\n      0xff\n        /* \"#utility.yul\":6934:6942   */\n      dup5\n        /* \"#utility.yul\":6931:6948   */\n      gt\n        /* \"#utility.yul\":6928:6971   */\n      iszero\n      tag_176\n      jumpi\n        /* \"#utility.yul\":6951:6969   */\n      tag_177\n      tag_84\n      jump\t// in\n    tag_177:\n        /* \"#utility.yul\":6928:6971   */\n    tag_176:\n        /* \"#utility.yul\":7000:7008   */\n      dup4\n        /* \"#utility.yul\":6997:6998   */\n      0x02\n        /* \"#utility.yul\":6993:7009   */\n      exp\n        /* \"#utility.yul\":6984:7009   */\n      swap2\n      pop\n        /* \"#utility.yul\":7035:7038   */\n      dup5\n        /* \"#utility.yul\":7028:7033   */\n      dup3\n        /* \"#utility.yul\":7025:7039   */\n      gt\n        /* \"#utility.yul\":7022:7062   */\n      iszero\n      tag_178\n      jumpi\n        /* \"#utility.yul\":7042:7060   */\n      tag_179\n      tag_84\n      jump\t// in\n    tag_179:\n        /* \"#utility.yul\":7022:7062   */\n    tag_178:\n        /* \"#utility.yul\":7075:7080   */\n      pop\n      jump(tag_170)\n        /* \"#utility.yul\":6813:7090   */\n    tag_173:\n      pop\n        /* \"#utility.yul\":7199:7201   */\n      0x20\n        /* \"#utility.yul\":7189:7197   */\n      dup4\n        /* \"#utility.yul\":7186:7202   */\n      lt\n        /* \"#utility.yul\":7180:7183   */\n      0x0133\n        /* \"#utility.yul\":7174:7178   */\n      dup4\n        /* \"#utility.yul\":7171:7184   */\n      lt\n        /* \"#utility.yul\":7167:7203   */\n      and\n        /* \"#utility.yul\":7149:7151   */\n      0x4e\n        /* \"#utility.yul\":7139:7147   */\n      dup5\n        /* \"#utility.yul\":7136:7152   */\n      lt\n        /* \"#utility.yul\":7131:7133   */\n      0x0b\n        /* \"#utility.yul\":7125:7129   */\n      dup5\n        /* \"#utility.yul\":7122:7134   */\n      lt\n        /* \"#utility.yul\":7118:7153   */\n      and\n        /* \"#utility.yul\":7102:7213   */\n      or\n        /* \"#utility.yul\":7099:7345   */\n      iszero\n      tag_180\n      jumpi\n        /* \"#utility.yul\":7255:7263   */\n      dup3\n        /* \"#utility.yul\":7249:7253   */\n      dup3\n        /* \"#utility.yul\":7245:7264   */\n      exp\n        /* \"#utility.yul\":7236:7264   */\n      swap1\n      pop\n        /* \"#utility.yul\":7290:7293   */\n      dup4\n        /* \"#utility.yul\":7283:7288   */\n      dup2\n        /* \"#utility.yul\":7280:7294   */\n      gt\n        /* \"#utility.yul\":7277:7317   */\n      iszero\n      tag_181\n      jumpi\n        /* \"#utility.yul\":7297:7315   */\n      tag_182\n      tag_84\n      jump\t// in\n    tag_182:\n        /* \"#utility.yul\":7277:7317   */\n    tag_181:\n        /* \"#utility.yul\":7330:7335   */\n      jump(tag_170)\n        /* \"#utility.yul\":7099:7345   */\n    tag_180:\n        /* \"#utility.yul\":7370:7412   */\n      tag_183\n        /* \"#utility.yul\":7408:7411   */\n      dup5\n        /* \"#utility.yul\":7398:7406   */\n      dup5\n        /* \"#utility.yul\":7392:7396   */\n      dup5\n        /* \"#utility.yul\":7389:7390   */\n      0x01\n        /* \"#utility.yul\":7370:7412   */\n      tag_87\n      jump\t// in\n    tag_183:\n        /* \"#utility.yul\":7355:7412   */\n      swap3\n      pop\n      swap1\n      pop\n        /* \"#utility.yul\":7444:7448   */\n      dup2\n        /* \"#utility.yul\":7439:7442   */\n      dup5\n        /* \"#utility.yul\":7435:7449   */\n      div\n        /* \"#utility.yul\":7428:7433   */\n      dup2\n        /* \"#utility.yul\":7425:7450   */\n      gt\n        /* \"#utility.yul\":7422:7473   */\n      iszero\n      tag_184\n      jumpi\n        /* \"#utility.yul\":7453:7471   */\n      tag_185\n      tag_84\n      jump\t// in\n    tag_185:\n        /* \"#utility.yul\":7422:7473   */\n    tag_184:\n        /* \"#utility.yul\":7502:7506   */\n      dup2\n        /* \"#utility.yul\":7495:7500   */\n      dup2\n        /* \"#utility.yul\":7491:7507   */\n      mul\n        /* \"#utility.yul\":7482:7507   */\n      swap1\n      pop\n        /* \"#utility.yul\":6440:7513   */\n    tag_170:\n      swap4\n      swap3\n      pop\n      pop\n      pop\n      jump\t// out\n        /* \"#utility.yul\":7519:7605   */\n    tag_89:\n        /* \"#utility.yul\":7554:7561   */\n      0x00\n        /* \"#utility.yul\":7594:7598   */\n      0xff\n        /* \"#utility.yul\":7587:7592   */\n      dup3\n        /* \"#utility.yul\":7583:7599   */\n      and\n        /* \"#utility.yul\":7572:7599   */\n      swap1\n      pop\n        /* \"#utility.yul\":7519:7605   */\n      swap2\n      swap1\n      pop\n      jump\t// out\n        /* \"#utility.yul\":7611:7892   */\n    tag_64:\n        /* \"#utility.yul\":7669:7674   */\n      0x00\n        /* \"#utility.yul\":7693:7716   */\n      tag_188\n        /* \"#utility.yul\":7711:7715   */\n      dup3\n        /* \"#utility.yul\":7693:7716   */\n      tag_75\n      jump\t// in\n    tag_188:\n        /* \"#utility.yul\":7685:7716   */\n      swap2\n      pop\n        /* \"#utility.yul\":7737:7762   */\n      tag_189\n        /* \"#utility.yul\":7753:7761   */\n      dup4\n        /* \"#utility.yul\":7737:7762   */\n      tag_89\n      jump\t// in\n    tag_189:\n        /* \"#utility.yul\":7725:7762   */\n      swap3\n      pop\n        /* \"#utility.yul\":7781:7885   */\n      tag_190\n        /* \"#utility.yul\":7818:7884   */\n      0xffffffffffffffffffffffffffffffffffffffffffffffffffffffffffffffff\n        /* \"#utility.yul\":7808:7816   */\n      dup5\n        /* \"#utility.yul\":7802:7806   */\n      dup5\n        /* \"#utility.yul\":7781:7885   */\n      tag_88\n      jump\t// in\n    tag_190:\n        /* \"#utility.yul\":7772:7885   */\n      swap1\n      pop\n        /* \"#utility.yul\":7611:7892   */\n      swap3\n      swap2\n      pop\n      pop\n      jump\t// out\n\n    auxdata: 0xa264697066735822122079c0bd5865062879f3e79f5b419995c266502aaac93296f4a9f4d22dced6696164736f6c634300081a0033\n}\n",
				"bytecode": {
					"linkReferences": {},
					"object": "6107d961004d600b8282823980515f1a6073146041577f4e487b71000000000000000000000000000000000000000000000000000000005f525f60045260245ffd5b305f52607381538281f3fe7300000000000000000000000000000000000000003014608060405260043610610060575f3560e01c806329aa9cbe1461006457806381fe57861461009457806383714834146100c4578063c6c2ea17146100f4578063fe459d2014610124575b5f80fd5b61007e6004803603810190610079919061032a565b610154565b60405161008b9190610377565b60405180910390f35b6100ae60048036038101906100a9919061032a565b61016f565b6040516100bb9190610377565b60405180910390f35b6100de60048036038101906100d991906103c3565b61018a565b6040516100eb91906103fd565b60405180910390f35b61010e600480360381019061010991906103c3565b6101da565b60405161011b91906103fd565b60405180910390f35b61013e600480360381019061013991906103c3565b610232565b60405161014b9190610486565b60405180910390f35b5f8183121561016557829050610169565b8190505b92915050565b5f8183131561018057829050610184565b8190505b92915050565b5f80600190505f83036101a15760019150506101d5565b5f600190505b8381116101cf5780826101ba91906104d3565b915080806101c790610514565b9150506101a7565b50809150505b919050565b5f60018214806101e957505f82145b156101f65781905061022d565b61020b600283610206919061055b565b6101da565b61022060018461021b919061055b565b6101da565b61022a919061058e565b90505b919050565b60605f805b5f84111561026d57600a8461024c91906105ee565b905060038161025b9190610759565b82610266919061058e565b9150610237565b8382036102b3576040518060400160405280601881526020017f4974277320616e2061726d7374726f6e67206e756d6265720000000000000000815250925050506102ee565b6040518060400160405280601481526020017f4e6f742041726d7374726f6e67204e756d626572000000000000000000000000815250925050505b919050565b5f80fd5b5f819050919050565b610309816102f7565b8114610313575f80fd5b50565b5f8135905061032481610300565b92915050565b5f80604083850312156103405761033f6102f3565b5b5f61034d85828601610316565b925050602061035e85828601610316565b9150509250929050565b610371816102f7565b82525050565b5f60208201905061038a5f830184610368565b92915050565b5f819050919050565b6103a281610390565b81146103ac575f80fd5b50565b5f813590506103bd81610399565b92915050565b5f602082840312156103d8576103d76102f3565b5b5f6103e5848285016103af565b91505092915050565b6103f781610390565b82525050565b5f6020820190506104105f8301846103ee565b92915050565b5f81519050919050565b5f82825260208201905092915050565b8281835e5f83830152505050565b5f601f19601f8301169050919050565b5f61045882610416565b6104628185610420565b9350610472818560208601610430565b61047b8161043e565b840191505092915050565b5f6020820190508181035f83015261049e818461044e565b905092915050565b7f4e487b71000000000000000000000000000000000000000000000000000000005f52601160045260245ffd5b5f6104dd82610390565b91506104e883610390565b92508282026104f681610390565b9150828204841483151761050d5761050c6104a6565b5b5092915050565b5f61051e82610390565b91507fffffffffffffffffffffffffffffffffffffffffffffffffffffffffffffffff82036105505761054f6104a6565b5b600182019050919050565b5f61056582610390565b915061057083610390565b9250828203905081811115610588576105876104a6565b5b92915050565b5f61059882610390565b91506105a383610390565b92508282019050808211156105bb576105ba6104a6565b5b92915050565b7f4e487b71000000000000000000000000000000000000000000000000000000005f52601260045260245ffd5b5f6105f882610390565b915061060383610390565b925082610613576106126105c1565b5b828206905092915050565b5f8160011c9050919050565b5f808291508390505b60018511156106735780860481111561064f5761064e6104a6565b5b600185161561065e5780820291505b808102905061066c8561061e565b9450610633565b94509492505050565b5f8261068b5760019050610746565b81610698575f9050610746565b81600181146106ae57600281146106b8576106e7565b6001915050610746565b60ff8411156106ca576106c96104a6565b5b8360020a9150848211156106e1576106e06104a6565b5b50610746565b5060208310610133831016604e8410600b841016171561071c5782820a905083811115610717576107166104a6565b5b610746565b610729848484600161062a565b925090508184048111156107405761073f6104a6565b5b81810290505b9392505050565b5f60ff82169050919050565b5f61076382610390565b915061076e8361074d565b925061079b7fffffffffffffffffffffffffffffffffffffffffffffffffffffffffffffffff848461067c565b90509291505056fea264697066735822122079c0bd5865062879f3e79f5b419995c266502aaac93296f4a9f4d22dced6696164736f6c634300081a0033",
					"opcodes": "PUSH2 0x7D9 PUSH2 0x4D PUSH1 0xB DUP3 DUP3 DUP3 CODECOPY DUP1 MLOAD PUSH0 BYTE PUSH1 0x73 EQ PUSH1 0x41 JUMPI PUSH32 0x4E487B7100000000000000000000000000000000000000000000000000000000 PUSH0 MSTORE PUSH0 PUSH1 0x4 MSTORE PUSH1 0x24 PUSH0 REVERT JUMPDEST ADDRESS PUSH0 MSTORE PUSH1 0x73 DUP2 MSTORE8 DUP3 DUP2 RETURN INVALID PUSH20 0x0 ADDRESS EQ PUSH1 0x80 PUSH1 0x40 MSTORE PUSH1 0x4 CALLDATASIZE LT PUSH2 0x60 JUMPI PUSH0 CALLDATALOAD PUSH1 0xE0 SHR DUP1 PUSH4 0x29AA9CBE EQ PUSH2 0x64 JUMPI DUP1 PUSH4 0x81FE5786 EQ PUSH2 0x94 JUMPI DUP1 PUSH4 0x83714834 EQ PUSH2 0xC4 JUMPI DUP1 PUSH4 0xC6C2EA17 EQ PUSH2 0xF4 JUMPI DUP1 PUSH4 0xFE459D20 EQ PUSH2 0x124 JUMPI JUMPDEST PUSH0 DUP1 REVERT JUMPDEST PUSH2 0x7E PUSH1 0x4 DUP1 CALLDATASIZE SUB DUP2 ADD SWAP1 PUSH2 0x79 SWAP2 SWAP1 PUSH2 0x32A JUMP JUMPDEST PUSH2 0x154 JUMP JUMPDEST PUSH1 0x40 MLOAD PUSH2 0x8B SWAP2 SWAP1 PUSH2 0x377 JUMP JUMPDEST PUSH1 0x40 MLOAD DUP1 SWAP2 SUB SWAP1 RETURN JUMPDEST PUSH2 0xAE PUSH1 0x4 DUP1 CALLDATASIZE SUB DUP2 ADD SWAP1 PUSH2 0xA9 SWAP2 SWAP1 PUSH2 0x32A JUMP JUMPDEST PUSH2 0x16F JUMP JUMPDEST PUSH1 0x40 MLOAD PUSH2 0xBB SWAP2 SWAP1 PUSH2 0x377 JUMP JUMPDEST PUSH1 0x40 MLOAD DUP1 SWAP2 SUB SWAP1 RETURN JUMPDEST PUSH2 0xDE PUSH1 0x4 DUP1 CALLDATASIZE SUB DUP2 ADD SWAP1 PUSH2 0xD9 SWAP2 SWAP1 PUSH2 0x3C3 JUMP JUMPDEST PUSH2 0x18A JUMP JUMPDEST PUSH1 0x40 MLOAD PUSH2 0xEB SWAP2 SWAP1 PUSH2 0x3FD JUMP JUMPDEST PUSH1 0x40 MLOAD DUP1 SWAP2 SUB SWAP1 RETURN JUMPDEST PUSH2 0x10E PUSH1 0x4 DUP1 CALLDATASIZE SUB DUP2 ADD SWAP1 PUSH2 0x109 SWAP2 SWAP1 PUSH2 0x3C3 JUMP JUMPDEST PUSH2 0x1DA JUMP JUMPDEST PUSH1 0x40 MLOAD PUSH2 0x11B SWAP2 SWAP1 PUSH2 0x3FD JUMP JUMPDEST PUSH1 0x40 MLOAD DUP1 SWAP2 SUB SWAP1 RETURN JUMPDEST PUSH2 0x13E PUSH1 0x4 DUP1 CALLDATASIZE SUB DUP2 ADD SWAP1 PUSH2 0x139 SWAP2 SWAP1 PUSH2 0x3C3 JUMP JUMPDEST PUSH2 0x232 JUMP JUMPDEST PUSH1 0x40 MLOAD PUSH2 0x14B SWAP2 SWAP1 PUSH2 0x486 JUMP JUMPDEST PUSH1 0x40 MLOAD DUP1 SWAP2 SUB SWAP1 RETURN JUMPDEST PUSH0 DUP2 DUP4 SLT ISZERO PUSH2 0x165 JUMPI DUP3 SWAP1 POP PUSH2 0x169 JUMP JUMPDEST DUP2 SWAP1 POP JUMPDEST SWAP3 SWAP2 POP POP JUMP JUMPDEST PUSH0 DUP2 DUP4 SGT ISZERO PUSH2 0x180 JUMPI DUP3 SWAP1 POP PUSH2 0x184 JUMP JUMPDEST DUP2 SWAP1 POP JUMPDEST SWAP3 SWAP2 POP POP JUMP JUMPDEST PUSH0 DUP1 PUSH1 0x1 SWAP1 POP PUSH0 DUP4 SUB PUSH2 0x1A1 JUMPI PUSH1 0x1 SWAP2 POP POP PUSH2 0x1D5 JUMP JUMPDEST PUSH0 PUSH1 0x1 SWAP1 POP JUMPDEST DUP4 DUP2 GT PUSH2 0x1CF JUMPI DUP1 DUP3 PUSH2 0x1BA SWAP2 SWAP1 PUSH2 0x4D3 JUMP JUMPDEST SWAP2 POP DUP1 DUP1 PUSH2 0x1C7 SWAP1 PUSH2 0x514 JUMP JUMPDEST SWAP2 POP POP PUSH2 0x1A7 JUMP JUMPDEST POP DUP1 SWAP2 POP POP JUMPDEST SWAP2 SWAP1 POP JUMP JUMPDEST PUSH0 PUSH1 0x1 DUP3 EQ DUP1 PUSH2 0x1E9 JUMPI POP PUSH0 DUP3 EQ JUMPDEST ISZERO PUSH2 0x1F6 JUMPI DUP2 SWAP1 POP PUSH2 0x22D JUMP JUMPDEST PUSH2 0x20B PUSH1 0x2 DUP4 PUSH2 0x206 SWAP2 SWAP1 PUSH2 0x55B JUMP JUMPDEST PUSH2 0x1DA JUMP JUMPDEST PUSH2 0x220 PUSH1 0x1 DUP5 PUSH2 0x21B SWAP2 SWAP1 PUSH2 0x55B JUMP JUMPDEST PUSH2 0x1DA JUMP JUMPDEST PUSH2 0x22A SWAP2 SWAP1 PUSH2 0x58E JUMP JUMPDEST SWAP1 POP JUMPDEST SWAP2 SWAP1 POP JUMP JUMPDEST PUSH1 0x60 PUSH0 DUP1 JUMPDEST PUSH0 DUP5 GT ISZERO PUSH2 0x26D JUMPI PUSH1 0xA DUP5 PUSH2 0x24C SWAP2 SWAP1 PUSH2 0x5EE JUMP JUMPDEST SWAP1 POP PUSH1 0x3 DUP2 PUSH2 0x25B SWAP2 SWAP1 PUSH2 0x759 JUMP JUMPDEST DUP3 PUSH2 0x266 SWAP2 SWAP1 PUSH2 0x58E JUMP JUMPDEST SWAP2 POP PUSH2 0x237 JUMP JUMPDEST DUP4 DUP3 SUB PUSH2 0x2B3 JUMPI PUSH1 0x40 MLOAD DUP1 PUSH1 0x40 ADD PUSH1 0x40 MSTORE DUP1 PUSH1 0x18 DUP2 MSTORE PUSH1 0x20 ADD PUSH32 0x4974277320616E2061726D7374726F6E67206E756D6265720000000000000000 DUP2 MSTORE POP SWAP3 POP POP POP PUSH2 0x2EE JUMP JUMPDEST PUSH1 0x40 MLOAD DUP1 PUSH1 0x40 ADD PUSH1 0x40 MSTORE DUP1 PUSH1 0x14 DUP2 MSTORE PUSH1 0x20 ADD PUSH32 0x4E6F742041726D7374726F6E67204E756D626572000000000000000000000000 DUP2 MSTORE POP SWAP3 POP POP POP JUMPDEST SWAP2 SWAP1 POP JUMP JUMPDEST PUSH0 DUP1 REVERT JUMPDEST PUSH0 DUP2 SWAP1 POP SWAP2 SWAP1 POP JUMP JUMPDEST PUSH2 0x309 DUP2 PUSH2 0x2F7 JUMP JUMPDEST DUP2 EQ PUSH2 0x313 JUMPI PUSH0 DUP1 REVERT JUMPDEST POP JUMP JUMPDEST PUSH0 DUP2 CALLDATALOAD SWAP1 POP PUSH2 0x324 DUP2 PUSH2 0x300 JUMP JUMPDEST SWAP3 SWAP2 POP POP JUMP JUMPDEST PUSH0 DUP1 PUSH1 0x40 DUP4 DUP6 SUB SLT ISZERO PUSH2 0x340 JUMPI PUSH2 0x33F PUSH2 0x2F3 JUMP JUMPDEST JUMPDEST PUSH0 PUSH2 0x34D DUP6 DUP3 DUP7 ADD PUSH2 0x316 JUMP JUMPDEST SWAP3 POP POP PUSH1 0x20 PUSH2 0x35E DUP6 DUP3 DUP7 ADD PUSH2 0x316 JUMP JUMPDEST SWAP2 POP POP SWAP3 POP SWAP3 SWAP1 POP JUMP JUMPDEST PUSH2 0x371 DUP2 PUSH2 0x2F7 JUMP JUMPDEST DUP3 MSTORE POP POP JUMP JUMPDEST PUSH0 PUSH1 0x20 DUP3 ADD SWAP1 POP PUSH2 0x38A PUSH0 DUP4 ADD DUP5 PUSH2 0x368 JUMP JUMPDEST SWAP3 SWAP2 POP POP JUMP JUMPDEST PUSH0 DUP2 SWAP1 POP SWAP2 SWAP1 POP JUMP JUMPDEST PUSH2 0x3A2 DUP2 PUSH2 0x390 JUMP JUMPDEST DUP2 EQ PUSH2 0x3AC JUMPI PUSH0 DUP1 REVERT JUMPDEST POP JUMP JUMPDEST PUSH0 DUP2 CALLDATALOAD SWAP1 POP PUSH2 0x3BD DUP2 PUSH2 0x399 JUMP JUMPDEST SWAP3 SWAP2 POP POP JUMP JUMPDEST PUSH0 PUSH1 0x20 DUP3 DUP5 SUB SLT ISZERO PUSH2 0x3D8 JUMPI PUSH2 0x3D7 PUSH2 0x2F3 JUMP JUMPDEST JUMPDEST PUSH0 PUSH2 0x3E5 DUP5 DUP3 DUP6 ADD PUSH2 0x3AF JUMP JUMPDEST SWAP2 POP POP SWAP3 SWAP2 POP POP JUMP JUMPDEST PUSH2 0x3F7 DUP2 PUSH2 0x390 JUMP JUMPDEST DUP3 MSTORE POP POP JUMP JUMPDEST PUSH0 PUSH1 0x20 DUP3 ADD SWAP1 POP PUSH2 0x410 PUSH0 DUP4 ADD DUP5 PUSH2 0x3EE JUMP JUMPDEST SWAP3 SWAP2 POP POP JUMP JUMPDEST PUSH0 DUP2 MLOAD SWAP1 POP SWAP2 SWAP1 POP JUMP JUMPDEST PUSH0 DUP3 DUP3 MSTORE PUSH1 0x20 DUP3 ADD SWAP1 POP SWAP3 SWAP2 POP POP JUMP JUMPDEST DUP3 DUP2 DUP4 MCOPY PUSH0 DUP4 DUP4 ADD MSTORE POP POP POP JUMP JUMPDEST PUSH0 PUSH1 0x1F NOT PUSH1 0x1F DUP4 ADD AND SWAP1 POP SWAP2 SWAP1 POP JUMP JUMPDEST PUSH0 PUSH2 0x458 DUP3 PUSH2 0x416 JUMP JUMPDEST PUSH2 0x462 DUP2 DUP6 PUSH2 0x420 JUMP JUMPDEST SWAP4 POP PUSH2 0x472 DUP2 DUP6 PUSH1 0x20 DUP7 ADD PUSH2 0x430 JUMP JUMPDEST PUSH2 0x47B DUP2 PUSH2 0x43E JUMP JUMPDEST DUP5 ADD SWAP2 POP POP SWAP3 SWAP2 POP POP JUMP JUMPDEST PUSH0 PUSH1 0x20 DUP3 ADD SWAP1 POP DUP2 DUP2 SUB PUSH0 DUP4 ADD MSTORE PUSH2 0x49E DUP2 DUP5 PUSH2 0x44E JUMP JUMPDEST SWAP1 POP SWAP3 SWAP2 POP POP JUMP JUMPDEST PUSH32 0x4E487B7100000000000000000000000000000000000000000000000000000000 PUSH0 MSTORE PUSH1 0x11 PUSH1 0x4 MSTORE PUSH1 0x24 PUSH0 REVERT JUMPDEST PUSH0 PUSH2 0x4DD DUP3 PUSH2 0x390 JUMP JUMPDEST SWAP2 POP PUSH2 0x4E8 DUP4 PUSH2 0x390 JUMP JUMPDEST SWAP3 POP DUP3 DUP3 MUL PUSH2 0x4F6 DUP2 PUSH2 0x390 JUMP JUMPDEST SWAP2 POP DUP3 DUP3 DIV DUP5 EQ DUP4 ISZERO OR PUSH2 0x50D JUMPI PUSH2 0x50C PUSH2 0x4A6 JUMP JUMPDEST JUMPDEST POP SWAP3 SWAP2 POP POP JUMP JUMPDEST PUSH0 PUSH2 0x51E DUP3 PUSH2 0x390 JUMP JUMPDEST SWAP2 POP PUSH32 0xFFFFFFFFFFFFFFFFFFFFFFFFFFFFFFFFFFFFFFFFFFFFFFFFFFFFFFFFFFFFFFFF DUP3 SUB PUSH2 0x550 JUMPI PUSH2 0x54F PUSH2 0x4A6 JUMP JUMPDEST JUMPDEST PUSH1 0x1 DUP3 ADD SWAP1 POP SWAP2 SWAP1 POP JUMP JUMPDEST PUSH0 PUSH2 0x565 DUP3 PUSH2 0x390 JUMP JUMPDEST SWAP2 POP PUSH2 0x570 DUP4 PUSH2 0x390 JUMP JUMPDEST SWAP3 POP DUP3 DUP3 SUB SWAP1 POP DUP2 DUP2 GT ISZERO PUSH2 0x588 JUMPI PUSH2 0x587 PUSH2 0x4A6 JUMP JUMPDEST JUMPDEST SWAP3 SWAP2 POP POP JUMP JUMPDEST PUSH0 PUSH2 0x598 DUP3 PUSH2 0x390 JUMP JUMPDEST SWAP2 POP PUSH2 0x5A3 DUP4 PUSH2 0x390 JUMP JUMPDEST SWAP3 POP DUP3 DUP3 ADD SWAP1 POP DUP1 DUP3 GT ISZERO PUSH2 0x5BB JUMPI PUSH2 0x5BA PUSH2 0x4A6 JUMP JUMPDEST JUMPDEST SWAP3 SWAP2 POP POP JUMP JUMPDEST PUSH32 0x4E487B7100000000000000000000000000000000000000000000000000000000 PUSH0 MSTORE PUSH1 0x12 PUSH1 0x4 MSTORE PUSH1 0x24 PUSH0 REVERT JUMPDEST PUSH0 PUSH2 0x5F8 DUP3 PUSH2 0x390 JUMP JUMPDEST SWAP2 POP PUSH2 0x603 DUP4 PUSH2 0x390 JUMP JUMPDEST SWAP3 POP DUP3 PUSH2 0x613 JUMPI PUSH2 0x612 PUSH2 0x5C1 JUMP JUMPDEST JUMPDEST DUP3 DUP3 MOD SWAP1 POP SWAP3 SWAP2 POP POP JUMP JUMPDEST PUSH0 DUP2 PUSH1 0x1 SHR SWAP1 POP SWAP2 SWAP1 POP JUMP JUMPDEST PUSH0 DUP1 DUP3 SWAP2 POP DUP4 SWAP1 POP JUMPDEST PUSH1 0x1 DUP6 GT ISZERO PUSH2 0x673 JUMPI DUP1 DUP7 DIV DUP2 GT ISZERO PUSH2 0x64F JUMPI PUSH2 0x64E PUSH2 0x4A6 JUMP JUMPDEST JUMPDEST PUSH1 0x1 DUP6 AND ISZERO PUSH2 0x65E JUMPI DUP1 DUP3 MUL SWAP2 POP JUMPDEST DUP1 DUP2 MUL SWAP1 POP PUSH2 0x66C DUP6 PUSH2 0x61E JUMP JUMPDEST SWAP5 POP PUSH2 0x633 JUMP JUMPDEST SWAP5 POP SWAP5 SWAP3 POP POP POP JUMP JUMPDEST PUSH0 DUP3 PUSH2 0x68B JUMPI PUSH1 0x1 SWAP1 POP PUSH2 0x746 JUMP JUMPDEST DUP2 PUSH2 0x698 JUMPI PUSH0 SWAP1 POP PUSH2 0x746 JUMP JUMPDEST DUP2 PUSH1 0x1 DUP2 EQ PUSH2 0x6AE JUMPI PUSH1 0x2 DUP2 EQ PUSH2 0x6B8 JUMPI PUSH2 0x6E7 JUMP JUMPDEST PUSH1 0x1 SWAP2 POP POP PUSH2 0x746 JUMP JUMPDEST PUSH1 0xFF DUP5 GT ISZERO PUSH2 0x6CA JUMPI PUSH2 0x6C9 PUSH2 0x4A6 JUMP JUMPDEST JUMPDEST DUP4 PUSH1 0x2 EXP SWAP2 POP DUP5 DUP3 GT ISZERO PUSH2 0x6E1 JUMPI PUSH2 0x6E0 PUSH2 0x4A6 JUMP JUMPDEST JUMPDEST POP PUSH2 0x746 JUMP JUMPDEST POP PUSH1 0x20 DUP4 LT PUSH2 0x133 DUP4 LT AND PUSH1 0x4E DUP5 LT PUSH1 0xB DUP5 LT AND OR ISZERO PUSH2 0x71C JUMPI DUP3 DUP3 EXP SWAP1 POP DUP4 DUP2 GT ISZERO PUSH2 0x717 JUMPI PUSH2 0x716 PUSH2 0x4A6 JUMP JUMPDEST JUMPDEST PUSH2 0x746 JUMP JUMPDEST PUSH2 0x729 DUP5 DUP5 DUP5 PUSH1 0x1 PUSH2 0x62A JUMP JUMPDEST SWAP3 POP SWAP1 POP DUP2 DUP5 DIV DUP2 GT ISZERO PUSH2 0x740 JUMPI PUSH2 0x73F PUSH2 0x4A6 JUMP JUMPDEST JUMPDEST DUP2 DUP2 MUL SWAP1 POP JUMPDEST SWAP4 SWAP3 POP POP POP JUMP JUMPDEST PUSH0 PUSH1 0xFF DUP3 AND SWAP1 POP SWAP2 SWAP1 POP JUMP JUMPDEST PUSH0 PUSH2 0x763 DUP3 PUSH2 0x390 JUMP JUMPDEST SWAP2 POP PUSH2 0x76E DUP4 PUSH2 0x74D JUMP JUMPDEST SWAP3 POP PUSH2 0x79B PUSH32 0xFFFFFFFFFFFFFFFFFFFFFFFFFFFFFFFFFFFFFFFFFFFFFFFFFFFFFFFFFFFFFFFF DUP5 DUP5 PUSH2 0x67C JUMP JUMPDEST SWAP1 POP SWAP3 SWAP2 POP POP JUMP INVALID LOG2 PUSH5 0x6970667358 0x22 SLT KECCAK256 PUSH26 0xC0BD5865062879F3E79F5B419995C266502AAAC93296F4A9F4D2 0x2D 0xCE 0xD6 PUSH10 0x6164736F6C634300081A STOP CALLER "
				},
				"gasEstimates": {
					"creation": {
						"codeDepositCost": "401800",
						"executionCost": "463",
						"totalCost": "402263"
					},
					"external": {
						"factorial(uint256)": "infinite",
						"fib(uint256)": "infinite",
						"isArmstrong(uint256)": "infinite",
						"max(int256,int256)": "infinite",
						"min(int256,int256)": "infinite"
					}
				},
				"methodIdentifiers": {
					"factorial(uint256)": "83714834",
					"fib(uint256)": "c6c2ea17",
					"isArmstrong(uint256)": "fe459d20",
					"max(int256,int256)": "81fe5786",
					"min(int256,int256)": "29aa9cbe"
				}
			},
			"storageLayout": {
				"storage": [],
				"types": null
			},
			"userdoc": {
				"kind": "user",
				"methods": {},
				"version": 1
			}
		}
	}
}