{
	"Day07/d7p2lib.sol": {
		"d7p2lib": {
			"abi": [
				{
					"inputs": [
						{
							"internalType": "int256",
							"name": "x",
							"type": "int256"
						}
					],
					"name": "abs",
					"outputs": [
						{
							"internalType": "int256",
							"name": "",
							"type": "int256"
						}
					],
					"stateMutability": "pure",
					"type": "function"
				},
				{
					"inputs": [
						{
							"internalType": "int256",
							"name": "x",
							"type": "int256"
						},
						{
							"internalType": "int256",
							"name": "y",
							"type": "int256"
						}
					],
					"name": "add",
					"outputs": [
						{
							"internalType": "int256",
							"name": "",
							"type": "int256"
						}
					],
					"stateMutability": "pure",
					"type": "function"
				},
				{
					"inputs": [
						{
							"internalType": "int256",
							"name": "x",
							"type": "int256"
						},
						{
							"internalType": "int256",
							"name": "y",
							"type": "int256"
						}
					],
					"name": "divide",
					"outputs": [
						{
							"internalType": "int256",
							"name": "",
							"type": "int256"
						}
					],
					"stateMutability": "pure",
					"type": "function"
				},
				{
					"inputs": [
						{
							"internalType": "uint256",
							"name": "x",
							"type": "uint256"
						},
						{
							"internalType": "uint256",
							"name": "y",
							"type": "uint256"
						}
					],
					"name": "expo",
					"outputs": [
						{
							"internalType": "uint256",
							"name": "",
							"type": "uint256"
						}
					],
					"stateMutability": "pure",
					"type": "function"
				},
				{
					"inputs": [
						{
							"internalType": "int256",
							"name": "x",
							"type": "int256"
						},
						{
							"internalType": "int256",
							"name": "y",
							"type": "int256"
						}
					],
					"name": "mod",
					"outputs": [
						{
							"internalType": "int256",
							"name": "",
							"type": "int256"
						}
					],
					"stateMutability": "pure",
					"type": "function"
				},
				{
					"inputs": [
						{
							"internalType": "int256",
							"name": "x",
							"type": "int256"
						},
						{
							"internalType": "int256",
							"name": "y",
							"type": "int256"
						}
					],
					"name": "multiply",
					"outputs": [
						{
							"internalType": "int256",
							"name": "",
							"type": "int256"
						}
					],
					"stateMutability": "pure",
					"type": "function"
				},
				{
					"inputs": [
						{
							"internalType": "int256",
							"name": "x",
							"type": "int256"
						}
					],
					"name": "sqrt",
					"outputs": [
						{
							"internalType": "int256",
							"name": "",
							"type": "int256"
						}
					],
					"stateMutability": "pure",
					"type": "function"
				},
				{
					"inputs": [
						{
							"internalType": "int256",
							"name": "x",
							"type": "int256"
						},
						{
							"internalType": "int256",
							"name": "y",
							"type": "int256"
						}
					],
					"name": "subtract",
					"outputs": [
						{
							"internalType": "int256",
							"name": "",
							"type": "int256"
						}
					],
					"stateMutability": "pure",
					"type": "function"
				}
			],
			"devdoc": {
				"kind": "dev",
				"methods": {},
				"version": 1
			},
			"evm": {
				"assembly": "    /* \"Day07/d7p2lib.sol\":68:910  library d7p2lib{... */\n  dataSize(sub_0)\n  dataOffset(sub_0)\n  0x0b\n  dup3\n  dup3\n  dup3\n  codecopy\n  dup1\n  mload\n  0x00\n  byte\n  0x73\n  eq\n  tag_1\n  jumpi\n  mstore(0x00, 0x4e487b7100000000000000000000000000000000000000000000000000000000)\n  mstore(0x04, 0x00)\n  revert(0x00, 0x24)\ntag_1:\n  mstore(0x00, address)\n  0x73\n  dup2\n  mstore8\n  dup3\n  dup2\n  return\nstop\n\nsub_0: assembly {\n        /* \"Day07/d7p2lib.sol\":68:910  library d7p2lib{... */\n      eq(address, deployTimeAddress())\n      mstore(0x40, 0x80)\n      jumpi(tag_1, lt(calldatasize, 0x04))\n      shr(0xe0, calldataload(0x00))\n      dup1\n      0x665df460\n      gt\n      tag_10\n      jumpi\n      dup1\n      0x665df460\n      eq\n      tag_6\n      jumpi\n      dup1\n      0xa5f3c23b\n      eq\n      tag_7\n      jumpi\n      dup1\n      0xb93ea812\n      eq\n      tag_8\n      jumpi\n      dup1\n      0xf5984236\n      eq\n      tag_9\n      jumpi\n      jump(tag_1)\n    tag_10:\n      dup1\n      0x1b5ac4b5\n      eq\n      tag_2\n      jumpi\n      dup1\n      0x24e28928\n      eq\n      tag_3\n      jumpi\n      dup1\n      0x3c4308a8\n      eq\n      tag_4\n      jumpi\n      dup1\n      0x4f4752ba\n      eq\n      tag_5\n      jumpi\n    tag_1:\n      0x00\n      dup1\n      revert\n        /* \"Day07/d7p2lib.sol\":683:804  function abs(int256 x) public pure returns (int256){... */\n    tag_2:\n      tag_11\n      0x04\n      dup1\n      calldatasize\n      sub\n      dup2\n      add\n      swap1\n      tag_12\n      swap2\n      swap1\n      tag_13\n      jump\t// in\n    tag_12:\n      tag_14\n      jump\t// in\n    tag_11:\n      mload(0x40)\n      tag_15\n      swap2\n      swap1\n      tag_16\n      jump\t// in\n    tag_15:\n      mload(0x40)\n      dup1\n      swap2\n      sub\n      swap1\n      return\n        /* \"Day07/d7p2lib.sol\":495:585  function mod(int256 x, int256 y) public pure returns (int256){... */\n    tag_3:\n      tag_17\n      0x04\n      dup1\n      calldatasize\n      sub\n      dup2\n      add\n      swap1\n      tag_18\n      swap2\n      swap1\n      tag_19\n      jump\t// in\n    tag_18:\n      tag_20\n      jump\t// in\n    tag_17:\n      mload(0x40)\n      tag_21\n      swap2\n      swap1\n      tag_16\n      jump\t// in\n    tag_21:\n      mload(0x40)\n      dup1\n      swap2\n      sub\n      swap1\n      return\n        /* \"Day07/d7p2lib.sol\":291:386  function multiply(int256 x, int256 y) public pure returns (int256){... */\n    tag_4:\n      tag_22\n      0x04\n      dup1\n      calldatasize\n      sub\n      dup2\n      add\n      swap1\n      tag_23\n      swap2\n      swap1\n      tag_19\n      jump\t// in\n    tag_23:\n      tag_24\n      jump\t// in\n    tag_22:\n      mload(0x40)\n      tag_25\n      swap2\n      swap1\n      tag_16\n      jump\t// in\n    tag_25:\n      mload(0x40)\n      dup1\n      swap2\n      sub\n      swap1\n      return\n        /* \"Day07/d7p2lib.sol\":812:907  function expo(uint256 x, uint256 y) public pure returns (uint256){... */\n    tag_5:\n      tag_26\n      0x04\n      dup1\n      calldatasize\n      sub\n      dup2\n      add\n      swap1\n      tag_27\n      swap2\n      swap1\n      tag_28\n      jump\t// in\n    tag_27:\n      tag_29\n      jump\t// in\n    tag_26:\n      mload(0x40)\n      tag_30\n      swap2\n      swap1\n      tag_31\n      jump\t// in\n    tag_30:\n      mload(0x40)\n      dup1\n      swap2\n      sub\n      swap1\n      return\n        /* \"Day07/d7p2lib.sol\":593:675  function sqrt(int256 x) public pure returns (int256){... */\n    tag_6:\n      tag_32\n      0x04\n      dup1\n      calldatasize\n      sub\n      dup2\n      add\n      swap1\n      tag_33\n      swap2\n      swap1\n      tag_13\n      jump\t// in\n    tag_33:\n      tag_34\n      jump\t// in\n    tag_32:\n      mload(0x40)\n      tag_35\n      swap2\n      swap1\n      tag_16\n      jump\t// in\n    tag_35:\n      mload(0x40)\n      dup1\n      swap2\n      sub\n      swap1\n      return\n        /* \"Day07/d7p2lib.sol\":90:180  function add(int256 x, int256 y) public pure returns (int256){... */\n    tag_7:\n      tag_36\n      0x04\n      dup1\n      calldatasize\n      sub\n      dup2\n      add\n      swap1\n      tag_37\n      swap2\n      swap1\n      tag_19\n      jump\t// in\n    tag_37:\n      tag_38\n      jump\t// in\n    tag_36:\n      mload(0x40)\n      tag_39\n      swap2\n      swap1\n      tag_16\n      jump\t// in\n    tag_39:\n      mload(0x40)\n      dup1\n      swap2\n      sub\n      swap1\n      return\n        /* \"Day07/d7p2lib.sol\":188:283  function subtract(int256 x, int256 y) public pure returns (int256){... */\n    tag_8:\n      tag_40\n      0x04\n      dup1\n      calldatasize\n      sub\n      dup2\n      add\n      swap1\n      tag_41\n      swap2\n      swap1\n      tag_19\n      jump\t// in\n    tag_41:\n      tag_42\n      jump\t// in\n    tag_40:\n      mload(0x40)\n      tag_43\n      swap2\n      swap1\n      tag_16\n      jump\t// in\n    tag_43:\n      mload(0x40)\n      dup1\n      swap2\n      sub\n      swap1\n      return\n        /* \"Day07/d7p2lib.sol\":394:487  function divide(int256 x, int256 y) public pure returns (int256){... */\n    tag_9:\n      tag_44\n      0x04\n      dup1\n      calldatasize\n      sub\n      dup2\n      add\n      swap1\n      tag_45\n      swap2\n      swap1\n      tag_19\n      jump\t// in\n    tag_45:\n      tag_46\n      jump\t// in\n    tag_44:\n      mload(0x40)\n      tag_47\n      swap2\n      swap1\n      tag_16\n      jump\t// in\n    tag_47:\n      mload(0x40)\n      dup1\n      swap2\n      sub\n      swap1\n      return\n        /* \"Day07/d7p2lib.sol\":683:804  function abs(int256 x) public pure returns (int256){... */\n    tag_14:\n        /* \"Day07/d7p2lib.sol\":727:733  int256 */\n      0x00\n        /* \"Day07/d7p2lib.sol\":750:751  0 */\n      dup1\n        /* \"Day07/d7p2lib.sol\":748:749  x */\n      dup3\n        /* \"Day07/d7p2lib.sol\":748:751  x<0 */\n      slt\n        /* \"Day07/d7p2lib.sol\":745:777  if(x<0)... */\n      iszero\n      tag_49\n      jumpi\n        /* \"Day07/d7p2lib.sol\":775:776  x */\n      dup2\n        /* \"Day07/d7p2lib.sol\":774:776  -x */\n      tag_50\n      swap1\n      tag_51\n      jump\t// in\n    tag_50:\n        /* \"Day07/d7p2lib.sol\":766:777  return (-x) */\n      swap1\n      pop\n      jump(tag_48)\n        /* \"Day07/d7p2lib.sol\":745:777  if(x<0)... */\n    tag_49:\n        /* \"Day07/d7p2lib.sol\":795:796  x */\n      dup2\n        /* \"Day07/d7p2lib.sol\":788:796  return x */\n      swap1\n      pop\n        /* \"Day07/d7p2lib.sol\":683:804  function abs(int256 x) public pure returns (int256){... */\n    tag_48:\n      swap2\n      swap1\n      pop\n      jump\t// out\n        /* \"Day07/d7p2lib.sol\":495:585  function mod(int256 x, int256 y) public pure returns (int256){... */\n    tag_20:\n        /* \"Day07/d7p2lib.sol\":549:555  int256 */\n      0x00\n        /* \"Day07/d7p2lib.sol\":576:577  y */\n      dup2\n        /* \"Day07/d7p2lib.sol\":574:575  x */\n      dup4\n        /* \"Day07/d7p2lib.sol\":574:577  x%y */\n      tag_53\n      swap2\n      swap1\n      tag_54\n      jump\t// in\n    tag_53:\n        /* \"Day07/d7p2lib.sol\":567:577  return x%y */\n      swap1\n      pop\n        /* \"Day07/d7p2lib.sol\":495:585  function mod(int256 x, int256 y) public pure returns (int256){... */\n      swap3\n      swap2\n      pop\n      pop\n      jump\t// out\n        /* \"Day07/d7p2lib.sol\":291:386  function multiply(int256 x, int256 y) public pure returns (int256){... */\n    tag_24:\n        /* \"Day07/d7p2lib.sol\":350:356  int256 */\n      0x00\n        /* \"Day07/d7p2lib.sol\":377:378  y */\n      dup2\n        /* \"Day07/d7p2lib.sol\":375:376  x */\n      dup4\n        /* \"Day07/d7p2lib.sol\":375:378  x*y */\n      tag_56\n      swap2\n      swap1\n      tag_57\n      jump\t// in\n    tag_56:\n        /* \"Day07/d7p2lib.sol\":368:378  return x*y */\n      swap1\n      pop\n        /* \"Day07/d7p2lib.sol\":291:386  function multiply(int256 x, int256 y) public pure returns (int256){... */\n      swap3\n      swap2\n      pop\n      pop\n      jump\t// out\n        /* \"Day07/d7p2lib.sol\":812:907  function expo(uint256 x, uint256 y) public pure returns (uint256){... */\n    tag_29:\n        /* \"Day07/d7p2lib.sol\":869:876  uint256 */\n      0x00\n        /* \"Day07/d7p2lib.sol\":898:899  y */\n      dup2\n        /* \"Day07/d7p2lib.sol\":895:896  x */\n      dup4\n        /* \"Day07/d7p2lib.sol\":895:899  x**y */\n      tag_59\n      swap2\n      swap1\n      tag_60\n      jump\t// in\n    tag_59:\n        /* \"Day07/d7p2lib.sol\":888:899  return x**y */\n      swap1\n      pop\n        /* \"Day07/d7p2lib.sol\":812:907  function expo(uint256 x, uint256 y) public pure returns (uint256){... */\n      swap3\n      swap2\n      pop\n      pop\n      jump\t// out\n        /* \"Day07/d7p2lib.sol\":593:675  function sqrt(int256 x) public pure returns (int256){... */\n    tag_34:\n        /* \"Day07/d7p2lib.sol\":638:644  int256 */\n      0x00\n        /* \"Day07/d7p2lib.sol\":666:667  1 */\n      0x01\n        /* \"Day07/d7p2lib.sol\":663:664  x */\n      dup3\n        /* \"Day07/d7p2lib.sol\":663:667  x**1 */\n      tag_62\n      swap2\n      swap1\n      tag_63\n      jump\t// in\n    tag_62:\n        /* \"Day07/d7p2lib.sol\":656:667  return x**1 */\n      swap1\n      pop\n        /* \"Day07/d7p2lib.sol\":593:675  function sqrt(int256 x) public pure returns (int256){... */\n      swap2\n      swap1\n      pop\n      jump\t// out\n        /* \"Day07/d7p2lib.sol\":90:180  function add(int256 x, int256 y) public pure returns (int256){... */\n    tag_38:\n        /* \"Day07/d7p2lib.sol\":144:150  int256 */\n      0x00\n        /* \"Day07/d7p2lib.sol\":171:172  y */\n      dup2\n        /* \"Day07/d7p2lib.sol\":169:170  x */\n      dup4\n        /* \"Day07/d7p2lib.sol\":169:172  x+y */\n      tag_65\n      swap2\n      swap1\n      tag_66\n      jump\t// in\n    tag_65:\n        /* \"Day07/d7p2lib.sol\":162:172  return x+y */\n      swap1\n      pop\n        /* \"Day07/d7p2lib.sol\":90:180  function add(int256 x, int256 y) public pure returns (int256){... */\n      swap3\n      swap2\n      pop\n      pop\n      jump\t// out\n        /* \"Day07/d7p2lib.sol\":188:283  function subtract(int256 x, int256 y) public pure returns (int256){... */\n    tag_42:\n        /* \"Day07/d7p2lib.sol\":247:253  int256 */\n      0x00\n        /* \"Day07/d7p2lib.sol\":274:275  y */\n      dup2\n        /* \"Day07/d7p2lib.sol\":272:273  x */\n      dup4\n        /* \"Day07/d7p2lib.sol\":272:275  x-y */\n      tag_68\n      swap2\n      swap1\n      tag_69\n      jump\t// in\n    tag_68:\n        /* \"Day07/d7p2lib.sol\":265:275  return x-y */\n      swap1\n      pop\n        /* \"Day07/d7p2lib.sol\":188:283  function subtract(int256 x, int256 y) public pure returns (int256){... */\n      swap3\n      swap2\n      pop\n      pop\n      jump\t// out\n        /* \"Day07/d7p2lib.sol\":394:487  function divide(int256 x, int256 y) public pure returns (int256){... */\n    tag_46:\n        /* \"Day07/d7p2lib.sol\":451:457  int256 */\n      0x00\n        /* \"Day07/d7p2lib.sol\":478:479  y */\n      dup2\n        /* \"Day07/d7p2lib.sol\":476:477  x */\n      dup4\n        /* \"Day07/d7p2lib.sol\":476:479  x/y */\n      tag_71\n      swap2\n      swap1\n      tag_72\n      jump\t// in\n    tag_71:\n        /* \"Day07/d7p2lib.sol\":469:479  return x/y */\n      swap1\n      pop\n        /* \"Day07/d7p2lib.sol\":394:487  function divide(int256 x, int256 y) public pure returns (int256){... */\n      swap3\n      swap2\n      pop\n      pop\n      jump\t// out\n        /* \"#utility.yul\":88:205   */\n    tag_74:\n        /* \"#utility.yul\":197:198   */\n      0x00\n        /* \"#utility.yul\":194:195   */\n      dup1\n        /* \"#utility.yul\":187:199   */\n      revert\n        /* \"#utility.yul\":334:410   */\n    tag_76:\n        /* \"#utility.yul\":370:377   */\n      0x00\n        /* \"#utility.yul\":399:404   */\n      dup2\n        /* \"#utility.yul\":388:404   */\n      swap1\n      pop\n        /* \"#utility.yul\":334:410   */\n      swap2\n      swap1\n      pop\n      jump\t// out\n        /* \"#utility.yul\":416:536   */\n    tag_77:\n        /* \"#utility.yul\":488:511   */\n      tag_97\n        /* \"#utility.yul\":505:510   */\n      dup2\n        /* \"#utility.yul\":488:511   */\n      tag_76\n      jump\t// in\n    tag_97:\n        /* \"#utility.yul\":481:486   */\n      dup2\n        /* \"#utility.yul\":478:512   */\n      eq\n        /* \"#utility.yul\":468:530   */\n      tag_98\n      jumpi\n        /* \"#utility.yul\":526:527   */\n      0x00\n        /* \"#utility.yul\":523:524   */\n      dup1\n        /* \"#utility.yul\":516:528   */\n      revert\n        /* \"#utility.yul\":468:530   */\n    tag_98:\n        /* \"#utility.yul\":416:536   */\n      pop\n      jump\t// out\n        /* \"#utility.yul\":542:679   */\n    tag_78:\n        /* \"#utility.yul\":587:592   */\n      0x00\n        /* \"#utility.yul\":625:631   */\n      dup2\n        /* \"#utility.yul\":612:632   */\n      calldataload\n        /* \"#utility.yul\":603:632   */\n      swap1\n      pop\n        /* \"#utility.yul\":641:673   */\n      tag_100\n        /* \"#utility.yul\":667:672   */\n      dup2\n        /* \"#utility.yul\":641:673   */\n      tag_77\n      jump\t// in\n    tag_100:\n        /* \"#utility.yul\":542:679   */\n      swap3\n      swap2\n      pop\n      pop\n      jump\t// out\n        /* \"#utility.yul\":685:1012   */\n    tag_13:\n        /* \"#utility.yul\":743:749   */\n      0x00\n        /* \"#utility.yul\":792:794   */\n      0x20\n        /* \"#utility.yul\":780:789   */\n      dup3\n        /* \"#utility.yul\":771:778   */\n      dup5\n        /* \"#utility.yul\":767:790   */\n      sub\n        /* \"#utility.yul\":763:795   */\n      slt\n        /* \"#utility.yul\":760:879   */\n      iszero\n      tag_102\n      jumpi\n        /* \"#utility.yul\":798:877   */\n      tag_103\n      tag_74\n      jump\t// in\n    tag_103:\n        /* \"#utility.yul\":760:879   */\n    tag_102:\n        /* \"#utility.yul\":918:919   */\n      0x00\n        /* \"#utility.yul\":943:995   */\n      tag_104\n        /* \"#utility.yul\":987:994   */\n      dup5\n        /* \"#utility.yul\":978:984   */\n      dup3\n        /* \"#utility.yul\":967:976   */\n      dup6\n        /* \"#utility.yul\":963:985   */\n      add\n        /* \"#utility.yul\":943:995   */\n      tag_78\n      jump\t// in\n    tag_104:\n        /* \"#utility.yul\":933:995   */\n      swap2\n      pop\n        /* \"#utility.yul\":889:1005   */\n      pop\n        /* \"#utility.yul\":685:1012   */\n      swap3\n      swap2\n      pop\n      pop\n      jump\t// out\n        /* \"#utility.yul\":1018:1141   */\n    tag_79:\n        /* \"#utility.yul\":1111:1134   */\n      tag_106\n        /* \"#utility.yul\":1128:1133   */\n      dup2\n        /* \"#utility.yul\":1111:1134   */\n      tag_76\n      jump\t// in\n    tag_106:\n        /* \"#utility.yul\":1106:1109   */\n      dup3\n        /* \"#utility.yul\":1099:1135   */\n      mstore\n        /* \"#utility.yul\":1018:1141   */\n      pop\n      pop\n      jump\t// out\n        /* \"#utility.yul\":1147:1381   */\n    tag_16:\n        /* \"#utility.yul\":1246:1250   */\n      0x00\n        /* \"#utility.yul\":1284:1286   */\n      0x20\n        /* \"#utility.yul\":1273:1282   */\n      dup3\n        /* \"#utility.yul\":1269:1287   */\n      add\n        /* \"#utility.yul\":1261:1287   */\n      swap1\n      pop\n        /* \"#utility.yul\":1297:1374   */\n      tag_108\n        /* \"#utility.yul\":1371:1372   */\n      0x00\n        /* \"#utility.yul\":1360:1369   */\n      dup4\n        /* \"#utility.yul\":1356:1373   */\n      add\n        /* \"#utility.yul\":1347:1353   */\n      dup5\n        /* \"#utility.yul\":1297:1374   */\n      tag_79\n      jump\t// in\n    tag_108:\n        /* \"#utility.yul\":1147:1381   */\n      swap3\n      swap2\n      pop\n      pop\n      jump\t// out\n        /* \"#utility.yul\":1387:1857   */\n    tag_19:\n        /* \"#utility.yul\":1453:1459   */\n      0x00\n        /* \"#utility.yul\":1461:1467   */\n      dup1\n        /* \"#utility.yul\":1510:1512   */\n      0x40\n        /* \"#utility.yul\":1498:1507   */\n      dup4\n        /* \"#utility.yul\":1489:1496   */\n      dup6\n        /* \"#utility.yul\":1485:1508   */\n      sub\n        /* \"#utility.yul\":1481:1513   */\n      slt\n        /* \"#utility.yul\":1478:1597   */\n      iszero\n      tag_110\n      jumpi\n        /* \"#utility.yul\":1516:1595   */\n      tag_111\n      tag_74\n      jump\t// in\n    tag_111:\n        /* \"#utility.yul\":1478:1597   */\n    tag_110:\n        /* \"#utility.yul\":1636:1637   */\n      0x00\n        /* \"#utility.yul\":1661:1713   */\n      tag_112\n        /* \"#utility.yul\":1705:1712   */\n      dup6\n        /* \"#utility.yul\":1696:1702   */\n      dup3\n        /* \"#utility.yul\":1685:1694   */\n      dup7\n        /* \"#utility.yul\":1681:1703   */\n      add\n        /* \"#utility.yul\":1661:1713   */\n      tag_78\n      jump\t// in\n    tag_112:\n        /* \"#utility.yul\":1651:1713   */\n      swap3\n      pop\n        /* \"#utility.yul\":1607:1723   */\n      pop\n        /* \"#utility.yul\":1762:1764   */\n      0x20\n        /* \"#utility.yul\":1788:1840   */\n      tag_113\n        /* \"#utility.yul\":1832:1839   */\n      dup6\n        /* \"#utility.yul\":1823:1829   */\n      dup3\n        /* \"#utility.yul\":1812:1821   */\n      dup7\n        /* \"#utility.yul\":1808:1830   */\n      add\n        /* \"#utility.yul\":1788:1840   */\n      tag_78\n      jump\t// in\n    tag_113:\n        /* \"#utility.yul\":1778:1840   */\n      swap2\n      pop\n        /* \"#utility.yul\":1733:1850   */\n      pop\n        /* \"#utility.yul\":1387:1857   */\n      swap3\n      pop\n      swap3\n      swap1\n      pop\n      jump\t// out\n        /* \"#utility.yul\":1863:1940   */\n    tag_80:\n        /* \"#utility.yul\":1900:1907   */\n      0x00\n        /* \"#utility.yul\":1929:1934   */\n      dup2\n        /* \"#utility.yul\":1918:1934   */\n      swap1\n      pop\n        /* \"#utility.yul\":1863:1940   */\n      swap2\n      swap1\n      pop\n      jump\t// out\n        /* \"#utility.yul\":1946:2068   */\n    tag_81:\n        /* \"#utility.yul\":2019:2043   */\n      tag_116\n        /* \"#utility.yul\":2037:2042   */\n      dup2\n        /* \"#utility.yul\":2019:2043   */\n      tag_80\n      jump\t// in\n    tag_116:\n        /* \"#utility.yul\":2012:2017   */\n      dup2\n        /* \"#utility.yul\":2009:2044   */\n      eq\n        /* \"#utility.yul\":1999:2062   */\n      tag_117\n      jumpi\n        /* \"#utility.yul\":2058:2059   */\n      0x00\n        /* \"#utility.yul\":2055:2056   */\n      dup1\n        /* \"#utility.yul\":2048:2060   */\n      revert\n        /* \"#utility.yul\":1999:2062   */\n    tag_117:\n        /* \"#utility.yul\":1946:2068   */\n      pop\n      jump\t// out\n        /* \"#utility.yul\":2074:2213   */\n    tag_82:\n        /* \"#utility.yul\":2120:2125   */\n      0x00\n        /* \"#utility.yul\":2158:2164   */\n      dup2\n        /* \"#utility.yul\":2145:2165   */\n      calldataload\n        /* \"#utility.yul\":2136:2165   */\n      swap1\n      pop\n        /* \"#utility.yul\":2174:2207   */\n      tag_119\n        /* \"#utility.yul\":2201:2206   */\n      dup2\n        /* \"#utility.yul\":2174:2207   */\n      tag_81\n      jump\t// in\n    tag_119:\n        /* \"#utility.yul\":2074:2213   */\n      swap3\n      swap2\n      pop\n      pop\n      jump\t// out\n        /* \"#utility.yul\":2219:2693   */\n    tag_28:\n        /* \"#utility.yul\":2287:2293   */\n      0x00\n        /* \"#utility.yul\":2295:2301   */\n      dup1\n        /* \"#utility.yul\":2344:2346   */\n      0x40\n        /* \"#utility.yul\":2332:2341   */\n      dup4\n        /* \"#utility.yul\":2323:2330   */\n      dup6\n        /* \"#utility.yul\":2319:2342   */\n      sub\n        /* \"#utility.yul\":2315:2347   */\n      slt\n        /* \"#utility.yul\":2312:2431   */\n      iszero\n      tag_121\n      jumpi\n        /* \"#utility.yul\":2350:2429   */\n      tag_122\n      tag_74\n      jump\t// in\n    tag_122:\n        /* \"#utility.yul\":2312:2431   */\n    tag_121:\n        /* \"#utility.yul\":2470:2471   */\n      0x00\n        /* \"#utility.yul\":2495:2548   */\n      tag_123\n        /* \"#utility.yul\":2540:2547   */\n      dup6\n        /* \"#utility.yul\":2531:2537   */\n      dup3\n        /* \"#utility.yul\":2520:2529   */\n      dup7\n        /* \"#utility.yul\":2516:2538   */\n      add\n        /* \"#utility.yul\":2495:2548   */\n      tag_82\n      jump\t// in\n    tag_123:\n        /* \"#utility.yul\":2485:2548   */\n      swap3\n      pop\n        /* \"#utility.yul\":2441:2558   */\n      pop\n        /* \"#utility.yul\":2597:2599   */\n      0x20\n        /* \"#utility.yul\":2623:2676   */\n      tag_124\n        /* \"#utility.yul\":2668:2675   */\n      dup6\n        /* \"#utility.yul\":2659:2665   */\n      dup3\n        /* \"#utility.yul\":2648:2657   */\n      dup7\n        /* \"#utility.yul\":2644:2666   */\n      add\n        /* \"#utility.yul\":2623:2676   */\n      tag_82\n      jump\t// in\n    tag_124:\n        /* \"#utility.yul\":2613:2676   */\n      swap2\n      pop\n        /* \"#utility.yul\":2568:2686   */\n      pop\n        /* \"#utility.yul\":2219:2693   */\n      swap3\n      pop\n      swap3\n      swap1\n      pop\n      jump\t// out\n        /* \"#utility.yul\":2699:2825   */\n    tag_83:\n        /* \"#utility.yul\":2794:2818   */\n      tag_126\n        /* \"#utility.yul\":2812:2817   */\n      dup2\n        /* \"#utility.yul\":2794:2818   */\n      tag_80\n      jump\t// in\n    tag_126:\n        /* \"#utility.yul\":2789:2792   */\n      dup3\n        /* \"#utility.yul\":2782:2819   */\n      mstore\n        /* \"#utility.yul\":2699:2825   */\n      pop\n      pop\n      jump\t// out\n        /* \"#utility.yul\":2831:3069   */\n    tag_31:\n        /* \"#utility.yul\":2932:2936   */\n      0x00\n        /* \"#utility.yul\":2970:2972   */\n      0x20\n        /* \"#utility.yul\":2959:2968   */\n      dup3\n        /* \"#utility.yul\":2955:2973   */\n      add\n        /* \"#utility.yul\":2947:2973   */\n      swap1\n      pop\n        /* \"#utility.yul\":2983:3062   */\n      tag_128\n        /* \"#utility.yul\":3059:3060   */\n      0x00\n        /* \"#utility.yul\":3048:3057   */\n      dup4\n        /* \"#utility.yul\":3044:3061   */\n      add\n        /* \"#utility.yul\":3035:3041   */\n      dup5\n        /* \"#utility.yul\":2983:3062   */\n      tag_83\n      jump\t// in\n    tag_128:\n        /* \"#utility.yul\":2831:3069   */\n      swap3\n      swap2\n      pop\n      pop\n      jump\t// out\n        /* \"#utility.yul\":3075:3255   */\n    tag_84:\n        /* \"#utility.yul\":3123:3200   */\n      0x4e487b7100000000000000000000000000000000000000000000000000000000\n        /* \"#utility.yul\":3120:3121   */\n      0x00\n        /* \"#utility.yul\":3113:3201   */\n      mstore\n        /* \"#utility.yul\":3220:3224   */\n      0x11\n        /* \"#utility.yul\":3217:3218   */\n      0x04\n        /* \"#utility.yul\":3210:3225   */\n      mstore\n        /* \"#utility.yul\":3244:3248   */\n      0x24\n        /* \"#utility.yul\":3241:3242   */\n      0x00\n        /* \"#utility.yul\":3234:3249   */\n      revert\n        /* \"#utility.yul\":3261:3489   */\n    tag_51:\n        /* \"#utility.yul\":3296:3299   */\n      0x00\n        /* \"#utility.yul\":3319:3342   */\n      tag_131\n        /* \"#utility.yul\":3336:3341   */\n      dup3\n        /* \"#utility.yul\":3319:3342   */\n      tag_76\n      jump\t// in\n    tag_131:\n        /* \"#utility.yul\":3310:3342   */\n      swap2\n      pop\n        /* \"#utility.yul\":3364:3430   */\n      0x8000000000000000000000000000000000000000000000000000000000000000\n        /* \"#utility.yul\":3357:3362   */\n      dup3\n        /* \"#utility.yul\":3354:3431   */\n      sub\n        /* \"#utility.yul\":3351:3454   */\n      tag_132\n      jumpi\n        /* \"#utility.yul\":3434:3452   */\n      tag_133\n      tag_84\n      jump\t// in\n    tag_133:\n        /* \"#utility.yul\":3351:3454   */\n    tag_132:\n        /* \"#utility.yul\":3477:3482   */\n      dup2\n        /* \"#utility.yul\":3474:3475   */\n      0x00\n        /* \"#utility.yul\":3470:3483   */\n      sub\n        /* \"#utility.yul\":3463:3483   */\n      swap1\n      pop\n        /* \"#utility.yul\":3261:3489   */\n      swap2\n      swap1\n      pop\n      jump\t// out\n        /* \"#utility.yul\":3495:3675   */\n    tag_85:\n        /* \"#utility.yul\":3543:3620   */\n      0x4e487b7100000000000000000000000000000000000000000000000000000000\n        /* \"#utility.yul\":3540:3541   */\n      0x00\n        /* \"#utility.yul\":3533:3621   */\n      mstore\n        /* \"#utility.yul\":3640:3644   */\n      0x12\n        /* \"#utility.yul\":3637:3638   */\n      0x04\n        /* \"#utility.yul\":3630:3645   */\n      mstore\n        /* \"#utility.yul\":3664:3668   */\n      0x24\n        /* \"#utility.yul\":3661:3662   */\n      0x00\n        /* \"#utility.yul\":3654:3669   */\n      revert\n        /* \"#utility.yul\":3681:3855   */\n    tag_54:\n        /* \"#utility.yul\":3712:3713   */\n      0x00\n        /* \"#utility.yul\":3729:3748   */\n      tag_136\n        /* \"#utility.yul\":3746:3747   */\n      dup3\n        /* \"#utility.yul\":3729:3748   */\n      tag_76\n      jump\t// in\n    tag_136:\n        /* \"#utility.yul\":3724:3748   */\n      swap2\n      pop\n        /* \"#utility.yul\":3762:3781   */\n      tag_137\n        /* \"#utility.yul\":3779:3780   */\n      dup4\n        /* \"#utility.yul\":3762:3781   */\n      tag_76\n      jump\t// in\n    tag_137:\n        /* \"#utility.yul\":3757:3781   */\n      swap3\n      pop\n        /* \"#utility.yul\":3800:3801   */\n      dup3\n        /* \"#utility.yul\":3790:3825   */\n      tag_138\n      jumpi\n        /* \"#utility.yul\":3805:3823   */\n      tag_139\n      tag_85\n      jump\t// in\n    tag_139:\n        /* \"#utility.yul\":3790:3825   */\n    tag_138:\n        /* \"#utility.yul\":3847:3848   */\n      dup3\n        /* \"#utility.yul\":3844:3845   */\n      dup3\n        /* \"#utility.yul\":3839:3849   */\n      smod\n        /* \"#utility.yul\":3834:3849   */\n      swap1\n      pop\n        /* \"#utility.yul\":3681:3855   */\n      swap3\n      swap2\n      pop\n      pop\n      jump\t// out\n        /* \"#utility.yul\":3861:4417   */\n    tag_57:\n        /* \"#utility.yul\":3900:3907   */\n      0x00\n        /* \"#utility.yul\":3923:3942   */\n      tag_141\n        /* \"#utility.yul\":3940:3941   */\n      dup3\n        /* \"#utility.yul\":3923:3942   */\n      tag_76\n      jump\t// in\n    tag_141:\n        /* \"#utility.yul\":3918:3942   */\n      swap2\n      pop\n        /* \"#utility.yul\":3956:3975   */\n      tag_142\n        /* \"#utility.yul\":3973:3974   */\n      dup4\n        /* \"#utility.yul\":3956:3975   */\n      tag_76\n      jump\t// in\n    tag_142:\n        /* \"#utility.yul\":3951:3975   */\n      swap3\n      pop\n        /* \"#utility.yul\":4010:4011   */\n      dup3\n        /* \"#utility.yul\":4007:4008   */\n      dup3\n        /* \"#utility.yul\":4003:4012   */\n      mul\n        /* \"#utility.yul\":4032:4061   */\n      tag_143\n        /* \"#utility.yul\":4049:4060   */\n      dup2\n        /* \"#utility.yul\":4032:4061   */\n      tag_76\n      jump\t// in\n    tag_143:\n        /* \"#utility.yul\":4021:4061   */\n      swap2\n      pop\n        /* \"#utility.yul\":4119:4185   */\n      0x8000000000000000000000000000000000000000000000000000000000000000\n        /* \"#utility.yul\":4116:4117   */\n      dup5\n        /* \"#utility.yul\":4113:4186   */\n      eq\n        /* \"#utility.yul\":4109:4110   */\n      0x00\n        /* \"#utility.yul\":4106:4107   */\n      dup5\n        /* \"#utility.yul\":4102:4111   */\n      slt\n        /* \"#utility.yul\":4098:4187   */\n      and\n        /* \"#utility.yul\":4095:4210   */\n      iszero\n      tag_144\n      jumpi\n        /* \"#utility.yul\":4190:4208   */\n      tag_145\n      tag_84\n      jump\t// in\n    tag_145:\n        /* \"#utility.yul\":4095:4210   */\n    tag_144:\n        /* \"#utility.yul\":4360:4361   */\n      dup3\n        /* \"#utility.yul\":4351:4358   */\n      dup3\n        /* \"#utility.yul\":4346:4362   */\n      sdiv\n        /* \"#utility.yul\":4343:4344   */\n      dup5\n        /* \"#utility.yul\":4340:4363   */\n      eq\n        /* \"#utility.yul\":4320:4321   */\n      dup4\n        /* \"#utility.yul\":4313:4322   */\n      iszero\n        /* \"#utility.yul\":4293:4377   */\n      or\n        /* \"#utility.yul\":4270:4410   */\n      tag_146\n      jumpi\n        /* \"#utility.yul\":4390:4408   */\n      tag_147\n      tag_84\n      jump\t// in\n    tag_147:\n        /* \"#utility.yul\":4270:4410   */\n    tag_146:\n        /* \"#utility.yul\":3908:4417   */\n      pop\n        /* \"#utility.yul\":3861:4417   */\n      swap3\n      swap2\n      pop\n      pop\n      jump\t// out\n        /* \"#utility.yul\":4423:4525   */\n    tag_86:\n        /* \"#utility.yul\":4465:4473   */\n      0x00\n        /* \"#utility.yul\":4512:4517   */\n      dup2\n        /* \"#utility.yul\":4509:4510   */\n      0x01\n        /* \"#utility.yul\":4505:4518   */\n      shr\n        /* \"#utility.yul\":4484:4518   */\n      swap1\n      pop\n        /* \"#utility.yul\":4423:4525   */\n      swap2\n      swap1\n      pop\n      jump\t// out\n        /* \"#utility.yul\":4531:5379   */\n    tag_87:\n        /* \"#utility.yul\":4592:4597   */\n      0x00\n        /* \"#utility.yul\":4599:4603   */\n      dup1\n        /* \"#utility.yul\":4623:4629   */\n      dup3\n        /* \"#utility.yul\":4614:4629   */\n      swap2\n      pop\n        /* \"#utility.yul\":4647:4652   */\n      dup4\n        /* \"#utility.yul\":4638:4652   */\n      swap1\n      pop\n        /* \"#utility.yul\":4661:5373   */\n    tag_150:\n        /* \"#utility.yul\":4682:4683   */\n      0x01\n        /* \"#utility.yul\":4672:4680   */\n      dup6\n        /* \"#utility.yul\":4669:4684   */\n      gt\n        /* \"#utility.yul\":4661:5373   */\n      iszero\n      tag_152\n      jumpi\n        /* \"#utility.yul\":4777:4781   */\n      dup1\n        /* \"#utility.yul\":4772:4775   */\n      dup7\n        /* \"#utility.yul\":4768:4782   */\n      div\n        /* \"#utility.yul\":4762:4766   */\n      dup2\n        /* \"#utility.yul\":4759:4783   */\n      gt\n        /* \"#utility.yul\":4756:4806   */\n      iszero\n      tag_153\n      jumpi\n        /* \"#utility.yul\":4786:4804   */\n      tag_154\n      tag_84\n      jump\t// in\n    tag_154:\n        /* \"#utility.yul\":4756:4806   */\n    tag_153:\n        /* \"#utility.yul\":4836:4837   */\n      0x01\n        /* \"#utility.yul\":4826:4834   */\n      dup6\n        /* \"#utility.yul\":4822:4838   */\n      and\n        /* \"#utility.yul\":4819:5270   */\n      iszero\n      tag_155\n      jumpi\n        /* \"#utility.yul\":5251:5255   */\n      dup1\n        /* \"#utility.yul\":5244:5249   */\n      dup3\n        /* \"#utility.yul\":5240:5256   */\n      mul\n        /* \"#utility.yul\":5231:5256   */\n      swap2\n      pop\n        /* \"#utility.yul\":4819:5270   */\n    tag_155:\n        /* \"#utility.yul\":5301:5305   */\n      dup1\n        /* \"#utility.yul\":5295:5299   */\n      dup2\n        /* \"#utility.yul\":5291:5306   */\n      mul\n        /* \"#utility.yul\":5283:5306   */\n      swap1\n      pop\n        /* \"#utility.yul\":5331:5363   */\n      tag_156\n        /* \"#utility.yul\":5354:5362   */\n      dup6\n        /* \"#utility.yul\":5331:5363   */\n      tag_86\n      jump\t// in\n    tag_156:\n        /* \"#utility.yul\":5319:5363   */\n      swap5\n      pop\n        /* \"#utility.yul\":4661:5373   */\n      jump(tag_150)\n    tag_152:\n        /* \"#utility.yul\":4531:5379   */\n      swap5\n      pop\n      swap5\n      swap3\n      pop\n      pop\n      pop\n      jump\t// out\n        /* \"#utility.yul\":5385:6458   */\n    tag_88:\n        /* \"#utility.yul\":5439:5444   */\n      0x00\n        /* \"#utility.yul\":5630:5638   */\n      dup3\n        /* \"#utility.yul\":5620:5660   */\n      tag_158\n      jumpi\n        /* \"#utility.yul\":5651:5652   */\n      0x01\n        /* \"#utility.yul\":5642:5652   */\n      swap1\n      pop\n        /* \"#utility.yul\":5653:5658   */\n      jump(tag_157)\n        /* \"#utility.yul\":5620:5660   */\n    tag_158:\n        /* \"#utility.yul\":5679:5683   */\n      dup2\n        /* \"#utility.yul\":5669:5705   */\n      tag_159\n      jumpi\n        /* \"#utility.yul\":5696:5697   */\n      0x00\n        /* \"#utility.yul\":5687:5697   */\n      swap1\n      pop\n        /* \"#utility.yul\":5698:5703   */\n      jump(tag_157)\n        /* \"#utility.yul\":5669:5705   */\n    tag_159:\n        /* \"#utility.yul\":5765:5769   */\n      dup2\n        /* \"#utility.yul\":5813:5814   */\n      0x01\n        /* \"#utility.yul\":5808:5835   */\n      dup2\n      eq\n      tag_161\n      jumpi\n        /* \"#utility.yul\":5849:5850   */\n      0x02\n        /* \"#utility.yul\":5844:6035   */\n      dup2\n      eq\n      tag_162\n      jumpi\n        /* \"#utility.yul\":5758:6035   */\n      jump(tag_160)\n        /* \"#utility.yul\":5808:5835   */\n    tag_161:\n        /* \"#utility.yul\":5826:5827   */\n      0x01\n        /* \"#utility.yul\":5817:5827   */\n      swap2\n      pop\n        /* \"#utility.yul\":5828:5833   */\n      pop\n      jump(tag_157)\n        /* \"#utility.yul\":5844:6035   */\n    tag_162:\n        /* \"#utility.yul\":5889:5892   */\n      0xff\n        /* \"#utility.yul\":5879:5887   */\n      dup5\n        /* \"#utility.yul\":5876:5893   */\n      gt\n        /* \"#utility.yul\":5873:5916   */\n      iszero\n      tag_163\n      jumpi\n        /* \"#utility.yul\":5896:5914   */\n      tag_164\n      tag_84\n      jump\t// in\n    tag_164:\n        /* \"#utility.yul\":5873:5916   */\n    tag_163:\n        /* \"#utility.yul\":5945:5953   */\n      dup4\n        /* \"#utility.yul\":5942:5943   */\n      0x02\n        /* \"#utility.yul\":5938:5954   */\n      exp\n        /* \"#utility.yul\":5929:5954   */\n      swap2\n      pop\n        /* \"#utility.yul\":5980:5983   */\n      dup5\n        /* \"#utility.yul\":5973:5978   */\n      dup3\n        /* \"#utility.yul\":5970:5984   */\n      gt\n        /* \"#utility.yul\":5967:6007   */\n      iszero\n      tag_165\n      jumpi\n        /* \"#utility.yul\":5987:6005   */\n      tag_166\n      tag_84\n      jump\t// in\n    tag_166:\n        /* \"#utility.yul\":5967:6007   */\n    tag_165:\n        /* \"#utility.yul\":6020:6025   */\n      pop\n      jump(tag_157)\n        /* \"#utility.yul\":5758:6035   */\n    tag_160:\n      pop\n        /* \"#utility.yul\":6144:6146   */\n      0x20\n        /* \"#utility.yul\":6134:6142   */\n      dup4\n        /* \"#utility.yul\":6131:6147   */\n      lt\n        /* \"#utility.yul\":6125:6128   */\n      0x0133\n        /* \"#utility.yul\":6119:6123   */\n      dup4\n        /* \"#utility.yul\":6116:6129   */\n      lt\n        /* \"#utility.yul\":6112:6148   */\n      and\n        /* \"#utility.yul\":6094:6096   */\n      0x4e\n        /* \"#utility.yul\":6084:6092   */\n      dup5\n        /* \"#utility.yul\":6081:6097   */\n      lt\n        /* \"#utility.yul\":6076:6078   */\n      0x0b\n        /* \"#utility.yul\":6070:6074   */\n      dup5\n        /* \"#utility.yul\":6067:6079   */\n      lt\n        /* \"#utility.yul\":6063:6098   */\n      and\n        /* \"#utility.yul\":6047:6158   */\n      or\n        /* \"#utility.yul\":6044:6290   */\n      iszero\n      tag_167\n      jumpi\n        /* \"#utility.yul\":6200:6208   */\n      dup3\n        /* \"#utility.yul\":6194:6198   */\n      dup3\n        /* \"#utility.yul\":6190:6209   */\n      exp\n        /* \"#utility.yul\":6181:6209   */\n      swap1\n      pop\n        /* \"#utility.yul\":6235:6238   */\n      dup4\n        /* \"#utility.yul\":6228:6233   */\n      dup2\n        /* \"#utility.yul\":6225:6239   */\n      gt\n        /* \"#utility.yul\":6222:6262   */\n      iszero\n      tag_168\n      jumpi\n        /* \"#utility.yul\":6242:6260   */\n      tag_169\n      tag_84\n      jump\t// in\n    tag_169:\n        /* \"#utility.yul\":6222:6262   */\n    tag_168:\n        /* \"#utility.yul\":6275:6280   */\n      jump(tag_157)\n        /* \"#utility.yul\":6044:6290   */\n    tag_167:\n        /* \"#utility.yul\":6315:6357   */\n      tag_170\n        /* \"#utility.yul\":6353:6356   */\n      dup5\n        /* \"#utility.yul\":6343:6351   */\n      dup5\n        /* \"#utility.yul\":6337:6341   */\n      dup5\n        /* \"#utility.yul\":6334:6335   */\n      0x01\n        /* \"#utility.yul\":6315:6357   */\n      tag_87\n      jump\t// in\n    tag_170:\n        /* \"#utility.yul\":6300:6357   */\n      swap3\n      pop\n      swap1\n      pop\n        /* \"#utility.yul\":6389:6393   */\n      dup2\n        /* \"#utility.yul\":6384:6387   */\n      dup5\n        /* \"#utility.yul\":6380:6394   */\n      div\n        /* \"#utility.yul\":6373:6378   */\n      dup2\n        /* \"#utility.yul\":6370:6395   */\n      gt\n        /* \"#utility.yul\":6367:6418   */\n      iszero\n      tag_171\n      jumpi\n        /* \"#utility.yul\":6398:6416   */\n      tag_172\n      tag_84\n      jump\t// in\n    tag_172:\n        /* \"#utility.yul\":6367:6418   */\n    tag_171:\n        /* \"#utility.yul\":6447:6451   */\n      dup2\n        /* \"#utility.yul\":6440:6445   */\n      dup2\n        /* \"#utility.yul\":6436:6452   */\n      mul\n        /* \"#utility.yul\":6427:6452   */\n      swap1\n      pop\n        /* \"#utility.yul\":5385:6458   */\n    tag_157:\n      swap4\n      swap3\n      pop\n      pop\n      pop\n      jump\t// out\n        /* \"#utility.yul\":6464:6749   */\n    tag_60:\n        /* \"#utility.yul\":6524:6529   */\n      0x00\n        /* \"#utility.yul\":6548:6571   */\n      tag_174\n        /* \"#utility.yul\":6566:6570   */\n      dup3\n        /* \"#utility.yul\":6548:6571   */\n      tag_80\n      jump\t// in\n    tag_174:\n        /* \"#utility.yul\":6540:6571   */\n      swap2\n      pop\n        /* \"#utility.yul\":6592:6619   */\n      tag_175\n        /* \"#utility.yul\":6610:6618   */\n      dup4\n        /* \"#utility.yul\":6592:6619   */\n      tag_80\n      jump\t// in\n    tag_175:\n        /* \"#utility.yul\":6580:6619   */\n      swap3\n      pop\n        /* \"#utility.yul\":6638:6742   */\n      tag_176\n        /* \"#utility.yul\":6675:6741   */\n      0xffffffffffffffffffffffffffffffffffffffffffffffffffffffffffffffff\n        /* \"#utility.yul\":6665:6673   */\n      dup5\n        /* \"#utility.yul\":6659:6663   */\n      dup5\n        /* \"#utility.yul\":6638:6742   */\n      tag_88\n      jump\t// in\n    tag_176:\n        /* \"#utility.yul\":6629:6742   */\n      swap1\n      pop\n        /* \"#utility.yul\":6464:6749   */\n      swap3\n      swap2\n      pop\n      pop\n      jump\t// out\n        /* \"#utility.yul\":6755:7980   */\n    tag_89:\n        /* \"#utility.yul\":6812:6817   */\n      0x00\n        /* \"#utility.yul\":6978:6986   */\n      dup3\n        /* \"#utility.yul\":7000:7001   */\n      0x00\n        /* \"#utility.yul\":6995:7022   */\n      dup2\n      eq\n      tag_179\n      jumpi\n        /* \"#utility.yul\":7036:7037   */\n      0x01\n        /* \"#utility.yul\":7031:7061   */\n      dup2\n      eq\n      tag_180\n      jumpi\n        /* \"#utility.yul\":6971:7061   */\n      jump(tag_178)\n        /* \"#utility.yul\":6995:7022   */\n    tag_179:\n        /* \"#utility.yul\":7013:7014   */\n      0x01\n        /* \"#utility.yul\":7004:7014   */\n      swap2\n      pop\n        /* \"#utility.yul\":7015:7020   */\n      pop\n      jump(tag_177)\n        /* \"#utility.yul\":7031:7061   */\n    tag_180:\n        /* \"#utility.yul\":7049:7053   */\n      dup3\n        /* \"#utility.yul\":7040:7053   */\n      swap2\n      pop\n        /* \"#utility.yul\":7054:7059   */\n      pop\n      jump(tag_177)\n        /* \"#utility.yul\":6971:7061   */\n    tag_178:\n      pop\n        /* \"#utility.yul\":7080:7084   */\n      dup2\n        /* \"#utility.yul\":7070:7106   */\n      tag_181\n      jumpi\n        /* \"#utility.yul\":7097:7098   */\n      0x00\n        /* \"#utility.yul\":7088:7098   */\n      swap1\n      pop\n        /* \"#utility.yul\":7099:7104   */\n      jump(tag_177)\n        /* \"#utility.yul\":7070:7106   */\n    tag_181:\n        /* \"#utility.yul\":7125:7126   */\n      0x01\n        /* \"#utility.yul\":7116:7126   */\n      swap1\n      pop\n        /* \"#utility.yul\":7348:7349   */\n      0x00\n        /* \"#utility.yul\":7342:7346   */\n      dup3\n        /* \"#utility.yul\":7338:7350   */\n      sgt\n        /* \"#utility.yul\":7364:7365   */\n      0x01\n        /* \"#utility.yul\":7359:7420   */\n      dup2\n      eq\n      tag_183\n      jumpi\n        /* \"#utility.yul\":7434:7435   */\n      0x00\n        /* \"#utility.yul\":7429:7492   */\n      dup2\n      eq\n      tag_184\n      jumpi\n        /* \"#utility.yul\":7331:7492   */\n      jump(tag_182)\n        /* \"#utility.yul\":7359:7420   */\n    tag_183:\n        /* \"#utility.yul\":7389:7393   */\n      dup3\n        /* \"#utility.yul\":7384:7387   */\n      dup7\n        /* \"#utility.yul\":7380:7394   */\n      div\n        /* \"#utility.yul\":7374:7378   */\n      dup4\n        /* \"#utility.yul\":7371:7395   */\n      gt\n        /* \"#utility.yul\":7368:7418   */\n      iszero\n      tag_185\n      jumpi\n        /* \"#utility.yul\":7398:7416   */\n      tag_186\n      tag_84\n      jump\t// in\n    tag_186:\n        /* \"#utility.yul\":7368:7418   */\n    tag_185:\n        /* \"#utility.yul\":7359:7420   */\n      jump(tag_182)\n        /* \"#utility.yul\":7429:7492   */\n    tag_184:\n        /* \"#utility.yul\":7461:7465   */\n      dup3\n        /* \"#utility.yul\":7456:7459   */\n      dup7\n        /* \"#utility.yul\":7451:7466   */\n      sdiv\n        /* \"#utility.yul\":7445:7449   */\n      dup4\n        /* \"#utility.yul\":7441:7467   */\n      slt\n        /* \"#utility.yul\":7438:7490   */\n      iszero\n      tag_187\n      jumpi\n        /* \"#utility.yul\":7470:7488   */\n      tag_188\n      tag_84\n      jump\t// in\n    tag_188:\n        /* \"#utility.yul\":7438:7490   */\n    tag_187:\n        /* \"#utility.yul\":7331:7492   */\n    tag_182:\n      pop\n        /* \"#utility.yul\":7518:7519   */\n      0x01\n        /* \"#utility.yul\":7508:7516   */\n      dup4\n        /* \"#utility.yul\":7504:7520   */\n      and\n        /* \"#utility.yul\":7501:7566   */\n      iszero\n      tag_189\n      jumpi\n        /* \"#utility.yul\":7552:7556   */\n      dup2\n        /* \"#utility.yul\":7543:7556   */\n      swap1\n      pop\n        /* \"#utility.yul\":7501:7566   */\n    tag_189:\n        /* \"#utility.yul\":7593:7597   */\n      dup2\n        /* \"#utility.yul\":7587:7591   */\n      dup3\n        /* \"#utility.yul\":7583:7598   */\n      mul\n        /* \"#utility.yul\":7575:7598   */\n      swap2\n      pop\n        /* \"#utility.yul\":7619:7651   */\n      tag_190\n        /* \"#utility.yul\":7642:7650   */\n      dup4\n        /* \"#utility.yul\":7619:7651   */\n      tag_86\n      jump\t// in\n    tag_190:\n        /* \"#utility.yul\":7607:7651   */\n      swap3\n      pop\n        /* \"#utility.yul\":7731:7777   */\n      tag_191\n        /* \"#utility.yul\":7773:7776   */\n      dup6\n        /* \"#utility.yul\":7763:7771   */\n      dup5\n        /* \"#utility.yul\":7757:7761   */\n      dup5\n        /* \"#utility.yul\":7750:7755   */\n      dup5\n        /* \"#utility.yul\":7731:7777   */\n      tag_87\n      jump\t// in\n    tag_191:\n        /* \"#utility.yul\":7716:7777   */\n      swap3\n      pop\n      swap1\n      pop\n        /* \"#utility.yul\":7828:7832   */\n      dup2\n        /* \"#utility.yul\":7823:7826   */\n      dup6\n        /* \"#utility.yul\":7819:7833   */\n      div\n        /* \"#utility.yul\":7812:7817   */\n      dup2\n        /* \"#utility.yul\":7809:7834   */\n      gt\n        /* \"#utility.yul\":7805:7806   */\n      0x00\n        /* \"#utility.yul\":7798:7803   */\n      dup3\n        /* \"#utility.yul\":7794:7807   */\n      sgt\n        /* \"#utility.yul\":7790:7835   */\n      and\n        /* \"#utility.yul\":7787:7858   */\n      iszero\n      tag_192\n      jumpi\n        /* \"#utility.yul\":7838:7856   */\n      tag_193\n      tag_84\n      jump\t// in\n    tag_193:\n        /* \"#utility.yul\":7787:7858   */\n    tag_192:\n        /* \"#utility.yul\":7910:7914   */\n      dup2\n        /* \"#utility.yul\":7905:7908   */\n      dup5\n        /* \"#utility.yul\":7900:7915   */\n      sdiv\n        /* \"#utility.yul\":7893:7898   */\n      dup2\n        /* \"#utility.yul\":7889:7916   */\n      slt\n        /* \"#utility.yul\":7885:7886   */\n      0x00\n        /* \"#utility.yul\":7878:7883   */\n      dup3\n        /* \"#utility.yul\":7874:7887   */\n      slt\n        /* \"#utility.yul\":7870:7917   */\n      and\n        /* \"#utility.yul\":7867:7940   */\n      iszero\n      tag_194\n      jumpi\n        /* \"#utility.yul\":7920:7938   */\n      tag_195\n      tag_84\n      jump\t// in\n    tag_195:\n        /* \"#utility.yul\":7867:7940   */\n    tag_194:\n        /* \"#utility.yul\":7969:7973   */\n      dup2\n        /* \"#utility.yul\":7962:7967   */\n      dup2\n        /* \"#utility.yul\":7958:7974   */\n      mul\n        /* \"#utility.yul\":7949:7974   */\n      swap1\n      pop\n        /* \"#utility.yul\":6755:7980   */\n    tag_177:\n      swap5\n      swap4\n      pop\n      pop\n      pop\n      pop\n      jump\t// out\n        /* \"#utility.yul\":7986:8072   */\n    tag_90:\n        /* \"#utility.yul\":8021:8028   */\n      0x00\n        /* \"#utility.yul\":8061:8065   */\n      0xff\n        /* \"#utility.yul\":8054:8059   */\n      dup3\n        /* \"#utility.yul\":8050:8066   */\n      and\n        /* \"#utility.yul\":8039:8066   */\n      swap1\n      pop\n        /* \"#utility.yul\":7986:8072   */\n      swap2\n      swap1\n      pop\n      jump\t// out\n        /* \"#utility.yul\":8078:8423   */\n    tag_63:\n        /* \"#utility.yul\":8135:8140   */\n      0x00\n        /* \"#utility.yul\":8159:8181   */\n      tag_198\n        /* \"#utility.yul\":8176:8180   */\n      dup3\n        /* \"#utility.yul\":8159:8181   */\n      tag_76\n      jump\t// in\n    tag_198:\n        /* \"#utility.yul\":8151:8181   */\n      swap2\n      pop\n        /* \"#utility.yul\":8202:8227   */\n      tag_199\n        /* \"#utility.yul\":8218:8226   */\n      dup4\n        /* \"#utility.yul\":8202:8227   */\n      tag_90\n      jump\t// in\n    tag_199:\n        /* \"#utility.yul\":8190:8227   */\n      swap3\n      pop\n        /* \"#utility.yul\":8246:8416   */\n      tag_200\n        /* \"#utility.yul\":8349:8415   */\n      0x7fffffffffffffffffffffffffffffffffffffffffffffffffffffffffffffff\n        /* \"#utility.yul\":8281:8347   */\n      0x8000000000000000000000000000000000000000000000000000000000000000\n        /* \"#utility.yul\":8271:8279   */\n      dup6\n        /* \"#utility.yul\":8265:8269   */\n      dup6\n        /* \"#utility.yul\":8246:8416   */\n      tag_89\n      jump\t// in\n    tag_200:\n        /* \"#utility.yul\":8237:8416   */\n      swap1\n      pop\n        /* \"#utility.yul\":8078:8423   */\n      swap3\n      swap2\n      pop\n      pop\n      jump\t// out\n        /* \"#utility.yul\":8429:8804   */\n    tag_66:\n        /* \"#utility.yul\":8468:8471   */\n      0x00\n        /* \"#utility.yul\":8487:8506   */\n      tag_202\n        /* \"#utility.yul\":8504:8505   */\n      dup3\n        /* \"#utility.yul\":8487:8506   */\n      tag_76\n      jump\t// in\n    tag_202:\n        /* \"#utility.yul\":8482:8506   */\n      swap2\n      pop\n        /* \"#utility.yul\":8520:8539   */\n      tag_203\n        /* \"#utility.yul\":8537:8538   */\n      dup4\n        /* \"#utility.yul\":8520:8539   */\n      tag_76\n      jump\t// in\n    tag_203:\n        /* \"#utility.yul\":8515:8539   */\n      swap3\n      pop\n        /* \"#utility.yul\":8562:8563   */\n      dup3\n        /* \"#utility.yul\":8559:8560   */\n      dup3\n        /* \"#utility.yul\":8555:8564   */\n      add\n        /* \"#utility.yul\":8548:8564   */\n      swap1\n      pop\n        /* \"#utility.yul\":8760:8761   */\n      dup3\n        /* \"#utility.yul\":8755:8758   */\n      dup2\n        /* \"#utility.yul\":8751:8762   */\n      slt\n        /* \"#utility.yul\":8744:8763   */\n      iszero\n        /* \"#utility.yul\":8740:8741   */\n      0x00\n        /* \"#utility.yul\":8737:8738   */\n      dup4\n        /* \"#utility.yul\":8733:8742   */\n      slt\n        /* \"#utility.yul\":8729:8764   */\n      and\n        /* \"#utility.yul\":8712:8713   */\n      dup4\n        /* \"#utility.yul\":8707:8710   */\n      dup3\n        /* \"#utility.yul\":8703:8714   */\n      slt\n        /* \"#utility.yul\":8698:8699   */\n      0x00\n        /* \"#utility.yul\":8695:8696   */\n      dup5\n        /* \"#utility.yul\":8691:8700   */\n      slt\n        /* \"#utility.yul\":8684:8701   */\n      iszero\n        /* \"#utility.yul\":8680:8715   */\n      and\n        /* \"#utility.yul\":8664:8774   */\n      or\n        /* \"#utility.yul\":8661:8797   */\n      iszero\n      tag_204\n      jumpi\n        /* \"#utility.yul\":8777:8795   */\n      tag_205\n      tag_84\n      jump\t// in\n    tag_205:\n        /* \"#utility.yul\":8661:8797   */\n    tag_204:\n        /* \"#utility.yul\":8429:8804   */\n      swap3\n      swap2\n      pop\n      pop\n      jump\t// out\n        /* \"#utility.yul\":8810:9182   */\n    tag_69:\n        /* \"#utility.yul\":8849:8853   */\n      0x00\n        /* \"#utility.yul\":8869:8888   */\n      tag_207\n        /* \"#utility.yul\":8886:8887   */\n      dup3\n        /* \"#utility.yul\":8869:8888   */\n      tag_76\n      jump\t// in\n    tag_207:\n        /* \"#utility.yul\":8864:8888   */\n      swap2\n      pop\n        /* \"#utility.yul\":8902:8921   */\n      tag_208\n        /* \"#utility.yul\":8919:8920   */\n      dup4\n        /* \"#utility.yul\":8902:8921   */\n      tag_76\n      jump\t// in\n    tag_208:\n        /* \"#utility.yul\":8897:8921   */\n      swap3\n      pop\n        /* \"#utility.yul\":8945:8946   */\n      dup3\n        /* \"#utility.yul\":8942:8943   */\n      dup3\n        /* \"#utility.yul\":8938:8947   */\n      sub\n        /* \"#utility.yul\":8930:8947   */\n      swap1\n      pop\n        /* \"#utility.yul\":9139:9140   */\n      dup2\n        /* \"#utility.yul\":9133:9137   */\n      dup2\n        /* \"#utility.yul\":9129:9141   */\n      slt\n        /* \"#utility.yul\":9125:9126   */\n      0x00\n        /* \"#utility.yul\":9122:9123   */\n      dup5\n        /* \"#utility.yul\":9118:9127   */\n      slt\n        /* \"#utility.yul\":9114:9142   */\n      and\n        /* \"#utility.yul\":9097:9098   */\n      dup3\n        /* \"#utility.yul\":9091:9095   */\n      dup3\n        /* \"#utility.yul\":9087:9099   */\n      sgt\n        /* \"#utility.yul\":9082:9083   */\n      0x00\n        /* \"#utility.yul\":9079:9080   */\n      dup6\n        /* \"#utility.yul\":9075:9084   */\n      slt\n        /* \"#utility.yul\":9068:9085   */\n      iszero\n        /* \"#utility.yul\":9064:9100   */\n      and\n        /* \"#utility.yul\":9048:9152   */\n      or\n        /* \"#utility.yul\":9045:9175   */\n      iszero\n      tag_209\n      jumpi\n        /* \"#utility.yul\":9155:9173   */\n      tag_210\n      tag_84\n      jump\t// in\n    tag_210:\n        /* \"#utility.yul\":9045:9175   */\n    tag_209:\n        /* \"#utility.yul\":8810:9182   */\n      swap3\n      swap2\n      pop\n      pop\n      jump\t// out\n        /* \"#utility.yul\":9188:9573   */\n    tag_72:\n        /* \"#utility.yul\":9227:9228   */\n      0x00\n        /* \"#utility.yul\":9244:9263   */\n      tag_212\n        /* \"#utility.yul\":9261:9262   */\n      dup3\n        /* \"#utility.yul\":9244:9263   */\n      tag_76\n      jump\t// in\n    tag_212:\n        /* \"#utility.yul\":9239:9263   */\n      swap2\n      pop\n        /* \"#utility.yul\":9277:9296   */\n      tag_213\n        /* \"#utility.yul\":9294:9295   */\n      dup4\n        /* \"#utility.yul\":9277:9296   */\n      tag_76\n      jump\t// in\n    tag_213:\n        /* \"#utility.yul\":9272:9296   */\n      swap3\n      pop\n        /* \"#utility.yul\":9315:9316   */\n      dup3\n        /* \"#utility.yul\":9305:9340   */\n      tag_214\n      jumpi\n        /* \"#utility.yul\":9320:9338   */\n      tag_215\n      tag_85\n      jump\t// in\n    tag_215:\n        /* \"#utility.yul\":9305:9340   */\n    tag_214:\n        /* \"#utility.yul\":9506:9507   */\n      0x01\n        /* \"#utility.yul\":9503:9504   */\n      0x00\n        /* \"#utility.yul\":9499:9508   */\n      sub\n        /* \"#utility.yul\":9496:9497   */\n      dup4\n        /* \"#utility.yul\":9493:9509   */\n      eq\n        /* \"#utility.yul\":9412:9478   */\n      0x8000000000000000000000000000000000000000000000000000000000000000\n        /* \"#utility.yul\":9409:9410   */\n      dup4\n        /* \"#utility.yul\":9406:9479   */\n      eq\n        /* \"#utility.yul\":9389:9519   */\n      and\n        /* \"#utility.yul\":9386:9542   */\n      iszero\n      tag_216\n      jumpi\n        /* \"#utility.yul\":9522:9540   */\n      tag_217\n      tag_84\n      jump\t// in\n    tag_217:\n        /* \"#utility.yul\":9386:9542   */\n    tag_216:\n        /* \"#utility.yul\":9565:9566   */\n      dup3\n        /* \"#utility.yul\":9562:9563   */\n      dup3\n        /* \"#utility.yul\":9557:9567   */\n      sdiv\n        /* \"#utility.yul\":9552:9567   */\n      swap1\n      pop\n        /* \"#utility.yul\":9188:9573   */\n      swap3\n      swap2\n      pop\n      pop\n      jump\t// out\n\n    auxdata: 0xa264697066735822122040dcfd3df06da4ed3ffc1622ca33c0db5f4ec658a14d35ca0feb76d0b917e36464736f6c634300081a0033\n}\n",
				"bytecode": {
					"linkReferences": {},
					"object": "61096961004d600b8282823980515f1a6073146041577f4e487b71000000000000000000000000000000000000000000000000000000005f525f60045260245ffd5b305f52607381538281f3fe7300000000000000000000000000000000000000003014608060405260043610610091575f3560e01c8063665df46011610064578063665df46014610155578063a5f3c23b14610185578063b93ea812146101b5578063f5984236146101e557610091565b80631b5ac4b51461009557806324e28928146100c55780633c4308a8146100f55780634f4752ba14610125575b5f80fd5b6100af60048036038101906100aa9190610302565b610215565b6040516100bc919061033c565b60405180910390f35b6100df60048036038101906100da9190610355565b610238565b6040516100ec919061033c565b60405180910390f35b61010f600480360381019061010a9190610355565b61024d565b60405161011c919061033c565b60405180910390f35b61013f600480360381019061013a91906103c6565b610262565b60405161014c9190610413565b60405180910390f35b61016f600480360381019061016a9190610302565b610277565b60405161017c919061033c565b60405180910390f35b61019f600480360381019061019a9190610355565b61028c565b6040516101ac919061033c565b60405180910390f35b6101cf60048036038101906101ca9190610355565b6102a1565b6040516101dc919061033c565b60405180910390f35b6101ff60048036038101906101fa9190610355565b6102b6565b60405161020c919061033c565b60405180910390f35b5f8082121561022f578161022890610459565b9050610233565b8190505b919050565b5f818361024591906104cc565b905092915050565b5f818361025a91906104fc565b905092915050565b5f818361026f91906106a1565b905092915050565b5f60018261028591906107df565b9050919050565b5f8183610299919061084a565b905092915050565b5f81836102ae919061088b565b905092915050565b5f81836102c391906108cb565b905092915050565b5f80fd5b5f819050919050565b6102e1816102cf565b81146102eb575f80fd5b50565b5f813590506102fc816102d8565b92915050565b5f60208284031215610317576103166102cb565b5b5f610324848285016102ee565b91505092915050565b610336816102cf565b82525050565b5f60208201905061034f5f83018461032d565b92915050565b5f806040838503121561036b5761036a6102cb565b5b5f610378858286016102ee565b9250506020610389858286016102ee565b9150509250929050565b5f819050919050565b6103a581610393565b81146103af575f80fd5b50565b5f813590506103c08161039c565b92915050565b5f80604083850312156103dc576103db6102cb565b5b5f6103e9858286016103b2565b92505060206103fa858286016103b2565b9150509250929050565b61040d81610393565b82525050565b5f6020820190506104265f830184610404565b92915050565b7f4e487b71000000000000000000000000000000000000000000000000000000005f52601160045260245ffd5b5f610463826102cf565b91507f800000000000000000000000000000000000000000000000000000000000000082036104955761049461042c565b5b815f039050919050565b7f4e487b71000000000000000000000000000000000000000000000000000000005f52601260045260245ffd5b5f6104d6826102cf565b91506104e1836102cf565b9250826104f1576104f061049f565b5b828207905092915050565b5f610506826102cf565b9150610511836102cf565b925082820261051f816102cf565b91507f800000000000000000000000000000000000000000000000000000000000000084145f841216156105565761055561042c565b5b828205841483151761056b5761056a61042c565b5b5092915050565b5f8160011c9050919050565b5f808291508390505b60018511156105c7578086048111156105a3576105a261042c565b5b60018516156105b25780820291505b80810290506105c085610572565b9450610587565b94509492505050565b5f826105df576001905061069a565b816105ec575f905061069a565b8160018114610602576002811461060c5761063b565b600191505061069a565b60ff84111561061e5761061d61042c565b5b8360020a9150848211156106355761063461042c565b5b5061069a565b5060208310610133831016604e8410600b84101617156106705782820a90508381111561066b5761066a61042c565b5b61069a565b61067d848484600161057e565b925090508184048111156106945761069361042c565b5b81810290505b9392505050565b5f6106ab82610393565b91506106b683610393565b92506106e37fffffffffffffffffffffffffffffffffffffffffffffffffffffffffffffffff84846105d0565b905092915050565b5f825f8114610701576001811461070b57610714565b60019150506107cb565b829150506107cb565b5081610722575f90506107cb565b600190505f82136001811461073d575f811461075557610769565b8286048311156107505761074f61042c565b5b610769565b8286058312156107685761076761042c565b5b5b506001831615610777578190505b818202915061078583610572565b92506107938584848461057e565b9250905081850481115f821316156107ae576107ad61042c565b5b81840581125f821216156107c5576107c461042c565b5b81810290505b949350505050565b5f60ff82169050919050565b5f6107e9826102cf565b91506107f4836107d3565b92506108427f7fffffffffffffffffffffffffffffffffffffffffffffffffffffffffffffff7f800000000000000000000000000000000000000000000000000000000000000085856106eb565b905092915050565b5f610854826102cf565b915061085f836102cf565b92508282019050828112155f8312168382125f8412151617156108855761088461042c565b5b92915050565b5f610895826102cf565b91506108a0836102cf565b925082820390508181125f8412168282135f8512151617156108c5576108c461042c565b5b92915050565b5f6108d5826102cf565b91506108e0836102cf565b9250826108f0576108ef61049f565b5b60015f0383147f8000000000000000000000000000000000000000000000000000000000000000831416156109285761092761042c565b5b82820590509291505056fea264697066735822122040dcfd3df06da4ed3ffc1622ca33c0db5f4ec658a14d35ca0feb76d0b917e36464736f6c634300081a0033",
					"opcodes": "PUSH2 0x969 PUSH2 0x4D PUSH1 0xB DUP3 DUP3 DUP3 CODECOPY DUP1 MLOAD PUSH0 BYTE PUSH1 0x73 EQ PUSH1 0x41 JUMPI PUSH32 0x4E487B7100000000000000000000000000000000000000000000000000000000 PUSH0 MSTORE PUSH0 PUSH1 0x4 MSTORE PUSH1 0x24 PUSH0 REVERT JUMPDEST ADDRESS PUSH0 MSTORE PUSH1 0x73 DUP2 MSTORE8 DUP3 DUP2 RETURN INVALID PUSH20 0x0 ADDRESS EQ PUSH1 0x80 PUSH1 0x40 MSTORE PUSH1 0x4 CALLDATASIZE LT PUSH2 0x91 JUMPI PUSH0 CALLDATALOAD PUSH1 0xE0 SHR DUP1 PUSH4 0x665DF460 GT PUSH2 0x64 JUMPI DUP1 PUSH4 0x665DF460 EQ PUSH2 0x155 JUMPI DUP1 PUSH4 0xA5F3C23B EQ PUSH2 0x185 JUMPI DUP1 PUSH4 0xB93EA812 EQ PUSH2 0x1B5 JUMPI DUP1 PUSH4 0xF5984236 EQ PUSH2 0x1E5 JUMPI PUSH2 0x91 JUMP JUMPDEST DUP1 PUSH4 0x1B5AC4B5 EQ PUSH2 0x95 JUMPI DUP1 PUSH4 0x24E28928 EQ PUSH2 0xC5 JUMPI DUP1 PUSH4 0x3C4308A8 EQ PUSH2 0xF5 JUMPI DUP1 PUSH4 0x4F4752BA EQ PUSH2 0x125 JUMPI JUMPDEST PUSH0 DUP1 REVERT JUMPDEST PUSH2 0xAF PUSH1 0x4 DUP1 CALLDATASIZE SUB DUP2 ADD SWAP1 PUSH2 0xAA SWAP2 SWAP1 PUSH2 0x302 JUMP JUMPDEST PUSH2 0x215 JUMP JUMPDEST PUSH1 0x40 MLOAD PUSH2 0xBC SWAP2 SWAP1 PUSH2 0x33C JUMP JUMPDEST PUSH1 0x40 MLOAD DUP1 SWAP2 SUB SWAP1 RETURN JUMPDEST PUSH2 0xDF PUSH1 0x4 DUP1 CALLDATASIZE SUB DUP2 ADD SWAP1 PUSH2 0xDA SWAP2 SWAP1 PUSH2 0x355 JUMP JUMPDEST PUSH2 0x238 JUMP JUMPDEST PUSH1 0x40 MLOAD PUSH2 0xEC SWAP2 SWAP1 PUSH2 0x33C JUMP JUMPDEST PUSH1 0x40 MLOAD DUP1 SWAP2 SUB SWAP1 RETURN JUMPDEST PUSH2 0x10F PUSH1 0x4 DUP1 CALLDATASIZE SUB DUP2 ADD SWAP1 PUSH2 0x10A SWAP2 SWAP1 PUSH2 0x355 JUMP JUMPDEST PUSH2 0x24D JUMP JUMPDEST PUSH1 0x40 MLOAD PUSH2 0x11C SWAP2 SWAP1 PUSH2 0x33C JUMP JUMPDEST PUSH1 0x40 MLOAD DUP1 SWAP2 SUB SWAP1 RETURN JUMPDEST PUSH2 0x13F PUSH1 0x4 DUP1 CALLDATASIZE SUB DUP2 ADD SWAP1 PUSH2 0x13A SWAP2 SWAP1 PUSH2 0x3C6 JUMP JUMPDEST PUSH2 0x262 JUMP JUMPDEST PUSH1 0x40 MLOAD PUSH2 0x14C SWAP2 SWAP1 PUSH2 0x413 JUMP JUMPDEST PUSH1 0x40 MLOAD DUP1 SWAP2 SUB SWAP1 RETURN JUMPDEST PUSH2 0x16F PUSH1 0x4 DUP1 CALLDATASIZE SUB DUP2 ADD SWAP1 PUSH2 0x16A SWAP2 SWAP1 PUSH2 0x302 JUMP JUMPDEST PUSH2 0x277 JUMP JUMPDEST PUSH1 0x40 MLOAD PUSH2 0x17C SWAP2 SWAP1 PUSH2 0x33C JUMP JUMPDEST PUSH1 0x40 MLOAD DUP1 SWAP2 SUB SWAP1 RETURN JUMPDEST PUSH2 0x19F PUSH1 0x4 DUP1 CALLDATASIZE SUB DUP2 ADD SWAP1 PUSH2 0x19A SWAP2 SWAP1 PUSH2 0x355 JUMP JUMPDEST PUSH2 0x28C JUMP JUMPDEST PUSH1 0x40 MLOAD PUSH2 0x1AC SWAP2 SWAP1 PUSH2 0x33C JUMP JUMPDEST PUSH1 0x40 MLOAD DUP1 SWAP2 SUB SWAP1 RETURN JUMPDEST PUSH2 0x1CF PUSH1 0x4 DUP1 CALLDATASIZE SUB DUP2 ADD SWAP1 PUSH2 0x1CA SWAP2 SWAP1 PUSH2 0x355 JUMP JUMPDEST PUSH2 0x2A1 JUMP JUMPDEST PUSH1 0x40 MLOAD PUSH2 0x1DC SWAP2 SWAP1 PUSH2 0x33C JUMP JUMPDEST PUSH1 0x40 MLOAD DUP1 SWAP2 SUB SWAP1 RETURN JUMPDEST PUSH2 0x1FF PUSH1 0x4 DUP1 CALLDATASIZE SUB DUP2 ADD SWAP1 PUSH2 0x1FA SWAP2 SWAP1 PUSH2 0x355 JUMP JUMPDEST PUSH2 0x2B6 JUMP JUMPDEST PUSH1 0x40 MLOAD PUSH2 0x20C SWAP2 SWAP1 PUSH2 0x33C JUMP JUMPDEST PUSH1 0x40 MLOAD DUP1 SWAP2 SUB SWAP1 RETURN JUMPDEST PUSH0 DUP1 DUP3 SLT ISZERO PUSH2 0x22F JUMPI DUP2 PUSH2 0x228 SWAP1 PUSH2 0x459 JUMP JUMPDEST SWAP1 POP PUSH2 0x233 JUMP JUMPDEST DUP2 SWAP1 POP JUMPDEST SWAP2 SWAP1 POP JUMP JUMPDEST PUSH0 DUP2 DUP4 PUSH2 0x245 SWAP2 SWAP1 PUSH2 0x4CC JUMP JUMPDEST SWAP1 POP SWAP3 SWAP2 POP POP JUMP JUMPDEST PUSH0 DUP2 DUP4 PUSH2 0x25A SWAP2 SWAP1 PUSH2 0x4FC JUMP JUMPDEST SWAP1 POP SWAP3 SWAP2 POP POP JUMP JUMPDEST PUSH0 DUP2 DUP4 PUSH2 0x26F SWAP2 SWAP1 PUSH2 0x6A1 JUMP JUMPDEST SWAP1 POP SWAP3 SWAP2 POP POP JUMP JUMPDEST PUSH0 PUSH1 0x1 DUP3 PUSH2 0x285 SWAP2 SWAP1 PUSH2 0x7DF JUMP JUMPDEST SWAP1 POP SWAP2 SWAP1 POP JUMP JUMPDEST PUSH0 DUP2 DUP4 PUSH2 0x299 SWAP2 SWAP1 PUSH2 0x84A JUMP JUMPDEST SWAP1 POP SWAP3 SWAP2 POP POP JUMP JUMPDEST PUSH0 DUP2 DUP4 PUSH2 0x2AE SWAP2 SWAP1 PUSH2 0x88B JUMP JUMPDEST SWAP1 POP SWAP3 SWAP2 POP POP JUMP JUMPDEST PUSH0 DUP2 DUP4 PUSH2 0x2C3 SWAP2 SWAP1 PUSH2 0x8CB JUMP JUMPDEST SWAP1 POP SWAP3 SWAP2 POP POP JUMP JUMPDEST PUSH0 DUP1 REVERT JUMPDEST PUSH0 DUP2 SWAP1 POP SWAP2 SWAP1 POP JUMP JUMPDEST PUSH2 0x2E1 DUP2 PUSH2 0x2CF JUMP JUMPDEST DUP2 EQ PUSH2 0x2EB JUMPI PUSH0 DUP1 REVERT JUMPDEST POP JUMP JUMPDEST PUSH0 DUP2 CALLDATALOAD SWAP1 POP PUSH2 0x2FC DUP2 PUSH2 0x2D8 JUMP JUMPDEST SWAP3 SWAP2 POP POP JUMP JUMPDEST PUSH0 PUSH1 0x20 DUP3 DUP5 SUB SLT ISZERO PUSH2 0x317 JUMPI PUSH2 0x316 PUSH2 0x2CB JUMP JUMPDEST JUMPDEST PUSH0 PUSH2 0x324 DUP5 DUP3 DUP6 ADD PUSH2 0x2EE JUMP JUMPDEST SWAP2 POP POP SWAP3 SWAP2 POP POP JUMP JUMPDEST PUSH2 0x336 DUP2 PUSH2 0x2CF JUMP JUMPDEST DUP3 MSTORE POP POP JUMP JUMPDEST PUSH0 PUSH1 0x20 DUP3 ADD SWAP1 POP PUSH2 0x34F PUSH0 DUP4 ADD DUP5 PUSH2 0x32D JUMP JUMPDEST SWAP3 SWAP2 POP POP JUMP JUMPDEST PUSH0 DUP1 PUSH1 0x40 DUP4 DUP6 SUB SLT ISZERO PUSH2 0x36B JUMPI PUSH2 0x36A PUSH2 0x2CB JUMP JUMPDEST JUMPDEST PUSH0 PUSH2 0x378 DUP6 DUP3 DUP7 ADD PUSH2 0x2EE JUMP JUMPDEST SWAP3 POP POP PUSH1 0x20 PUSH2 0x389 DUP6 DUP3 DUP7 ADD PUSH2 0x2EE JUMP JUMPDEST SWAP2 POP POP SWAP3 POP SWAP3 SWAP1 POP JUMP JUMPDEST PUSH0 DUP2 SWAP1 POP SWAP2 SWAP1 POP JUMP JUMPDEST PUSH2 0x3A5 DUP2 PUSH2 0x393 JUMP JUMPDEST DUP2 EQ PUSH2 0x3AF JUMPI PUSH0 DUP1 REVERT JUMPDEST POP JUMP JUMPDEST PUSH0 DUP2 CALLDATALOAD SWAP1 POP PUSH2 0x3C0 DUP2 PUSH2 0x39C JUMP JUMPDEST SWAP3 SWAP2 POP POP JUMP JUMPDEST PUSH0 DUP1 PUSH1 0x40 DUP4 DUP6 SUB SLT ISZERO PUSH2 0x3DC JUMPI PUSH2 0x3DB PUSH2 0x2CB JUMP JUMPDEST JUMPDEST PUSH0 PUSH2 0x3E9 DUP6 DUP3 DUP7 ADD PUSH2 0x3B2 JUMP JUMPDEST SWAP3 POP POP PUSH1 0x20 PUSH2 0x3FA DUP6 DUP3 DUP7 ADD PUSH2 0x3B2 JUMP JUMPDEST SWAP2 POP POP SWAP3 POP SWAP3 SWAP1 POP JUMP JUMPDEST PUSH2 0x40D DUP2 PUSH2 0x393 JUMP JUMPDEST DUP3 MSTORE POP POP JUMP JUMPDEST PUSH0 PUSH1 0x20 DUP3 ADD SWAP1 POP PUSH2 0x426 PUSH0 DUP4 ADD DUP5 PUSH2 0x404 JUMP JUMPDEST SWAP3 SWAP2 POP POP JUMP JUMPDEST PUSH32 0x4E487B7100000000000000000000000000000000000000000000000000000000 PUSH0 MSTORE PUSH1 0x11 PUSH1 0x4 MSTORE PUSH1 0x24 PUSH0 REVERT JUMPDEST PUSH0 PUSH2 0x463 DUP3 PUSH2 0x2CF JUMP JUMPDEST SWAP2 POP PUSH32 0x8000000000000000000000000000000000000000000000000000000000000000 DUP3 SUB PUSH2 0x495 JUMPI PUSH2 0x494 PUSH2 0x42C JUMP JUMPDEST JUMPDEST DUP2 PUSH0 SUB SWAP1 POP SWAP2 SWAP1 POP JUMP JUMPDEST PUSH32 0x4E487B7100000000000000000000000000000000000000000000000000000000 PUSH0 MSTORE PUSH1 0x12 PUSH1 0x4 MSTORE PUSH1 0x24 PUSH0 REVERT JUMPDEST PUSH0 PUSH2 0x4D6 DUP3 PUSH2 0x2CF JUMP JUMPDEST SWAP2 POP PUSH2 0x4E1 DUP4 PUSH2 0x2CF JUMP JUMPDEST SWAP3 POP DUP3 PUSH2 0x4F1 JUMPI PUSH2 0x4F0 PUSH2 0x49F JUMP JUMPDEST JUMPDEST DUP3 DUP3 SMOD SWAP1 POP SWAP3 SWAP2 POP POP JUMP JUMPDEST PUSH0 PUSH2 0x506 DUP3 PUSH2 0x2CF JUMP JUMPDEST SWAP2 POP PUSH2 0x511 DUP4 PUSH2 0x2CF JUMP JUMPDEST SWAP3 POP DUP3 DUP3 MUL PUSH2 0x51F DUP2 PUSH2 0x2CF JUMP JUMPDEST SWAP2 POP PUSH32 0x8000000000000000000000000000000000000000000000000000000000000000 DUP5 EQ PUSH0 DUP5 SLT AND ISZERO PUSH2 0x556 JUMPI PUSH2 0x555 PUSH2 0x42C JUMP JUMPDEST JUMPDEST DUP3 DUP3 SDIV DUP5 EQ DUP4 ISZERO OR PUSH2 0x56B JUMPI PUSH2 0x56A PUSH2 0x42C JUMP JUMPDEST JUMPDEST POP SWAP3 SWAP2 POP POP JUMP JUMPDEST PUSH0 DUP2 PUSH1 0x1 SHR SWAP1 POP SWAP2 SWAP1 POP JUMP JUMPDEST PUSH0 DUP1 DUP3 SWAP2 POP DUP4 SWAP1 POP JUMPDEST PUSH1 0x1 DUP6 GT ISZERO PUSH2 0x5C7 JUMPI DUP1 DUP7 DIV DUP2 GT ISZERO PUSH2 0x5A3 JUMPI PUSH2 0x5A2 PUSH2 0x42C JUMP JUMPDEST JUMPDEST PUSH1 0x1 DUP6 AND ISZERO PUSH2 0x5B2 JUMPI DUP1 DUP3 MUL SWAP2 POP JUMPDEST DUP1 DUP2 MUL SWAP1 POP PUSH2 0x5C0 DUP6 PUSH2 0x572 JUMP JUMPDEST SWAP5 POP PUSH2 0x587 JUMP JUMPDEST SWAP5 POP SWAP5 SWAP3 POP POP POP JUMP JUMPDEST PUSH0 DUP3 PUSH2 0x5DF JUMPI PUSH1 0x1 SWAP1 POP PUSH2 0x69A JUMP JUMPDEST DUP2 PUSH2 0x5EC JUMPI PUSH0 SWAP1 POP PUSH2 0x69A JUMP JUMPDEST DUP2 PUSH1 0x1 DUP2 EQ PUSH2 0x602 JUMPI PUSH1 0x2 DUP2 EQ PUSH2 0x60C JUMPI PUSH2 0x63B JUMP JUMPDEST PUSH1 0x1 SWAP2 POP POP PUSH2 0x69A JUMP JUMPDEST PUSH1 0xFF DUP5 GT ISZERO PUSH2 0x61E JUMPI PUSH2 0x61D PUSH2 0x42C JUMP JUMPDEST JUMPDEST DUP4 PUSH1 0x2 EXP SWAP2 POP DUP5 DUP3 GT ISZERO PUSH2 0x635 JUMPI PUSH2 0x634 PUSH2 0x42C JUMP JUMPDEST JUMPDEST POP PUSH2 0x69A JUMP JUMPDEST POP PUSH1 0x20 DUP4 LT PUSH2 0x133 DUP4 LT AND PUSH1 0x4E DUP5 LT PUSH1 0xB DUP5 LT AND OR ISZERO PUSH2 0x670 JUMPI DUP3 DUP3 EXP SWAP1 POP DUP4 DUP2 GT ISZERO PUSH2 0x66B JUMPI PUSH2 0x66A PUSH2 0x42C JUMP JUMPDEST JUMPDEST PUSH2 0x69A JUMP JUMPDEST PUSH2 0x67D DUP5 DUP5 DUP5 PUSH1 0x1 PUSH2 0x57E JUMP JUMPDEST SWAP3 POP SWAP1 POP DUP2 DUP5 DIV DUP2 GT ISZERO PUSH2 0x694 JUMPI PUSH2 0x693 PUSH2 0x42C JUMP JUMPDEST JUMPDEST DUP2 DUP2 MUL SWAP1 POP JUMPDEST SWAP4 SWAP3 POP POP POP JUMP JUMPDEST PUSH0 PUSH2 0x6AB DUP3 PUSH2 0x393 JUMP JUMPDEST SWAP2 POP PUSH2 0x6B6 DUP4 PUSH2 0x393 JUMP JUMPDEST SWAP3 POP PUSH2 0x6E3 PUSH32 0xFFFFFFFFFFFFFFFFFFFFFFFFFFFFFFFFFFFFFFFFFFFFFFFFFFFFFFFFFFFFFFFF DUP5 DUP5 PUSH2 0x5D0 JUMP JUMPDEST SWAP1 POP SWAP3 SWAP2 POP POP JUMP JUMPDEST PUSH0 DUP3 PUSH0 DUP2 EQ PUSH2 0x701 JUMPI PUSH1 0x1 DUP2 EQ PUSH2 0x70B JUMPI PUSH2 0x714 JUMP JUMPDEST PUSH1 0x1 SWAP2 POP POP PUSH2 0x7CB JUMP JUMPDEST DUP3 SWAP2 POP POP PUSH2 0x7CB JUMP JUMPDEST POP DUP2 PUSH2 0x722 JUMPI PUSH0 SWAP1 POP PUSH2 0x7CB JUMP JUMPDEST PUSH1 0x1 SWAP1 POP PUSH0 DUP3 SGT PUSH1 0x1 DUP2 EQ PUSH2 0x73D JUMPI PUSH0 DUP2 EQ PUSH2 0x755 JUMPI PUSH2 0x769 JUMP JUMPDEST DUP3 DUP7 DIV DUP4 GT ISZERO PUSH2 0x750 JUMPI PUSH2 0x74F PUSH2 0x42C JUMP JUMPDEST JUMPDEST PUSH2 0x769 JUMP JUMPDEST DUP3 DUP7 SDIV DUP4 SLT ISZERO PUSH2 0x768 JUMPI PUSH2 0x767 PUSH2 0x42C JUMP JUMPDEST JUMPDEST JUMPDEST POP PUSH1 0x1 DUP4 AND ISZERO PUSH2 0x777 JUMPI DUP2 SWAP1 POP JUMPDEST DUP2 DUP3 MUL SWAP2 POP PUSH2 0x785 DUP4 PUSH2 0x572 JUMP JUMPDEST SWAP3 POP PUSH2 0x793 DUP6 DUP5 DUP5 DUP5 PUSH2 0x57E JUMP JUMPDEST SWAP3 POP SWAP1 POP DUP2 DUP6 DIV DUP2 GT PUSH0 DUP3 SGT AND ISZERO PUSH2 0x7AE JUMPI PUSH2 0x7AD PUSH2 0x42C JUMP JUMPDEST JUMPDEST DUP2 DUP5 SDIV DUP2 SLT PUSH0 DUP3 SLT AND ISZERO PUSH2 0x7C5 JUMPI PUSH2 0x7C4 PUSH2 0x42C JUMP JUMPDEST JUMPDEST DUP2 DUP2 MUL SWAP1 POP JUMPDEST SWAP5 SWAP4 POP POP POP POP JUMP JUMPDEST PUSH0 PUSH1 0xFF DUP3 AND SWAP1 POP SWAP2 SWAP1 POP JUMP JUMPDEST PUSH0 PUSH2 0x7E9 DUP3 PUSH2 0x2CF JUMP JUMPDEST SWAP2 POP PUSH2 0x7F4 DUP4 PUSH2 0x7D3 JUMP JUMPDEST SWAP3 POP PUSH2 0x842 PUSH32 0x7FFFFFFFFFFFFFFFFFFFFFFFFFFFFFFFFFFFFFFFFFFFFFFFFFFFFFFFFFFFFFFF PUSH32 0x8000000000000000000000000000000000000000000000000000000000000000 DUP6 DUP6 PUSH2 0x6EB JUMP JUMPDEST SWAP1 POP SWAP3 SWAP2 POP POP JUMP JUMPDEST PUSH0 PUSH2 0x854 DUP3 PUSH2 0x2CF JUMP JUMPDEST SWAP2 POP PUSH2 0x85F DUP4 PUSH2 0x2CF JUMP JUMPDEST SWAP3 POP DUP3 DUP3 ADD SWAP1 POP DUP3 DUP2 SLT ISZERO PUSH0 DUP4 SLT AND DUP4 DUP3 SLT PUSH0 DUP5 SLT ISZERO AND OR ISZERO PUSH2 0x885 JUMPI PUSH2 0x884 PUSH2 0x42C JUMP JUMPDEST JUMPDEST SWAP3 SWAP2 POP POP JUMP JUMPDEST PUSH0 PUSH2 0x895 DUP3 PUSH2 0x2CF JUMP JUMPDEST SWAP2 POP PUSH2 0x8A0 DUP4 PUSH2 0x2CF JUMP JUMPDEST SWAP3 POP DUP3 DUP3 SUB SWAP1 POP DUP2 DUP2 SLT PUSH0 DUP5 SLT AND DUP3 DUP3 SGT PUSH0 DUP6 SLT ISZERO AND OR ISZERO PUSH2 0x8C5 JUMPI PUSH2 0x8C4 PUSH2 0x42C JUMP JUMPDEST JUMPDEST SWAP3 SWAP2 POP POP JUMP JUMPDEST PUSH0 PUSH2 0x8D5 DUP3 PUSH2 0x2CF JUMP JUMPDEST SWAP2 POP PUSH2 0x8E0 DUP4 PUSH2 0x2CF JUMP JUMPDEST SWAP3 POP DUP3 PUSH2 0x8F0 JUMPI PUSH2 0x8EF PUSH2 0x49F JUMP JUMPDEST JUMPDEST PUSH1 0x1 PUSH0 SUB DUP4 EQ PUSH32 0x8000000000000000000000000000000000000000000000000000000000000000 DUP4 EQ AND ISZERO PUSH2 0x928 JUMPI PUSH2 0x927 PUSH2 0x42C JUMP JUMPDEST JUMPDEST DUP3 DUP3 SDIV SWAP1 POP SWAP3 SWAP2 POP POP JUMP INVALID LOG2 PUSH5 0x6970667358 0x22 SLT KECCAK256 BLOCKHASH 0xDC REVERT RETURNDATASIZE CREATE PUSH14 0xA4ED3FFC1622CA33C0DB5F4EC658 LOG1 0x4D CALLDATALOAD 0xCA 0xF 0xEB PUSH23 0xD0B917E36464736F6C634300081A003300000000000000 "
				},
				"gasEstimates": {
					"creation": {
						"codeDepositCost": "481800",
						"executionCost": "541",
						"totalCost": "482341"
					},
					"external": {
						"abs(int256)": "infinite",
						"add(int256,int256)": "infinite",
						"divide(int256,int256)": "infinite",
						"expo(uint256,uint256)": "infinite",
						"mod(int256,int256)": "infinite",
						"multiply(int256,int256)": "infinite",
						"sqrt(int256)": "infinite",
						"subtract(int256,int256)": "infinite"
					}
				},
				"methodIdentifiers": {
					"abs(int256)": "1b5ac4b5",
					"add(int256,int256)": "a5f3c23b",
					"divide(int256,int256)": "f5984236",
					"expo(uint256,uint256)": "4f4752ba",
					"mod(int256,int256)": "24e28928",
					"multiply(int256,int256)": "3c4308a8",
					"sqrt(int256)": "665df460",
					"subtract(int256,int256)": "b93ea812"
				}
			},
			"storageLayout": {
				"storage": [],
				"types": null
			},
			"userdoc": {
				"kind": "user",
				"methods": {},
				"version": 1
			}
		}
	}
}